{
  "_format": "hh-sol-artifact-1",
  "contractName": "Penduel",
  "sourceName": "contracts/Penduel.sol",
  "abi": [
    {
      "inputs": [
        {
          "internalType": "string",
          "name": "_metadataURI",
          "type": "string"
        }
      ],
      "stateMutability": "nonpayable",
      "type": "constructor"
    },
    {
      "anonymous": false,
      "inputs": [
        {
          "indexed": true,
          "internalType": "address",
          "name": "account",
          "type": "address"
        },
        {
          "indexed": true,
          "internalType": "address",
          "name": "operator",
          "type": "address"
        },
        {
          "indexed": false,
          "internalType": "bool",
          "name": "approved",
          "type": "bool"
        }
      ],
      "name": "ApprovalForAll",
      "type": "event"
    },
    {
      "anonymous": false,
      "inputs": [
        {
          "indexed": false,
          "internalType": "string",
          "name": "battleName",
          "type": "string"
        },
        {
          "indexed": true,
          "internalType": "address",
          "name": "player1",
          "type": "address"
        },
        {
          "indexed": true,
          "internalType": "address",
          "name": "player2",
          "type": "address"
        },
        {
          "indexed": false,
          "internalType": "string",
          "name": "_maskedWord",
          "type": "string"
        }
      ],
      "name": "BattleBegin",
      "type": "event"
    },
    {
      "anonymous": false,
      "inputs": [
        {
          "indexed": false,
          "internalType": "string",
          "name": "battleName",
          "type": "string"
        },
        {
          "indexed": true,
          "internalType": "address",
          "name": "player1",
          "type": "address"
        },
        {
          "indexed": true,
          "internalType": "address",
          "name": "player2",
          "type": "address"
        }
      ],
      "name": "BattleCreate",
      "type": "event"
    },
    {
      "anonymous": false,
      "inputs": [
        {
          "indexed": false,
          "internalType": "string",
          "name": "battleName",
          "type": "string"
        },
        {
          "indexed": true,
          "internalType": "address",
          "name": "winner",
          "type": "address"
        },
        {
          "indexed": true,
          "internalType": "address",
          "name": "loser",
          "type": "address"
        }
      ],
      "name": "BattleEnded",
      "type": "event"
    },
    {
      "anonymous": false,
      "inputs": [
        {
          "indexed": true,
          "internalType": "bool",
          "name": "_findNewLetter",
          "type": "bool"
        },
        {
          "indexed": false,
          "internalType": "string",
          "name": "_maskedWord",
          "type": "string"
        },
        {
          "indexed": false,
          "internalType": "string",
          "name": "_guesses",
          "type": "string"
        }
      ],
      "name": "BattleLetter",
      "type": "event"
    },
    {
      "anonymous": false,
      "inputs": [
        {
          "indexed": true,
          "internalType": "address",
          "name": "owner",
          "type": "address"
        },
        {
          "indexed": false,
          "internalType": "uint256",
          "name": "id",
          "type": "uint256"
        },
        {
          "indexed": false,
          "internalType": "uint256",
          "name": "attackStrength",
          "type": "uint256"
        },
        {
          "indexed": false,
          "internalType": "uint256",
          "name": "defenseStrength",
          "type": "uint256"
        }
      ],
      "name": "NewGameToken",
      "type": "event"
    },
    {
      "anonymous": false,
      "inputs": [
        {
          "indexed": true,
          "internalType": "address",
          "name": "owner",
          "type": "address"
        },
        {
          "indexed": false,
          "internalType": "string",
          "name": "playerName",
          "type": "string"
        }
      ],
      "name": "NewPlayer",
      "type": "event"
    },
    {
      "anonymous": false,
      "inputs": [
        {
          "indexed": true,
          "internalType": "address",
          "name": "previousOwner",
          "type": "address"
        },
        {
          "indexed": true,
          "internalType": "address",
          "name": "newOwner",
          "type": "address"
        }
      ],
      "name": "OwnershipTransferred",
      "type": "event"
    },
    {
      "anonymous": false,
      "inputs": [
        {
          "indexed": false,
          "internalType": "bool",
          "name": "_wordIsFind",
          "type": "bool"
        }
      ],
      "name": "RoundEnded",
      "type": "event"
    },
    {
      "anonymous": false,
      "inputs": [
        {
          "indexed": true,
          "internalType": "address",
          "name": "operator",
          "type": "address"
        },
        {
          "indexed": true,
          "internalType": "address",
          "name": "from",
          "type": "address"
        },
        {
          "indexed": true,
          "internalType": "address",
          "name": "to",
          "type": "address"
        },
        {
          "indexed": false,
          "internalType": "uint256[]",
          "name": "ids",
          "type": "uint256[]"
        },
        {
          "indexed": false,
          "internalType": "uint256[]",
          "name": "values",
          "type": "uint256[]"
        }
      ],
      "name": "TransferBatch",
      "type": "event"
    },
    {
      "anonymous": false,
      "inputs": [
        {
          "indexed": true,
          "internalType": "address",
          "name": "operator",
          "type": "address"
        },
        {
          "indexed": true,
          "internalType": "address",
          "name": "from",
          "type": "address"
        },
        {
          "indexed": true,
          "internalType": "address",
          "name": "to",
          "type": "address"
        },
        {
          "indexed": false,
          "internalType": "uint256",
          "name": "id",
          "type": "uint256"
        },
        {
          "indexed": false,
          "internalType": "uint256",
          "name": "value",
          "type": "uint256"
        }
      ],
      "name": "TransferSingle",
      "type": "event"
    },
    {
      "anonymous": false,
      "inputs": [
        {
          "indexed": false,
          "internalType": "string",
          "name": "value",
          "type": "string"
        },
        {
          "indexed": true,
          "internalType": "uint256",
          "name": "id",
          "type": "uint256"
        }
      ],
      "name": "URI",
      "type": "event"
    },
    {
      "anonymous": false,
      "inputs": [
        {
          "indexed": false,
          "internalType": "string",
          "name": "wordToAdd",
          "type": "string"
        }
      ],
      "name": "WordAdded",
      "type": "event"
    },
    {
      "inputs": [],
      "name": "CELESTION",
      "outputs": [
        {
          "internalType": "uint256",
          "name": "",
          "type": "uint256"
        }
      ],
      "stateMutability": "view",
      "type": "function"
    },
    {
      "inputs": [],
      "name": "DEVIL",
      "outputs": [
        {
          "internalType": "uint256",
          "name": "",
          "type": "uint256"
        }
      ],
      "stateMutability": "view",
      "type": "function"
    },
    {
      "inputs": [],
      "name": "FIREBIRD",
      "outputs": [
        {
          "internalType": "uint256",
          "name": "",
          "type": "uint256"
        }
      ],
      "stateMutability": "view",
      "type": "function"
    },
    {
      "inputs": [],
      "name": "GRIFFIN",
      "outputs": [
        {
          "internalType": "uint256",
          "name": "",
          "type": "uint256"
        }
      ],
      "stateMutability": "view",
      "type": "function"
    },
    {
      "inputs": [],
      "name": "KAMO",
      "outputs": [
        {
          "internalType": "uint256",
          "name": "",
          "type": "uint256"
        }
      ],
      "stateMutability": "view",
      "type": "function"
    },
    {
      "inputs": [],
      "name": "KUKULKAN",
      "outputs": [
        {
          "internalType": "uint256",
          "name": "",
          "type": "uint256"
        }
      ],
      "stateMutability": "view",
      "type": "function"
    },
    {
      "inputs": [],
      "name": "MAX_ATTACK_DEFEND_STRENGTH",
      "outputs": [
        {
          "internalType": "uint256",
          "name": "",
          "type": "uint256"
        }
      ],
      "stateMutability": "view",
      "type": "function"
    },
    {
      "inputs": [
        {
          "internalType": "string",
          "name": "_wordToAdd",
          "type": "string"
        }
      ],
      "name": "addWord",
      "outputs": [],
      "stateMutability": "nonpayable",
      "type": "function"
    },
    {
      "inputs": [
        {
          "internalType": "address",
          "name": "account",
          "type": "address"
        },
        {
          "internalType": "uint256",
          "name": "id",
          "type": "uint256"
        }
      ],
      "name": "balanceOf",
      "outputs": [
        {
          "internalType": "uint256",
          "name": "",
          "type": "uint256"
        }
      ],
      "stateMutability": "view",
      "type": "function"
    },
    {
      "inputs": [
        {
          "internalType": "address[]",
          "name": "accounts",
          "type": "address[]"
        },
        {
          "internalType": "uint256[]",
          "name": "ids",
          "type": "uint256[]"
        }
      ],
      "name": "balanceOfBatch",
      "outputs": [
        {
          "internalType": "uint256[]",
          "name": "",
          "type": "uint256[]"
        }
      ],
      "stateMutability": "view",
      "type": "function"
    },
    {
      "inputs": [],
      "name": "baseURI",
      "outputs": [
        {
          "internalType": "string",
          "name": "",
          "type": "string"
        }
      ],
      "stateMutability": "view",
      "type": "function"
    },
    {
      "inputs": [
        {
          "internalType": "string",
          "name": "",
          "type": "string"
        }
      ],
      "name": "battleIndex",
      "outputs": [
        {
          "internalType": "uint256",
          "name": "",
          "type": "uint256"
        }
      ],
      "stateMutability": "view",
      "type": "function"
    },
    {
      "inputs": [
        {
          "internalType": "uint256",
          "name": "",
          "type": "uint256"
        }
      ],
      "name": "battles",
      "outputs": [
        {
          "internalType": "enum Penduel.BattleStatus",
          "name": "battleStatus",
          "type": "uint8"
        },
        {
          "internalType": "bytes32",
          "name": "battleHash",
          "type": "bytes32"
        },
        {
          "internalType": "string",
          "name": "name",
          "type": "string"
        },
        {
          "internalType": "address",
          "name": "activePlayer",
          "type": "address"
        },
        {
          "internalType": "address",
          "name": "winner",
          "type": "address"
        },
        {
          "internalType": "bytes",
          "name": "maskedWord",
          "type": "bytes"
        },
        {
          "internalType": "string",
          "name": "guesses",
          "type": "string"
        }
      ],
      "stateMutability": "view",
      "type": "function"
    },
    {
      "inputs": [
        {
          "internalType": "bytes1",
          "name": "_letter",
          "type": "bytes1"
        },
        {
          "internalType": "string",
          "name": "_battleName",
          "type": "string"
        }
      ],
      "name": "chosenLetter",
      "outputs": [],
      "stateMutability": "nonpayable",
      "type": "function"
    },
    {
      "inputs": [
        {
          "internalType": "string",
          "name": "_battleName",
          "type": "string"
        }
      ],
      "name": "createBattle",
      "outputs": [],
      "stateMutability": "nonpayable",
      "type": "function"
    },
    {
      "inputs": [
        {
          "internalType": "string",
          "name": "_battleName",
          "type": "string"
        }
      ],
      "name": "createRandomGameToken",
      "outputs": [],
      "stateMutability": "nonpayable",
      "type": "function"
    },
    {
      "inputs": [
        {
          "internalType": "uint256",
          "name": "id",
          "type": "uint256"
        }
      ],
      "name": "exists",
      "outputs": [
        {
          "internalType": "bool",
          "name": "",
          "type": "bool"
        }
      ],
      "stateMutability": "view",
      "type": "function"
    },
    {
      "inputs": [
        {
          "internalType": "uint256",
          "name": "",
          "type": "uint256"
        }
      ],
      "name": "gameTokens",
      "outputs": [
        {
          "internalType": "string",
          "name": "name",
          "type": "string"
        },
        {
          "internalType": "uint256",
          "name": "id",
          "type": "uint256"
        },
        {
          "internalType": "uint256",
          "name": "attackStrength",
          "type": "uint256"
        },
        {
          "internalType": "uint256",
          "name": "defenseStrength",
          "type": "uint256"
        }
      ],
      "stateMutability": "view",
      "type": "function"
    },
    {
      "inputs": [
        {
          "internalType": "string",
          "name": "_battleName",
          "type": "string"
        }
      ],
      "name": "getActivePlayer",
      "outputs": [
        {
          "internalType": "address",
          "name": "",
          "type": "address"
        }
      ],
      "stateMutability": "view",
      "type": "function"
    },
    {
      "inputs": [],
      "name": "getAllBattles",
      "outputs": [
        {
          "components": [
            {
              "internalType": "enum Penduel.BattleStatus",
              "name": "battleStatus",
              "type": "uint8"
            },
            {
              "internalType": "bytes32",
              "name": "battleHash",
              "type": "bytes32"
            },
            {
              "internalType": "string",
              "name": "name",
              "type": "string"
            },
            {
              "internalType": "address[2]",
              "name": "players",
              "type": "address[2]"
            },
            {
              "internalType": "address",
              "name": "activePlayer",
              "type": "address"
            },
            {
              "internalType": "address",
              "name": "winner",
              "type": "address"
            },
            {
              "internalType": "bytes",
              "name": "maskedWord",
              "type": "bytes"
            },
            {
              "internalType": "string",
              "name": "guesses",
              "type": "string"
            }
          ],
          "internalType": "struct Penduel.Battle[]",
          "name": "",
          "type": "tuple[]"
        }
      ],
      "stateMutability": "view",
      "type": "function"
    },
    {
      "inputs": [],
      "name": "getAllPlayerTokens",
      "outputs": [
        {
          "components": [
            {
              "internalType": "string",
              "name": "name",
              "type": "string"
            },
            {
              "internalType": "uint256",
              "name": "id",
              "type": "uint256"
            },
            {
              "internalType": "uint256",
              "name": "attackStrength",
              "type": "uint256"
            },
            {
              "internalType": "uint256",
              "name": "defenseStrength",
              "type": "uint256"
            }
          ],
          "internalType": "struct Penduel.GameToken[]",
          "name": "",
          "type": "tuple[]"
        }
      ],
      "stateMutability": "view",
      "type": "function"
    },
    {
      "inputs": [],
      "name": "getAllPlayers",
      "outputs": [
        {
          "components": [
            {
              "internalType": "address",
              "name": "playerAddress",
              "type": "address"
            },
            {
              "internalType": "string",
              "name": "playerName",
              "type": "string"
            },
            {
              "internalType": "uint256",
              "name": "playerMana",
              "type": "uint256"
            },
            {
              "internalType": "uint256",
              "name": "playerHealth",
              "type": "uint256"
            },
            {
              "internalType": "bool",
              "name": "inBattle",
              "type": "bool"
            }
          ],
          "internalType": "struct Penduel.Player[]",
          "name": "",
          "type": "tuple[]"
        }
      ],
      "stateMutability": "view",
      "type": "function"
    },
    {
      "inputs": [
        {
          "internalType": "string",
          "name": "_battleName",
          "type": "string"
        }
      ],
      "name": "getBattle",
      "outputs": [
        {
          "components": [
            {
              "internalType": "enum Penduel.BattleStatus",
              "name": "battleStatus",
              "type": "uint8"
            },
            {
              "internalType": "bytes32",
              "name": "battleHash",
              "type": "bytes32"
            },
            {
              "internalType": "string",
              "name": "name",
              "type": "string"
            },
            {
              "internalType": "address[2]",
              "name": "players",
              "type": "address[2]"
            },
            {
              "internalType": "address",
              "name": "activePlayer",
              "type": "address"
            },
            {
              "internalType": "address",
              "name": "winner",
              "type": "address"
            },
            {
              "internalType": "bytes",
              "name": "maskedWord",
              "type": "bytes"
            },
            {
              "internalType": "string",
              "name": "guesses",
              "type": "string"
            }
          ],
          "internalType": "struct Penduel.Battle",
          "name": "",
          "type": "tuple"
        }
      ],
      "stateMutability": "view",
      "type": "function"
    },
    {
      "inputs": [
        {
          "internalType": "string",
          "name": "_battleName",
          "type": "string"
        }
      ],
      "name": "getGuesses",
      "outputs": [
        {
          "internalType": "string",
          "name": "_guesses",
          "type": "string"
        }
      ],
      "stateMutability": "view",
      "type": "function"
    },
    {
      "inputs": [
        {
          "internalType": "string",
          "name": "_maskedWord",
          "type": "string"
        }
      ],
      "name": "getHangWord",
      "outputs": [
        {
          "internalType": "bytes",
          "name": "hangWord",
          "type": "bytes"
        }
      ],
      "stateMutability": "nonpayable",
      "type": "function"
    },
    {
      "inputs": [
        {
          "internalType": "string",
          "name": "_battleName",
          "type": "string"
        }
      ],
      "name": "getMaskedWord",
      "outputs": [
        {
          "internalType": "string",
          "name": "",
          "type": "string"
        }
      ],
      "stateMutability": "view",
      "type": "function"
    },
    {
      "inputs": [
        {
          "internalType": "address",
          "name": "_playerAddress",
          "type": "address"
        }
      ],
      "name": "getPlayer",
      "outputs": [
        {
          "components": [
            {
              "internalType": "address",
              "name": "playerAddress",
              "type": "address"
            },
            {
              "internalType": "string",
              "name": "playerName",
              "type": "string"
            },
            {
              "internalType": "uint256",
              "name": "playerMana",
              "type": "uint256"
            },
            {
              "internalType": "uint256",
              "name": "playerHealth",
              "type": "uint256"
            },
            {
              "internalType": "bool",
              "name": "inBattle",
              "type": "bool"
            }
          ],
          "internalType": "struct Penduel.Player",
          "name": "",
          "type": "tuple"
        }
      ],
      "stateMutability": "view",
      "type": "function"
    },
    {
      "inputs": [
        {
          "internalType": "address",
          "name": "_playerTokenAddress",
          "type": "address"
        }
      ],
      "name": "getPlayerToken",
      "outputs": [
        {
          "components": [
            {
              "internalType": "string",
              "name": "name",
              "type": "string"
            },
            {
              "internalType": "uint256",
              "name": "id",
              "type": "uint256"
            },
            {
              "internalType": "uint256",
              "name": "attackStrength",
              "type": "uint256"
            },
            {
              "internalType": "uint256",
              "name": "defenseStrength",
              "type": "uint256"
            }
          ],
          "internalType": "struct Penduel.GameToken",
          "name": "",
          "type": "tuple"
        }
      ],
      "stateMutability": "view",
      "type": "function"
    },
    {
      "inputs": [],
      "name": "getTotalSupply",
      "outputs": [
        {
          "internalType": "uint256",
          "name": "",
          "type": "uint256"
        }
      ],
      "stateMutability": "view",
      "type": "function"
    },
    {
      "inputs": [
        {
          "internalType": "address",
          "name": "account",
          "type": "address"
        },
        {
          "internalType": "address",
          "name": "operator",
          "type": "address"
        }
      ],
      "name": "isApprovedForAll",
      "outputs": [
        {
          "internalType": "bool",
          "name": "",
          "type": "bool"
        }
      ],
      "stateMutability": "view",
      "type": "function"
    },
    {
      "inputs": [
        {
          "internalType": "string",
          "name": "_battleName",
          "type": "string"
        }
      ],
      "name": "isBattle",
      "outputs": [
        {
          "internalType": "bool",
          "name": "",
          "type": "bool"
        }
      ],
      "stateMutability": "view",
      "type": "function"
    },
    {
      "inputs": [
        {
          "internalType": "address",
          "name": "_playerAddress",
          "type": "address"
        }
      ],
      "name": "isPlayer",
      "outputs": [
        {
          "internalType": "bool",
          "name": "",
          "type": "bool"
        }
      ],
      "stateMutability": "view",
      "type": "function"
    },
    {
      "inputs": [
        {
          "internalType": "address",
          "name": "_playerTokenAddress",
          "type": "address"
        }
      ],
      "name": "isPlayerToken",
      "outputs": [
        {
          "internalType": "bool",
          "name": "",
          "type": "bool"
        }
      ],
      "stateMutability": "view",
      "type": "function"
    },
    {
      "inputs": [
        {
          "internalType": "string",
          "name": "_battleName",
          "type": "string"
        }
      ],
      "name": "joinBattle",
      "outputs": [
        {
          "components": [
            {
              "internalType": "enum Penduel.BattleStatus",
              "name": "battleStatus",
              "type": "uint8"
            },
            {
              "internalType": "bytes32",
              "name": "battleHash",
              "type": "bytes32"
            },
            {
              "internalType": "string",
              "name": "name",
              "type": "string"
            },
            {
              "internalType": "address[2]",
              "name": "players",
              "type": "address[2]"
            },
            {
              "internalType": "address",
              "name": "activePlayer",
              "type": "address"
            },
            {
              "internalType": "address",
              "name": "winner",
              "type": "address"
            },
            {
              "internalType": "bytes",
              "name": "maskedWord",
              "type": "bytes"
            },
            {
              "internalType": "string",
              "name": "guesses",
              "type": "string"
            }
          ],
          "internalType": "struct Penduel.Battle",
          "name": "",
          "type": "tuple"
        }
      ],
      "stateMutability": "nonpayable",
      "type": "function"
    },
    {
      "inputs": [],
      "name": "owner",
      "outputs": [
        {
          "internalType": "address",
          "name": "",
          "type": "address"
        }
      ],
      "stateMutability": "view",
      "type": "function"
    },
    {
      "inputs": [
        {
          "internalType": "address",
          "name": "",
          "type": "address"
        }
      ],
      "name": "playerIndex",
      "outputs": [
        {
          "internalType": "uint256",
          "name": "",
          "type": "uint256"
        }
      ],
      "stateMutability": "view",
      "type": "function"
    },
    {
      "inputs": [
        {
          "internalType": "address",
          "name": "",
          "type": "address"
        }
      ],
      "name": "playerTokenIndex",
      "outputs": [
        {
          "internalType": "uint256",
          "name": "",
          "type": "uint256"
        }
      ],
      "stateMutability": "view",
      "type": "function"
    },
    {
      "inputs": [
        {
          "internalType": "uint256",
          "name": "",
          "type": "uint256"
        }
      ],
      "name": "players",
      "outputs": [
        {
          "internalType": "address",
          "name": "playerAddress",
          "type": "address"
        },
        {
          "internalType": "string",
          "name": "playerName",
          "type": "string"
        },
        {
          "internalType": "uint256",
          "name": "playerMana",
          "type": "uint256"
        },
        {
          "internalType": "uint256",
          "name": "playerHealth",
          "type": "uint256"
        },
        {
          "internalType": "bool",
          "name": "inBattle",
          "type": "bool"
        }
      ],
      "stateMutability": "view",
      "type": "function"
    },
    {
      "inputs": [
        {
          "internalType": "string",
          "name": "_battleName",
          "type": "string"
        }
      ],
      "name": "quitBattle",
      "outputs": [],
      "stateMutability": "nonpayable",
      "type": "function"
    },
    {
      "inputs": [
        {
          "internalType": "string",
          "name": "_playerName",
          "type": "string"
        },
        {
          "internalType": "string",
          "name": "_gameTokenName",
          "type": "string"
        }
      ],
      "name": "registerPlayer",
      "outputs": [],
      "stateMutability": "nonpayable",
      "type": "function"
    },
    {
      "inputs": [],
      "name": "renounceOwnership",
      "outputs": [],
      "stateMutability": "nonpayable",
      "type": "function"
    },
    {
      "inputs": [
        {
          "internalType": "address",
          "name": "from",
          "type": "address"
        },
        {
          "internalType": "address",
          "name": "to",
          "type": "address"
        },
        {
          "internalType": "uint256[]",
          "name": "ids",
          "type": "uint256[]"
        },
        {
          "internalType": "uint256[]",
          "name": "amounts",
          "type": "uint256[]"
        },
        {
          "internalType": "bytes",
          "name": "data",
          "type": "bytes"
        }
      ],
      "name": "safeBatchTransferFrom",
      "outputs": [],
      "stateMutability": "nonpayable",
      "type": "function"
    },
    {
      "inputs": [
        {
          "internalType": "address",
          "name": "from",
          "type": "address"
        },
        {
          "internalType": "address",
          "name": "to",
          "type": "address"
        },
        {
          "internalType": "uint256",
          "name": "id",
          "type": "uint256"
        },
        {
          "internalType": "uint256",
          "name": "amount",
          "type": "uint256"
        },
        {
          "internalType": "bytes",
          "name": "data",
          "type": "bytes"
        }
      ],
      "name": "safeTransferFrom",
      "outputs": [],
      "stateMutability": "nonpayable",
      "type": "function"
    },
    {
      "inputs": [
        {
          "internalType": "address",
          "name": "operator",
          "type": "address"
        },
        {
          "internalType": "bool",
          "name": "approved",
          "type": "bool"
        }
      ],
      "name": "setApprovalForAll",
      "outputs": [],
      "stateMutability": "nonpayable",
      "type": "function"
    },
    {
      "inputs": [
        {
          "internalType": "string",
          "name": "newuri",
          "type": "string"
        }
      ],
      "name": "setURI",
      "outputs": [],
      "stateMutability": "nonpayable",
      "type": "function"
    },
    {
      "inputs": [
        {
          "internalType": "bytes4",
          "name": "interfaceId",
          "type": "bytes4"
        }
      ],
      "name": "supportsInterface",
      "outputs": [
        {
          "internalType": "bool",
          "name": "",
          "type": "bool"
        }
      ],
      "stateMutability": "view",
      "type": "function"
    },
    {
      "inputs": [
        {
          "internalType": "uint256",
          "name": "tokenId",
          "type": "uint256"
        }
      ],
      "name": "tokenURI",
      "outputs": [
        {
          "internalType": "string",
          "name": "",
          "type": "string"
        }
      ],
      "stateMutability": "view",
      "type": "function"
    },
    {
      "inputs": [],
      "name": "totalSupply",
      "outputs": [
        {
          "internalType": "uint256",
          "name": "",
          "type": "uint256"
        }
      ],
      "stateMutability": "view",
      "type": "function"
    },
    {
      "inputs": [
        {
          "internalType": "uint256",
          "name": "id",
          "type": "uint256"
        }
      ],
      "name": "totalSupply",
      "outputs": [
        {
          "internalType": "uint256",
          "name": "",
          "type": "uint256"
        }
      ],
      "stateMutability": "view",
      "type": "function"
    },
    {
      "inputs": [
        {
          "internalType": "address",
          "name": "newOwner",
          "type": "address"
        }
      ],
      "name": "transferOwnership",
      "outputs": [],
      "stateMutability": "nonpayable",
      "type": "function"
    },
    {
      "inputs": [
        {
          "internalType": "uint256",
          "name": "",
          "type": "uint256"
        }
      ],
      "name": "uri",
      "outputs": [
        {
          "internalType": "string",
          "name": "",
          "type": "string"
        }
      ],
      "stateMutability": "view",
      "type": "function"
    }
  ],
  "bytecode": "0x60806040523462000fa65762005ccf803803806200001d8162000feb565b92833981019060208183031262000fa6578051906001600160401b03821162000fa6570181601f8201121562000fa6578051906001600160401b038211620009e25762000074601f8301601f191660200162000feb565b928284526020838301011162000fa65760005b82811062000f9057600083850160200152835184906001600160401b038111620009e257620000b860025462001011565b601f811162000f4e575b50806020601f821160011462000ed65760009162000eca575b508160011b916000199060031b1c1916176002555b60038054336001600160a01b0319821681179092556001600160a01b03167f8be0079c531659141344cd1fd0a4f28419497f9722a3daafe3b4186f6b6457e0600080a3600780546001600160a01b0319167311f7ad1df281604f2bd22ba13e334ca4d14d7c281790556040516101c081016001600160401b03811182821017620009e2576040526200018162000fab565b600581526468656c6c6f60d81b602082015281526200019f62000fab565b6007815266676f6f6462796560c81b60208201526020820152620001c262000fab565b600381526239bab760e91b60208201526040820152620001e162000fab565b6008815267686f6c6c6964617960c01b602082015260608201526200020562000fab565b60068152656265666f726560d01b602082015260808201526200022762000fab565b600581526430b33a32b960d91b602082015260a08201526200024862000fab565b600b81526a3932b9ba37b930ba34b7b760a91b602082015260c08201526200026f62000fab565b60078152663330b9b434b7b760c91b602082015260e08201526200029262000fab565b60088152676472657373696e6760c01b6020820152610100820152620002b762000fab565b600e81526d726570726573656e74617469766560901b6020820152610120820152620002e262000fab565b600781526673696c656e636560c81b60208201526101408201526200030662000fab565b600a81526961636365707461626c6560b01b60208201526101608201526200032d62000fab565b600d81526c195b9d9a5c9bdb9b595b9d185b609a1b60208201526101808201526200035762000fab565b600981526870686f746f636f707960b81b60208201526101a0820152600854600e60085580600e1062000e1d575b506008600090815260008051602062005caf833981519152915b600e821062000d2d57835184906001600160401b038111620009e257620003c860055462001011565b601f811162000cea575b506020601f821160011462000c7d57819260009262000c71575b50508160011b916000199060031b1c1916176005555b604051608081016001600160401b03811182821017620009e2576040526200042962000fcb565b600081528152600060208201526000604082015260006060820152600e5468010000000000000000811015620009e2576001810180600e5581101562000b4057600e6000528151805190927fbb7b4a454dc3493923482f07822329ed19e8244eff582cc204f8554c3620c3fd916001600160401b038111620009e257620004c781620004bb8660021b86015462001011565b8660021b860162001067565b6020601f821160011462000bf4579080606093926003969760009262000be8575b50508160011b9160001990871b1c1916178560021b8401555b602081015160018660021b850101556040810151600286811b8501015501519260021b0101556040518060a081011060018060401b0360a083011117620009e25760a08101604052600081526200055762000fcb565b600081526020820152600060408201526000606082015260006080820152600d549068010000000000000000821015620009e2576001820180600d5582101562000b4057600d6000528051600583027fd7b6990105719101dabeb77144f2a3385c8033acd3af97e9423a695e81ad1eb590810180546001600160a01b0319166001600160a01b039390931692909217909155602082015180519093906001600160401b038111620009e2576200062a816200061b6001600586028701015462001011565b60016005860287010162001067565b6020601f821160011462000b62579181600592600495946080979860009262000b56575b50508160011b916000199060031b1c1916176001838302850101555b60408601516002838302850101556060860151600383830285010155020101910151151560ff8019835416911617905560405180604081011060018060401b03604083011117620009e257604081016040526000815260006020820152620006d162000fcb565b60008152604051916001600160401b03610100840190811190841117620009e257610100830160405260008352600060208401526200070f62000fcb565b600081526040840152606083015260006080830152600060a08301526200073562000fcb565b6000815260c083015260e0820152600f549068010000000000000000821015620009e2576001820180600f5582101562000b4057600f60005280517f8d1108e10bcb7c27dddfc02ed9d693a074039d026cf4ea4240b40f7d581ac80290600381101562000b2a57600984028201805460ff191660ff929092169190911781556020830151600190910155604082015180519093906001600160401b038111620009e2576200080081620007f16002600986028701015462001011565b60026009860287010162001067565b6020601f821160011462000aac57819293949560009262000aa0575b50508160011b916000199060031b1c191617600260098302840101555b606083015160005b6002811062000a7a5750506080830151600560098302840190810180546001600160a01b039384166001600160a01b03199182161790915560a08601516006830180549190941691161790915560c08401518051600790920191906001600160401b038211620009e257620008c382620008bc855462001011565b8562001067565b602090601f831160011462000a045792826009936008969360e09896600092620009f8575b50508160011b916000199060031b1c19161790555b02010191015190815160018060401b038111620009e2576200092c8162000925845462001011565b8462001067565b602092601f82116001146200097957928192936000926200096d575b50508160011b916000199060031b1c19161790555b604051614be79081620010a88239f35b01519050838062000948565b601f198216938360005260206000209160005b868110620009c95750836001959610620009af575b505050811b0190556200095d565b015160001960f88460031b161c19169055838080620009a1565b919260206001819286850151815501940192016200098c565b634e487b7160e01b600052604160045260246000fd5b015190508980620008e8565b90601f198316918460005260206000209260005b81811062000a615750936008969360e0989693600193836009981062000a47575b505050811b019055620008fd565b015160001960f88460031b161c1916905589808062000a39565b9293602060018192878601518155019501930162000a18565b81516001600160a01b031660036009850286018301015560209091019060010162000841565b0151905085806200081c565b60026009840285010160005260206000209060005b601f198416811062000b11575060019394959683601f1981161062000af7575b505050811b016002600983028401015562000839565b015160001960f88460031b161c1916905585808062000ae1565b9091602060018192858b01518155019301910162000ac1565b634e487b7160e01b600052602160045260246000fd5b634e487b7160e01b600052603260045260246000fd5b0151905088806200064e565b60016005840285010160005260206000209560005b601f198416811062000bcf575082608096976004969593600193600596601f1981161062000bb5575b505050811b016001838302850101556200066a565b015160001960f88460031b161c1916905588808062000ba0565b8282015188556001909701966020928301920162000b77565b015190508780620004e8565b8460021b840160005260206000209560005b601f198416811062000c58575091600395966001926060959483601f1981161062000c3f575b505050811b018560021b84015562000501565b015160001983891b60f8161c1916905587808062000c2c565b8282015188556001909701966020928301920162000c06565b015190508280620003ec565b600560005260206000209060005b601f198416811062000cd1575060019383601f1981161062000cb7575b505050811b0160055562000402565b015160001960f88460031b161c1916905582808062000ca8565b9091602060018192858801518155019301910162000c8b565b62000d1b9060056000526020600020601f840160051c8101916020851062000d22575b601f0160051c01906200104e565b82620003d2565b909150819062000d0d565b80518051906001600160401b038211620009e25762000d598262000d52875462001011565b8762001067565b602090601f831160011462000da957928260019493602093869560009262000d9d575b5050600019600383901b1c191690841b1786555b019301910190916200039f565b01519050898062000d7c565b908560005260206000209160005b601f198516811062000e0457509260209260019592869583601f1981161062000dea575b505050831b8301865562000d90565b015160001960f88460031b161c1916905588808062000ddb565b9192602060018192868501518155019401920162000db7565b600860005260008051602062005caf833981519152017ff3f7a9fe364faab93b216da50a3214154f22a0a2b415b23a84c8169e8b636ef15b81811062000e64575062000385565b8062000e736001925462001011565b8062000e82575b500162000e55565b601f8111831462000e9a5750600081555b8562000e7a565b62000eba908260005283601f6020600020920160051c820191016200104e565b6000602081208183555562000e93565b905082015183620000db565b6002600090815260008051602062005c8f8339815191529250601f198416905b81811062000f355750908360019493921062000f1b575b5050811b01600255620000f0565b84015160001960f88460031b161c19169055838062000f0d565b9192602060018192868901518155019401920162000ef6565b600260005262000f899060008051602062005c8f833981519152601f840160051c8101916020851062000d2257601f0160051c01906200104e565b82620000c2565b8060208092840101518282870101520162000087565b600080fd5b60408051919082016001600160401b03811183821017620009e257604052565b60405190602082016001600160401b03811183821017620009e257604052565b6040519190601f01601f191682016001600160401b03811183821017620009e257604052565b90600182811c9216801562001043575b60208310146200102d57565b634e487b7160e01b600052602260045260246000fd5b91607f169162001021565b8181106200105a575050565b600081556001016200104e565b9190601f81116200107757505050565b620010a5926000526020600020906020601f840160051c8301931062000d2257601f0160051c01906200104e565b56fe60806040526004361015610013575b600080fd5b60003560e01c8062fdd58e14610405578063015a3792146103fc57806301ffc9a7146103f357806302fe5305146103ea5780630677aa4e146103e1578063083c0e8e146103d857806309c95e10146103cf5780630daea2cd146103c65780630e89341c146103bd57806310898e4c146103b45780631107ae3d146103ab57806316801d17146103a257806318160ddd146102af5780632ca04522146103995780632d5fbd96146103905780632eb2c2d614610387578063331dcd311461037e5780634974da81146103755780634e1273f41461036c5780634f558e7914610363578063548fb9991461035a5780635c12cd4b146103515780635c93fc3d14610348578063606d2e961461033f5780636c0360eb14610336578063703730a51461032d578063715018a614610324578063845f433b1461031b578063885c7d36146103125780638da5cb5b14610309578063996d7bea146103005780639e4ecd11146102f75780639ec40aa3146102ee578063a1b4f57c146102e5578063a22cb465146102dc578063b1309f06146102d3578063bd85b039146102ca578063bf034b69146102c1578063bf103a4d146102b8578063c4e41b22146102af578063c87b56dd146102a6578063cb2da2c91461029d578063d2198cc514610294578063d8b322641461028b578063de96cefc14610282578063e985e9c514610279578063efa1c48214610270578063f1da733914610267578063f242432a1461025e578063f2fde38b146102555763f71d96cb1461024d57600080fd5b61000e6127d4565b5061000e6126aa565b5061000e61246c565b5061000e61244f565b5061000e612366565b5061000e612308565b5061000e6122eb565b5061000e61229a565b5061000e61227d565b5061000e6121d1565b5061000e6120f9565b5061000e610c75565b5061000e6120d5565b5061000e61205e565b5061000e612004565b5061000e611fc9565b5061000e611e8f565b5061000e611c2e565b5061000e611c17565b5061000e611bfa565b5061000e611b51565b5061000e611b27565b5061000e611aec565b5061000e6119d4565b5061000e611975565b5061000e611958565b5061000e61188b565b5061000e6117de565b5061000e611564565b5061000e61152b565b5061000e6114ba565b5061000e61148b565b5061000e6113d1565b5061000e611332565b5061000e61102d565b5061000e610e71565b5061000e610dbf565b5061000e610c94565b5061000e610c47565b5061000e610b30565b5061000e610a88565b5061000e6109b8565b5061000e61098a565b5061000e61095c565b5061000e610921565b5061000e6108ed565b5061000e6107e4565b5061000e6105f8565b5061000e6104fa565b5061000e61044e565b600435906001600160a01b038216820361000e57565b602435906001600160a01b038216820361000e57565b35906001600160a01b038216820361000e57565b503461000e57604036600319011261000e57602061047661046d61040e565b6024359061411a565b604051908152f35b60005b8381106104915750506000910152565b8181015183820152602001610481565b906020916104ba8151809281855285808601910161047e565b601f01601f1916010190565b906060806104dd84516080855260808501906104a1565b936020810151602085015260408101516040850152015191015290565b503461000e576000806003193601126105e357600e5461051981610ded565b9061052760405192836106dc565b808252600e835260209283830191817fbb7b4a454dc3493923482f07822329ed19e8244eff582cc204f8554c3620c3fd845b8383106105be5750505050604051928484019085855251809152604084019460408260051b8601019392955b8287106105925785850386f35b9091929382806105ae600193603f198a820301865288516104c6565b9601920196019592919092610585565b6004886001926105d1859b9a989b6129a7565b81520192019201919096939596610559565b80fd5b6001600160e01b031981160361000e57565b503461000e57602036600319011261000e576020600435610618816105e6565b63ffffffff60e01b16636cdb3d1360e11b8114908115610656575b8115610645575b506040519015158152f35b6301ffc9a760e01b1490503861063a565b6303a24d0760e21b81149150610633565b50634e487b7160e01b600052604160045260246000fd5b60a081019081106001600160401b0382111761069957604052565b6106a1610667565b604052565b608081019081106001600160401b0382111761069957604052565b604081019081106001600160401b0382111761069957604052565b90601f801991011681019081106001600160401b0382111761069957604052565b6040519061010082018281106001600160401b0382111761069957604052565b6040519061072a8261067e565b565b6040519061072a826106a6565b6040519061072a826106c1565b6020906001600160401b038111610763575b601f01601f19160190565b61076b610667565b610758565b81601f8201121561000e5780359061078782610746565b9261079560405194856106dc565b8284526020838301011161000e57816000926020809301838601378301015290565b602060031982011261000e57600435906001600160401b03821161000e576107e191600401610770565b90565b503461000e576107f3366107b7565b6107fb6140c2565b80516001600160401b0381116108e0575b6108208161081b600254611691565b612bc7565b602080601f831160011461085d57508192600092610852575b5050600019600383901b1c191660019190911b17600255005b015190503880610839565b6002600052601f198316939091907f405787fa12a823e0f2b7631cc41b3ba8828b3321ca811111fa75cd3aa3bb5ace926000905b8682106108c857505083600195106108af575b505050811b01600255005b015160001960f88460031b161c191690553880806108a4565b80600185968294968601518155019501930190610891565b6108e8610667565b61080c565b503461000e57600036600319011261000e57602060405160038152f35b9060018060a01b0316600052602052604060002090565b503461000e57602036600319011261000e576001600160a01b0361094361040e565b16600052600b6020526020604060002054604051908152f35b503461000e57602036600319011261000e57602061098061097b61040e565b612846565b6040519015158152f35b503461000e57600036600319011261000e576020604051600a8152f35b9060206107e19281815201906104a1565b503461000e5760208060031936011261000e576040516000916002546109dd81611691565b80845290600190818116908115610a575750600114610a17575b610a1384610a07818803826106dc565b604051918291826109a7565b0390f35b919350600260005283600020916000925b828410610a445750505081610a1393610a0792820101936109f7565b8054858501870152928501928101610a28565b60ff1916858501525050151560051b8201019150610a0781610a136109f7565b9060206107e19281815201906104c6565b503461000e57602036600319011261000e57610aa261040e565b610aaa612982565b50610ab481612961565b15610aef5760018060a01b0316600052600b602052610a13610ae3610add604060002054612031565b506129a7565b60405191829182610a77565b60405162461bcd60e51b815260206004820152601960248201527847616d6520746f6b656e20646f65736e27742065786973742160381b6044820152606490fd5b503461000e576020610980610b44366107b7565b6129e8565b60031115610b5357565b634e487b7160e01b600052602160045260246000fd5b906003821015610b535752565b919091610b84838251610b69565b6020928382015184820152610ba860408301516101208060408501528301906104a1565b6060838101519560009184015b60028310610c175750505060808301516001600160a01b031660a08301529293506107e19260e090610c059060a08501516001600160a01b031660c085015260c0850151848203848601526104a1565b920151906101008184039101526104a1565b87516001600160a01b0316815296810196600192909201918101610bb5565b9060206107e1928181520190610b76565b503461000e57610a13610c61610c5c366107b7565b612b8a565b604051918291602083526020830190610b76565b503461000e57600036600319011261000e576020600654604051908152f35b503461000e57610ca3366107b7565b610cb4610caf33612846565b612e6b565b610ccc610cc7610cc3836129e8565b1590565b6131fb565b6040516020810190610cf081610ce285856109a7565b03601f1981018352826106dc565b51902090610d67610cff610739565b3381529260006020850152610d12613154565b92610d1b613154565b610d236106fd565b600081526020810193909352604083018281526060840196875233608085015294600060a085015260c084015260e0830152610d61600f5491611fa3565b5561329c565b5190516001600160a01b0390610d88906020015b516001600160a01b031690565b16907f5da93d412071ca49c5b3543268fc9249b407b8de53c1589d76d6532f0a5b7df860405180610dba3394826109a7565b0390a3005b503461000e57610a13610dd9610dd4366107b7565b612baf565b6040519182916020835260208301906104a1565b6020906001600160401b038111610e06575b60051b0190565b610e0e610667565b610dff565b81601f8201121561000e57803591610e2a83610ded565b92610e3860405194856106dc565b808452602092838086019260051b82010192831161000e578301905b828210610e62575050505090565b81358152908301908301610e54565b503461000e5760a036600319011261000e57610e8b61040e565b610e93610424565b906001600160401b039060443582811161000e57610eb5903690600401610e13565b9160643581811161000e57610ece903690600401610e13565b9060843590811161000e57610ee7903690600401610770565b6001600160a01b03838116949190338614801561100a575b610f08906142b5565b610f1583518551146143ec565b8616610f22811515614318565b610f2e84848988614a44565b60005b8351811015610fc45780610f48610fbf92866141d8565b51610fb8610fb08b61090a610f5d868c6141d8565b51948c610f9f87610f7c8361090a866000526000602052604060002090565b54610f8982821015614372565b039161090a846000526000602052604060002090565b556000526000602052604060002090565b9182546143df565b90556131a4565b610f31565b5093869194611008966040517f4a39dc06d4c0dbc64b70af90fd698a233a518aa5d07e595d983b8c0526c8f7fb339180610fff8a8a83614449565b0390a433614956565b005b50600086815260016020908152604080832033845290915290205460ff16610eff565b503461000e57604036600319011261000e576004356001600160f81b03198116810361000e576024356001600160401b03811161000e57611072903690600401610770565b906111917f09baee9270c15e7b92d832a35366ae2961b3ef81962655f5885d945b290a3c086110a084612b8a565b926110c0600185516110b181610b49565b6110ba81610b49565b146137e2565b6110e0600285516110d081610b49565b6110d981610b49565b141561385e565b606084018051805191956001600160a01b03936111b693919261119f926111179190879081163314918215611319575b50506138b9565b61114c611145611139608061112b8d612b8a565b01516001600160a01b031690565b6001600160a01b031690565b3314613905565b60c0830197611165828a5161115f6135b2565b90613f92565b909952881595866111e5575b50506040516001600160f81b031990911660208201529586906021820190565b03601f1981018752866106dc565b6111ae60e08201958651613979565b8552866136ed565b6111bf85612baf565b9251906111d36040519283921595836136c8565b0390a26111dc57005b611008906139f6565b8151516112bc929061122c9061120990610d7b90611223906001600160a01b031683565b6001600160a01b03166000908152600a6020526040902090565b54935160200190565b546112378183614b59565b6112516112438361276e565b50546001600160a01b031690565b60808801805190949190829061126f906001600160a01b0316611139565b9116036112c3575050600361129e828261128b6112a69561276e565b50016112978154613074565b905561276e565b500154614ac1565b6112af8b6139ba565b6001600160a01b03169052565b3880611171565b9091506112d26112438361276e565b83519091906112e9906001600160a01b0316611139565b91160361130857600361129e828261128b6113039561276e565b6112a6565b50611303611314613947565b614b26565b60200151166001600160a01b0316905033148638611110565b503461000e577fa8a13d5362cedeaaf8906a83b0afcab2c07c8bdac8a04ed19d273c4307f260bd611387611365366107b7565b61136d6140c2565b61137e61137982613efc565b613e35565b610dd981613e91565b0390a1005b90815180825260208080930193019160005b8281106113ac575050505090565b83518552938101939281019260010161139e565b9060206107e192818152019061138c565b503461000e57604036600319011261000e576004356001600160401b0380821161000e573660238301121561000e57816004013561140e81610ded565b9261141c60405194856106dc565b81845260209160248386019160051b8301019136831161000e57602401905b828210611474578560243586811161000e57610a1391611462611468923690600401610e13565b906141fa565b604051918291826113c0565b8380916114808461043a565b81520191019061143b565b503461000e57602036600319011261000e57600435600052600460205260206040600020541515604051908152f35b503461000e5760206001600160a01b0360806114d8610c5c366107b7565b015116604051908152f35b9060018060a01b03825116815260808061150c602085015160a0602086015260a08501906104a1565b9360408101516040850152606081015160608501520151151591015290565b503461000e57602036600319011261000e57610a1361155061154b61040e565b6128c4565b6040519182916020835260208301906114e3565b503461000e576000806003193601126105e357600f5461158381610ded565b9061159160405192836106dc565b808252600f835260209283830191817f8d1108e10bcb7c27dddfc02ed9d693a074039d026cf4ea4240b40f7d581ac802845b8383106116285750505050604051928484019085855251809152604084019460408260051b8601019392955b8287106115fc5785850386f35b909192938280611618600193603f198a82030186528851610b76565b96019201960195929190926115ef565b60098860019261163b859b9a989b612af7565b815201920192019190969395966115c3565b50634e487b7160e01b600052603260045260246000fd5b600f54811015611684575b600f6000526009602060002091020190600090565b61168c61164d565b61166f565b90600182811c921680156116c1575b60208310146116ab57565b634e487b7160e01b600052602260045260246000fd5b91607f16916116a0565b90600092918054916116dc83611691565b91828252600193848116908160001461173e57506001146116fe575b50505050565b90919394506000526020928360002092846000945b83861061172a5750505050010190388080806116f8565b805485870183015294019385908201611713565b9294505050602093945060ff191683830152151560051b010190388080806116f8565b9061072a61177592604051938480926116cb565b03836106dc565b95916107e19795936117ac91611796896117d09895610b69565b602089015260e0604089015260e08801906104a1565b6001600160a01b0391821660608801529216608086015284820360a08601526104a1565b9160c08184039101526104a1565b503461000e57602036600319011261000e57600435600f5481101561000e5761180690611664565b5060ff815416610a136001830154926040519061182a8261177581600285016116cb565b60018060a01b038060058301541690600683015416906118676008604051946118618661185a81600785016116cb565b03876106dc565b01611761565b936040519788978861177c565b50634e487b7160e01b600052600060045260246000fd5b503461000e576000806003193601126105e357604051816005546118ae81611691565b8084529060019081811690811561193057506001146118d757610a1384610a07818803826106dc565b60058352602094507f036b6384b5eca791c62761152d0c79bb0604c104a5fb6f4eb0703f3154bb3db05b82841061191d5750505081610a1393610a0792820101936109f7565b8054858501870152928501928101611901565b610a139650610a079450602092508593915060ff191682840152151560051b820101936109f7565b503461000e57600036600319011261000e57602060405160028152f35b503461000e576000806003193601126105e3576119906140c2565b600380546001600160a01b0319811690915581906001600160a01b03167f8be0079c531659141344cd1fd0a4f28419497f9722a3daafe3b4186f6b6457e08280a380f35b503461000e57604036600319011261000e576001600160401b0360043581811161000e57611a06903690600401610770565b9060243590811161000e57611a1f903690600401610770565b611a2833612846565b611aab57611a7690600d54611a61611a3e61071d565b338152856020820152600a60408201526006606082015260006080820152612d9f565b336000908152600a6020526040902055612eb7565b7f81ef79d1cda814a60c0fc60792e648a06d9c6bae67176346d1cc8b63030bfccd60405180611aa63394826109a7565b0390a2005b60405162461bcd60e51b8152602060048201526019602482015278141b185e595c88185b1c9958591e481c9959da5cdd195c9959603a1b6044820152606490fd5b503461000e57602036600319011261000e576001600160a01b03611b0e61040e565b16600052600a6020526020604060002054604051908152f35b503461000e57600036600319011261000e576003546040516001600160a01b039091168152602090f35b503461000e57611b8f611b63366107b7565b610c5c81604051611b73816106c1565b600a81526971756974426174746c6560b01b6020820152614b8a565b60608101908151611bb560018060a01b0391828151163314908115611be1575b50613b73565b82515116338103611bd75750611bd2610d7b611008935160200190565b613c19565b6110089250613c19565b6020015133915083166001600160a01b03161438611baf565b503461000e57600036600319011261000e57602060405160058152f35b503461000e57611008611c29366107b7565b612eb7565b503461000e57611c3d366107b7565b611c456129fb565b50611c4f81612b8a565b8051611c5a81610b49565b611c6381610b49565b15611c6d90613383565b606081018051516001600160a01b039190611c8c9083163314156133c9565b611c95336128c4565b60800151611ca3901561341f565b600183528051336020909101528051516001600160a01b03908116608085015260075416611cd085611fa3565b546040516325e41da160e01b8152600481019190915260209390918490839060249082905afa9185831597611d58611d52611d4d7fcb17c4d26368c123b39a5b879cf729cad76aa10dfe5b9cd5355296f2732b860397611db796610a139d611e82575b600091611e55575b506008548b811015611e4d57906130a6565b61347b565b506134a4565b611d68611d636135b2565b61376e565b96611dad611d8d611d7f60c086019a808c5261366d565b516001600160f81b03191690565b6040516001600160f81b0319909116928101928352918290600101610ce2565b60e08301526136ed565b611dc98451611dc46136a2565b614b8a565b825151611dfe90600490611def90611de9906001600160a01b0316611209565b5461276e565b5001805460ff19166001179055565b611e176004611def611de9611209610d7b885160200190565b60408501519251516001600160a01b0316935190611e3e60405192839233971695836136c8565b0390a360405191829182610c36565b508a906130a6565b611e7591508b3d8d11611e7b575b611e6d81836106dc565b81019061345f565b38611d3b565b503d611e63565b611e8a61346e565b611d33565b503461000e57604036600319011261000e57611ea961040e565b602435801515810361000e576001600160a01b03821691338314611f35573360009081526001602090815260408083206001600160a01b03909416835292905220611eff908260ff801983541691151516179055565b604051901515815233907f17307eab39ab6107e8899845ad3d59bd9653f200f220920489ca2b5937696c31908060208101610dba565b60405162461bcd60e51b815260206004820152602960248201527f455243313135353a2073657474696e6720617070726f76616c20737461747573604482015268103337b91039b2b63360b91b6064820152608490fd5b90611f9f6020928281519485920161047e565b0190565b6020611fbc91816040519382858094519384920161047e565b8101600c81520301902090565b503461000e576020611ff181611fde366107b7565b816040519382858094519384920161047e565b8101600c81520301902054604051908152f35b503461000e57602036600319011261000e5760043560005260046020526020604060002054604051908152f35b600e54811015612051575b600e60005260206000209060021b0190600090565b61205961164d565b61203c565b503461000e57602036600319011261000e57600435600e5481101561000e576120896120c191612031565b506040519061209c8261177581846116cb565b60018101549060036002820154910154906040519485946080865260808601906104a1565b926020850152604084015260608301520390f35b503461000e57602036600319011261000e5760206109806120f461040e565b612961565b503461000e5760208060031936011261000e57612117600435613d63565b6040519060009260055461212a81611691565b906001908181169081156121b25750600114612171575b602f60f81b8652610a1385610a0781610ce261216060018c018a611f8c565b64173539b7b760d91b815260050190565b90919450600560005284600020906000915b83831061219f5750505082019092019181610ce2612160612141565b8054868401880152918601918101612183565b60ff191684870152505080151502830101925081610ce2612160612141565b503461000e57610a136121e3366107b7565b6121ef61137982613efc565b6007546040516325e41da160e01b815260006004820152610a079161224c9161224691611d4d9190602090829060249082906001600160a01b03165afa908115612270575b600091612252575b50600854906130a6565b50611761565b91613e91565b61226a915060203d8111611e7b57611e6d81836106dc565b3861223c565b61227861346e565b612234565b503461000e57600036600319011261000e57602060405160008152f35b503461000e57610a136008610dd96122d36122cd6122b7366107b7565b6122c86122c3826129e8565b612a6a565b611fa3565b54611664565b506122e460405180948193016116cb565b03826106dc565b503461000e57600036600319011261000e57602060405160018152f35b503461000e57604036600319011261000e57602060ff61235a61232961040e565b612331610424565b6001600160a01b0391821660009081526001865260408082209290931681526020919091522090565b54166040519015158152f35b503461000e576000806003193601126105e357600d5461238581610ded565b9061239360405192836106dc565b808252600d835260209283830191817fd7b6990105719101dabeb77144f2a3385c8033acd3af97e9423a695e81ad1eb5845b83831061242a5750505050604051928484019085855251809152604084019460408260051b8601019392955b8287106123fe5785850386f35b90919293828061241a600193603f198a820301865288516114e3565b96019201960195929190926123f1565b60058860019261243d859b9a989b61286c565b815201920192019190969395966123c5565b503461000e57600036600319011261000e57602060405160048152f35b503461000e5760a036600319011261000e5761248661040e565b61248e610424565b6064356044356084356001600160401b03811161000e576124b3903690600401610770565b6001600160a01b0385811695919491903387148015612687575b6124d6906142b5565b82168015966124e58815614318565b6124ee856149c2565b976124f8876149c2565b90821561262b575b6125a9575b506110089750856125248461090a886000526000602052604060002090565b5461253182821015614372565b0361254a8461090a886000526000602052604060002090565b556125638461090a876000526000602052604060002090565b61256e8782546143df565b9055604080518681526020810188905233917fc3d58168c5ae7397731d063d5bbf3d657854427343f4c083240f7aacaa2d0f6291a433614830565b959391600097959391975b895181101561261857806125cb612613928c6141d8565b5161260d6125d9838c6141d8565b516125ee836000526004602052604060002090565b546125fb828210156149e7565b03916000526004602052604060002090565b556131a4565b6125b4565b5091939550919395611008975038612505565b9896939095926000989592985b8851811015612677578089610fb8610fb06126618461265a612672978f6141d8565b51946141d8565b516000526004602052604060002090565b612638565b5092959093969897919497612500565b50600087815260016020908152604080832033845290915290205460ff166124cd565b503461000e57602036600319011261000e576126c461040e565b6126cc6140c2565b6001600160a01b0390811690811561271a57600380546001600160a01b031981168417909155167f8be0079c531659141344cd1fd0a4f28419497f9722a3daafe3b4186f6b6457e0600080a3005b60405162461bcd60e51b815260206004820152602660248201527f4f776e61626c653a206e6577206f776e657220697320746865207a65726f206160448201526564647265737360d01b6064820152608490fd5b600d5481101561278e575b600d6000526005602060002091020190600090565b61279661164d565b612779565b93906080939695926127c29160018060a01b0316865260a0602087015260a08601906104a1565b95604085015260608401521515910152565b503461000e57602036600319011261000e57600435600d5481101561000e576127fc9061276e565b5060018060a01b03815416610a13604051926128268461281f81600185016116cb565b03856106dc565b60028101549060ff6004600383015492015416916040519586958661279b565b6001600160a01b03166000908152600a602052604090205461286757600090565b600190565b906040516128798161067e565b608060ff6004839560018060a01b0381541685526040516128a1816122e481600186016116cb565b602086015260028101546040860152600381015460608601520154161515910152565b600060806040516128d48161067e565b8281526060602082015282604082015282606082015201526128f581612846565b15612924576001600160a01b03166000908152600a602052604090206107e19061291e90611de9565b5061286c565b60405162461bcd60e51b8152602060048201526015602482015274506c6179657220646f65736e27742065786973742160581b6044820152606490fd5b6001600160a01b03166000908152600b602052604090205461286757600090565b6040519061298f826106a6565b60006060838181528260208201528260408201520152565b906040516129b4816106a6565b6060600382946040516129cb816122e481856116cb565b845260018101546020850152600281015460408501520154910152565b6129f190611fa3565b5461286757600090565b6040519061010082018281106001600160401b03821117612a5d575b604052606060e0836000815260006020820152826040820152604051612a3c816106c1565b60403682378382015260006080820152600060a08201528260c08201520152565b612a65610667565b612a17565b15612a7157565b60405162461bcd60e51b8152602060048201526015602482015274426174746c6520646f65736e27742065786973742160581b6044820152606490fd5b6003821015610b535752565b60405191906000835b60028210612ad75750505061072a826106c1565b82546001600160a01b031681526001928301929190910190602001612ac3565b90612b836008612b056106fd565b93612b1a612b14825460ff1690565b86612aae565b60018101546020860152612b3060028201611761565b6040860152612b4160038201612aba565b606086015260058101546001600160a01b0316608086015260068101546001600160a01b031660a0860152612b7860078201611761565b60c086015201611761565b60e0830152565b612ba96122cd6107e192612b9c6129fb565b506122c86122c3826129e8565b50612af7565b6107e16122d36122cd6007936122c86122c3826129e8565b601f8111612bd3575050565b6000906002825260208220906020601f850160051c83019410612c11575b601f0160051c01915b828110612c0657505050565b818155600101612bfa565b9092508290612bf1565b601f8111612c27575050565b6000906009825260208220906020601f850160051c83019410612c65575b601f0160051c01915b828110612c5a57505050565b818155600101612c4e565b9092508290612c45565b90601f8111612c7d57505050565b600091825260208220906020601f850160051c83019410612cb9575b601f0160051c01915b828110612cae57505050565b818155600101612ca2565b9092508290612c99565b91909182516001600160401b038111612d92575b612ceb81612ce58454611691565b84612c6f565b602080601f8311600114612d27575081929394600092612d1c575b50508160011b916000199060031b1c1916179055565b015190503880612d06565b90601f19831695612d3d85600052602060002090565b926000905b888210612d7a57505083600195969710612d61575b505050811b019055565b015160001960f88460031b161c19169055388080612d57565b80600185968294968601518155019501930190612d42565b612d9a610667565b612cd7565b61072a9060046080600d54600160401b811015612e5e575b6001810180600d55811015612e51575b600d60005283516005919091027fd7b6990105719101dabeb77144f2a3385c8033acd3af97e9423a695e81ad1eb50180546001600160a01b0319166001600160a01b039290921691909117815592612e26602082015160018601612cc3565b60408101516002850155606081015160038501550151151591019060ff801983541691151516179055565b612e5961164d565b612dc7565b612e66610667565b612db7565b15612e7257565b60405162461bcd60e51b815260206004820152601c60248201527f506c6561736520526567697374657220506c61796572204669727374000000006044820152606490fd5b6080612ec2336128c4565b015161302057612ed4610caf33612846565b612edc612982565b50612ee6336131b4565b612eef8161308b565b600660ff612f39612f336040516020810190612f2981610ce2334286909160349282526001600160601b03199060601b1660208201520190565b5190206064900690565b60ff1690565b16069160ff831615612feb575b612fb97fca8ab07e9ed17d119729fc652dd24df9d8430ca862dda4631925b5b4b99da3629394612f7461072c565b90815260ff861690816020820152836040820152846060820152612f9a600e54916130e0565b336000908152600b6020526040902055612fb2613185565b903361446e565b612fcc612fc76006546131a4565b600655565b6040805160ff95909516855260208501919091528301523391606090a2565b612fb96130187fca8ab07e9ed17d119729fc652dd24df9d8430ca862dda4631925b5b4b99da362946130c6565b935050612f46565b60405162461bcd60e51b8152602060048201526015602482015274506c6179657220697320696e206120626174746c6560581b6044820152606490fd5b50634e487b7160e01b600052601160045260246000fd5b60001981019190821161308357565b61072a61305d565b600a0390600a821161308357565b9190820391821161308357565b81156130b0570690565b634e487b7160e01b600052601260045260246000fd5b60ff6001911660ff81146130d8570190565b611f9f61305d565b60036060600e54600160401b811015613147575b6001810180600e5581101561313a575b600e60005260206000209060021b019261311f815185612cc3565b60208101516001850155604081015160028501550151910155565b61314261164d565b613104565b61314f610667565b6130f4565b60405190602082018281106001600160401b03821117613178575b60405260008252565b613180610667565b61316f565b60405190613192826106c1565b600382526203078360ec1b6020830152565b60019060001981146130d8570190565b600a9060405160208101914483524260408301526001600160601b03199060601b166060820152605481526131e8816106a6565b5190200680156131f55790565b50600590565b1561320257565b60405162461bcd60e51b8152602060048201526016602482015275426174746c6520616c7265616479206578697374732160501b6044820152606490fd5b906003811015610b535760ff80198354169116179055565b90600a820291808304600a149015171561308357565b9060005b6002811061327f57505050565b81516001600160a01b031681840155602090910190600101613272565b61072a90600860e0600f54600160401b811015613376575b6001810180600f55811015613369575b600f60005260096020600020910201926132e881516132e281610b49565b85613240565b60208101516001850155613303604082015160028601612cc3565b61331460608201516003860161326e565b60808101516005850180546001600160a01b039283166001600160a01b03199182161790915560a083015160068701805491909316911617905560c08101516133609060078601612cc3565b01519101612cc3565b61337161164d565b6132c4565b61337e610667565b6132b4565b1561338a57565b60405162461bcd60e51b8152602060048201526017602482015276426174746c6520616c726561647920737461727465642160481b6044820152606490fd5b156133d057565b60405162461bcd60e51b815260206004820152602160248201527f4f6e6c7920706c617965722074776f2063616e206a6f696e206120626174746c6044820152606560f81b6064820152608490fd5b1561342657565b60405162461bcd60e51b8152602060048201526011602482015270416c726561647920696e20626174746c6560781b6044820152606490fd5b9081602091031261000e575190565b506040513d6000823e3d90fd5b600854811015613497575b600860005260206000200190600090565b61349f61164d565b613486565b90816009146135ae576134b78254611691565b6001600160401b0381116135a1575b6134da816134d5600954611691565b612c1b565b6000601f821160011461351457819293600092613509575b50508160011b916000199060031b1c191617600955565b0154905038806134f2565b613528601f19831694600052602060002090565b6009600052907f6e1540171b6c0c960b71a7020d9f60077f6af931a8bbf590da0223dacf75c7af91815b8681106135895750836001959610613570575b505050811b01600955565b015460001960f88460031b161c19169055388080613565565b81830154845560019384019390920191602001613552565b6135a9610667565b6134c6565b9050565b60405190600082600954916135c683611691565b80835260019380851690811561364c57506001146135ec575b5061072a925003836106dc565b600960009081527f6e1540171b6c0c960b71a7020d9f60077f6af931a8bbf590da0223dacf75c7af94602093509091905b81831061363457505061072a9350820101386135df565b8554888401850152948501948794509183019161361d565b905061072a94506020925060ff191682840152151560051b820101386135df565b60209080511561367b570190565b611f9f61164d565b90602091805182101561369557010190565b61369d61164d565b010190565b604051906136af826106c1565b600a8252691b585cdad95915dbdc9960b21b6020830152565b90916136df6107e1936040845260408401906104a1565b9160208184039101526104a1565b906136f7826129e8565b1561373257600860e061370f6122cd61072a95611fa3565b939093613725575b6132e881516132e281610b49565b61372d611874565b613717565b60405162461bcd60e51b815260206004820152601460248201527310985d1d1b1948191bd95cdb89dd08195e1a5cdd60621b6044820152606490fd5b600180805b61377c57505090565b82518110156137dd576137b8906001600160f81b03198061379d8387613683565b5116908551156137d0575b602086015116036137be576131a4565b81613773565b605f6137ca8286613683565b536131a4565b6137d861164d565b6137a8565b505090565b156137e957565b60405162461bcd60e51b815260206004820152604160248201527f426174746c65206e6f7420737461727465642e20506c656173652074656c6c2060448201527f616e6f7468657220706c6179657220746f206a6f696e2074686520626174746c6064820152606560f81b608482015260a490fd5b1561386557565b60405162461bcd60e51b815260206004820152602660248201527f63686f73656e4c65747465723a20426174746c652068617320616c726561647960448201526508195b99195960d21b6064820152608490fd5b156138c057565b60405162461bcd60e51b815260206004820152601a60248201527f596f7520617265206e6f7420696e207468697320626174746c650000000000006044820152606490fd5b1561390c57565b60405162461bcd60e51b815260206004820152601360248201527224ba1034b9903737ba103cb7bab9103a3ab93760691b6044820152606490fd5b60405190613954826106c1565b601682527532b93937b91d1010afb334b7322732bba632ba3a32b960511b6020830152565b602061072a91939293604051948161399a879351809286808701910161047e565b82016139ae8251809386808501910161047e565b010380855201836106dc565b60606139c582612b8a565b0160018060a01b03918260806139df828551511693612b8a565b015116036139f05751602001511690565b51511690565b6139ff90612b8a565b6060810180519060018060a01b039182808251163314918215613b62575b505015613b095751338282511614918215613af7575b505015613a9f57613a4f60c0820151613a4a6135b2565b614046565b60405181151581527f589068fcf2fbda53e0b05d6b1160908791495e6ba7d7e49e11a03c289ad55b4190602090a1613a845750565b6080810151613a9c91906001600160a01b0316613c19565b50565b60405162461bcd60e51b815260206004820152602a60248201527f5f7265736f6c7665426174746c653a596f7520617265206e6f7420696e207468604482015269697320626174746c652160b01b6064820152608490fd5b90915060203392015116143880613a33565b60405162461bcd60e51b815260206004820152602b60248201527f4f6e6c7920706c617965727320696e207468697320626174746c652063616e2060448201526a6d616b652061206d6f766560a81b6064820152608490fd5b602091925001511633148238613a1d565b15613b7a57565b60405162461bcd60e51b815260206004820152602660248201527f71756974426174746c653a596f7520617265206e6f7420696e207468697320626044820152656174746c652160d01b6064820152608490fd5b15613bd557565b606460405162461bcd60e51b815260206004820152602060248201527f5f656e64426174746c653a20426174746c6520616c726561647920656e6465646044820152fd5b613c216129fb565b50613c4260028351613c3281610b49565b613c3b81610b49565b1415613bce565b600282526001600160a01b03811660a08301526040820190613c658383516136ed565b7fae6e5eafb6cd1cb4b139e7a0b9140aa182ee7d50e99f50d660156f79212acbc060608401613d0d6002613cf7613ca7611209855160018060a01b0390511690565b54613cff83613cf7613cc0611209610d7b8a5160200190565b5493613cdc6004613cd08361276e565b5001805460ff19169055565b613cf26003613cea8361276e565b500160069055565b61276e565b5001600a9055565b613cdc6004613cd08361276e565b5180516001600160a01b03938416939182918216858103613d4957506020015116935b5193613d436040519283921695826109a7565b0390a390565b91505093613d30565b60ff166030019060ff821161308357565b8015613e17578060008281935b613e03575081613d7f84610746565b93613d8d60405195866106dc565b808552601f19613d9c82610746565b01366020870137905b613daf5750505090565b613db890613074565b9182613dfb613df2613de2613ddd612f33600a870496613dd788613258565b90613099565b613d52565b60f81b6001600160f81b03191690565b841a9186613683565b539182613da5565b92613e0f600a916131a4565b930480613d70565b50604051613e24816106c1565b60018152600360fc1b602082015290565b15613e3c57565b60405162461bcd60e51b815260206004820152602760248201527f4572726f722c20776f72642077697468206c6f77657263617365206c657474656044820152667273206f6e6c7960c81b6064820152608490fd5b60085461072a9190600160401b811015613eef575b6001810180600855811015613ee2575b60086000527ff3f7a9fe364faab93b216da50a3214154f22a0a2b415b23a84c8169e8b636ee301612cc3565b613eea61164d565b613eb6565b613ef7610667565b613ea6565b6000805b60ff81166020811080613f54575b15613f4b57613f32906001600160f81b031990613f2b9086613683565b5116613f5e565b15613f4557613f40906130c6565b613f00565b50905090565b50505050600190565b5083518110613f0e565b60ff60f81b16606160f81b8110159081613f83575b5015613f7e57600190565b600090565b603d60f91b1015905038613f73565b929160019160009183908390825b613faf575b5050505090509190565b60ff8616602081108061403c575b15614036576001600160f81b031980613fd68388613683565b511681841614908161401c575b50613ffe575b50613ff6839495966130c6565b959493613fa0565b8394955061400f82841a918a613683565b53613ff683959450613fe9565b605f60f81b915061402d838c613683565b51161438613fe3565b50613fa5565b5084518110613fbd565b600180926000908282905b61405e575b505050505090565b60ff811660208110806140b8575b156140b2576001600160f81b031961409181614088848a613683565b51169285613683565b5116036140a8575b6140a2906130c6565b83614051565b9194508491614099565b50614056565b508551811061406c565b6003546001600160a01b031633036140d657565b606460405162461bcd60e51b815260206004820152602060248201527f4f776e61626c653a2063616c6c6572206973206e6f7420746865206f776e65726044820152fd5b6001600160a01b0381161561414e576000918252602082815260408084206001600160a01b03909316845291905290205490565b60405162461bcd60e51b815260206004820152602a60248201527f455243313135353a2061646472657373207a65726f206973206e6f742061207660448201526930b634b21037bbb732b960b11b6064820152608490fd5b906141b082610ded565b6141bd60405191826106dc565b82815280926141ce601f1991610ded565b0190602036910137565b60209181518110156141ed575b60051b010190565b6141f561164d565b6141e5565b919091805183510361425e5761421081516141a6565b9060005b81518110156142575780614242614231610d7b61425294866141d8565b61423b83896141d8565b519061411a565b61424c82866141d8565b526131a4565b614214565b5090925050565b60405162461bcd60e51b815260206004820152602960248201527f455243313135353a206163636f756e747320616e6420696473206c656e677468604482015268040dad2e6dac2e8c6d60bb1b6064820152608490fd5b156142bc57565b60405162461bcd60e51b815260206004820152602e60248201527f455243313135353a2063616c6c6572206973206e6f7420746f6b656e206f776e60448201526d195c881bdc88185c1c1c9bdd995960921b6064820152608490fd5b1561431f57565b60405162461bcd60e51b815260206004820152602560248201527f455243313135353a207472616e7366657220746f20746865207a65726f206164604482015264647265737360d81b6064820152608490fd5b1561437957565b60405162461bcd60e51b815260206004820152602a60248201527f455243313135353a20696e73756666696369656e742062616c616e636520666f60448201526939103a3930b739b332b960b11b6064820152608490fd5b906001820180921161308357565b9190820180921161308357565b156143f357565b60405162461bcd60e51b815260206004820152602860248201527f455243313135353a2069647320616e6420616d6f756e7473206c656e677468206044820152670dad2e6dac2e8c6d60c31b6064820152608490fd5b90916144606107e19360408452604084019061138c565b91602081840391015261138c565b926001600160a01b03841692831561452f57614489836149c2565b92614492614990565b9560005b85518110156144c357806144ad6144be928a6141d8565b51610fb8610fb0612661848b6141d8565b614496565b5091935091945061072a936144e68261090a856000526000602052604060002090565b6144f081546143d1565b9055604080518481526001602082015260009133917fc3d58168c5ae7397731d063d5bbf3d657854427343f4c083240f7aacaa2d0f629190a4336146cc565b60405162461bcd60e51b815260206004820152602160248201527f455243313135353a206d696e7420746f20746865207a65726f206164647265736044820152607360f81b6064820152608490fd5b9081602091031261000e57516107e1816105e6565b6107e1939260a092600180851b031682526000602083015260408201526001606082015281608082015201906104a1565b91926107e195949160a094600180871b0380921685521660208401526040830152606082015281608082015201906104a1565b60809060208152602860208201527f455243313135353a204552433131353552656365697665722072656a656374656040820152676420746f6b656e7360c01b60608201520190565b60009060033d1161464d57565b905060046000803e60005160e01c90565b600060443d106107e157604051600319913d83016004833e81516001600160401b03918282113d6024840111176146bb578184019485519384116146c3573d850101602084870101116146bb57506107e1929101602001906106dc565b949350505050565b50949350505050565b92919091823b6146dc5750505050565b61470392602092600060405180968195829463f23a6e6160e01b9a8b855260048501614593565b03926001600160a01b03165af160009181614800575b506147d8575050600161472a614640565b6308c379a0146147a9575b614743575b388080806116f8565b60405162461bcd60e51b815260206004820152603460248201527f455243313135353a207472616e7366657220746f206e6f6e2d455243313135356044820152732932b1b2b4bb32b91034b6b83632b6b2b73a32b960611b6064820152608490fd5b0390fd5b6147b161465e565b806147bc5750614735565b60405162461bcd60e51b81529081906147a590600483016109a7565b6001600160e01b0319161461473a5760405162461bcd60e51b8152806147a5600482016145f7565b61482291925060203d8111614829575b61481a81836106dc565b81019061457e565b9038614719565b503d614810565b9493919092813b614844575b505050505050565b600060209461486b6040519788968795869463f23a6e6160e01b9c8d8752600487016145c4565b03926001600160a01b03165af1600091816148e8575b506148c05750506001614892614640565b6308c379a0146148ad575b614743575b38808080808061483c565b6148b561465e565b806147bc575061489d565b6001600160e01b031916146148a25760405162461bcd60e51b8152806147a5600482016145f7565b61490191925060203d81116148295761481a81836106dc565b9038614881565b93906107e1959361493a916149489460018060a01b03809216885216602087015260a0604087015260a086019061138c565b90848203606086015261138c565b9160808184039101526104a1565b9493919092813b61496957505050505050565b600060209461486b6040519788968795869463bc197c8160e01b9c8d875260048701614908565b60405161499c816106c1565b6001815260016020820160203682378251156149b6575290565b6149be61164d565b5290565b604051906149cf826106c1565b600182526020820160203682378251156149b6575290565b156149ee57565b60405162461bcd60e51b815260206004820152602860248201527f455243313135353a206275726e20616d6f756e74206578636565647320746f74604482015267616c537570706c7960c01b6064820152608490fd5b919392916001600160a01b039190821615614a98575b1615614a6557509050565b60005b8351811015614a925780614a7f614a8d92866141d8565b5161260d6125d983866141d8565b614a68565b50509050565b929060005b8551811015614ab957806144ad614ab492866141d8565b614a9d565b509092614a5a565b61072a906040519063f82c50f160e01b6020830152602482015260248152606081018181106001600160401b03821117614afe575b604052614b0b565b614b06610667565b614af6565b600080916020815191016a636f6e736f6c652e6c6f675afa50565b610ce2614b5461072a9260405192839163104c13eb60e21b60208401526020602484015260448301906104a1565b614b0b565b604051637b3338ad60e11b60208201526024810191909152604481019190915261072a90614b548160648101610ce2565b90614b5461072a92610ce2604051938492634b5c427760e01b6020850152602484016136c856fea2646970667358221220669a0bab4adcb2c3428e0b7d9cbe1dc814f9d105ef0d6934ff6088271711740f64736f6c63430008110033405787fa12a823e0f2b7631cc41b3ba8828b3321ca811111fa75cd3aa3bb5acef3f7a9fe364faab93b216da50a3214154f22a0a2b415b23a84c8169e8b636ee3",
  "linkReferences": {},
  "deployedLinkReferences": {}
}