{
  "_format": "hh-sol-artifact-1",
  "contractName": "Penduel",
  "sourceName": "contracts/Penduel.sol",
  "abi": [
    {
      "inputs": [
        {
          "internalType": "string",
          "name": "_metadataURI",
          "type": "string"
        }
      ],
      "stateMutability": "nonpayable",
      "type": "constructor"
    },
    {
      "anonymous": false,
      "inputs": [
        {
          "indexed": true,
          "internalType": "address",
          "name": "account",
          "type": "address"
        },
        {
          "indexed": true,
          "internalType": "address",
          "name": "operator",
          "type": "address"
        },
        {
          "indexed": false,
          "internalType": "bool",
          "name": "approved",
          "type": "bool"
        }
      ],
      "name": "ApprovalForAll",
      "type": "event"
    },
    {
      "anonymous": false,
      "inputs": [
        {
          "indexed": false,
          "internalType": "string",
          "name": "battleName",
          "type": "string"
        },
        {
          "indexed": true,
          "internalType": "address",
          "name": "player1",
          "type": "address"
        },
        {
          "indexed": true,
          "internalType": "address",
          "name": "player2",
          "type": "address"
        },
        {
          "indexed": false,
          "internalType": "string",
          "name": "maskedWord",
          "type": "string"
        }
      ],
      "name": "BattleBegin",
      "type": "event"
    },
    {
      "anonymous": false,
      "inputs": [
        {
          "indexed": false,
          "internalType": "string",
          "name": "battleName",
          "type": "string"
        },
        {
          "indexed": true,
          "internalType": "address",
          "name": "player1",
          "type": "address"
        },
        {
          "indexed": true,
          "internalType": "address",
          "name": "player2",
          "type": "address"
        }
      ],
      "name": "BattleCreate",
      "type": "event"
    },
    {
      "anonymous": false,
      "inputs": [
        {
          "indexed": false,
          "internalType": "string",
          "name": "battleName",
          "type": "string"
        },
        {
          "indexed": true,
          "internalType": "address",
          "name": "winner",
          "type": "address"
        },
        {
          "indexed": true,
          "internalType": "address",
          "name": "loser",
          "type": "address"
        }
      ],
      "name": "BattleEnded",
      "type": "event"
    },
    {
      "anonymous": false,
      "inputs": [
        {
          "indexed": true,
          "internalType": "bool",
          "name": "_findNewLetter",
          "type": "bool"
        },
        {
          "indexed": false,
          "internalType": "string",
          "name": "maskedWord",
          "type": "string"
        }
      ],
      "name": "BattleLetter",
      "type": "event"
    },
    {
      "anonymous": false,
      "inputs": [
        {
          "indexed": true,
          "internalType": "address",
          "name": "owner",
          "type": "address"
        },
        {
          "indexed": false,
          "internalType": "uint256",
          "name": "id",
          "type": "uint256"
        },
        {
          "indexed": false,
          "internalType": "uint256",
          "name": "attackStrength",
          "type": "uint256"
        },
        {
          "indexed": false,
          "internalType": "uint256",
          "name": "defenseStrength",
          "type": "uint256"
        }
      ],
      "name": "NewGameToken",
      "type": "event"
    },
    {
      "anonymous": false,
      "inputs": [
        {
          "indexed": true,
          "internalType": "address",
          "name": "owner",
          "type": "address"
        },
        {
          "indexed": false,
          "internalType": "string",
          "name": "playerName",
          "type": "string"
        }
      ],
      "name": "NewPlayer",
      "type": "event"
    },
    {
      "anonymous": false,
      "inputs": [
        {
          "indexed": true,
          "internalType": "address",
          "name": "previousOwner",
          "type": "address"
        },
        {
          "indexed": true,
          "internalType": "address",
          "name": "newOwner",
          "type": "address"
        }
      ],
      "name": "OwnershipTransferred",
      "type": "event"
    },
    {
      "anonymous": false,
      "inputs": [
        {
          "indexed": false,
          "internalType": "address",
          "name": "player",
          "type": "address"
        },
        {
          "indexed": false,
          "internalType": "uint256",
          "name": "amount",
          "type": "uint256"
        }
      ],
      "name": "PlayerWithdraw",
      "type": "event"
    },
    {
      "anonymous": false,
      "inputs": [],
      "name": "RoundEnded",
      "type": "event"
    },
    {
      "anonymous": false,
      "inputs": [
        {
          "indexed": true,
          "internalType": "address",
          "name": "operator",
          "type": "address"
        },
        {
          "indexed": true,
          "internalType": "address",
          "name": "from",
          "type": "address"
        },
        {
          "indexed": true,
          "internalType": "address",
          "name": "to",
          "type": "address"
        },
        {
          "indexed": false,
          "internalType": "uint256[]",
          "name": "ids",
          "type": "uint256[]"
        },
        {
          "indexed": false,
          "internalType": "uint256[]",
          "name": "values",
          "type": "uint256[]"
        }
      ],
      "name": "TransferBatch",
      "type": "event"
    },
    {
      "anonymous": false,
      "inputs": [
        {
          "indexed": true,
          "internalType": "address",
          "name": "operator",
          "type": "address"
        },
        {
          "indexed": true,
          "internalType": "address",
          "name": "from",
          "type": "address"
        },
        {
          "indexed": true,
          "internalType": "address",
          "name": "to",
          "type": "address"
        },
        {
          "indexed": false,
          "internalType": "uint256",
          "name": "id",
          "type": "uint256"
        },
        {
          "indexed": false,
          "internalType": "uint256",
          "name": "value",
          "type": "uint256"
        }
      ],
      "name": "TransferSingle",
      "type": "event"
    },
    {
      "anonymous": false,
      "inputs": [
        {
          "indexed": false,
          "internalType": "string",
          "name": "value",
          "type": "string"
        },
        {
          "indexed": true,
          "internalType": "uint256",
          "name": "id",
          "type": "uint256"
        }
      ],
      "name": "URI",
      "type": "event"
    },
    {
      "anonymous": false,
      "inputs": [
        {
          "indexed": false,
          "internalType": "string",
          "name": "wordToAdd",
          "type": "string"
        }
      ],
      "name": "WordAdded",
      "type": "event"
    },
    {
      "inputs": [],
      "name": "MAX_ATTACK_DEFEND_STRENGTH",
      "outputs": [
        {
          "internalType": "uint256",
          "name": "",
          "type": "uint256"
        }
      ],
      "stateMutability": "view",
      "type": "function"
    },
    {
      "inputs": [
        {
          "internalType": "string",
          "name": "wordToAdd",
          "type": "string"
        }
      ],
      "name": "addWord",
      "outputs": [],
      "stateMutability": "nonpayable",
      "type": "function"
    },
    {
      "inputs": [
        {
          "internalType": "address",
          "name": "account",
          "type": "address"
        },
        {
          "internalType": "uint256",
          "name": "id",
          "type": "uint256"
        }
      ],
      "name": "balanceOf",
      "outputs": [
        {
          "internalType": "uint256",
          "name": "",
          "type": "uint256"
        }
      ],
      "stateMutability": "view",
      "type": "function"
    },
    {
      "inputs": [
        {
          "internalType": "address[]",
          "name": "accounts",
          "type": "address[]"
        },
        {
          "internalType": "uint256[]",
          "name": "ids",
          "type": "uint256[]"
        }
      ],
      "name": "balanceOfBatch",
      "outputs": [
        {
          "internalType": "uint256[]",
          "name": "",
          "type": "uint256[]"
        }
      ],
      "stateMutability": "view",
      "type": "function"
    },
    {
      "inputs": [],
      "name": "baseURI",
      "outputs": [
        {
          "internalType": "string",
          "name": "",
          "type": "string"
        }
      ],
      "stateMutability": "view",
      "type": "function"
    },
    {
      "inputs": [
        {
          "internalType": "bytes1",
          "name": "pLetter",
          "type": "bytes1"
        },
        {
          "internalType": "string",
          "name": "battleName",
          "type": "string"
        }
      ],
      "name": "chosenLetter",
      "outputs": [],
      "stateMutability": "nonpayable",
      "type": "function"
    },
    {
      "inputs": [
        {
          "internalType": "string",
          "name": "battleName",
          "type": "string"
        }
      ],
      "name": "createBattle",
      "outputs": [],
      "stateMutability": "payable",
      "type": "function"
    },
    {
      "inputs": [
        {
          "internalType": "string",
          "name": "battleName",
          "type": "string"
        }
      ],
      "name": "createRandomGameToken",
      "outputs": [],
      "stateMutability": "nonpayable",
      "type": "function"
    },
    {
      "inputs": [
        {
          "internalType": "uint256",
          "name": "id",
          "type": "uint256"
        }
      ],
      "name": "exists",
      "outputs": [
        {
          "internalType": "bool",
          "name": "",
          "type": "bool"
        }
      ],
      "stateMutability": "view",
      "type": "function"
    },
    {
      "inputs": [
        {
          "internalType": "string",
          "name": "battleName",
          "type": "string"
        }
      ],
      "name": "getActivePlayer",
      "outputs": [
        {
          "internalType": "address",
          "name": "",
          "type": "address"
        }
      ],
      "stateMutability": "view",
      "type": "function"
    },
    {
      "inputs": [],
      "name": "getAllBattles",
      "outputs": [
        {
          "components": [
            {
              "internalType": "enum Penduel.BattleStatus",
              "name": "battleStatus",
              "type": "uint8"
            },
            {
              "internalType": "bytes32",
              "name": "battleHash",
              "type": "bytes32"
            },
            {
              "internalType": "string",
              "name": "name",
              "type": "string"
            },
            {
              "internalType": "uint256",
              "name": "bet",
              "type": "uint256"
            },
            {
              "internalType": "address[2]",
              "name": "players",
              "type": "address[2]"
            },
            {
              "internalType": "address",
              "name": "activePlayer",
              "type": "address"
            },
            {
              "internalType": "address",
              "name": "winner",
              "type": "address"
            },
            {
              "internalType": "bytes",
              "name": "maskedWord",
              "type": "bytes"
            },
            {
              "internalType": "string",
              "name": "guesses",
              "type": "string"
            },
            {
              "internalType": "uint8",
              "name": "incorrectGuess",
              "type": "uint8"
            },
            {
              "internalType": "uint256",
              "name": "date",
              "type": "uint256"
            }
          ],
          "internalType": "struct Penduel.Battle[]",
          "name": "",
          "type": "tuple[]"
        }
      ],
      "stateMutability": "view",
      "type": "function"
    },
    {
      "inputs": [],
      "name": "getAllPlayerTokens",
      "outputs": [
        {
          "components": [
            {
              "internalType": "string",
              "name": "name",
              "type": "string"
            },
            {
              "internalType": "uint256",
              "name": "id",
              "type": "uint256"
            },
            {
              "internalType": "uint256",
              "name": "attackStrength",
              "type": "uint256"
            },
            {
              "internalType": "uint256",
              "name": "defenseStrength",
              "type": "uint256"
            }
          ],
          "internalType": "struct Penduel.GameToken[]",
          "name": "",
          "type": "tuple[]"
        }
      ],
      "stateMutability": "view",
      "type": "function"
    },
    {
      "inputs": [],
      "name": "getAllPlayers",
      "outputs": [
        {
          "components": [
            {
              "internalType": "address payable",
              "name": "playerAddress",
              "type": "address"
            },
            {
              "internalType": "string",
              "name": "playerName",
              "type": "string"
            },
            {
              "internalType": "uint256",
              "name": "playerMana",
              "type": "uint256"
            },
            {
              "internalType": "uint256",
              "name": "playerHealth",
              "type": "uint256"
            },
            {
              "internalType": "bool",
              "name": "inBattle",
              "type": "bool"
            }
          ],
          "internalType": "struct Penduel.Player[]",
          "name": "",
          "type": "tuple[]"
        }
      ],
      "stateMutability": "view",
      "type": "function"
    },
    {
      "inputs": [],
      "name": "getBalance",
      "outputs": [
        {
          "internalType": "uint256",
          "name": "",
          "type": "uint256"
        }
      ],
      "stateMutability": "view",
      "type": "function"
    },
    {
      "inputs": [
        {
          "internalType": "string",
          "name": "battleName",
          "type": "string"
        }
      ],
      "name": "getBattle",
      "outputs": [
        {
          "components": [
            {
              "internalType": "enum Penduel.BattleStatus",
              "name": "battleStatus",
              "type": "uint8"
            },
            {
              "internalType": "bytes32",
              "name": "battleHash",
              "type": "bytes32"
            },
            {
              "internalType": "string",
              "name": "name",
              "type": "string"
            },
            {
              "internalType": "uint256",
              "name": "bet",
              "type": "uint256"
            },
            {
              "internalType": "address[2]",
              "name": "players",
              "type": "address[2]"
            },
            {
              "internalType": "address",
              "name": "activePlayer",
              "type": "address"
            },
            {
              "internalType": "address",
              "name": "winner",
              "type": "address"
            },
            {
              "internalType": "bytes",
              "name": "maskedWord",
              "type": "bytes"
            },
            {
              "internalType": "string",
              "name": "guesses",
              "type": "string"
            },
            {
              "internalType": "uint8",
              "name": "incorrectGuess",
              "type": "uint8"
            },
            {
              "internalType": "uint256",
              "name": "date",
              "type": "uint256"
            }
          ],
          "internalType": "struct Penduel.Battle",
          "name": "",
          "type": "tuple"
        }
      ],
      "stateMutability": "view",
      "type": "function"
    },
    {
      "inputs": [
        {
          "internalType": "string",
          "name": "battleName",
          "type": "string"
        }
      ],
      "name": "getGuesses",
      "outputs": [
        {
          "internalType": "string",
          "name": "_guesses",
          "type": "string"
        }
      ],
      "stateMutability": "view",
      "type": "function"
    },
    {
      "inputs": [
        {
          "internalType": "string",
          "name": "battleName",
          "type": "string"
        }
      ],
      "name": "getMaskedWord",
      "outputs": [
        {
          "internalType": "string",
          "name": "",
          "type": "string"
        }
      ],
      "stateMutability": "view",
      "type": "function"
    },
    {
      "inputs": [
        {
          "internalType": "string",
          "name": "battleName",
          "type": "string"
        }
      ],
      "name": "getNumberOfIncorrectGuess",
      "outputs": [
        {
          "internalType": "uint8",
          "name": "",
          "type": "uint8"
        }
      ],
      "stateMutability": "view",
      "type": "function"
    },
    {
      "inputs": [
        {
          "internalType": "address",
          "name": "playerAddress",
          "type": "address"
        }
      ],
      "name": "getPlayer",
      "outputs": [
        {
          "components": [
            {
              "internalType": "address payable",
              "name": "playerAddress",
              "type": "address"
            },
            {
              "internalType": "string",
              "name": "playerName",
              "type": "string"
            },
            {
              "internalType": "uint256",
              "name": "playerMana",
              "type": "uint256"
            },
            {
              "internalType": "uint256",
              "name": "playerHealth",
              "type": "uint256"
            },
            {
              "internalType": "bool",
              "name": "inBattle",
              "type": "bool"
            }
          ],
          "internalType": "struct Penduel.Player",
          "name": "",
          "type": "tuple"
        }
      ],
      "stateMutability": "view",
      "type": "function"
    },
    {
      "inputs": [
        {
          "internalType": "address",
          "name": "playerTokenAddress",
          "type": "address"
        }
      ],
      "name": "getPlayerToken",
      "outputs": [
        {
          "components": [
            {
              "internalType": "string",
              "name": "name",
              "type": "string"
            },
            {
              "internalType": "uint256",
              "name": "id",
              "type": "uint256"
            },
            {
              "internalType": "uint256",
              "name": "attackStrength",
              "type": "uint256"
            },
            {
              "internalType": "uint256",
              "name": "defenseStrength",
              "type": "uint256"
            }
          ],
          "internalType": "struct Penduel.GameToken",
          "name": "",
          "type": "tuple"
        }
      ],
      "stateMutability": "view",
      "type": "function"
    },
    {
      "inputs": [],
      "name": "getTotalSupply",
      "outputs": [
        {
          "internalType": "uint256",
          "name": "",
          "type": "uint256"
        }
      ],
      "stateMutability": "view",
      "type": "function"
    },
    {
      "inputs": [
        {
          "internalType": "address",
          "name": "account",
          "type": "address"
        },
        {
          "internalType": "address",
          "name": "operator",
          "type": "address"
        }
      ],
      "name": "isApprovedForAll",
      "outputs": [
        {
          "internalType": "bool",
          "name": "",
          "type": "bool"
        }
      ],
      "stateMutability": "view",
      "type": "function"
    },
    {
      "inputs": [
        {
          "internalType": "string",
          "name": "battleName",
          "type": "string"
        }
      ],
      "name": "isBattle",
      "outputs": [
        {
          "internalType": "bool",
          "name": "",
          "type": "bool"
        }
      ],
      "stateMutability": "view",
      "type": "function"
    },
    {
      "inputs": [
        {
          "internalType": "address",
          "name": "playerAddress",
          "type": "address"
        }
      ],
      "name": "isPlayer",
      "outputs": [
        {
          "internalType": "bool",
          "name": "",
          "type": "bool"
        }
      ],
      "stateMutability": "view",
      "type": "function"
    },
    {
      "inputs": [
        {
          "internalType": "address",
          "name": "playerTokenAddress",
          "type": "address"
        }
      ],
      "name": "isPlayerToken",
      "outputs": [
        {
          "internalType": "bool",
          "name": "",
          "type": "bool"
        }
      ],
      "stateMutability": "view",
      "type": "function"
    },
    {
      "inputs": [
        {
          "internalType": "string",
          "name": "battleName",
          "type": "string"
        }
      ],
      "name": "joinBattle",
      "outputs": [
        {
          "components": [
            {
              "internalType": "enum Penduel.BattleStatus",
              "name": "battleStatus",
              "type": "uint8"
            },
            {
              "internalType": "bytes32",
              "name": "battleHash",
              "type": "bytes32"
            },
            {
              "internalType": "string",
              "name": "name",
              "type": "string"
            },
            {
              "internalType": "uint256",
              "name": "bet",
              "type": "uint256"
            },
            {
              "internalType": "address[2]",
              "name": "players",
              "type": "address[2]"
            },
            {
              "internalType": "address",
              "name": "activePlayer",
              "type": "address"
            },
            {
              "internalType": "address",
              "name": "winner",
              "type": "address"
            },
            {
              "internalType": "bytes",
              "name": "maskedWord",
              "type": "bytes"
            },
            {
              "internalType": "string",
              "name": "guesses",
              "type": "string"
            },
            {
              "internalType": "uint8",
              "name": "incorrectGuess",
              "type": "uint8"
            },
            {
              "internalType": "uint256",
              "name": "date",
              "type": "uint256"
            }
          ],
          "internalType": "struct Penduel.Battle",
          "name": "",
          "type": "tuple"
        }
      ],
      "stateMutability": "payable",
      "type": "function"
    },
    {
      "inputs": [],
      "name": "numberOfWords",
      "outputs": [
        {
          "internalType": "uint256",
          "name": "",
          "type": "uint256"
        }
      ],
      "stateMutability": "view",
      "type": "function"
    },
    {
      "inputs": [],
      "name": "owner",
      "outputs": [
        {
          "internalType": "address",
          "name": "",
          "type": "address"
        }
      ],
      "stateMutability": "view",
      "type": "function"
    },
    {
      "inputs": [
        {
          "internalType": "string",
          "name": "battleName",
          "type": "string"
        }
      ],
      "name": "quitBattle",
      "outputs": [],
      "stateMutability": "nonpayable",
      "type": "function"
    },
    {
      "inputs": [
        {
          "internalType": "string",
          "name": "playerName",
          "type": "string"
        },
        {
          "internalType": "string",
          "name": "gameTokenName",
          "type": "string"
        }
      ],
      "name": "registerPlayer",
      "outputs": [],
      "stateMutability": "nonpayable",
      "type": "function"
    },
    {
      "inputs": [],
      "name": "removeAll",
      "outputs": [],
      "stateMutability": "nonpayable",
      "type": "function"
    },
    {
      "inputs": [],
      "name": "renounceOwnership",
      "outputs": [],
      "stateMutability": "nonpayable",
      "type": "function"
    },
    {
      "inputs": [
        {
          "internalType": "address",
          "name": "from",
          "type": "address"
        },
        {
          "internalType": "address",
          "name": "to",
          "type": "address"
        },
        {
          "internalType": "uint256[]",
          "name": "ids",
          "type": "uint256[]"
        },
        {
          "internalType": "uint256[]",
          "name": "amounts",
          "type": "uint256[]"
        },
        {
          "internalType": "bytes",
          "name": "data",
          "type": "bytes"
        }
      ],
      "name": "safeBatchTransferFrom",
      "outputs": [],
      "stateMutability": "nonpayable",
      "type": "function"
    },
    {
      "inputs": [
        {
          "internalType": "address",
          "name": "from",
          "type": "address"
        },
        {
          "internalType": "address",
          "name": "to",
          "type": "address"
        },
        {
          "internalType": "uint256",
          "name": "id",
          "type": "uint256"
        },
        {
          "internalType": "uint256",
          "name": "amount",
          "type": "uint256"
        },
        {
          "internalType": "bytes",
          "name": "data",
          "type": "bytes"
        }
      ],
      "name": "safeTransferFrom",
      "outputs": [],
      "stateMutability": "nonpayable",
      "type": "function"
    },
    {
      "inputs": [
        {
          "internalType": "address",
          "name": "operator",
          "type": "address"
        },
        {
          "internalType": "bool",
          "name": "approved",
          "type": "bool"
        }
      ],
      "name": "setApprovalForAll",
      "outputs": [],
      "stateMutability": "nonpayable",
      "type": "function"
    },
    {
      "inputs": [
        {
          "internalType": "string",
          "name": "newuri",
          "type": "string"
        }
      ],
      "name": "setURI",
      "outputs": [],
      "stateMutability": "nonpayable",
      "type": "function"
    },
    {
      "inputs": [
        {
          "internalType": "bytes4",
          "name": "interfaceId",
          "type": "bytes4"
        }
      ],
      "name": "supportsInterface",
      "outputs": [
        {
          "internalType": "bool",
          "name": "",
          "type": "bool"
        }
      ],
      "stateMutability": "view",
      "type": "function"
    },
    {
      "inputs": [
        {
          "internalType": "uint256",
          "name": "tokenId",
          "type": "uint256"
        }
      ],
      "name": "tokenURI",
      "outputs": [
        {
          "internalType": "string",
          "name": "",
          "type": "string"
        }
      ],
      "stateMutability": "view",
      "type": "function"
    },
    {
      "inputs": [],
      "name": "totalSupply",
      "outputs": [
        {
          "internalType": "uint256",
          "name": "",
          "type": "uint256"
        }
      ],
      "stateMutability": "view",
      "type": "function"
    },
    {
      "inputs": [
        {
          "internalType": "uint256",
          "name": "id",
          "type": "uint256"
        }
      ],
      "name": "totalSupply",
      "outputs": [
        {
          "internalType": "uint256",
          "name": "",
          "type": "uint256"
        }
      ],
      "stateMutability": "view",
      "type": "function"
    },
    {
      "inputs": [
        {
          "internalType": "address",
          "name": "newOwner",
          "type": "address"
        }
      ],
      "name": "transferOwnership",
      "outputs": [],
      "stateMutability": "nonpayable",
      "type": "function"
    },
    {
      "inputs": [
        {
          "internalType": "uint256",
          "name": "",
          "type": "uint256"
        }
      ],
      "name": "uri",
      "outputs": [
        {
          "internalType": "string",
          "name": "",
          "type": "string"
        }
      ],
      "stateMutability": "view",
      "type": "function"
    },
    {
      "stateMutability": "payable",
      "type": "receive"
    }
  ],
  "bytecode": "0x60a060405234620000d857620062a980380380916200001e82620000f4565b60a0398060a0016020809212620000d85760a0516001600160401b038111620000d8578160bf82011215620000d8578060a00151906200005e82620001fd565b926200006e604051948562000146565b82845260c090818484010111620000d85760005b838110620000c4576200009d8560008887830101526200087b565b60405161511a90816200116f8239608051818181613d8601528181613f160152613f8f0152f35b828101820151858201870152850162000082565b600080fd5b50634e487b7160e01b600052604160045260246000fd5b60a0601f91909101601f19168101906001600160401b038211908210176200011b57604052565b62000125620000dd565b604052565b604081019081106001600160401b038211176200011b57604052565b601f909101601f19168101906001600160401b038211908210176200011b57604052565b60405190608082016001600160401b038111838210176200011b57604052565b6040519060a082016001600160401b038111838210176200011b57604052565b6040519061016082016001600160401b038111838210176200011b57604052565b604051906101c082016001600160401b038111838210176200011b57604052565b60405190620001fb826200012a565b565b6020906001600160401b0381116200021b575b601f01601f19160190565b62000225620000dd565b62000210565b60405190602082016001600160401b0381118382101762000250575b60405260008252565b6200025a620000dd565b62000247565b604051906200026f826200012a565b600582526468656c6c6f60d81b6020830152565b6040519062000292826200012a565b6007825266676f6f6462796560c81b6020830152565b60405190620002b7826200012a565b600382526239bab760e91b6020830152565b60405190620002d8826200012a565b6008825267686f6c6c6964617960c01b6020830152565b60405190620002fe826200012a565b60068252656265666f726560d01b6020830152565b6040519062000322826200012a565b600582526430b33a32b960d91b6020830152565b6040519062000345826200012a565b600b82526a3932b9ba37b930ba34b7b760a91b6020830152565b604051906200036e826200012a565b60078252663330b9b434b7b760c91b6020830152565b6040519062000393826200012a565b60088252676472657373696e6760c01b6020830152565b60405190620003b9826200012a565b600e82526d726570726573656e74617469766560901b6020830152565b60405190620003e5826200012a565b600782526673696c656e636560c81b6020830152565b604051906200040a826200012a565b600a82526961636365707461626c6560b01b6020830152565b6040519062000432826200012a565b600d82526c195b9d9a5c9bdb9b595b9d185b609a1b6020830152565b604051906200045d826200012a565b600982526870686f746f636f707960b81b6020830152565b90600182811c92168015620004a7575b60208310146200049157565b634e487b7160e01b600052602260045260246000fd5b91607f169162000485565b818110620004be575050565b60008155600101620004b2565b90601f8211620004d9575050565b620001fb9160026000526020600020906020601f840160051c830193106200050a575b601f0160051c0190620004b2565b9091508190620004fc565b90601f821162000523575050565b620001fb9160056000526020600020906020601f840160051c830193106200050a57601f0160051c0190620004b2565b9190601f81116200056357505050565b620001fb926000526020600020906020601f840160051c830193106200050a57601f0160051c0190620004b2565b80519091906001600160401b03811162000685575b620005be81620005b860055462000475565b62000515565b602080601f8311600114620005fd5750819293600092620005f1575b50508160011b916000199060031b1c191617600555565b015190503880620005da565b6005600052601f198316949091907f036b6384b5eca791c62761152d0c79bb0604c104a5fb6f4eb0703f3154bb3db0926000905b8782106200066c57505083600195961062000652575b505050811b01600555565b015160001960f88460031b161c1916905538808062000647565b8060018596829496860151815501950193019062000631565b6200068f620000dd565b620005a6565b81519192916001600160401b03811162000771575b620006c281620006bb845462000475565b8462000553565b602080601f831160011462000701575081929394600092620006f5575b50508160011b916000199060031b1c1916179055565b015190503880620006df565b90601f198316956200071885600052602060002090565b926000905b88821062000758575050836001959697106200073e575b505050811b019055565b015160001960f88460031b161c1916905538808062000734565b806001859682949686015181550195019301906200071d565b6200077b620000dd565b620006aa565b60075490600e9182600755808310620007dd575b506007600052600080516020620062898339815191526000915b838310620007bd5750505050565b6001602082620007d08394518662000695565b01920192019190620007af565b60076000908152600080516020620062898339815191529182019184015b8281106200080b57505062000795565b806200081a6001925462000475565b8062000829575b5001620007fb565b601f908181118414620008435750508281555b3862000821565b8362000868926200085985600052602060002090565b920160051c82019101620004b2565b600081815260208120818355556200083c565b62000989906200088b8162000993565b6200097462000899620001cb565b620008a362000260565b8152620008af62000283565b6020820152620008be620002a8565b6040820152620008cd620002c9565b6060820152620008dc620002ef565b6080820152620008eb62000313565b60a0820152620008fa62000336565b60c0820152620009096200035f565b60e08201526200091862000384565b61010082015262000928620003aa565b61012082015262000938620003d6565b61014082015262000948620003fb565b6101608201526200095862000423565b610180820152620009686200044e565b6101a082015262000781565b33608052620009833362001103565b62000591565b620001fb62000fc4565b80519091906001600160401b03811162000a95575b620009c081620009ba60025462000475565b620004cb565b602080601f831160011462000a095750819293600092620009fd575b50508160011b916000199060031b1c1916176002555b620001fb33620010b5565b015190503880620009dc565b6002600052601f198316949091907f405787fa12a823e0f2b7631cc41b3ba8828b3321ca811111fa75cd3aa3bb5ace926000905b87821062000a7c57505083600195961062000a62575b505050811b01600255620009f2565b015160001960f88460031b161c1916905538808062000a53565b8060018596829496860151815501950193019062000a3d565b62000a9f620000dd565b620009a8565b50634e487b7160e01b600052603260045260246000fd5b90600d54916801000000000000000083101562000c34575b60019081840180600d5584101562000c24575b600d60005280518051909460021b7fd7b6990105719101dabeb77144f2a3385c8033acd3af97e9423a695e81ad1eb50192906020906001600160401b03811162000c14575b62000b448162000b3d875462000475565b8762000553565b81601f821160011462000b9d579080606095949392600397989960009262000b91575b505060001982881b1c191690831b1786555b82015190850155604081015160028501550151910155565b01519050388062000b67565b601f1982169062000bb387600052602060002090565b9160005b81811062000bfe5750918391600398999a87969560609998951062000be5575b505050811b01865562000b79565b0151600019838a1b60f8161c1916905538808062000bd7565b8a83015184559286019291850191850162000bb7565b62000c1e620000dd565b62000b2c565b62000c2e62000aa5565b62000ae7565b62000c3e620000dd565b62000ad4565b600c546801000000000000000081101562000e0c575b60019182820180600c5582101562000dfc575b600c600052805160059092027fdf6966c971051c3d54ec59162606531493a51404a002842f56009d7e5cf4a8c70180546001600160a01b0319166001600160a01b039390931692909217825560208181015180519094848101926001600160401b03831162000dec575b62000cef8362000ce8865462000475565b8662000553565b80601f841160011462000d6657509282806080946004979462000d4797620001fb9b60009462000d5a575b50501b916000199060031b1c19161790555b60408101516002860155606081015160038601550151151590565b91019060ff801983541691151516179055565b01519250388062000d1a565b9193949596601f19841662000d8087600052602060002090565b936000905b82821062000dd457505093620001fb9897936004979362000d479793836080981062000dba575b505050811b01905562000d2c565b015160001960f88460031b161c1916905538808062000dac565b80888697829497870151815501960194019062000d85565b62000df6620000dd565b62000cd7565b62000e0662000aa5565b62000c6d565b62000e16620000dd565b62000c5a565b6003111562000e2757565b634e487b7160e01b600052602160045260246000fd5b90600381101562000e275760ff80198354169116179055565b9060005b6002811062000e6857505050565b81516001600160a01b03168184015560209091019060010162000e5a565b600b610140600e546801000000000000000081101562000fb4575b6001810180600e5581101562000fa4575b600e600052600c60206000209102019262000eda815162000ed38162000e1c565b8562000e3d565b6020810151600185015562000ef760408201516002860162000695565b6060810151600385015562000f1460808201516004860162000e56565b60a08101516006850180546001600160a01b039283166001600160a01b03199182161790915560c083015160078701805491909316911617905560e081015162000f62906008860162000695565b62000f766101008201516009860162000695565b62000f9d62000f8a61012083015160ff1690565b600a86019060ff1660ff19825416179055565b0151910155565b62000fae62000aa5565b62000eb2565b62000fbe620000dd565b62000ea1565b620001fb62000fd26200016a565b62000fdc6200022b565b815262000ffd60009182602082015282604082015282606082015262000abc565b620010356200100b6200018a565b828152620010186200022b565b602082015282604082015282606082015282608082015262000c44565b6200103f620001ec565b90808252806020830152620010536200022b565b6200105d620001aa565b92828452826020850152620010716200022b565b604085015282606085015260808401528160a08401528160c0840152620010976200022b565b60e08401526101008301528061012083015261014082015262000e86565b600380546001600160a01b039283166001600160a01b031982168117909255604051919216907f8be0079c531659141344cd1fd0a4f28419497f9722a3daafe3b4186f6b6457e090600090a3565b60405163161765e160e11b602082019081526001600160a01b0390921660248083019190915281526000918291606081016001600160401b038111828210176200115e575b60405251906a636f6e736f6c652e6c6f675afa50565b62001168620000dd565b6200114856fe6080604052600436101561001b575b361561001957600080fd5b005b60003560e01c8062fdd58e14610359578063015a37921461035057806301ffc9a71461034757806302fe53051461033e57806309c95e10146103355780630daea2cd1461032c5780630e89341c1461032357806310898e4c1461031a578063110553e9146103115780631107ae3d1461030857806312065fe0146102ff57806316801d17146102f657806318160ddd146102395780632ca04522146102ed5780632d5fbd96146102e45780632eb2c2d6146102db578063331dcd31146102d25780634974da81146102c95780634e1273f4146102c05780634f558e79146102b7578063548fb999146102ae5780635c12cd4b146102a55780635c93fc3d1461029c5780636c0360eb14610293578063715018a61461028a578063845f433b146102815780638da5cb5b14610278578063996d7bea1461026f5780639ec40aa314610266578063a1b4f57c1461025d578063a22cb46514610254578063bd85b0391461024b578063bf103a4d14610242578063c4e41b2214610239578063c87b56dd14610230578063d5743ff814610227578063d8b322641461021e578063e985e9c514610215578063efa1c4821461020c578063f242432a14610203578063f2fde38b146101fa5763fcb633610361000e576101f5612553565b61000e565b506101f5612486565b506101f5612248565b506101f561215f565b506101f5612101565b506101f5612061565b506101f5611fb1565b506101f5611ed9565b506101f5610bd4565b506101f5611eb5565b506101f5611e88565b506101f5611d93565b506101f5611aee565b506101f5611ad7565b506101f5611a2e565b506101f5611a04565b506101f56118f4565b506101f5611892565b506101f56117c5565b506101f56115da565b506101f56115a1565b506101f561153b565b506101f561150c565b506101f5611452565b506101f5611305565b506101f5610fdc565b506101f5610e0b565b506101f5610d59565b506101f5610bf3565b506101f5610bab565b506101f5610a5a565b506101f5610a41565b506101f5610a18565b506101f5610970565b506101f56108a0565b506101f5610872565b506101f5610844565b506101f561073d565b506101f5610551565b506101f5610453565b506101f56103a7565b600435906001600160a01b038216820361037857565b600080fd5b602435906001600160a01b038216820361037857565b35906001600160a01b038216820361037857565b50346103785760403660031901126103785760206103cf6103c6610362565b602435906146b1565b604051908152f35b60005b8381106103ea5750506000910152565b81810151838201526020016103da565b90602091610413815180928185528580860191016103d7565b601f01601f1916010190565b9060608061043684516080855260808501906103fa565b936020810151602085015260408101516040850152015191015290565b50346103785760008060031936011261053c57600d5461047281610d87565b906104806040519283610635565b808252600d835260209283830191817fd7b6990105719101dabeb77144f2a3385c8033acd3af97e9423a695e81ad1eb5845b8383106105175750505050604051928484019085855251809152604084019460408260051b8601019392955b8287106104eb5785850386f35b909192938280610507600193603f198a8203018652885161041f565b96019201960195929190926104de565b60048860019261052a859b9a989b612751565b815201920192019190969395966104b2565b80fd5b6001600160e01b031981160361037857565b50346103785760203660031901126103785760206004356105718161053f565b63ffffffff60e01b16636cdb3d1360e11b81149081156105af575b811561059e575b506040519015158152f35b6301ffc9a760e01b14905038610593565b6303a24d0760e21b8114915061058c565b50634e487b7160e01b600052604160045260246000fd5b60a081019081106001600160401b038211176105f257604052565b6105fa6105c0565b604052565b608081019081106001600160401b038211176105f257604052565b604081019081106001600160401b038211176105f257604052565b90601f801991011681019081106001600160401b038211176105f257604052565b6040519061016082018281106001600160401b038211176105f257604052565b60405190610683826105d7565b565b60405190610683826105ff565b604051906106838261061a565b6020906001600160401b0381116106bc575b601f01601f19160190565b6106c46105c0565b6106b1565b81601f82011215610378578035906106e08261069f565b926106ee6040519485610635565b8284526020838301011161037857816000926020809301838601378301015290565b602060031982011261037857600435906001600160401b0382116103785761073a916004016106c9565b90565b50346103785761074c36610710565b610754614659565b80516001600160401b038111610837575b610779816107746002546116da565b612aa8565b602080601f83116001146107b4575081926000926107a9575b50508160011b916000199060031b1c191617600255005b015190503880610792565b6002600052601f198316939091907f405787fa12a823e0f2b7631cc41b3ba8828b3321ca811111fa75cd3aa3bb5ace926000905b86821061081f5750508360019510610806575b505050811b01600255005b015160001960f88460031b161c191690553880806107fb565b806001859682949686015181550195019301906107e8565b61083f6105c0565b610765565b5034610378576020366003190112610378576020610868610863610362565b612594565b6040519015158152f35b5034610378576000366003190112610378576020604051600a8152f35b90602061073a9281815201906103fa565b503461037857602080600319360112610378576040516000916002546108c5816116da565b8084529060019081811690811561093f57506001146108ff575b6108fb846108ef81880382610635565b6040519182918261088f565b0390f35b919350600260005283600020916000925b82841061092c57505050816108fb936108ef92820101936108df565b8054858501870152928501928101610910565b60ff1916858501525050151560051b82010191506108ef816108fb6108df565b90602061073a92818152019061041f565b50346103785760203660031901126103785761098a610362565b6109926126ff565b5061099c816126de565b156109d75760018060a01b0316600052600a6020526108fb6109cb6109c5604060002054612724565b50612751565b6040519182918261095f565b60405162461bcd60e51b815260206004820152601960248201527847616d6520746f6b656e20646f65736e27742065786973742160381b6044820152606490fd5b503461037857602060ff610120610a36610a3136610710565b6129a2565b015116604051908152f35b5034610378576020610868610a5536610710565b6127cf565b503461037857600036600319011261037857602047604051908152f35b60031115610a8157565b634e487b7160e01b600052602160045260246000fd5b906003821015610a815752565b6000915b60028310610ab557505050565b81516001600160a01b031681526001929092019160209182019101610aa8565b90610ae1818351610a97565b60208201516020820152610160610b0760408401516101808060408601528401906103fa565b9260608101516060840152610b2460808201516080850190610aa4565b60a08101516001600160a01b031660c084015260c08101516001600160a01b031660e0840152610b7b610b6660e08301519561010096868203888801526103fa565b948201519461012095858203878701526103fa565b9381015190610b92610140928386019060ff169052565b015191015290565b90602061073a928181520190610ad5565b5034610378576108fb610bc0610a3136610710565b604051918291602083526020830190610ad5565b5034610378576000366003190112610378576020600654604051908152f35b50610bfd36610710565b610c0a6007541515613073565b610c1b610c1633612594565b612d09565b610c33610c2e610c2a836127cf565b1590565b6130d3565b610c403331341115613118565b610c5064174876e800341161317b565b6040516020810190610c7481610c66858561088f565b03601f198101835282610635565b51902090610d01610c83610692565b3381529260006020850152610c96612fdc565b92610c9f612fdc565b610ca7610656565b60008152602081019390935260408301828152346060850152608084019687523360a085015294600060c085015260e0840152610100830152600061012083015242610140830152610cfb600e54916127a9565b5561324d565b5190516001600160a01b0390610d22906020015b516001600160a01b031690565b16907f5da93d412071ca49c5b3543268fc9249b407b8de53c1589d76d6532f0a5b7df860405180610d5433948261088f565b0390a3005b5034610378576108fb610d73610d6e36610710565b612a1e565b6040519182916020835260208301906103fa565b6020906001600160401b038111610da0575b60051b0190565b610da86105c0565b610d99565b81601f8201121561037857803591610dc483610d87565b92610dd26040519485610635565b808452602092838086019260051b820101928311610378578301905b828210610dfc575050505090565b81358152908301908301610dee565b50346103785760a036600319011261037857610e25610362565b610e2d61037d565b906001600160401b039060443582811161037857610e4f903690600401610dad565b9160643581811161037857610e68903690600401610dad565b9060843590811161037857610e819036906004016106c9565b6001600160a01b038381169491903386148015610fb9575b610ea29061484c565b610eaf8351855114614983565b8616610ebc8115156148af565b610ec884848988614fd7565b60005b8351811015610f755780610ee2610f70928661476f565b51610f69610f618b610f16610ef7868c61476f565b51948c610f5087610f2d83610f16866000526000602052604060002090565b9060018060a01b0316600052602052604060002090565b54610f3a82821015614909565b0391610f16846000526000602052604060002090565b556000526000602052604060002090565b918254614976565b9055612f50565b610ecb565b5093869194610019966040517f4a39dc06d4c0dbc64b70af90fd698a233a518aa5d07e595d983b8c0526c8f7fb339180610fb08a8a836149e0565b0390a433614ee9565b50600086815260016020908152604080832033845290915290205460ff16610e99565b5034610378576040366003190112610378576004356001600160f81b031981168103610378576024356001600160401b038111610378576110219036906004016106c9565b61102a816129a2565b9161104a6001845161103b81610a77565b61104481610a77565b14613868565b61106a6002845161105a81610a77565b61106381610a77565b14156138e4565b60808301805180516001600160a01b0391611094918390811633149182156112ec575b505061393f565b6110c96110c26110b660a06110a8886129a2565b01516001600160a01b031690565b6001600160a01b031690565b331461398b565b610c666111346101208701946110ef600660ff6110e7895160ff1690565b1611156139cd565b60e088019461110882875161110261364c565b90614529565b909652851594856111c3575b50506040516001600160f81b031990911660208201529182906021820190565b6111446101008701918251613a5f565b90526111508585613761565b7fe212ed376777ebdfaa9739efc3d6eed905003d9d42dff523214c309a7396a61f61118c61117d86612a1e565b9260405191829115948261088f565b0390a21561119f57506100199150613adc565b51600691506111b29060ff165b60ff1690565b10156111ba57005b61001990613d4f565b81515161128492906111f5906111e790610d15906111ec906001600160a01b031683565b61257a565b54935160200190565b54611210611202836125d1565b50546001600160a01b031690565b60a08d01805190949190829061122e906001600160a01b03166110b6565b91160361128b5750506112426003916125d1565b500161124e8154612efe565b90555b61126e6112676112628a5160ff1690565b613a3c565b60ff168952565b61127789613aa0565b6001600160a01b03169052565b3880611114565b90915061129a611202836125d1565b83519091906112b1906001600160a01b03166110b6565b9116036112d6576112c36003916125d1565b50016112cf8154612efe565b9055611251565b506112e76112e2613a0a565b615054565b611251565b60200151166001600160a01b031690503314823861108d565b50346103785761131436610710565b61131c614659565b61132581614493565b156113b857611332614659565b61133b8161437d565b156113735761136e816108ef7fa8a13d5362cedeaaf8906a83b0afcab2c07c8bdac8a04ed19d273c4307f260bd93614312565b0390a1005b60405162461bcd60e51b815260206004820152601f60248201527f4572726f722c20776f726420616c726561647920696e20746865206c697374006044820152606490fd5b60405162461bcd60e51b815260206004820152602760248201527f4572726f722c20776f72642077697468206c6f77657263617365206c657474656044820152667273206f6e6c7960c81b6064820152608490fd5b90815180825260208080930193019160005b82811061142d575050505090565b83518552938101939281019260010161141f565b90602061073a92818152019061140d565b5034610378576040366003190112610378576004356001600160401b03808211610378573660238301121561037857816004013561148f81610d87565b9261149d6040519485610635565b81845260209160248386019160051b8301019136831161037857602401905b8282106114f55785602435868111610378576108fb916114e36114e9923690600401610dad565b90614791565b60405191829182611441565b83809161150184610393565b8152019101906114bc565b503461037857602036600319011261037857600435600052600460205260206040600020541515604051908152f35b50346103785760206001600160a01b0360a0610a36610a3136610710565b9060018060a01b038251168152608080611582602085015160a0602086015260a08501906103fa565b9360408101516040850152606081015160608501520151151591015290565b5034610378576020366003190112610378576108fb6115c66115c1610362565b612656565b604051918291602083526020830190611559565b50346103785760008060031936011261053c57600e546115f981610d87565b906116076040519283610635565b808252600e835260209283830191817fbb7b4a454dc3493923482f07822329ed19e8244eff582cc204f8554c3620c3fd845b83831061169e5750505050604051928484019085855251809152604084019460408260051b8601019392955b8287106116725785850386f35b90919293828061168e600193603f198a82030186528851610ad5565b9601920196019592919092611665565b600c886001926116b1859b9a989b6128dd565b81520192019201919096939596611639565b50634e487b7160e01b600052600060045260246000fd5b90600182811c9216801561170a575b60208310146116f457565b634e487b7160e01b600052602260045260246000fd5b91607f16916116e9565b9060009291805491611725836116da565b9182825260019384811690816000146117875750600114611747575b50505050565b90919394506000526020928360002092846000945b838610611773575050505001019038808080611741565b80548587018301529401938590820161175c565b9294505050602093945060ff191683830152151560051b01019038808080611741565b906106836117be9260405193848092611714565b0383610635565b50346103785760008060031936011261053c57604051816005546117e8816116da565b8084529060019081811690811561186a5750600114611811576108fb846108ef81880382610635565b60058352602094507f036b6384b5eca791c62761152d0c79bb0604c104a5fb6f4eb0703f3154bb3db05b82841061185757505050816108fb936108ef92820101936108df565b805485850187015292850192810161183b565b6108fb96506108ef9450602092508593915060ff191682840152151560051b820101936108df565b50346103785760008060031936011261053c576118ad614659565b600380546001600160a01b031981169091556040519082906001600160a01b03167f8be0079c531659141344cd1fd0a4f28419497f9722a3daafe3b4186f6b6457e08284a3f35b5034610378576040366003190112610378576001600160401b03600435818111610378576119269036906004016106c9565b906024359081116103785761193f9036906004016106c9565b61194833612594565b6119c35761001991600c5461198161195e610676565b338152836020820152600a60408201526006606082015260006080820152612c3d565b61198a3361257a565b557f81ef79d1cda814a60c0fc60792e648a06d9c6bae67176346d1cc8b63030bfccd604051806119bb33948261088f565b0390a2612d55565b60405162461bcd60e51b8152602060048201526019602482015278141b185e595c88185b1c9958591e481c9959da5cdd195c9959603a1b6044820152606490fd5b5034610378576000366003190112610378576003546040516001600160a01b039091168152602090f35b503461037857611a6c611a4036610710565b610a3181604051611a508161061a565b600a81526971756974426174746c6560b01b602082015261509d565b60808101908151611a9260018060a01b0391828151163314908115611abe575b50613c52565b82515116338103611ab45750611aaf610d15610019935160200190565b613ed3565b6100199250613ed3565b6020015133915083166001600160a01b03161438611a8c565b503461037857610019611ae936610710565b612d55565b506108fb611afb36610710565b611b036127e2565b50611c27611b10826129a2565b917fcb17c4d26368c123b39a5b879cf729cad76aa10dfe5b9cd5355296f2732b86036080840191611ccd85611b4d855160018060a01b0390511690565b6001600160a01b039390611b65908516331415613370565b611b85611b80610c2a6080611b7933612656565b0151151590565b6133c6565b611b923331341115613406565b611ba160608301513414613467565b611bbe8251611baf81610a77565b611bb881610a77565b156134b3565b60018252611be033611bd1885160200190565b6001600160a01b039091169052565b8551516001600160a01b031660a0830152611c6d611c67611c62611c03846127a9565b54604051906325e41da160e01b8252818060209d8e93600483019190602083019252565b038173512a528818ea1bbc93ee378c221aa93b0798383f5afa908115611d86575b600091611d59575b506007548b811015611d515790612f30565b613515565b5061353e565b611c7d611c7861364c565b6137f4565b96611cc2611ca2611c9460e086019a808c52613707565b516001600160f81b03191690565b6040516001600160f81b0319909116928101928352918290600101610c66565b610100830152613761565b825151611d0290600490611cf390611ced906001600160a01b031661257a565b546125d1565b5001805460ff19166001179055565b611d1b6004611cf3611ced6111e7610d15885160200190565b60408501519251516001600160a01b0316935190611d42604051928392339716958361373c565b0390a360405191829182610b9a565b508a90612f30565b611d7991508b3d8d11611d7f575b611d718183610635565b8101906134f9565b38611c50565b503d611d67565b611d8e613508565b611c48565b503461037857604036600319011261037857611dad610362565b6024358015158103610378576001600160a01b03821691338314611e3157336000908152600160205260409020611dfb918391611dea9190610f16565b9060ff801983541691151516179055565b604051901515815233907f17307eab39ab6107e8899845ad3d59bd9653f200f220920489ca2b5937696c31908060208101610d54565b60405162461bcd60e51b815260206004820152602960248201527f455243313135353a2073657474696e6720617070726f76616c20737461747573604482015268103337b91039b2b63360b91b6064820152608490fd5b50346103785760203660031901126103785760043560005260046020526020604060002054604051908152f35b5034610378576020366003190112610378576020610868611ed4610362565b6126de565b50346103785760208060031936011261037857611ef7600435614236565b60405190600092600554611f0a816116da565b90600190818116908115611f925750600114611f51575b602f60f81b86526108fb856108ef81610c66611f4060018c018a612792565b64173539b7b760d91b815260050190565b90919450600560005284600020906000915b838310611f7f5750505082019092019181610c66611f40611f21565b8054868401880152918601918101611f63565b60ff191684870152505080151502830101925081610c66611f40611f21565b50346103785760008060031936011261053c57611fcc614659565b600780541561202857815b81548082101561202257801561200e57612009919060001901612002611ffc82613515565b90614422565b8355612f50565b611fd7565b634e487b7160e01b84526031600452602484fd5b83604051f35b60405162461bcd60e51b81526020600482015260116024820152706e6f20776f726420746f2072656d6f766560781b6044820152606490fd5b50346103785761207036610710565b612079816127cf565b156120b05760096108ef6120986120926108fb946127a9565b54612867565b506120a96040518094819301611714565b0382610635565b60405162461bcd60e51b815260206004820152602360248201527f2867657447756573736573293a20426174746c6520646f65736e27742065786960448201526273742160e81b6064820152608490fd5b503461037857604036600319011261037857602060ff612153612122610362565b61212a61037d565b6001600160a01b0391821660009081526001865260408082209290931681526020919091522090565b54166040519015158152f35b50346103785760008060031936011261053c57600c5461217e81610d87565b9061218c6040519283610635565b808252600c835260209283830191817fdf6966c971051c3d54ec59162606531493a51404a002842f56009d7e5cf4a8c7845b8383106122235750505050604051928484019085855251809152604084019460408260051b8601019392955b8287106121f75785850386f35b909192938280612213600193603f198a82030186528851611559565b96019201960195929190926121ea565b600588600192612236859b9a989b6125fe565b815201920192019190969395966121be565b50346103785760a036600319011261037857612262610362565b61226a61037d565b6064356044356084356001600160401b0381116103785761228f9036906004016106c9565b6001600160a01b0385811695919491903387148015612463575b6122b29061484c565b82168015966122c188156148af565b6122ca85614f55565b976122d487614f55565b908215612407575b612385575b5061001997508561230084610f16886000526000602052604060002090565b5461230d82821015614909565b0361232684610f16886000526000602052604060002090565b5561233f84610f16876000526000602052604060002090565b61234a878254614976565b9055604080518681526020810188905233917fc3d58168c5ae7397731d063d5bbf3d657854427343f4c083240f7aacaa2d0f6291a433614dc3565b959391600097959391975b89518110156123f457806123a76123ef928c61476f565b516123e96123b5838c61476f565b516123ca836000526004602052604060002090565b546123d782821015614f7a565b03916000526004602052604060002090565b55612f50565b612390565b50919395509193956100199750386122e1565b9896939095926000989592985b8851811015612453578089610f69610f6161243d8461243661244e978f61476f565b519461476f565b516000526004602052604060002090565b612414565b50929590939698979194976122dc565b50600087815260016020908152604080832033845290915290205460ff166122a9565b5034610378576020366003190112610378576124a0610362565b6124a8614659565b6001600160a01b039081169081156124ff57600380546001600160a01b03198116841790915560405160009390929091167f8be0079c531659141344cd1fd0a4f28419497f9722a3daafe3b4186f6b6457e08484a3f35b60405162461bcd60e51b815260206004820152602660248201527f4f776e61626c653a206e6577206f776e657220697320746865207a65726f206160448201526564647265737360d01b6064820152608490fd5b50346103785760003660031901126103785761256d614659565b6020600754604051908152f35b6001600160a01b0316600090815260096020526040902090565b6001600160a01b03166000908152600960205260409020546125b557600090565b600190565b50634e487b7160e01b600052603260045260246000fd5b600c548110156125f1575b600c6000526005602060002091020190600090565b6125f96125ba565b6125dc565b9060405161260b816105d7565b608060ff6004839560018060a01b038154168552604051612633816120a98160018601611714565b602086015260028101546040860152600381015460608601520154161515910152565b60006080604051612666816105d7565b82815260606020820152826040820152826060820152015261268781612594565b156126a15761269b611ced61073a9261257a565b506125fe565b60405162461bcd60e51b8152602060048201526015602482015274506c6179657220646f65736e27742065786973742160581b6044820152606490fd5b6001600160a01b03166000908152600a60205260409020546125b557600090565b6040519061270c826105ff565b60006060838181528260208201528260408201520152565b600d54811015612744575b600d60005260206000209060021b0190600090565b61274c6125ba565b61272f565b9060405161275e816105ff565b606060038294604051612775816120a98185611714565b845260018101546020850152600281015460408501520154910152565b906127a5602092828151948592016103d7565b0190565b60206127c29181604051938285809451938492016103d7565b8101600b81520301902090565b6127d8906127a9565b546125b557600090565b6040519061016082018281106001600160401b0382111761285a575b604052816101406000918281528260208201526060604082015282606082015260405161282a8161061a565b604036823760808201528260a08201528260c0820152606060e08201526060610100820152826101208201520152565b6128626105c0565b6127fe565b600e54811015612887575b600e600052600c602060002091020190600090565b61288f6125ba565b612872565b6003821015610a815752565b60405191906000835b600282106128bd575050506106838261061a565b82546001600160a01b0316815260019283019291909101906020016128a9565b90600b6128e8610656565b926128fd6128f7825460ff1690565b85612894565b60018101546020850152612913600282016117aa565b60408501526003810154606085015261292e600482016128a0565b608085015260068101546001600160a01b031660a085015260078101546001600160a01b031660c0850152612965600882016117aa565b60e0850152612976600982016117aa565b61010085015261299861298d600a83015460ff1690565b60ff16610120860152565b0154610140830152565b6129aa6127e2565b506129b4816127cf565b156129ce576129c861209261073a926127a9565b506128dd565b60405162461bcd60e51b815260206004820152602260248201527f28676574426174746c65293a20426174746c6520646f65736e27742065786973604482015261742160f01b6064820152608490fd5b612a27816127cf565b15612a3d5761073a6120986120926008936127a9565b60405162461bcd60e51b815260206004820152602660248201527f286765744d61736b6564576f7264293a20426174746c6520646f65736e27742060448201526565786973742160d01b6064820152608490fd5b818110612a9c575050565b60008155600101612a91565b90601f8211612ab5575050565b6106839160026000526020600020906020601f840160051c83019310612ae3575b601f0160051c0190612a91565b9091508190612ad6565b90601f8211612afa575050565b6106839160086000526020600020906020601f840160051c83019310612ae357601f0160051c0190612a91565b9190601f8111612b3657505050565b610683926000526020600020906020601f840160051c83019310612ae357601f0160051c0190612a91565b91909182516001600160401b038111612c30575b612b8981612b8384546116da565b84612b27565b602080601f8311600114612bc5575081929394600092612bba575b50508160011b916000199060031b1c1916179055565b015190503880612ba4565b90601f19831695612bdb85600052602060002090565b926000905b888210612c1857505083600195969710612bff575b505050811b019055565b015160001960f88460031b161c19169055388080612bf5565b80600185968294968601518155019501930190612be0565b612c386105c0565b612b75565b6106839060046080600c54600160401b811015612cfc575b6001810180600c55811015612cef575b600c60005283516005919091027fdf6966c971051c3d54ec59162606531493a51404a002842f56009d7e5cf4a8c70180546001600160a01b0319166001600160a01b039290921691909117815592612cc4602082015160018601612b61565b60408101516002850155606081015160038501550151151591019060ff801983541691151516179055565b612cf76125ba565b612c65565b612d046105c0565b612c55565b15612d1057565b60405162461bcd60e51b815260206004820152601c60248201527f506c6561736520526567697374657220506c61796572204669727374000000006044820152606490fd5b6080612d6033612656565b0151612eaa5761068390612d76610c1633612594565b612d7e6126ff565b50612d883361302c565b612d9181612f15565b60066040516020810190612dc381610c66334486909160349282526001600160601b03199060601b1660208201520190565b51902006928315612e71575b7fca8ab07e9ed17d119729fc652dd24df9d8430ca862dda4631925b5b4b99da36291612e5f91612dfd610685565b908152856020820152846040820152816060820152612e31600d5491612e2c612e27600654612f50565b600655565b612f68565b336000908152600a602052604090205560408051868152602081019590955284015233929081906060820190565b0390a2612e6a61300d565b9033614a05565b927fca8ab07e9ed17d119729fc652dd24df9d8430ca862dda4631925b5b4b99da36291612ea0612e5f92612f50565b9491509150612dcf565b60405162461bcd60e51b8152602060048201526015602482015274506c6179657220697320696e206120626174746c6560581b6044820152606490fd5b50634e487b7160e01b600052601160045260246000fd5b600019810191908211612f0d57565b610683612ee7565b600a0390600a8211612f0d57565b91908203918211612f0d57565b8115612f3a570690565b634e487b7160e01b600052601260045260246000fd5b6001906000198114612f60570190565b6127a5612ee7565b60036060600d54600160401b811015612fcf575b6001810180600d55811015612fc2575b600d60005260206000209060021b0192612fa7815185612b61565b60208101516001850155604081015160028501550151910155565b612fca6125ba565b612f8c565b612fd76105c0565b612f7c565b60405190602082018281106001600160401b03821117613000575b60405260008252565b6130086105c0565b612ff7565b6040519061301a8261061a565b600382526203078360ec1b6020830152565b600a9060405160208101914483524460408301526001600160601b03199060601b16606082015260548152613060816105ff565b51902006801561306d5790565b50600590565b1561307a57565b60405162461bcd60e51b815260206004820152602b60248201527f6e6f20776f72647320696e20746865206c6973742c2061736b206f776e65722060448201526a1bd98818dbdb9d1c9858dd60aa1b6064820152608490fd5b156130da57565b60405162461bcd60e51b8152602060048201526016602482015275426174746c6520616c7265616479206578697374732160501b6044820152606490fd5b1561311f57565b60405162461bcd60e51b815260206004820152602e60248201527f637265617465426174746c653a204572726f722c20696e737566666963656e7460448201526d207661756c742062616c616e636560901b6064820152608490fd5b1561318257565b60405162461bcd60e51b815260206004820152601760248201527608ae4e4dee45840dad2dcd2daeada40605c624082ecc2f604b1b6044820152606490fd5b906003811015610a815760ff80198354169116179055565b8060001904600211811515166131f0575b60011b90565b6131f8612ee7565b6131ea565b600a908060001904821181151516613213570290565b61321b612ee7565b0290565b9060005b6002811061323057505050565b81516001600160a01b031681840155602090910190600101613223565b600b610140600e54600160401b811015613363575b6001810180600e55811015613356575b600e600052600c602060002091020192613296815161329081610a77565b856131c1565b602081015160018501556132b1604082015160028601612b61565b606081015160038501556132cc60808201516004860161321f565b60a08101516006850180546001600160a01b039283166001600160a01b03199182161790915560c083015160078701805491909316911617905560e08101516133189060088601612b61565b61332a61010082015160098601612b61565b61334f61333c61012083015160ff1690565b600a86019060ff1660ff19825416179055565b0151910155565b61335e6125ba565b613272565b61336b6105c0565b613262565b1561337757565b60405162461bcd60e51b815260206004820152602160248201527f4f6e6c7920706c617965722074776f2063616e206a6f696e206120626174746c6044820152606560f81b6064820152608490fd5b156133cd57565b60405162461bcd60e51b8152602060048201526011602482015270416c726561647920696e20626174746c6560781b6044820152606490fd5b1561340d57565b60405162461bcd60e51b815260206004820152602c60248201527f6a6f696e426174746c653a204572726f722c20696e737566666963656e74207660448201526b61756c742062616c616e636560a01b6064820152608490fd5b1561346e57565b60405162461bcd60e51b815260206004820152601b60248201527f416d6f756e74206d75737420626520657175616c2061742062657400000000006044820152606490fd5b156134ba57565b60405162461bcd60e51b8152602060048201526017602482015276426174746c6520616c726561647920737461727465642160481b6044820152606490fd5b90816020910312610378575190565b506040513d6000823e3d90fd5b600754811015613531575b600760005260206000200190600090565b6135396125ba565b613520565b90816008146136485761355182546116da565b6001600160401b03811161363b575b6135748161356f6008546116da565b612aed565b6000601f82116001146135ae578192936000926135a3575b50508160011b916000199060031b1c191617600855565b01549050388061358c565b6135c2601f19831694600052602060002090565b6008600052907ff3f7a9fe364faab93b216da50a3214154f22a0a2b415b23a84c8169e8b636ee391815b868110613623575083600195961061360a575b505050811b01600855565b015460001960f88460031b161c191690553880806135ff565b818301548455600193840193909201916020016135ec565b6136436105c0565b613560565b9050565b6040519060008260085491613660836116da565b8083526001938085169081156136e65750600114613686575b5061068392500383610635565b600860009081527ff3f7a9fe364faab93b216da50a3214154f22a0a2b415b23a84c8169e8b636ee394602093509091905b8183106136ce575050610683935082010138613679565b855488840185015294850194879450918301916136b7565b905061068394506020925060ff191682840152151560051b82010138613679565b602090805115613715570190565b6127a56125ba565b90602091805182101561372f57010190565b6137376125ba565b010190565b909161375361073a936040845260408401906103fa565b9160208184039101526103fa565b61376a816127cf565b156137a357610140613780612092600b936127a9565b939093613796575b613296815161329081610a77565b61379e6116c3565b613788565b60405162461bcd60e51b8152602060048201526024808201527f28757064617465426174746c65293a20426174746c6520646f65736e277420656044820152631e1a5cdd60e21b6064820152608490fd5b600180805b61380257505090565b82518110156138635761383e906001600160f81b031980613823838761371d565b511690855115613856575b6020860151160361384457612f50565b816137f9565b605f613850828661371d565b53612f50565b61385e6125ba565b61382e565b505090565b1561386f57565b60405162461bcd60e51b815260206004820152604160248201527f426174746c65206e6f7420737461727465642e20506c656173652074656c6c2060448201527f616e6f7468657220706c6179657220746f206a6f696e2074686520626174746c6064820152606560f81b608482015260a490fd5b156138eb57565b60405162461bcd60e51b815260206004820152602660248201527f63686f73656e4c65747465723a20426174746c652068617320616c726561647960448201526508195b99195960d21b6064820152608490fd5b1561394657565b60405162461bcd60e51b815260206004820152601a60248201527f596f7520617265206e6f7420696e207468697320626174746c650000000000006044820152606490fd5b1561399257565b60405162461bcd60e51b815260206004820152601360248201527224ba1034b9903737ba103cb7bab9103a3ab93760691b6044820152606490fd5b156139d457565b60405162461bcd60e51b815260206004820152600e60248201526d546f6f206261642063686f69636560901b6044820152606490fd5b60405190613a178261061a565b601682527532b93937b91d1010afb334b7322732bba632ba3a32b960511b6020830152565b60ff60019116019060ff8211612f0d57565b60ff166030019060ff8211612f0d57565b6020610683919392936040519481613a8087935180928680870191016103d7565b8201613a94825180938680850191016103d7565b01038085520183610635565b6080613aab826129a2565b0160018060a01b03918260a0613ac58285515116936129a2565b01511603613ad65751602001511690565b51511690565b613ae5906129a2565b6080810180519060018060a01b039182808251163314918215613c41575b505015613be85751338282511614918215613bd6575b505015613b7e57613b3560e0820151613b3061364c565b6145dd565b7f6b5fd31b10b00ec94eb179707ba8b02caa87421f956fff0ee903bd6a22db99a46000604051a1613b635750565b60a0810151613b7b91906001600160a01b0316613ed3565b50565b60405162461bcd60e51b815260206004820152602a60248201527f5f7265736f6c7665426174746c653a596f7520617265206e6f7420696e207468604482015269697320626174746c652160b01b6064820152608490fd5b90915060203392015116143880613b19565b60405162461bcd60e51b815260206004820152602b60248201527f4f6e6c7920706c617965727320696e207468697320626174746c652063616e2060448201526a6d616b652061206d6f766560a81b6064820152608490fd5b602091925001511633148238613b03565b15613c5957565b60405162461bcd60e51b815260206004820152602660248201527f71756974426174746c653a596f7520617265206e6f7420696e207468697320626044820152656174746c652160d01b6064820152608490fd5b15613cb457565b606460405162461bcd60e51b815260206004820152602060248201527f5f656e64426174746c653a20426174746c6520616c726561647920656e6465646044820152fd5b15613cff57565b60405162461bcd60e51b815260206004820152602260248201527f6572726f7220656e6420626174746c65207769746820626174746c6577696e6e60448201526132b960f11b6064820152608490fd5b613d576127e2565b50613d7860028251613d6881610a77565b613d7181610a77565b1415613cad565b600281526001600160a01b037f0000000000000000000000000000000000000000000000000000000000000000811660c083018190529060408301613dbe848251613761565b60808401805151613e4890600290613e3290613de2906001600160a01b031661257a565b54613e3a83613e32613dfb6111e7610d158a5160200190565b5493613e176004613e0b836125d1565b5001805460ff19169055565b613e2d6003613e25836125d1565b500160069055565b6125d1565b5001600a9055565b613e176004613e0b836125d1565b600093613e95575b506000916000805160206150c5833981519152915193613e7760405192839216958261088f565b0390a361073a606082016000613e8d82516131d9565b915282614092565b91806000805160206150c58339815191529294600094519082825116905080158614613ecb575060200151165b93915091613e50565b915050613ec2565b613ff290613edf6127e2565b50613ef060028451613d6881610a77565b600283526001600160a01b03818116801592909190831561407f57506001600160a01b037f000000000000000000000000000000000000000000000000000000000000000082161660c08601525b60408501613f4d868251613761565b826080870192613f896002613e32613f706111e7885160018060a01b0390511690565b54613e3a83613e32613dfb6111e7610d158d5160200190565b600092817f0000000000000000000000000000000000000000000000000000000000000000168303614041575b906000805160206150c5833981519152915193613fda60405192839216958261088f565b0390a38215614021575b8215614005575b5050613cf8565b61073a606082016000613e8d82516131d9565b614019919250610d156110b6915160200190565b143880613feb565b805151909250614039906001600160a01b03166110b6565b811491613fe4565b9290806000805160206150c583398151915292865190828251169050808614600014614077575060200151165b93909150613fb6565b91505061406e565b6001600160a01b031660c0860152613f3e565b9060808201519160018060a01b0392838082511633149182156141d8575b5050156103785781156141a75760c00151600092839283926140da906001600160a01b03166110b6565b604080516001600160a01b0383168152602081018490529193917f13b46ae1da3b476d0302ec781f7dd6982727671bc7bc07411d908daeb468751e9190a160405192165af16141276141e9565b5061413181614219565b1561413857565b60405162461bcd60e51b815260206004820152603a60248201527f416464726573733a20756e61626c6520746f2073656e642076616c75652c207260448201527f6563697069656e74206d617920686176652072657665727465640000000000006064820152608490fd5b0390fd5b60405162461bcd60e51b815260206004820152600960248201526806761696e203c3d20360bc1b6044820152606490fd5b6020919250015116331483386140b0565b3d15614214573d906141fa8261069f565b916142086040519384610635565b82523d6000602084013e565b606090565b1561422057565b634e487b7160e01b600052600160045260246000fd5b9081156142f35760008083805b6142df5750836142528361069f565b926142606040519485610635565b808452601f1961426f8261069f565b01366020860137905b614283575090925050565b61428e600a91612efe565b94856142d66142cd6142bd6142b86111ac6142b26142ab886131fd565b600a900490565b87612f23565b613a4e565b60f81b6001600160f81b03191690565b851a918661371d565b53049384614278565b916142eb600a91612f50565b920480614243565b90506040516143018161061a565b60018152600360fc1b602082015290565b6007546106839190600160401b811015614370575b6001810180600755811015614363575b60076000527fa66cc928b5edb82af9bd49922954155ab7b0942694bea4ce44661d9a8736c68801612b61565b61436b6125ba565b614337565b6143786105c0565b614327565b6007549081156143e65760005b82811061439957505050600090565b6143cc826120a96143b96143ac85613515565b5060405192838092611714565b6020815191012090602081519101201490565b6143de576143d990612f50565b61438a565b505050600190565b60405162461bcd60e51b81526020600482015260146024820152731b9bc81ddbdc991cc81a5b881d1a19481b1a5cdd60621b6044820152606490fd5b90614474575b61443281546116da565b908161443c575050565b81601f6000931160011461444e575055565b8183526020832061446a91601f0160051c810190600101612a91565b8160208120915555565b61447c6116c3565b614428565b60ff6001911660ff8114612f60570190565b6000805b60ff811660208110806144eb575b156144e2576144c9906001600160f81b0319906144c2908661371d565b51166144f5565b156144dc576144d790614481565b614497565b50905090565b50505050600190565b50835181106144a5565b60ff60f81b16606160f81b811015908161451a575b501561451557600190565b600090565b603d60f91b101590503861450a565b929160019160009183908390825b614546575b5050505090509190565b60ff861660208110806145d3575b156145cd576001600160f81b03198061456d838861371d565b51168184161490816145b3575b50614595575b5061458d83949596614481565b959493614537565b839495506145a682841a918a61371d565b5361458d83959450614580565b605f60f81b91506145c4838c61371d565b5116143861457a565b5061453c565b5084518110614554565b600180926000908282905b6145f5575b505050505090565b60ff8116602081108061464f575b15614649576001600160f81b03196146288161461f848a61371d565b5116928561371d565b51160361463f575b61463990614481565b836145e8565b9194508491614630565b506145ed565b5085518110614603565b6003546001600160a01b0316330361466d57565b606460405162461bcd60e51b815260206004820152602060248201527f4f776e61626c653a2063616c6c6572206973206e6f7420746865206f776e65726044820152fd5b6001600160a01b038116156146e5576000918252602082815260408084206001600160a01b03909316845291905290205490565b60405162461bcd60e51b815260206004820152602a60248201527f455243313135353a2061646472657373207a65726f206973206e6f742061207660448201526930b634b21037bbb732b960b11b6064820152608490fd5b9061474782610d87565b6147546040519182610635565b8281528092614765601f1991610d87565b0190602036910137565b6020918151811015614784575b60051b010190565b61478c6125ba565b61477c565b91909180518351036147f5576147a7815161473d565b9060005b81518110156147ee57806147d96147c8610d156147e9948661476f565b6147d2838961476f565b51906146b1565b6147e3828661476f565b52612f50565b6147ab565b5090925050565b60405162461bcd60e51b815260206004820152602960248201527f455243313135353a206163636f756e747320616e6420696473206c656e677468604482015268040dad2e6dac2e8c6d60bb1b6064820152608490fd5b1561485357565b60405162461bcd60e51b815260206004820152602e60248201527f455243313135353a2063616c6c6572206973206e6f7420746f6b656e206f776e60448201526d195c881bdc88185c1c1c9bdd995960921b6064820152608490fd5b156148b657565b60405162461bcd60e51b815260206004820152602560248201527f455243313135353a207472616e7366657220746f20746865207a65726f206164604482015264647265737360d81b6064820152608490fd5b1561491057565b60405162461bcd60e51b815260206004820152602a60248201527f455243313135353a20696e73756666696369656e742062616c616e636520666f60448201526939103a3930b739b332b960b11b6064820152608490fd5b9060018201809211612f0d57565b91908201809211612f0d57565b1561498a57565b60405162461bcd60e51b815260206004820152602860248201527f455243313135353a2069647320616e6420616d6f756e7473206c656e677468206044820152670dad2e6dac2e8c6d60c31b6064820152608490fd5b90916149f761073a9360408452604084019061140d565b91602081840391015261140d565b926001600160a01b038416928315614ac657614a2083614f55565b92614a29614f23565b9560005b8551811015614a5a5780614a44614a55928a61476f565b51610f69610f6161243d848b61476f565b614a2d565b5091935091945061068393614a7d82610f16856000526000602052604060002090565b614a878154614968565b9055604080518481526001602082015260009133917fc3d58168c5ae7397731d063d5bbf3d657854427343f4c083240f7aacaa2d0f629190a433614c63565b60405162461bcd60e51b815260206004820152602160248201527f455243313135353a206d696e7420746f20746865207a65726f206164647265736044820152607360f81b6064820152608490fd5b90816020910312610378575161073a8161053f565b61073a939260a092600180851b031682526000602083015260408201526001606082015281608082015201906103fa565b919261073a95949160a094600180871b0380921685521660208401526040830152606082015281608082015201906103fa565b60809060208152602860208201527f455243313135353a204552433131353552656365697665722072656a656374656040820152676420746f6b656e7360c01b60608201520190565b60009060033d11614be457565b905060046000803e60005160e01c90565b600060443d1061073a57604051600319913d83016004833e81516001600160401b03918282113d602484011117614c5257818401948551938411614c5a573d85010160208487010111614c52575061073a92910160200190610635565b949350505050565b50949350505050565b92919091823b614c735750505050565b614c9a92602092600060405180968195829463f23a6e6160e01b9a8b855260048501614b2a565b03926001600160a01b03165af160009181614d93575b50614d6b5750506001614cc1614bd7565b6308c379a014614d3c575b614cda575b38808080611741565b60405162461bcd60e51b815260206004820152603460248201527f455243313135353a207472616e7366657220746f206e6f6e2d455243313135356044820152732932b1b2b4bb32b91034b6b83632b6b2b73a32b960611b6064820152608490fd5b614d44614bf5565b80614d4f5750614ccc565b60405162461bcd60e51b81529081906141a3906004830161088f565b6001600160e01b03191614614cd15760405162461bcd60e51b8152806141a360048201614b8e565b614db591925060203d8111614dbc575b614dad8183610635565b810190614b15565b9038614cb0565b503d614da3565b9493919092813b614dd7575b505050505050565b6000602094614dfe6040519788968795869463f23a6e6160e01b9c8d875260048701614b5b565b03926001600160a01b03165af160009181614e7b575b50614e535750506001614e25614bd7565b6308c379a014614e40575b614cda575b388080808080614dcf565b614e48614bf5565b80614d4f5750614e30565b6001600160e01b03191614614e355760405162461bcd60e51b8152806141a360048201614b8e565b614e9491925060203d8111614dbc57614dad8183610635565b9038614e14565b939061073a9593614ecd91614edb9460018060a01b03809216885216602087015260a0604087015260a086019061140d565b90848203606086015261140d565b9160808184039101526103fa565b9493919092813b614efc57505050505050565b6000602094614dfe6040519788968795869463bc197c8160e01b9c8d875260048701614e9b565b604051614f2f8161061a565b600181526001602082016020368237825115614f49575290565b614f516125ba565b5290565b60405190614f628261061a565b60018252602082016020368237825115614f49575290565b15614f8157565b60405162461bcd60e51b815260206004820152602860248201527f455243313135353a206275726e20616d6f756e74206578636565647320746f74604482015267616c537570706c7960c01b6064820152608490fd5b919392916001600160a01b03919082161561502b575b1615614ff857509050565b60005b83518110156150255780615012615020928661476f565b516123e96123b5838661476f565b614ffb565b50509050565b929060005b855181101561504c5780614a44615047928661476f565b615030565b509092614fed565b610c666150826106839260405192839163104c13eb60e21b60208401526020602484015260448301906103fa565b600080916020815191016a636f6e736f6c652e6c6f675afa50565b9061508261068392610c66604051938492634b5c427760e01b60208501526024840161373c56feae6e5eafb6cd1cb4b139e7a0b9140aa182ee7d50e99f50d660156f79212acbc0a26469706673582212201648c899935f0ce26b8caf6224ecc814585210ccc7a955932393fd8a815518f664736f6c63430008100033a66cc928b5edb82af9bd49922954155ab7b0942694bea4ce44661d9a8736c688",
  "linkReferences": {},
  "deployedLinkReferences": {}
}