{
  "_format": "hh-sol-artifact-1",
  "contractName": "Penduel",
  "sourceName": "contracts/Penduel.sol",
  "abi": [
    {
      "inputs": [
        {
          "internalType": "string",
          "name": "_metadataURI",
          "type": "string"
        }
      ],
      "stateMutability": "nonpayable",
      "type": "constructor"
    },
    {
      "anonymous": false,
      "inputs": [
        {
          "indexed": true,
          "internalType": "address",
          "name": "account",
          "type": "address"
        },
        {
          "indexed": true,
          "internalType": "address",
          "name": "operator",
          "type": "address"
        },
        {
          "indexed": false,
          "internalType": "bool",
          "name": "approved",
          "type": "bool"
        }
      ],
      "name": "ApprovalForAll",
      "type": "event"
    },
    {
      "anonymous": false,
      "inputs": [
        {
          "indexed": false,
          "internalType": "string",
          "name": "battleName",
          "type": "string"
        },
        {
          "indexed": true,
          "internalType": "address",
          "name": "player1",
          "type": "address"
        },
        {
          "indexed": true,
          "internalType": "address",
          "name": "player2",
          "type": "address"
        },
        {
          "indexed": false,
          "internalType": "string",
          "name": "maskedWord",
          "type": "string"
        }
      ],
      "name": "BattleBegin",
      "type": "event"
    },
    {
      "anonymous": false,
      "inputs": [
        {
          "indexed": false,
          "internalType": "string",
          "name": "battleName",
          "type": "string"
        },
        {
          "indexed": true,
          "internalType": "address",
          "name": "player1",
          "type": "address"
        },
        {
          "indexed": true,
          "internalType": "address",
          "name": "player2",
          "type": "address"
        }
      ],
      "name": "BattleCreate",
      "type": "event"
    },
    {
      "anonymous": false,
      "inputs": [
        {
          "indexed": false,
          "internalType": "string",
          "name": "battleName",
          "type": "string"
        },
        {
          "indexed": true,
          "internalType": "address",
          "name": "winner",
          "type": "address"
        },
        {
          "indexed": true,
          "internalType": "address",
          "name": "loser",
          "type": "address"
        }
      ],
      "name": "BattleEnded",
      "type": "event"
    },
    {
      "anonymous": false,
      "inputs": [
        {
          "indexed": true,
          "internalType": "bool",
          "name": "_findNewLetter",
          "type": "bool"
        },
        {
          "indexed": false,
          "internalType": "string",
          "name": "maskedWord",
          "type": "string"
        }
      ],
      "name": "BattleLetter",
      "type": "event"
    },
    {
      "anonymous": false,
      "inputs": [
        {
          "indexed": true,
          "internalType": "address",
          "name": "owner",
          "type": "address"
        },
        {
          "indexed": false,
          "internalType": "uint256",
          "name": "id",
          "type": "uint256"
        },
        {
          "indexed": false,
          "internalType": "uint256",
          "name": "attackStrength",
          "type": "uint256"
        },
        {
          "indexed": false,
          "internalType": "uint256",
          "name": "defenseStrength",
          "type": "uint256"
        }
      ],
      "name": "NewGameToken",
      "type": "event"
    },
    {
      "anonymous": false,
      "inputs": [
        {
          "indexed": true,
          "internalType": "address",
          "name": "owner",
          "type": "address"
        },
        {
          "indexed": false,
          "internalType": "string",
          "name": "playerName",
          "type": "string"
        }
      ],
      "name": "NewPlayer",
      "type": "event"
    },
    {
      "anonymous": false,
      "inputs": [
        {
          "indexed": true,
          "internalType": "address",
          "name": "previousOwner",
          "type": "address"
        },
        {
          "indexed": true,
          "internalType": "address",
          "name": "newOwner",
          "type": "address"
        }
      ],
      "name": "OwnershipTransferred",
      "type": "event"
    },
    {
      "anonymous": false,
      "inputs": [
        {
          "indexed": false,
          "internalType": "address",
          "name": "player",
          "type": "address"
        },
        {
          "indexed": false,
          "internalType": "uint256",
          "name": "amount",
          "type": "uint256"
        }
      ],
      "name": "PlayerWithdraw",
      "type": "event"
    },
    {
      "anonymous": false,
      "inputs": [],
      "name": "RoundEnded",
      "type": "event"
    },
    {
      "anonymous": false,
      "inputs": [
        {
          "indexed": true,
          "internalType": "address",
          "name": "operator",
          "type": "address"
        },
        {
          "indexed": true,
          "internalType": "address",
          "name": "from",
          "type": "address"
        },
        {
          "indexed": true,
          "internalType": "address",
          "name": "to",
          "type": "address"
        },
        {
          "indexed": false,
          "internalType": "uint256[]",
          "name": "ids",
          "type": "uint256[]"
        },
        {
          "indexed": false,
          "internalType": "uint256[]",
          "name": "values",
          "type": "uint256[]"
        }
      ],
      "name": "TransferBatch",
      "type": "event"
    },
    {
      "anonymous": false,
      "inputs": [
        {
          "indexed": true,
          "internalType": "address",
          "name": "operator",
          "type": "address"
        },
        {
          "indexed": true,
          "internalType": "address",
          "name": "from",
          "type": "address"
        },
        {
          "indexed": true,
          "internalType": "address",
          "name": "to",
          "type": "address"
        },
        {
          "indexed": false,
          "internalType": "uint256",
          "name": "id",
          "type": "uint256"
        },
        {
          "indexed": false,
          "internalType": "uint256",
          "name": "value",
          "type": "uint256"
        }
      ],
      "name": "TransferSingle",
      "type": "event"
    },
    {
      "anonymous": false,
      "inputs": [
        {
          "indexed": false,
          "internalType": "string",
          "name": "value",
          "type": "string"
        },
        {
          "indexed": true,
          "internalType": "uint256",
          "name": "id",
          "type": "uint256"
        }
      ],
      "name": "URI",
      "type": "event"
    },
    {
      "anonymous": false,
      "inputs": [
        {
          "indexed": false,
          "internalType": "string",
          "name": "wordToAdd",
          "type": "string"
        }
      ],
      "name": "WordAdded",
      "type": "event"
    },
    {
      "inputs": [],
      "name": "MAX_ATTACK_DEFEND_STRENGTH",
      "outputs": [
        {
          "internalType": "uint256",
          "name": "",
          "type": "uint256"
        }
      ],
      "stateMutability": "view",
      "type": "function"
    },
    {
      "inputs": [
        {
          "internalType": "string",
          "name": "wordToAdd",
          "type": "string"
        }
      ],
      "name": "addWord",
      "outputs": [],
      "stateMutability": "nonpayable",
      "type": "function"
    },
    {
      "inputs": [
        {
          "internalType": "address",
          "name": "account",
          "type": "address"
        },
        {
          "internalType": "uint256",
          "name": "id",
          "type": "uint256"
        }
      ],
      "name": "balanceOf",
      "outputs": [
        {
          "internalType": "uint256",
          "name": "",
          "type": "uint256"
        }
      ],
      "stateMutability": "view",
      "type": "function"
    },
    {
      "inputs": [
        {
          "internalType": "address[]",
          "name": "accounts",
          "type": "address[]"
        },
        {
          "internalType": "uint256[]",
          "name": "ids",
          "type": "uint256[]"
        }
      ],
      "name": "balanceOfBatch",
      "outputs": [
        {
          "internalType": "uint256[]",
          "name": "",
          "type": "uint256[]"
        }
      ],
      "stateMutability": "view",
      "type": "function"
    },
    {
      "inputs": [],
      "name": "baseURI",
      "outputs": [
        {
          "internalType": "string",
          "name": "",
          "type": "string"
        }
      ],
      "stateMutability": "view",
      "type": "function"
    },
    {
      "inputs": [
        {
          "internalType": "bytes1",
          "name": "pLetter",
          "type": "bytes1"
        },
        {
          "internalType": "string",
          "name": "battleName",
          "type": "string"
        }
      ],
      "name": "chosenLetter",
      "outputs": [],
      "stateMutability": "nonpayable",
      "type": "function"
    },
    {
      "inputs": [
        {
          "internalType": "string",
          "name": "battleName",
          "type": "string"
        }
      ],
      "name": "createBattle",
      "outputs": [],
      "stateMutability": "payable",
      "type": "function"
    },
    {
      "inputs": [
        {
          "internalType": "string",
          "name": "battleName",
          "type": "string"
        }
      ],
      "name": "createRandomGameToken",
      "outputs": [],
      "stateMutability": "nonpayable",
      "type": "function"
    },
    {
      "inputs": [
        {
          "internalType": "uint256",
          "name": "id",
          "type": "uint256"
        }
      ],
      "name": "exists",
      "outputs": [
        {
          "internalType": "bool",
          "name": "",
          "type": "bool"
        }
      ],
      "stateMutability": "view",
      "type": "function"
    },
    {
      "inputs": [
        {
          "internalType": "string",
          "name": "battleName",
          "type": "string"
        }
      ],
      "name": "getActivePlayer",
      "outputs": [
        {
          "internalType": "address",
          "name": "",
          "type": "address"
        }
      ],
      "stateMutability": "view",
      "type": "function"
    },
    {
      "inputs": [],
      "name": "getAllBattles",
      "outputs": [
        {
          "components": [
            {
              "internalType": "enum Penduel.BattleStatus",
              "name": "battleStatus",
              "type": "uint8"
            },
            {
              "internalType": "bytes32",
              "name": "battleHash",
              "type": "bytes32"
            },
            {
              "internalType": "string",
              "name": "name",
              "type": "string"
            },
            {
              "internalType": "uint256",
              "name": "bet",
              "type": "uint256"
            },
            {
              "internalType": "address[2]",
              "name": "players",
              "type": "address[2]"
            },
            {
              "internalType": "address",
              "name": "activePlayer",
              "type": "address"
            },
            {
              "internalType": "address",
              "name": "winner",
              "type": "address"
            },
            {
              "internalType": "bytes",
              "name": "maskedWord",
              "type": "bytes"
            },
            {
              "internalType": "string",
              "name": "guesses",
              "type": "string"
            },
            {
              "internalType": "uint8",
              "name": "incorrectGuess",
              "type": "uint8"
            },
            {
              "internalType": "uint256",
              "name": "date",
              "type": "uint256"
            }
          ],
          "internalType": "struct Penduel.Battle[]",
          "name": "",
          "type": "tuple[]"
        }
      ],
      "stateMutability": "view",
      "type": "function"
    },
    {
      "inputs": [],
      "name": "getAllPlayerTokens",
      "outputs": [
        {
          "components": [
            {
              "internalType": "string",
              "name": "name",
              "type": "string"
            },
            {
              "internalType": "uint256",
              "name": "id",
              "type": "uint256"
            },
            {
              "internalType": "uint256",
              "name": "attackStrength",
              "type": "uint256"
            },
            {
              "internalType": "uint256",
              "name": "defenseStrength",
              "type": "uint256"
            }
          ],
          "internalType": "struct Penduel.GameToken[]",
          "name": "",
          "type": "tuple[]"
        }
      ],
      "stateMutability": "view",
      "type": "function"
    },
    {
      "inputs": [],
      "name": "getAllPlayers",
      "outputs": [
        {
          "components": [
            {
              "internalType": "address payable",
              "name": "playerAddress",
              "type": "address"
            },
            {
              "internalType": "string",
              "name": "playerName",
              "type": "string"
            },
            {
              "internalType": "uint256",
              "name": "playerMana",
              "type": "uint256"
            },
            {
              "internalType": "uint256",
              "name": "playerHealth",
              "type": "uint256"
            },
            {
              "internalType": "bool",
              "name": "inBattle",
              "type": "bool"
            }
          ],
          "internalType": "struct Penduel.Player[]",
          "name": "",
          "type": "tuple[]"
        }
      ],
      "stateMutability": "view",
      "type": "function"
    },
    {
      "inputs": [],
      "name": "getBalance",
      "outputs": [
        {
          "internalType": "uint256",
          "name": "",
          "type": "uint256"
        }
      ],
      "stateMutability": "view",
      "type": "function"
    },
    {
      "inputs": [
        {
          "internalType": "string",
          "name": "battleName",
          "type": "string"
        }
      ],
      "name": "getBattle",
      "outputs": [
        {
          "components": [
            {
              "internalType": "enum Penduel.BattleStatus",
              "name": "battleStatus",
              "type": "uint8"
            },
            {
              "internalType": "bytes32",
              "name": "battleHash",
              "type": "bytes32"
            },
            {
              "internalType": "string",
              "name": "name",
              "type": "string"
            },
            {
              "internalType": "uint256",
              "name": "bet",
              "type": "uint256"
            },
            {
              "internalType": "address[2]",
              "name": "players",
              "type": "address[2]"
            },
            {
              "internalType": "address",
              "name": "activePlayer",
              "type": "address"
            },
            {
              "internalType": "address",
              "name": "winner",
              "type": "address"
            },
            {
              "internalType": "bytes",
              "name": "maskedWord",
              "type": "bytes"
            },
            {
              "internalType": "string",
              "name": "guesses",
              "type": "string"
            },
            {
              "internalType": "uint8",
              "name": "incorrectGuess",
              "type": "uint8"
            },
            {
              "internalType": "uint256",
              "name": "date",
              "type": "uint256"
            }
          ],
          "internalType": "struct Penduel.Battle",
          "name": "",
          "type": "tuple"
        }
      ],
      "stateMutability": "view",
      "type": "function"
    },
    {
      "inputs": [
        {
          "internalType": "string",
          "name": "battleName",
          "type": "string"
        }
      ],
      "name": "getGuesses",
      "outputs": [
        {
          "internalType": "string",
          "name": "_guesses",
          "type": "string"
        }
      ],
      "stateMutability": "view",
      "type": "function"
    },
    {
      "inputs": [
        {
          "internalType": "string",
          "name": "maskedWord",
          "type": "string"
        }
      ],
      "name": "getHangWord",
      "outputs": [
        {
          "internalType": "bytes",
          "name": "hangWord",
          "type": "bytes"
        }
      ],
      "stateMutability": "nonpayable",
      "type": "function"
    },
    {
      "inputs": [
        {
          "internalType": "string",
          "name": "battleName",
          "type": "string"
        }
      ],
      "name": "getMaskedWord",
      "outputs": [
        {
          "internalType": "string",
          "name": "",
          "type": "string"
        }
      ],
      "stateMutability": "view",
      "type": "function"
    },
    {
      "inputs": [
        {
          "internalType": "string",
          "name": "battleName",
          "type": "string"
        }
      ],
      "name": "getNumberOfIncorrectGuess",
      "outputs": [
        {
          "internalType": "uint8",
          "name": "",
          "type": "uint8"
        }
      ],
      "stateMutability": "view",
      "type": "function"
    },
    {
      "inputs": [
        {
          "internalType": "address",
          "name": "playerAddress",
          "type": "address"
        }
      ],
      "name": "getPlayer",
      "outputs": [
        {
          "components": [
            {
              "internalType": "address payable",
              "name": "playerAddress",
              "type": "address"
            },
            {
              "internalType": "string",
              "name": "playerName",
              "type": "string"
            },
            {
              "internalType": "uint256",
              "name": "playerMana",
              "type": "uint256"
            },
            {
              "internalType": "uint256",
              "name": "playerHealth",
              "type": "uint256"
            },
            {
              "internalType": "bool",
              "name": "inBattle",
              "type": "bool"
            }
          ],
          "internalType": "struct Penduel.Player",
          "name": "",
          "type": "tuple"
        }
      ],
      "stateMutability": "view",
      "type": "function"
    },
    {
      "inputs": [
        {
          "internalType": "address",
          "name": "playerTokenAddress",
          "type": "address"
        }
      ],
      "name": "getPlayerToken",
      "outputs": [
        {
          "components": [
            {
              "internalType": "string",
              "name": "name",
              "type": "string"
            },
            {
              "internalType": "uint256",
              "name": "id",
              "type": "uint256"
            },
            {
              "internalType": "uint256",
              "name": "attackStrength",
              "type": "uint256"
            },
            {
              "internalType": "uint256",
              "name": "defenseStrength",
              "type": "uint256"
            }
          ],
          "internalType": "struct Penduel.GameToken",
          "name": "",
          "type": "tuple"
        }
      ],
      "stateMutability": "view",
      "type": "function"
    },
    {
      "inputs": [],
      "name": "getTotalSupply",
      "outputs": [
        {
          "internalType": "uint256",
          "name": "",
          "type": "uint256"
        }
      ],
      "stateMutability": "view",
      "type": "function"
    },
    {
      "inputs": [
        {
          "internalType": "address",
          "name": "account",
          "type": "address"
        },
        {
          "internalType": "address",
          "name": "operator",
          "type": "address"
        }
      ],
      "name": "isApprovedForAll",
      "outputs": [
        {
          "internalType": "bool",
          "name": "",
          "type": "bool"
        }
      ],
      "stateMutability": "view",
      "type": "function"
    },
    {
      "inputs": [
        {
          "internalType": "string",
          "name": "battleName",
          "type": "string"
        }
      ],
      "name": "isBattle",
      "outputs": [
        {
          "internalType": "bool",
          "name": "",
          "type": "bool"
        }
      ],
      "stateMutability": "view",
      "type": "function"
    },
    {
      "inputs": [
        {
          "internalType": "address",
          "name": "playerAddress",
          "type": "address"
        }
      ],
      "name": "isPlayer",
      "outputs": [
        {
          "internalType": "bool",
          "name": "",
          "type": "bool"
        }
      ],
      "stateMutability": "view",
      "type": "function"
    },
    {
      "inputs": [
        {
          "internalType": "address",
          "name": "playerTokenAddress",
          "type": "address"
        }
      ],
      "name": "isPlayerToken",
      "outputs": [
        {
          "internalType": "bool",
          "name": "",
          "type": "bool"
        }
      ],
      "stateMutability": "view",
      "type": "function"
    },
    {
      "inputs": [
        {
          "internalType": "string",
          "name": "battleName",
          "type": "string"
        }
      ],
      "name": "joinBattle",
      "outputs": [
        {
          "components": [
            {
              "internalType": "enum Penduel.BattleStatus",
              "name": "battleStatus",
              "type": "uint8"
            },
            {
              "internalType": "bytes32",
              "name": "battleHash",
              "type": "bytes32"
            },
            {
              "internalType": "string",
              "name": "name",
              "type": "string"
            },
            {
              "internalType": "uint256",
              "name": "bet",
              "type": "uint256"
            },
            {
              "internalType": "address[2]",
              "name": "players",
              "type": "address[2]"
            },
            {
              "internalType": "address",
              "name": "activePlayer",
              "type": "address"
            },
            {
              "internalType": "address",
              "name": "winner",
              "type": "address"
            },
            {
              "internalType": "bytes",
              "name": "maskedWord",
              "type": "bytes"
            },
            {
              "internalType": "string",
              "name": "guesses",
              "type": "string"
            },
            {
              "internalType": "uint8",
              "name": "incorrectGuess",
              "type": "uint8"
            },
            {
              "internalType": "uint256",
              "name": "date",
              "type": "uint256"
            }
          ],
          "internalType": "struct Penduel.Battle",
          "name": "",
          "type": "tuple"
        }
      ],
      "stateMutability": "payable",
      "type": "function"
    },
    {
      "inputs": [],
      "name": "owner",
      "outputs": [
        {
          "internalType": "address",
          "name": "",
          "type": "address"
        }
      ],
      "stateMutability": "view",
      "type": "function"
    },
    {
      "inputs": [
        {
          "internalType": "uint256",
          "name": "amount",
          "type": "uint256"
        }
      ],
      "name": "ownerWithdraw",
      "outputs": [],
      "stateMutability": "nonpayable",
      "type": "function"
    },
    {
      "inputs": [
        {
          "internalType": "string",
          "name": "battleName",
          "type": "string"
        }
      ],
      "name": "quitBattle",
      "outputs": [],
      "stateMutability": "nonpayable",
      "type": "function"
    },
    {
      "inputs": [
        {
          "internalType": "string",
          "name": "playerName",
          "type": "string"
        },
        {
          "internalType": "string",
          "name": "gameTokenName",
          "type": "string"
        }
      ],
      "name": "registerPlayer",
      "outputs": [],
      "stateMutability": "nonpayable",
      "type": "function"
    },
    {
      "inputs": [],
      "name": "renounceOwnership",
      "outputs": [],
      "stateMutability": "nonpayable",
      "type": "function"
    },
    {
      "inputs": [
        {
          "internalType": "address",
          "name": "from",
          "type": "address"
        },
        {
          "internalType": "address",
          "name": "to",
          "type": "address"
        },
        {
          "internalType": "uint256[]",
          "name": "ids",
          "type": "uint256[]"
        },
        {
          "internalType": "uint256[]",
          "name": "amounts",
          "type": "uint256[]"
        },
        {
          "internalType": "bytes",
          "name": "data",
          "type": "bytes"
        }
      ],
      "name": "safeBatchTransferFrom",
      "outputs": [],
      "stateMutability": "nonpayable",
      "type": "function"
    },
    {
      "inputs": [
        {
          "internalType": "address",
          "name": "from",
          "type": "address"
        },
        {
          "internalType": "address",
          "name": "to",
          "type": "address"
        },
        {
          "internalType": "uint256",
          "name": "id",
          "type": "uint256"
        },
        {
          "internalType": "uint256",
          "name": "amount",
          "type": "uint256"
        },
        {
          "internalType": "bytes",
          "name": "data",
          "type": "bytes"
        }
      ],
      "name": "safeTransferFrom",
      "outputs": [],
      "stateMutability": "nonpayable",
      "type": "function"
    },
    {
      "inputs": [
        {
          "internalType": "address",
          "name": "operator",
          "type": "address"
        },
        {
          "internalType": "bool",
          "name": "approved",
          "type": "bool"
        }
      ],
      "name": "setApprovalForAll",
      "outputs": [],
      "stateMutability": "nonpayable",
      "type": "function"
    },
    {
      "inputs": [
        {
          "internalType": "string",
          "name": "newuri",
          "type": "string"
        }
      ],
      "name": "setURI",
      "outputs": [],
      "stateMutability": "nonpayable",
      "type": "function"
    },
    {
      "inputs": [
        {
          "internalType": "bytes4",
          "name": "interfaceId",
          "type": "bytes4"
        }
      ],
      "name": "supportsInterface",
      "outputs": [
        {
          "internalType": "bool",
          "name": "",
          "type": "bool"
        }
      ],
      "stateMutability": "view",
      "type": "function"
    },
    {
      "inputs": [
        {
          "internalType": "uint256",
          "name": "tokenId",
          "type": "uint256"
        }
      ],
      "name": "tokenURI",
      "outputs": [
        {
          "internalType": "string",
          "name": "",
          "type": "string"
        }
      ],
      "stateMutability": "view",
      "type": "function"
    },
    {
      "inputs": [],
      "name": "totalSupply",
      "outputs": [
        {
          "internalType": "uint256",
          "name": "",
          "type": "uint256"
        }
      ],
      "stateMutability": "view",
      "type": "function"
    },
    {
      "inputs": [
        {
          "internalType": "uint256",
          "name": "id",
          "type": "uint256"
        }
      ],
      "name": "totalSupply",
      "outputs": [
        {
          "internalType": "uint256",
          "name": "",
          "type": "uint256"
        }
      ],
      "stateMutability": "view",
      "type": "function"
    },
    {
      "inputs": [
        {
          "internalType": "address",
          "name": "newOwner",
          "type": "address"
        }
      ],
      "name": "transferOwnership",
      "outputs": [],
      "stateMutability": "nonpayable",
      "type": "function"
    },
    {
      "inputs": [
        {
          "internalType": "uint256",
          "name": "",
          "type": "uint256"
        }
      ],
      "name": "uri",
      "outputs": [
        {
          "internalType": "string",
          "name": "",
          "type": "string"
        }
      ],
      "stateMutability": "view",
      "type": "function"
    },
    {
      "stateMutability": "payable",
      "type": "receive"
    }
  ],
  "bytecode": "0x60a06040523462000fe05762006012803803806200001d8162001025565b92833981019060208183031262000fe0578051906001600160401b03821162000fe0570181601f8201121562000fe0578051906001600160401b03821162000a255762000074601f8301601f191660200162001025565b928284526020838301011162000fe05760005b82811062000fca57600083850160200152835184906001600160401b03811162000a2557620000b86002546200104b565b601f811162000f88575b50806020601f821160011462000f105760009162000f04575b508160011b916000199060031b1c1916176002555b60038054336001600160a01b03198216811790925560405191906001600160a01b03167f8be0079c531659141344cd1fd0a4f28419497f9722a3daafe3b4186f6b6457e0600084a36101c081016001600160401b0381118282101762000a25576040526200015d62000fe5565b600581526468656c6c6f60d81b602082015281526200017b62000fe5565b6007815266676f6f6462796560c81b602082015260208201526200019e62000fe5565b600381526239bab760e91b60208201526040820152620001bd62000fe5565b6008815267686f6c6c6964617960c01b60208201526060820152620001e162000fe5565b60068152656265666f726560d01b602082015260808201526200020362000fe5565b600581526430b33a32b960d91b602082015260a08201526200022462000fe5565b600b81526a3932b9ba37b930ba34b7b760a91b602082015260c08201526200024b62000fe5565b60078152663330b9b434b7b760c91b602082015260e08201526200026e62000fe5565b60088152676472657373696e6760c01b60208201526101008201526200029362000fe5565b600e81526d726570726573656e74617469766560901b6020820152610120820152620002be62000fe5565b600781526673696c656e636560c81b6020820152610140820152620002e262000fe5565b600a81526961636365707461626c6560b01b60208201526101608201526200030962000fe5565b600d81526c195b9d9a5c9bdb9b595b9d185b609a1b60208201526101808201526200033362000fe5565b600981526870686f746f636f707960b81b60208201526101a0820152600754600e60075580600e1062000e54575b506007600090815260008051602062005ff2833981519152915b600e821062000d645733608052835184906001600160401b03811162000a2557620003a86005546200104b565b601f811162000d21575b506020601f821160011462000cb457819260009262000ca8575b50508160011b916000199060031b1c1916176005555b604051608081016001600160401b0381118282101762000a25576040526200040962001005565b600081528152600060208201526000604082015260006060820152600d546801000000000000000081101562000a25576001810180600d5581101562000b7857600d6000528151805190927fd7b6990105719101dabeb77144f2a3385c8033acd3af97e9423a695e81ad1eb5916001600160401b03811162000a2557620004a7816200049b8660021b8601546200104b565b8660021b8601620010a1565b6020601f821160011462000c2b579080606093926003969760009262000c1f575b50508160011b9160001990871b1c1916178560021b8401555b60208101516001600296871b94909401938401556040808201519584019590955501519101555160a081018181106001600160401b0382111762000a2557604052600081526200053062001005565b600081526020820152600060408201526000606082015260006080820152600c546801000000000000000081101562000a25576001810180600c5581101562000b7857600c6000528151600582027fdf6966c971051c3d54ec59162606531493a51404a002842f56009d7e5cf4a8c790810180546001600160a01b0319166001600160a01b039390931692909217909155602083015180519093906001600160401b03811162000a25576200060281620005f3600160058802870101546200104b565b600160058802870101620010a1565b6020601f821160011462000b9a5791816080926005946004979860009262000b8e575b50508160011b916000199060031b1c1916176001848802860101555b604081015160028488028601015560608101516003848802860101550151151560ff8019858488028601015416911617930201015560405180604081011060018060401b0360408301111762000a2557604081016040526000815260006020820152620006ad62001005565b60008152604051916001600160401b0361016084019081119084111762000a255761016083016040526000835260006020840152620006eb62001005565b600081526040840152600060608401526080830152600060a0830152600060c08301526200071862001005565b6000815260e083015261010082015260006101208201526000610140820152600e546801000000000000000081101562000a25576001810180600e5581101562000b7857600e60005281517fbb7b4a454dc3493923482f07822329ed19e8244eff582cc204f8554c3620c3fd90600381101562000b6257600c83028201805460ff191660ff929092169190911781556020840151600190910155604083015180519093906001600160401b03811162000a2557620007f381620007e46002600c8802870101546200104b565b6002600c8802870101620010a1565b6020601f821160011462000ae457819293949560009262000ad8575b50508160011b916000199060031b1c1916176002600c8502840101555b60608101516003600c850284010155608081015160005b6002811062000ab257505060a08101516006600c8502840190810180546001600160a01b039384166001600160a01b03199182161790915560c08401516007830180549190941691161790915560e08201518051600890920191906001600160401b03821162000a25578190620008c782620008c086546200104b565b86620010a1565b602090601f831160011462000a475760009262000a3b575b50508160011b916000199060031b1c19161790555b6101008101518051600c85028401600901916001600160401b03821162000a25576200092d826200092685546200104b565b85620010a1565b602090601f8311600114620009ae57928261014093600b979693600c96600092620009a2575b50508160011b916000199060031b1c19161790555b600a83870285010160ff6101208301511660ff1982541617905501519302010155604051614ef09081620010e28239608051816113550152f35b01519050898062000953565b90601f198316918460005260206000209260005b81811062000a0c575093600b979693600c9693600193836101409810620009f2575b505050811b01905562000968565b015160001960f88460031b161c19169055898080620009e4565b92936020600181928786015181550195019301620009c2565b634e487b7160e01b600052604160045260246000fd5b015190508680620008df565b6000858152602081209350601f198516905b81811062000a99575090846001959493921062000a7f575b505050811b019055620008f4565b015160001960f88460031b161c1916905586808062000a71565b9293602060018192878601518155019501930162000a59565b81516001600160a01b03166004600c870286018301015560209091019060010162000843565b0151905085806200080f565b6002600c860285010160005260206000209060005b601f198416811062000b49575060019394959683601f1981161062000b2f575b505050811b016002600c8502840101556200082c565b015160001960f88460031b161c1916905585808062000b19565b9091602060018192858b01518155019301910162000af9565b634e487b7160e01b600052602160045260246000fd5b634e487b7160e01b600052603260045260246000fd5b01519050888062000625565b60016005860285010160005260206000209560005b601f198416811062000c065750826004969760059593600193608096601f1981161062000bec575b505050811b0160018488028601015562000641565b015160001960f88460031b161c1916905588808062000bd7565b8282015188556001909701966020928301920162000baf565b015190508780620004c8565b8460021b840160005260206000209560005b601f198416811062000c8f575091600395966001926060959483601f1981161062000c76575b505050811b018560021b840155620004e1565b015160001983891b60f8161c1916905587808062000c63565b8282015188556001909701966020928301920162000c3d565b015190508280620003cc565b600560005260206000209060005b601f198416811062000d08575060019383601f1981161062000cee575b505050811b01600555620003e2565b015160001960f88460031b161c1916905582808062000cdf565b9091602060018192858801518155019301910162000cc2565b62000d529060056000526020600020601f840160051c8101916020851062000d59575b601f0160051c019062001088565b82620003b2565b909150819062000d44565b80518051906001600160401b03821162000a255762000d908262000d8987546200104b565b87620010a1565b602090601f831160011462000de057928260019493602093869560009262000dd4575b5050600019600383901b1c191690841b1786555b019301910190916200037b565b01519050898062000db3565b908560005260206000209160005b601f198516811062000e3b57509260209260019592869583601f1981161062000e21575b505050831b8301865562000dc7565b015160001960f88460031b161c1916905588808062000e12565b9192602060018192868501518155019401920162000dee565b600760005260008051602062005ff2833981519152907fa66cc928b5edb82af9bd49922954155ab7b0942694bea4ce44661d9a8736c6965b818301811062000e9e57505062000361565b8062000ead600192546200104b565b8062000ebc575b500162000e8c565b601f8111831462000ed45750600081555b8662000eb4565b62000ef4908260005283601f6020600020920160051c8201910162001088565b6000602081208183555562000ecd565b905082015183620000db565b6002600090815260008051602062005fd28339815191529250601f198416905b81811062000f6f5750908360019493921062000f55575b5050811b01600255620000f0565b84015160001960f88460031b161c19169055838062000f47565b9192602060018192868901518155019401920162000f30565b600260005262000fc39060008051602062005fd2833981519152601f840160051c8101916020851062000d5957601f0160051c019062001088565b82620000c2565b8060208092840101518282870101520162000087565b600080fd5b60408051919082016001600160401b0381118382101762000a2557604052565b60405190602082016001600160401b0381118382101762000a2557604052565b6040519190601f01601f191682016001600160401b0381118382101762000a2557604052565b90600182811c921680156200107d575b60208310146200106757565b634e487b7160e01b600052602260045260246000fd5b91607f16916200105b565b81811062001094575050565b6000815560010162001088565b9190601f8111620010b157505050565b620010df926000526020600020906020601f840160051c8301931062000d5957601f0160051c019062001088565b56fe6080604052600436101561001b575b361561001957600080fd5b005b60003560e01c8062fdd58e14610359578063015a37921461035057806301ffc9a71461034757806302fe53051461033e57806309c95e10146103355780630daea2cd1461032c5780630e89341c1461032357806310898e4c1461031a578063110553e9146103115780631107ae3d1461030857806312065fe0146102ff57806316801d17146102f657806318160ddd146102305780632ca04522146102ed5780632d5fbd96146102e45780632eb2c2d6146102db578063331dcd31146102d257806333f707d1146102c95780634974da81146102c05780634e1273f4146102b75780634f558e79146102ae578063548fb999146102a55780635c12cd4b1461029c5780635c93fc3d146102935780636c0360eb1461028a578063715018a614610281578063845f433b146102785780638da5cb5b1461026f578063996d7bea146102665780639ec40aa31461025d578063a1b4f57c14610254578063a22cb4651461024b578063bd85b03914610242578063bf103a4d14610239578063c4e41b2214610230578063c87b56dd14610227578063cb2da2c91461021e578063d8b3226414610215578063e985e9c51461020c578063efa1c48214610203578063f242432a146101fa5763f2fde38b0361000e576101f56124c9565b61000e565b506101f561228b565b506101f56121a2565b506101f5612144565b506101f56120a4565b506101f5611fe6565b506101f5611f0e565b506101f5610bd4565b506101f5611eea565b506101f5611ebd565b506101f5611dc8565b506101f5611b23565b506101f5611b0c565b506101f5611a68565b506101f5611a3e565b506101f5611928565b506101f56118c6565b506101f56117f9565b506101f561160e565b506101f56115d5565b506101f561156f565b506101f5611540565b506101f5611486565b506101f56113e7565b506101f561133e565b506101f5610fec565b506101f5610e1b565b506101f5610d69565b506101f5610bf3565b506101f5610bab565b506101f5610a5a565b506101f5610a41565b506101f5610a18565b506101f5610970565b506101f56108a0565b506101f5610872565b506101f5610844565b506101f561073d565b506101f5610551565b506101f5610453565b506101f56103a7565b600435906001600160a01b038216820361037857565b600080fd5b602435906001600160a01b038216820361037857565b35906001600160a01b038216820361037857565b50346103785760403660031901126103785760206103cf6103c6610362565b60243590614449565b604051908152f35b60005b8381106103ea5750506000910152565b81810151838201526020016103da565b90602091610413815180928185528580860191016103d7565b601f01601f1916010190565b9060608061043684516080855260808501906103fa565b936020810151602085015260408101516040850152015191015290565b50346103785760008060031936011261053c57600d5461047281610d97565b906104806040519283610635565b808252600d835260209283830191817fd7b6990105719101dabeb77144f2a3385c8033acd3af97e9423a695e81ad1eb5845b8383106105175750505050604051928484019085855251809152604084019460408260051b8601019392955b8287106104eb5785850386f35b909192938280610507600193603f198a8203018652885161041f565b96019201960195929190926104de565b60048860019261052a859b9a989b612775565b815201920192019190969395966104b2565b80fd5b6001600160e01b031981160361037857565b50346103785760203660031901126103785760206004356105718161053f565b63ffffffff60e01b16636cdb3d1360e11b81149081156105af575b811561059e575b506040519015158152f35b6301ffc9a760e01b14905038610593565b6303a24d0760e21b8114915061058c565b50634e487b7160e01b600052604160045260246000fd5b60a081019081106001600160401b038211176105f257604052565b6105fa6105c0565b604052565b608081019081106001600160401b038211176105f257604052565b604081019081106001600160401b038211176105f257604052565b90601f801991011681019081106001600160401b038211176105f257604052565b6040519061016082018281106001600160401b038211176105f257604052565b60405190610683826105d7565b565b60405190610683826105ff565b604051906106838261061a565b6020906001600160401b0381116106bc575b601f01601f19160190565b6106c46105c0565b6106b1565b81601f82011215610378578035906106e08261069f565b926106ee6040519485610635565b8284526020838301011161037857816000926020809301838601378301015290565b602060031982011261037857600435906001600160401b0382116103785761073a916004016106c9565b90565b50346103785761074c36610710565b6107546143f1565b80516001600160401b038111610837575b6107798161077460025461170e565b612ab5565b602080601f83116001146107b4575081926000926107a9575b50508160011b916000199060031b1c191617600255005b015190503880610792565b6002600052601f198316939091907f405787fa12a823e0f2b7631cc41b3ba8828b3321ca811111fa75cd3aa3bb5ace926000905b86821061081f5750508360019510610806575b505050811b01600255005b015160001960f88460031b161c191690553880806107fb565b806001859682949686015181550195019301906107e8565b61083f6105c0565b610765565b5034610378576020366003190112610378576020610868610863610362565b6125a3565b6040519015158152f35b5034610378576000366003190112610378576020604051600a8152f35b90602061073a9281815201906103fa565b503461037857602080600319360112610378576040516000916002546108c58161170e565b8084529060019081811690811561093f57506001146108ff575b6108fb846108ef81880382610635565b6040519182918261088f565b0390f35b919350600260005283600020916000925b82841061092c57505050816108fb936108ef92820101936108df565b8054858501870152928501928101610910565b60ff1916858501525050151560051b82010191506108ef816108fb6108df565b90602061073a92818152019061041f565b50346103785760203660031901126103785761098a610362565b610992612723565b5061099c81612702565b156109d75760018060a01b0316600052600a6020526108fb6109cb6109c5604060002054612748565b50612775565b6040519182918261095f565b60405162461bcd60e51b815260206004820152601960248201527847616d6520746f6b656e20646f65736e27742065786973742160381b6044820152606490fd5b503461037857602060ff610120610a36610a3136610710565b6129c6565b015116604051908152f35b5034610378576020610868610a5536610710565b6127f3565b503461037857600036600319011261037857602047604051908152f35b60031115610a8157565b634e487b7160e01b600052602160045260246000fd5b906003821015610a815752565b6000915b60028310610ab557505050565b81516001600160a01b031681526001929092019160209182019101610aa8565b90610ae1818351610a97565b60208201516020820152610160610b0760408401516101808060408601528401906103fa565b9260608101516060840152610b2460808201516080850190610aa4565b60a08101516001600160a01b031660c084015260c08101516001600160a01b031660e0840152610b7b610b6660e08301519561010096868203888801526103fa565b948201519461012095858203878701526103fa565b9381015190610b92610140928386019060ff169052565b015191015290565b90602061073a928181520190610ad5565b5034610378576108fb610bc0610a3136610710565b604051918291602083526020830190610ad5565b5034610378576000366003190112610378576020600654604051908152f35b50610bfd36610710565b610c0e610c09336125a3565b612d59565b610c26610c21610c1d836127f3565b1590565b6130d0565b610c333331341115613115565b610c43640ba43b74003411613178565b610c603331610c506131bf565b3491610c5a6131e4565b91614e5c565b6040516020810190610c8481610c76858561088f565b03601f198101835282610635565b51902090610d11610c93610692565b3381529260006020850152610ca6613039565b92610caf613039565b610cb7610656565b60008152602081019390935260408301828152346060850152608084019687523360a085015294600060c085015260e0840152610100830152600061012083015242610140830152610d0b600e54916127cd565b55613294565b5190516001600160a01b0390610d32906020015b516001600160a01b031690565b16907f5da93d412071ca49c5b3543268fc9249b407b8de53c1589d76d6532f0a5b7df860405180610d6433948261088f565b0390a3005b5034610378576108fb610d83610d7e36610710565b612a42565b6040519182916020835260208301906103fa565b6020906001600160401b038111610db0575b60051b0190565b610db86105c0565b610da9565b81601f8201121561037857803591610dd483610d97565b92610de26040519485610635565b808452602092838086019260051b820101928311610378578301905b828210610e0c575050505090565b81358152908301908301610dfe565b50346103785760a036600319011261037857610e35610362565b610e3d61037d565b906001600160401b039060443582811161037857610e5f903690600401610dbd565b9160643581811161037857610e78903690600401610dbd565b9060843590811161037857610e919036906004016106c9565b6001600160a01b038381169491903386148015610fc9575b610eb2906145e4565b610ebf835185511461471b565b8616610ecc811515614647565b610ed884848988614d6f565b60005b8351811015610f855780610ef2610f809286614507565b51610f79610f718b610f26610f07868c614507565b51948c610f6087610f3d83610f26866000526000602052604060002090565b9060018060a01b0316600052602052604060002090565b54610f4a828210156146a1565b0391610f26846000526000602052604060002090565b556000526000602052604060002090565b91825461470e565b9055612fad565b610edb565b5093869194610019966040517f4a39dc06d4c0dbc64b70af90fd698a233a518aa5d07e595d983b8c0526c8f7fb339180610fc08a8a83614778565b0390a433614c81565b50600086815260016020908152604080832033845290915290205460ff16610ea9565b5034610378576040366003190112610378576004356001600160f81b031981168103610378576024356001600160401b038111610378576110319036906004016106c9565b61103a816129c6565b9161105a6001845161104b81610a77565b61105481610a77565b146138a2565b61107a6002845161106a81610a77565b61107381610a77565b141561391e565b60808301805180516001600160a01b03916110a491839081163314918215611325575b5050613979565b6110d96110d26110c660a06110b8886129c6565b01516001600160a01b031690565b6001600160a01b031690565b33146139c5565b610c766111446101208701946110ff600660ff6110f7895160ff1690565b161115613a07565b60e0880194611118828751611112613686565b906142c1565b909652851594856111e7575b50506040516001600160f81b031990911660208201529182906021820190565b6111546101008701918251613a99565b9052611160858561379b565b7fe212ed376777ebdfaa9739efc3d6eed905003d9d42dff523214c309a7396a61f61119c61118d86612a42565b9260405191829115948261088f565b0390a2156111af57506100199150613b16565b51600691506111c29060ff165b60ff1690565b10156111ca57005b60a081015161001991906001600160a01b0316613d39565b613d39565b8151516112bd929061122e9061120b90610d2590611225906001600160a01b031683565b6001600160a01b0316600090815260096020526040902090565b54935160200190565b5461124961123b836125e0565b50546001600160a01b031690565b60a08d018051909491908290611267906001600160a01b03166110c6565b9116036112c457505061127b6003916125e0565b50016112878154612f4e565b90555b6112a76112a061129b8a5160ff1690565b613a76565b60ff168952565b6112b089613ada565b6001600160a01b03169052565b3880611124565b9091506112d361123b836125e0565b83519091906112ea906001600160a01b03166110c6565b91160361130f576112fc6003916125e0565b50016113088154612f4e565b905561128a565b5061132061131b613a44565b614dec565b61128a565b60200151166001600160a01b031690503314823861109d565b5034610378576020366003190112610378576004357f00000000000000000000000000000000000000000000000000000000000000006001600160a01b031633036113ac576000808080938181156113a3575b3390f11561139b57005b610019612596565b506108fc611391565b60405162461bcd60e51b815260206004820152601360248201527231b0b63632b91034b9903737ba1037bbb732b960691b6044820152606490fd5b5034610378577fa8a13d5362cedeaaf8906a83b0afcab2c07c8bdac8a04ed19d273c4307f260bd61143c61141a36610710565b6114226143f1565b61143361142e8261422b565b614152565b610d83816141ae565b0390a1005b90815180825260208080930193019160005b828110611461575050505090565b835185529381019392810192600101611453565b90602061073a928181520190611441565b5034610378576040366003190112610378576004356001600160401b0380821161037857366023830112156103785781600401356114c381610d97565b926114d16040519485610635565b81845260209160248386019160051b8301019136831161037857602401905b8282106115295785602435868111610378576108fb9161151761151d923690600401610dbd565b90614529565b60405191829182611475565b83809161153584610393565b8152019101906114f0565b503461037857602036600319011261037857600435600052600460205260206040600020541515604051908152f35b50346103785760206001600160a01b0360a0610a36610a3136610710565b9060018060a01b0382511681526080806115b6602085015160a0602086015260a08501906103fa565b9360408101516040850152606081015160608501520151151591015290565b5034610378576020366003190112610378576108fb6115fa6115f5610362565b612665565b60405191829160208352602083019061158d565b50346103785760008060031936011261053c57600e5461162d81610d97565b9061163b6040519283610635565b808252600e835260209283830191817fbb7b4a454dc3493923482f07822329ed19e8244eff582cc204f8554c3620c3fd845b8383106116d25750505050604051928484019085855251809152604084019460408260051b8601019392955b8287106116a65785850386f35b9091929382806116c2600193603f198a82030186528851610ad5565b9601920196019592919092611699565b600c886001926116e5859b9a989b612901565b8152019201920191909693959661166d565b50634e487b7160e01b600052600060045260246000fd5b90600182811c9216801561173e575b602083101461172857565b634e487b7160e01b600052602260045260246000fd5b91607f169161171d565b90600092918054916117598361170e565b9182825260019384811690816000146117bb575060011461177b575b50505050565b90919394506000526020928360002092846000945b8386106117a7575050505001019038808080611775565b805485870183015294019385908201611790565b9294505050602093945060ff191683830152151560051b01019038808080611775565b906106836117f29260405193848092611748565b0383610635565b50346103785760008060031936011261053c576040518160055461181c8161170e565b8084529060019081811690811561189e5750600114611845576108fb846108ef81880382610635565b60058352602094507f036b6384b5eca791c62761152d0c79bb0604c104a5fb6f4eb0703f3154bb3db05b82841061188b57505050816108fb936108ef92820101936108df565b805485850187015292850192810161186f565b6108fb96506108ef9450602092508593915060ff191682840152151560051b820101936108df565b50346103785760008060031936011261053c576118e16143f1565b600380546001600160a01b031981169091556040519082906001600160a01b03167f8be0079c531659141344cd1fd0a4f28419497f9722a3daafe3b4186f6b6457e08284a3f35b5034610378576040366003190112610378576001600160401b036004358181116103785761195a9036906004016106c9565b90602435908111610378576119739036906004016106c9565b61197c336125a3565b6119fd5761001991600c546119b5611992610676565b338152836020820152600a60408201526006606082015260006080820152612c8d565b336000908152600960205260409020557f81ef79d1cda814a60c0fc60792e648a06d9c6bae67176346d1cc8b63030bfccd604051806119f533948261088f565b0390a2612da5565b60405162461bcd60e51b8152602060048201526019602482015278141b185e595c88185b1c9958591e481c9959da5cdd195c9959603a1b6044820152606490fd5b5034610378576000366003190112610378576003546040516001600160a01b039091168152602090f35b503461037857611aa6611a7a36610710565b610a3181604051611a8a8161061a565b600a81526971756974426174746c6560b01b6020820152614e35565b60808101908151611acc60018060a01b0391828151163314908115611af3575b50613c8c565b82515116338103611ae957506111e2610d25610019935160200190565b6100199250613d39565b6020015133915083166001600160a01b03161438611ac6565b503461037857610019611b1e36610710565b612da5565b506108fb611b3036610710565b611b38612806565b50611c5c611b45826129c6565b917fcb17c4d26368c123b39a5b879cf729cad76aa10dfe5b9cd5355296f2732b86036080840191611d0285611b82855160018060a01b0390511690565b6001600160a01b039390611b9a9085163314156133b7565b611bba611bb5610c1d6080611bae33612665565b0151151590565b61340d565b611bc7333134111561344d565b611bd6606083015134146134ae565b611bf38251611be481610a77565b611bed81610a77565b156134fa565b60018252611c1533611c06885160200190565b6001600160a01b039091169052565b8551516001600160a01b031660a0830152611ca2611c9c611c97611c38846127cd565b54604051906325e41da160e01b8252818060209d8e93600483019190602083019252565b03817311f7ad1df281604f2bd22ba13e334ca4d14d7c285afa908115611dbb575b600091611d8e575b506007548b811015611d865790612f97565b61354f565b50613578565b611cb2611cad613686565b61382e565b96611cf7611cd7611cc960e086019a808c52613741565b516001600160f81b03191690565b6040516001600160f81b0319909116928101928352918290600101610c76565b61010083015261379b565b825151611d3790600490611d2890611d22906001600160a01b031661120b565b546125e0565b5001805460ff19166001179055565b611d506004611d28611d2261120b610d25885160200190565b60408501519251516001600160a01b0316935190611d776040519283923397169583613776565b0390a360405191829182610b9a565b508a90612f97565b611dae91508b3d8d11611db4575b611da68183610635565b810190613540565b38611c85565b503d611d9c565b611dc3612596565b611c7d565b503461037857604036600319011261037857611de2610362565b6024358015158103610378576001600160a01b03821691338314611e6657336000908152600160205260409020611e30918391611e1f9190610f26565b9060ff801983541691151516179055565b604051901515815233907f17307eab39ab6107e8899845ad3d59bd9653f200f220920489ca2b5937696c31908060208101610d64565b60405162461bcd60e51b815260206004820152602960248201527f455243313135353a2073657474696e6720617070726f76616c20737461747573604482015268103337b91039b2b63360b91b6064820152608490fd5b50346103785760203660031901126103785760043560005260046020526020604060002054604051908152f35b5034610378576020366003190112610378576020610868611f09610362565b612702565b50346103785760208060031936011261037857611f2c600435614076565b60405190600092600554611f3f8161170e565b90600190818116908115611fc75750600114611f86575b602f60f81b86526108fb856108ef81610c76611f7560018c018a6127b6565b64173539b7b760d91b815260050190565b90919450600560005284600020906000915b838310611fb45750505082019092019181610c76611f75611f56565b8054868401880152918601918101611f98565b60ff191684870152505080151502830101925081610c76611f75611f56565b5034610378576108fb611ff836610710565b61200461142e8261422b565b6108ef6120666120606040516325e41da160e01b8152600060048201526020816024817311f7ad1df281604f2bd22ba13e334ca4d14d7c285afa908115612097575b600091612079575b5060075490811561206c575b0661354f565b506117de565b916141ae565b612074612f80565b61205a565b612091915060203d8111611db457611da68183610635565b3861204e565b61209f612596565b612046565b5034610378576120b336610710565b6120bc816127f3565b156120f35760096108ef6120db6120d56108fb946127cd565b5461288b565b506120ec6040518094819301611748565b0382610635565b60405162461bcd60e51b815260206004820152602360248201527f2867657447756573736573293a20426174746c6520646f65736e27742065786960448201526273742160e81b6064820152608490fd5b503461037857604036600319011261037857602060ff612196612165610362565b61216d61037d565b6001600160a01b0391821660009081526001865260408082209290931681526020919091522090565b54166040519015158152f35b50346103785760008060031936011261053c57600c546121c181610d97565b906121cf6040519283610635565b808252600c835260209283830191817fdf6966c971051c3d54ec59162606531493a51404a002842f56009d7e5cf4a8c7845b8383106122665750505050604051928484019085855251809152604084019460408260051b8601019392955b82871061223a5785850386f35b909192938280612256600193603f198a8203018652885161158d565b960192019601959291909261222d565b600588600192612279859b9a989b61260d565b81520192019201919096939596612201565b50346103785760a0366003190112610378576122a5610362565b6122ad61037d565b6064356044356084356001600160401b038111610378576122d29036906004016106c9565b6001600160a01b03858116959194919033871480156124a6575b6122f5906145e4565b82168015966123048815614647565b61230d85614ced565b9761231787614ced565b90821561244a575b6123c8575b5061001997508561234384610f26886000526000602052604060002090565b54612350828210156146a1565b0361236984610f26886000526000602052604060002090565b5561238284610f26876000526000602052604060002090565b61238d87825461470e565b9055604080518681526020810188905233917fc3d58168c5ae7397731d063d5bbf3d657854427343f4c083240f7aacaa2d0f6291a433614b5b565b959391600097959391975b895181101561243757806123ea612432928c614507565b5161242c6123f8838c614507565b5161240d836000526004602052604060002090565b5461241a82821015614d12565b03916000526004602052604060002090565b55612fad565b6123d3565b5091939550919395610019975038612324565b9896939095926000989592985b8851811015612496578089610f79610f7161248084612479612491978f614507565b5194614507565b516000526004602052604060002090565b612457565b509295909396989791949761231f565b50600087815260016020908152604080832033845290915290205460ff166122ec565b5034610378576020366003190112610378576124e3610362565b6124eb6143f1565b6001600160a01b0390811690811561254257600380546001600160a01b03198116841790915560405160009390929091167f8be0079c531659141344cd1fd0a4f28419497f9722a3daafe3b4186f6b6457e08484a3f35b60405162461bcd60e51b815260206004820152602660248201527f4f776e61626c653a206e6577206f776e657220697320746865207a65726f206160448201526564647265737360d01b6064820152608490fd5b506040513d6000823e3d90fd5b6001600160a01b03166000908152600960205260409020546125c457600090565b600190565b50634e487b7160e01b600052603260045260246000fd5b600c54811015612600575b600c6000526005602060002091020190600090565b6126086125c9565b6125eb565b9060405161261a816105d7565b608060ff6004839560018060a01b038154168552604051612642816120ec8160018601611748565b602086015260028101546040860152600381015460608601520154161515910152565b60006080604051612675816105d7565b828152606060208201528260408201528260608201520152612696816125a3565b156126c5576001600160a01b0316600090815260096020526040902061073a906126bf90611d22565b5061260d565b60405162461bcd60e51b8152602060048201526015602482015274506c6179657220646f65736e27742065786973742160581b6044820152606490fd5b6001600160a01b03166000908152600a60205260409020546125c457600090565b60405190612730826105ff565b60006060838181528260208201528260408201520152565b600d54811015612768575b600d60005260206000209060021b0190600090565b6127706125c9565b612753565b90604051612782816105ff565b606060038294604051612799816120ec8185611748565b845260018101546020850152600281015460408501520154910152565b906127c9602092828151948592016103d7565b0190565b60206127e69181604051938285809451938492016103d7565b8101600b81520301902090565b6127fc906127cd565b546125c457600090565b6040519061016082018281106001600160401b0382111761287e575b604052816101406000918281528260208201526060604082015282606082015260405161284e8161061a565b604036823760808201528260a08201528260c0820152606060e08201526060610100820152826101208201520152565b6128866105c0565b612822565b600e548110156128ab575b600e600052600c602060002091020190600090565b6128b36125c9565b612896565b6003821015610a815752565b60405191906000835b600282106128e1575050506106838261061a565b82546001600160a01b0316815260019283019291909101906020016128cd565b90600b61290c610656565b9261292161291b825460ff1690565b856128b8565b60018101546020850152612937600282016117de565b604085015260038101546060850152612952600482016128c4565b608085015260068101546001600160a01b031660a085015260078101546001600160a01b031660c0850152612989600882016117de565b60e085015261299a600982016117de565b6101008501526129bc6129b1600a83015460ff1690565b60ff16610120860152565b0154610140830152565b6129ce612806565b506129d8816127f3565b156129f2576129ec6120d561073a926127cd565b50612901565b60405162461bcd60e51b815260206004820152602260248201527f28676574426174746c65293a20426174746c6520646f65736e27742065786973604482015261742160f01b6064820152608490fd5b612a4b816127f3565b15612a615761073a6120db6120d56008936127cd565b60405162461bcd60e51b815260206004820152602660248201527f286765744d61736b6564576f7264293a20426174746c6520646f65736e27742060448201526565786973742160d01b6064820152608490fd5b601f8111612ac1575050565b6000906002825260208220906020601f850160051c83019410612aff575b601f0160051c01915b828110612af457505050565b818155600101612ae8565b9092508290612adf565b601f8111612b15575050565b6000906008825260208220906020601f850160051c83019410612b53575b601f0160051c01915b828110612b4857505050565b818155600101612b3c565b9092508290612b33565b90601f8111612b6b57505050565b600091825260208220906020601f850160051c83019410612ba7575b601f0160051c01915b828110612b9c57505050565b818155600101612b90565b9092508290612b87565b91909182516001600160401b038111612c80575b612bd981612bd3845461170e565b84612b5d565b602080601f8311600114612c15575081929394600092612c0a575b50508160011b916000199060031b1c1916179055565b015190503880612bf4565b90601f19831695612c2b85600052602060002090565b926000905b888210612c6857505083600195969710612c4f575b505050811b019055565b015160001960f88460031b161c19169055388080612c45565b80600185968294968601518155019501930190612c30565b612c886105c0565b612bc5565b6106839060046080600c54600160401b811015612d4c575b6001810180600c55811015612d3f575b600c60005283516005919091027fdf6966c971051c3d54ec59162606531493a51404a002842f56009d7e5cf4a8c70180546001600160a01b0319166001600160a01b039290921691909117815592612d14602082015160018601612bb1565b60408101516002850155606081015160038501550151151591019060ff801983541691151516179055565b612d476125c9565b612cb5565b612d546105c0565b612ca5565b15612d6057565b60405162461bcd60e51b815260206004820152601c60248201527f506c6561736520526567697374657220506c61796572204669727374000000006044820152606490fd5b6080612db033612665565b0151612efa5761068390612dc6610c09336125a3565b612dce612723565b50612dd833613089565b612de181612f65565b60066040516020810190612e1381610c76334486909160349282526001600160601b03199060601b1660208201520190565b51902006928315612ec1575b7fca8ab07e9ed17d119729fc652dd24df9d8430ca862dda4631925b5b4b99da36291612eaf91612e4d610685565b908152856020820152846040820152816060820152612e81600d5491612e7c612e77600654612fad565b600655565b612fc5565b336000908152600a602052604090205560408051868152602081019590955284015233929081906060820190565b0390a2612eba61306a565b903361479d565b927fca8ab07e9ed17d119729fc652dd24df9d8430ca862dda4631925b5b4b99da36291612ef0612eaf92612fad565b9491509150612e1f565b60405162461bcd60e51b8152602060048201526015602482015274506c6179657220697320696e206120626174746c6560581b6044820152606490fd5b50634e487b7160e01b600052601160045260246000fd5b600019810191908211612f5d57565b610683612f37565b600a0390600a8211612f5d57565b91908203918211612f5d57565b50634e487b7160e01b600052601260045260246000fd5b8115612fa1570690565b612fa9612f80565b0690565b6001906000198114612fbd570190565b6127c9612f37565b60036060600d54600160401b81101561302c575b6001810180600d5581101561301f575b600d60005260206000209060021b0192613004815185612bb1565b60208101516001850155604081015160028501550151910155565b6130276125c9565b612fe9565b6130346105c0565b612fd9565b60405190602082018281106001600160401b0382111761305d575b60405260008252565b6130656105c0565b613054565b604051906130778261061a565b600382526203078360ec1b6020830152565b600a9060405160208101914483524460408301526001600160601b03199060601b166060820152605481526130bd816105ff565b5190200680156130ca5790565b50600590565b156130d757565b60405162461bcd60e51b8152602060048201526016602482015275426174746c6520616c7265616479206578697374732160501b6044820152606490fd5b1561311c57565b60405162461bcd60e51b815260206004820152602e60248201527f637265617465426174746c653a204572726f722c20696e737566666963656e7460448201526d207661756c742062616c616e636560901b6064820152608490fd5b1561317f57565b60405162461bcd60e51b815260206004820152601860248201527708ae4e4dee45840dad2dcd2daeada40605c606a4082ecc2f60431b6044820152606490fd5b604051906131cc8261061a565b600982526803130b630b731b29d160bd1b6020830152565b604051906131f18261061a565b60088252670103b30b63ab29d160c51b6020830152565b906003811015610a815760ff80198354169116179055565b806000190460021181151516613237575b60011b90565b61323f612f37565b613231565b600a90806000190482118115151661325a570290565b613262612f37565b0290565b9060005b6002811061327757505050565b81516001600160a01b03168184015560209091019060010161326a565b600b610140600e54600160401b8110156133aa575b6001810180600e5581101561339d575b600e600052600c6020600020910201926132dd81516132d781610a77565b85613208565b602081015160018501556132f8604082015160028601612bb1565b60608101516003850155613313608082015160048601613266565b60a08101516006850180546001600160a01b039283166001600160a01b03199182161790915560c083015160078701805491909316911617905560e081015161335f9060088601612bb1565b61337161010082015160098601612bb1565b61339661338361012083015160ff1690565b600a86019060ff1660ff19825416179055565b0151910155565b6133a56125c9565b6132b9565b6133b26105c0565b6132a9565b156133be57565b60405162461bcd60e51b815260206004820152602160248201527f4f6e6c7920706c617965722074776f2063616e206a6f696e206120626174746c6044820152606560f81b6064820152608490fd5b1561341457565b60405162461bcd60e51b8152602060048201526011602482015270416c726561647920696e20626174746c6560781b6044820152606490fd5b1561345457565b60405162461bcd60e51b815260206004820152602c60248201527f6a6f696e426174746c653a204572726f722c20696e737566666963656e74207660448201526b61756c742062616c616e636560a01b6064820152608490fd5b156134b557565b60405162461bcd60e51b815260206004820152601b60248201527f416d6f756e74206d75737420626520657175616c2061742062657400000000006044820152606490fd5b1561350157565b60405162461bcd60e51b8152602060048201526017602482015276426174746c6520616c726561647920737461727465642160481b6044820152606490fd5b90816020910312610378575190565b60075481101561356b575b600760005260206000200190600090565b6135736125c9565b61355a565b90816008146136825761358b825461170e565b6001600160401b038111613675575b6135ae816135a960085461170e565b612b09565b6000601f82116001146135e8578192936000926135dd575b50508160011b916000199060031b1c191617600855565b0154905038806135c6565b6135fc601f19831694600052602060002090565b6008600052907ff3f7a9fe364faab93b216da50a3214154f22a0a2b415b23a84c8169e8b636ee391815b86811061365d5750836001959610613644575b505050811b01600855565b015460001960f88460031b161c19169055388080613639565b81830154845560019384019390920191602001613626565b61367d6105c0565b61359a565b9050565b604051906000826008549161369a8361170e565b80835260019380851690811561372057506001146136c0575b5061068392500383610635565b600860009081527ff3f7a9fe364faab93b216da50a3214154f22a0a2b415b23a84c8169e8b636ee394602093509091905b8183106137085750506106839350820101386136b3565b855488840185015294850194879450918301916136f1565b905061068394506020925060ff191682840152151560051b820101386136b3565b60209080511561374f570190565b6127c96125c9565b90602091805182101561376957010190565b6137716125c9565b010190565b909161378d61073a936040845260408401906103fa565b9160208184039101526103fa565b6137a4816127f3565b156137dd576101406137ba6120d5600b936127cd565b9390936137d0575b6132dd81516132d781610a77565b6137d86116f7565b6137c2565b60405162461bcd60e51b8152602060048201526024808201527f28757064617465426174746c65293a20426174746c6520646f65736e277420656044820152631e1a5cdd60e21b6064820152608490fd5b600180805b61383c57505090565b825181101561389d57613878906001600160f81b03198061385d8387613757565b511690855115613890575b6020860151160361387e57612fad565b81613833565b605f61388a8286613757565b53612fad565b6138986125c9565b613868565b505090565b156138a957565b60405162461bcd60e51b815260206004820152604160248201527f426174746c65206e6f7420737461727465642e20506c656173652074656c6c2060448201527f616e6f7468657220706c6179657220746f206a6f696e2074686520626174746c6064820152606560f81b608482015260a490fd5b1561392557565b60405162461bcd60e51b815260206004820152602660248201527f63686f73656e4c65747465723a20426174746c652068617320616c726561647960448201526508195b99195960d21b6064820152608490fd5b1561398057565b60405162461bcd60e51b815260206004820152601a60248201527f596f7520617265206e6f7420696e207468697320626174746c650000000000006044820152606490fd5b156139cc57565b60405162461bcd60e51b815260206004820152601360248201527224ba1034b9903737ba103cb7bab9103a3ab93760691b6044820152606490fd5b15613a0e57565b60405162461bcd60e51b815260206004820152600e60248201526d546f6f206261642063686f69636560901b6044820152606490fd5b60405190613a518261061a565b601682527532b93937b91d1010afb334b7322732bba632ba3a32b960511b6020830152565b60ff60019116019060ff8211612f5d57565b60ff166030019060ff8211612f5d57565b6020610683919392936040519481613aba87935180928680870191016103d7565b8201613ace825180938680850191016103d7565b01038085520183610635565b6080613ae5826129c6565b0160018060a01b03918260a0613aff8285515116936129c6565b01511603613b105751602001511690565b51511690565b613b1f906129c6565b6080810180519060018060a01b039182808251163314918215613c7b575b505015613c225751338282511614918215613c10575b505015613bb857613b6f60e0820151613b6a613686565b614375565b7f6b5fd31b10b00ec94eb179707ba8b02caa87421f956fff0ee903bd6a22db99a46000604051a1613b9d5750565b60a0810151613bb591906001600160a01b0316613d39565b50565b60405162461bcd60e51b815260206004820152602a60248201527f5f7265736f6c7665426174746c653a596f7520617265206e6f7420696e207468604482015269697320626174746c652160b01b6064820152608490fd5b90915060203392015116143880613b53565b60405162461bcd60e51b815260206004820152602b60248201527f4f6e6c7920706c617965727320696e207468697320626174746c652063616e2060448201526a6d616b652061206d6f766560a81b6064820152608490fd5b602091925001511633148238613b3d565b15613c9357565b60405162461bcd60e51b815260206004820152602660248201527f71756974426174746c653a596f7520617265206e6f7420696e207468697320626044820152656174746c652160d01b6064820152608490fd5b15613cee57565b606460405162461bcd60e51b815260206004820152602060248201527f5f656e64426174746c653a20426174746c6520616c726561647920656e6465646044820152fd5b1561037857565b613e9490613d45612806565b50613d6660028451613d5681610a77565b613d5f81610a77565b1415613ce7565b600283526001600160a01b03811660c084015260408301613d8884825161379b565b60808401805151613e1290600290613dfc90613dac906001600160a01b031661120b565b54613e0483613dfc613dc561120b610d258a5160200190565b5493613de16004613dd5836125e0565b5001805460ff19169055565b613df76003613def836125e0565b500160069055565b6125e0565b5001600a9055565b613de16004613dd5836125e0565b805180516001600160a01b03948516939184917fae6e5eafb6cd1cb4b139e7a0b9140aa182ee7d50e99f50d660156f79212acbc09187918291908216858103613ec957506020015116935b5193613e7060405192839216958261088f565b0390a351805183166001600160a01b0316821492908315613eaf575b505050613d32565b61073a606082016000613ea78251613220565b915282613ed2565b60200151919250166001600160a01b031614388080613e8c565b91505093613e5d565b9060808201519160018060a01b039283808251163314918215614018575b505015610378578115613fe75760c0015160009283928392613f1a906001600160a01b03166110c6565b604080516001600160a01b0383168152602081018490529193917f13b46ae1da3b476d0302ec781f7dd6982727671bc7bc07411d908daeb468751e9190a160405192165af1613f67614029565b50613f7181614059565b15613f7857565b60405162461bcd60e51b815260206004820152603a60248201527f416464726573733a20756e61626c6520746f2073656e642076616c75652c207260448201527f6563697069656e74206d617920686176652072657665727465640000000000006064820152608490fd5b0390fd5b60405162461bcd60e51b815260206004820152600960248201526806761696e203c3d20360bc1b6044820152606490fd5b602091925001511633148338613ef0565b3d15614054573d9061403a8261069f565b916140486040519384610635565b82523d6000602084013e565b606090565b1561406057565b634e487b7160e01b600052600160045260246000fd5b9081156141335760008083805b61411f5750836140928361069f565b926140a06040519485610635565b808452601f196140af8261069f565b01366020860137905b6140c3575090925050565b6140ce600a91612f4e565b948561411661410d6140fd6140f86111bc6140f26140eb88613244565b600a900490565b87612f73565b613a88565b60f81b6001600160f81b03191690565b851a9186613757565b530493846140b8565b9161412b600a91612fad565b920480614083565b90506040516141418161061a565b60018152600360fc1b602082015290565b1561415957565b60405162461bcd60e51b815260206004820152602760248201527f4572726f722c20776f72642077697468206c6f77657263617365206c657474656044820152667273206f6e6c7960c81b6064820152608490fd5b6007546106839190600160401b81101561420c575b60018101806007558110156141ff575b60076000527fa66cc928b5edb82af9bd49922954155ab7b0942694bea4ce44661d9a8736c68801612bb1565b6142076125c9565b6141d3565b6142146105c0565b6141c3565b60ff6001911660ff8114612fbd570190565b6000805b60ff81166020811080614283575b1561427a57614261906001600160f81b03199061425a9086613757565b511661428d565b156142745761426f90614219565b61422f565b50905090565b50505050600190565b508351811061423d565b60ff60f81b16606160f81b81101590816142b2575b50156142ad57600190565b600090565b603d60f91b10159050386142a2565b929160019160009183908390825b6142de575b5050505090509190565b60ff8616602081108061436b575b15614365576001600160f81b0319806143058388613757565b511681841614908161434b575b5061432d575b5061432583949596614219565b9594936142cf565b8394955061433e82841a918a613757565b5361432583959450614318565b605f60f81b915061435c838c613757565b51161438614312565b506142d4565b50845181106142ec565b600180926000908282905b61438d575b505050505090565b60ff811660208110806143e7575b156143e1576001600160f81b03196143c0816143b7848a613757565b51169285613757565b5116036143d7575b6143d190614219565b83614380565b91945084916143c8565b50614385565b508551811061439b565b6003546001600160a01b0316330361440557565b606460405162461bcd60e51b815260206004820152602060248201527f4f776e61626c653a2063616c6c6572206973206e6f7420746865206f776e65726044820152fd5b6001600160a01b0381161561447d576000918252602082815260408084206001600160a01b03909316845291905290205490565b60405162461bcd60e51b815260206004820152602a60248201527f455243313135353a2061646472657373207a65726f206973206e6f742061207660448201526930b634b21037bbb732b960b11b6064820152608490fd5b906144df82610d97565b6144ec6040519182610635565b82815280926144fd601f1991610d97565b0190602036910137565b602091815181101561451c575b60051b010190565b6145246125c9565b614514565b919091805183510361458d5761453f81516144d5565b9060005b81518110156145865780614571614560610d256145819486614507565b61456a8389614507565b5190614449565b61457b8286614507565b52612fad565b614543565b5090925050565b60405162461bcd60e51b815260206004820152602960248201527f455243313135353a206163636f756e747320616e6420696473206c656e677468604482015268040dad2e6dac2e8c6d60bb1b6064820152608490fd5b156145eb57565b60405162461bcd60e51b815260206004820152602e60248201527f455243313135353a2063616c6c6572206973206e6f7420746f6b656e206f776e60448201526d195c881bdc88185c1c1c9bdd995960921b6064820152608490fd5b1561464e57565b60405162461bcd60e51b815260206004820152602560248201527f455243313135353a207472616e7366657220746f20746865207a65726f206164604482015264647265737360d81b6064820152608490fd5b156146a857565b60405162461bcd60e51b815260206004820152602a60248201527f455243313135353a20696e73756666696369656e742062616c616e636520666f60448201526939103a3930b739b332b960b11b6064820152608490fd5b9060018201809211612f5d57565b91908201809211612f5d57565b1561472257565b60405162461bcd60e51b815260206004820152602860248201527f455243313135353a2069647320616e6420616d6f756e7473206c656e677468206044820152670dad2e6dac2e8c6d60c31b6064820152608490fd5b909161478f61073a93604084526040840190611441565b916020818403910152611441565b926001600160a01b03841692831561485e576147b883614ced565b926147c1614cbb565b9560005b85518110156147f257806147dc6147ed928a614507565b51610f79610f71612480848b614507565b6147c5565b509193509194506106839361481582610f26856000526000602052604060002090565b61481f8154614700565b9055604080518481526001602082015260009133917fc3d58168c5ae7397731d063d5bbf3d657854427343f4c083240f7aacaa2d0f629190a4336149fb565b60405162461bcd60e51b815260206004820152602160248201527f455243313135353a206d696e7420746f20746865207a65726f206164647265736044820152607360f81b6064820152608490fd5b90816020910312610378575161073a8161053f565b61073a939260a092600180851b031682526000602083015260408201526001606082015281608082015201906103fa565b919261073a95949160a094600180871b0380921685521660208401526040830152606082015281608082015201906103fa565b60809060208152602860208201527f455243313135353a204552433131353552656365697665722072656a656374656040820152676420746f6b656e7360c01b60608201520190565b60009060033d1161497c57565b905060046000803e60005160e01c90565b600060443d1061073a57604051600319913d83016004833e81516001600160401b03918282113d6024840111176149ea578184019485519384116149f2573d850101602084870101116149ea575061073a92910160200190610635565b949350505050565b50949350505050565b92919091823b614a0b5750505050565b614a3292602092600060405180968195829463f23a6e6160e01b9a8b8552600485016148c2565b03926001600160a01b03165af160009181614b2b575b50614b035750506001614a5961496f565b6308c379a014614ad4575b614a72575b38808080611775565b60405162461bcd60e51b815260206004820152603460248201527f455243313135353a207472616e7366657220746f206e6f6e2d455243313135356044820152732932b1b2b4bb32b91034b6b83632b6b2b73a32b960611b6064820152608490fd5b614adc61498d565b80614ae75750614a64565b60405162461bcd60e51b8152908190613fe3906004830161088f565b6001600160e01b03191614614a695760405162461bcd60e51b815280613fe360048201614926565b614b4d91925060203d8111614b54575b614b458183610635565b8101906148ad565b9038614a48565b503d614b3b565b9493919092813b614b6f575b505050505050565b6000602094614b966040519788968795869463f23a6e6160e01b9c8d8752600487016148f3565b03926001600160a01b03165af160009181614c13575b50614beb5750506001614bbd61496f565b6308c379a014614bd8575b614a72575b388080808080614b67565b614be061498d565b80614ae75750614bc8565b6001600160e01b03191614614bcd5760405162461bcd60e51b815280613fe360048201614926565b614c2c91925060203d8111614b5457614b458183610635565b9038614bac565b939061073a9593614c6591614c739460018060a01b03809216885216602087015260a0604087015260a0860190611441565b908482036060860152611441565b9160808184039101526103fa565b9493919092813b614c9457505050505050565b6000602094614b966040519788968795869463bc197c8160e01b9c8d875260048701614c33565b604051614cc78161061a565b600181526001602082016020368237825115614ce1575290565b614ce96125c9565b5290565b60405190614cfa8261061a565b60018252602082016020368237825115614ce1575290565b15614d1957565b60405162461bcd60e51b815260206004820152602860248201527f455243313135353a206275726e20616d6f756e74206578636565647320746f74604482015267616c537570706c7960c01b6064820152608490fd5b919392916001600160a01b039190821615614dc3575b1615614d9057509050565b60005b8351811015614dbd5780614daa614db89286614507565b5161242c6123f88386614507565b614d93565b50509050565b929060005b8551811015614de457806147dc614ddf9286614507565b614dc8565b509092614d85565b610c76614e1a6106839260405192839163104c13eb60e21b60208401526020602484015260448301906103fa565b600080916020815191016a636f6e736f6c652e6c6f675afa50565b90614e1a61068392610c76604051938492634b5c427760e01b602085015260248401613776565b61068393614ea6614e1a93614e8f9560405196879563c67ea9d160e01b60208801526080602488015260a48701906103fa565b9160448601526023198583030160648601526103fa565b90608483015203601f19810183528261063556fea2646970667358221220fbf62691702097d9e13fc6f6e9c813353555d39e30f64d0cdf32afaeff85281d64736f6c63430008100033405787fa12a823e0f2b7631cc41b3ba8828b3321ca811111fa75cd3aa3bb5acea66cc928b5edb82af9bd49922954155ab7b0942694bea4ce44661d9a8736c688",
  "linkReferences": {},
  "deployedLinkReferences": {}
}