{
  "_format": "hh-sol-artifact-1",
  "contractName": "Penduel",
  "sourceName": "contracts/Penduel.sol",
  "abi": [
    {
      "inputs": [
        {
          "internalType": "string",
          "name": "_metadataURI",
          "type": "string"
        }
      ],
      "stateMutability": "nonpayable",
      "type": "constructor"
    },
    {
      "anonymous": false,
      "inputs": [
        {
          "indexed": true,
          "internalType": "address",
          "name": "account",
          "type": "address"
        },
        {
          "indexed": true,
          "internalType": "address",
          "name": "operator",
          "type": "address"
        },
        {
          "indexed": false,
          "internalType": "bool",
          "name": "approved",
          "type": "bool"
        }
      ],
      "name": "ApprovalForAll",
      "type": "event"
    },
    {
      "anonymous": false,
      "inputs": [
        {
          "indexed": false,
          "internalType": "string",
          "name": "battleName",
          "type": "string"
        },
        {
          "indexed": true,
          "internalType": "address",
          "name": "player1",
          "type": "address"
        },
        {
          "indexed": true,
          "internalType": "address",
          "name": "player2",
          "type": "address"
        },
        {
          "indexed": false,
          "internalType": "string",
          "name": "maskedWord",
          "type": "string"
        }
      ],
      "name": "BattleBegin",
      "type": "event"
    },
    {
      "anonymous": false,
      "inputs": [
        {
          "indexed": false,
          "internalType": "string",
          "name": "battleName",
          "type": "string"
        },
        {
          "indexed": true,
          "internalType": "address",
          "name": "player1",
          "type": "address"
        },
        {
          "indexed": true,
          "internalType": "address",
          "name": "player2",
          "type": "address"
        }
      ],
      "name": "BattleCreate",
      "type": "event"
    },
    {
      "anonymous": false,
      "inputs": [
        {
          "indexed": false,
          "internalType": "string",
          "name": "battleName",
          "type": "string"
        },
        {
          "indexed": true,
          "internalType": "address",
          "name": "winner",
          "type": "address"
        },
        {
          "indexed": true,
          "internalType": "address",
          "name": "loser",
          "type": "address"
        }
      ],
      "name": "BattleEnded",
      "type": "event"
    },
    {
      "anonymous": false,
      "inputs": [
        {
          "indexed": true,
          "internalType": "bool",
          "name": "_findNewLetter",
          "type": "bool"
        },
        {
          "indexed": false,
          "internalType": "string",
          "name": "maskedWord",
          "type": "string"
        }
      ],
      "name": "BattleLetter",
      "type": "event"
    },
    {
      "anonymous": false,
      "inputs": [
        {
          "indexed": true,
          "internalType": "address",
          "name": "owner",
          "type": "address"
        },
        {
          "indexed": false,
          "internalType": "uint256",
          "name": "id",
          "type": "uint256"
        },
        {
          "indexed": false,
          "internalType": "uint256",
          "name": "attackStrength",
          "type": "uint256"
        },
        {
          "indexed": false,
          "internalType": "uint256",
          "name": "defenseStrength",
          "type": "uint256"
        }
      ],
      "name": "NewGameToken",
      "type": "event"
    },
    {
      "anonymous": false,
      "inputs": [
        {
          "indexed": true,
          "internalType": "address",
          "name": "owner",
          "type": "address"
        },
        {
          "indexed": false,
          "internalType": "string",
          "name": "playerName",
          "type": "string"
        }
      ],
      "name": "NewPlayer",
      "type": "event"
    },
    {
      "anonymous": false,
      "inputs": [
        {
          "indexed": true,
          "internalType": "address",
          "name": "previousOwner",
          "type": "address"
        },
        {
          "indexed": true,
          "internalType": "address",
          "name": "newOwner",
          "type": "address"
        }
      ],
      "name": "OwnershipTransferred",
      "type": "event"
    },
    {
      "anonymous": false,
      "inputs": [
        {
          "indexed": false,
          "internalType": "address",
          "name": "player",
          "type": "address"
        },
        {
          "indexed": false,
          "internalType": "uint256",
          "name": "amount",
          "type": "uint256"
        }
      ],
      "name": "PlayerWithdraw",
      "type": "event"
    },
    {
      "anonymous": false,
      "inputs": [],
      "name": "RoundEnded",
      "type": "event"
    },
    {
      "anonymous": false,
      "inputs": [
        {
          "indexed": true,
          "internalType": "address",
          "name": "operator",
          "type": "address"
        },
        {
          "indexed": true,
          "internalType": "address",
          "name": "from",
          "type": "address"
        },
        {
          "indexed": true,
          "internalType": "address",
          "name": "to",
          "type": "address"
        },
        {
          "indexed": false,
          "internalType": "uint256[]",
          "name": "ids",
          "type": "uint256[]"
        },
        {
          "indexed": false,
          "internalType": "uint256[]",
          "name": "values",
          "type": "uint256[]"
        }
      ],
      "name": "TransferBatch",
      "type": "event"
    },
    {
      "anonymous": false,
      "inputs": [
        {
          "indexed": true,
          "internalType": "address",
          "name": "operator",
          "type": "address"
        },
        {
          "indexed": true,
          "internalType": "address",
          "name": "from",
          "type": "address"
        },
        {
          "indexed": true,
          "internalType": "address",
          "name": "to",
          "type": "address"
        },
        {
          "indexed": false,
          "internalType": "uint256",
          "name": "id",
          "type": "uint256"
        },
        {
          "indexed": false,
          "internalType": "uint256",
          "name": "value",
          "type": "uint256"
        }
      ],
      "name": "TransferSingle",
      "type": "event"
    },
    {
      "anonymous": false,
      "inputs": [
        {
          "indexed": false,
          "internalType": "string",
          "name": "value",
          "type": "string"
        },
        {
          "indexed": true,
          "internalType": "uint256",
          "name": "id",
          "type": "uint256"
        }
      ],
      "name": "URI",
      "type": "event"
    },
    {
      "anonymous": false,
      "inputs": [
        {
          "indexed": false,
          "internalType": "string",
          "name": "wordToAdd",
          "type": "string"
        }
      ],
      "name": "WordAdded",
      "type": "event"
    },
    {
      "inputs": [],
      "name": "MAX_ATTACK_DEFEND_STRENGTH",
      "outputs": [
        {
          "internalType": "uint256",
          "name": "",
          "type": "uint256"
        }
      ],
      "stateMutability": "view",
      "type": "function"
    },
    {
      "inputs": [
        {
          "internalType": "string",
          "name": "wordToAdd",
          "type": "string"
        }
      ],
      "name": "addWord",
      "outputs": [],
      "stateMutability": "nonpayable",
      "type": "function"
    },
    {
      "inputs": [
        {
          "internalType": "address",
          "name": "account",
          "type": "address"
        },
        {
          "internalType": "uint256",
          "name": "id",
          "type": "uint256"
        }
      ],
      "name": "balanceOf",
      "outputs": [
        {
          "internalType": "uint256",
          "name": "",
          "type": "uint256"
        }
      ],
      "stateMutability": "view",
      "type": "function"
    },
    {
      "inputs": [
        {
          "internalType": "address[]",
          "name": "accounts",
          "type": "address[]"
        },
        {
          "internalType": "uint256[]",
          "name": "ids",
          "type": "uint256[]"
        }
      ],
      "name": "balanceOfBatch",
      "outputs": [
        {
          "internalType": "uint256[]",
          "name": "",
          "type": "uint256[]"
        }
      ],
      "stateMutability": "view",
      "type": "function"
    },
    {
      "inputs": [],
      "name": "baseURI",
      "outputs": [
        {
          "internalType": "string",
          "name": "",
          "type": "string"
        }
      ],
      "stateMutability": "view",
      "type": "function"
    },
    {
      "inputs": [
        {
          "internalType": "bytes1",
          "name": "pLetter",
          "type": "bytes1"
        },
        {
          "internalType": "string",
          "name": "battleName",
          "type": "string"
        }
      ],
      "name": "chosenLetter",
      "outputs": [],
      "stateMutability": "nonpayable",
      "type": "function"
    },
    {
      "inputs": [
        {
          "internalType": "string",
          "name": "battleName",
          "type": "string"
        }
      ],
      "name": "createBattle",
      "outputs": [],
      "stateMutability": "payable",
      "type": "function"
    },
    {
      "inputs": [
        {
          "internalType": "string",
          "name": "battleName",
          "type": "string"
        }
      ],
      "name": "createRandomGameToken",
      "outputs": [],
      "stateMutability": "nonpayable",
      "type": "function"
    },
    {
      "inputs": [
        {
          "internalType": "uint256",
          "name": "id",
          "type": "uint256"
        }
      ],
      "name": "exists",
      "outputs": [
        {
          "internalType": "bool",
          "name": "",
          "type": "bool"
        }
      ],
      "stateMutability": "view",
      "type": "function"
    },
    {
      "inputs": [
        {
          "internalType": "string",
          "name": "battleName",
          "type": "string"
        }
      ],
      "name": "getActivePlayer",
      "outputs": [
        {
          "internalType": "address",
          "name": "",
          "type": "address"
        }
      ],
      "stateMutability": "view",
      "type": "function"
    },
    {
      "inputs": [],
      "name": "getAllBattles",
      "outputs": [
        {
          "components": [
            {
              "internalType": "enum Penduel.BattleStatus",
              "name": "battleStatus",
              "type": "uint8"
            },
            {
              "internalType": "bytes32",
              "name": "battleHash",
              "type": "bytes32"
            },
            {
              "internalType": "string",
              "name": "name",
              "type": "string"
            },
            {
              "internalType": "uint256",
              "name": "bet",
              "type": "uint256"
            },
            {
              "internalType": "address[2]",
              "name": "players",
              "type": "address[2]"
            },
            {
              "internalType": "address",
              "name": "activePlayer",
              "type": "address"
            },
            {
              "internalType": "address",
              "name": "winner",
              "type": "address"
            },
            {
              "internalType": "bytes",
              "name": "maskedWord",
              "type": "bytes"
            },
            {
              "internalType": "string",
              "name": "guesses",
              "type": "string"
            },
            {
              "internalType": "uint8",
              "name": "incorrectGuess",
              "type": "uint8"
            },
            {
              "internalType": "uint256",
              "name": "date",
              "type": "uint256"
            }
          ],
          "internalType": "struct Penduel.Battle[]",
          "name": "",
          "type": "tuple[]"
        }
      ],
      "stateMutability": "view",
      "type": "function"
    },
    {
      "inputs": [],
      "name": "getAllPlayerTokens",
      "outputs": [
        {
          "components": [
            {
              "internalType": "string",
              "name": "name",
              "type": "string"
            },
            {
              "internalType": "uint256",
              "name": "id",
              "type": "uint256"
            },
            {
              "internalType": "uint256",
              "name": "attackStrength",
              "type": "uint256"
            },
            {
              "internalType": "uint256",
              "name": "defenseStrength",
              "type": "uint256"
            }
          ],
          "internalType": "struct Penduel.GameToken[]",
          "name": "",
          "type": "tuple[]"
        }
      ],
      "stateMutability": "view",
      "type": "function"
    },
    {
      "inputs": [],
      "name": "getAllPlayers",
      "outputs": [
        {
          "components": [
            {
              "internalType": "address payable",
              "name": "playerAddress",
              "type": "address"
            },
            {
              "internalType": "string",
              "name": "playerName",
              "type": "string"
            },
            {
              "internalType": "uint256",
              "name": "playerMana",
              "type": "uint256"
            },
            {
              "internalType": "uint256",
              "name": "playerHealth",
              "type": "uint256"
            },
            {
              "internalType": "bool",
              "name": "inBattle",
              "type": "bool"
            }
          ],
          "internalType": "struct Penduel.Player[]",
          "name": "",
          "type": "tuple[]"
        }
      ],
      "stateMutability": "view",
      "type": "function"
    },
    {
      "inputs": [],
      "name": "getBalance",
      "outputs": [
        {
          "internalType": "uint256",
          "name": "",
          "type": "uint256"
        }
      ],
      "stateMutability": "view",
      "type": "function"
    },
    {
      "inputs": [
        {
          "internalType": "string",
          "name": "battleName",
          "type": "string"
        }
      ],
      "name": "getBattle",
      "outputs": [
        {
          "components": [
            {
              "internalType": "enum Penduel.BattleStatus",
              "name": "battleStatus",
              "type": "uint8"
            },
            {
              "internalType": "bytes32",
              "name": "battleHash",
              "type": "bytes32"
            },
            {
              "internalType": "string",
              "name": "name",
              "type": "string"
            },
            {
              "internalType": "uint256",
              "name": "bet",
              "type": "uint256"
            },
            {
              "internalType": "address[2]",
              "name": "players",
              "type": "address[2]"
            },
            {
              "internalType": "address",
              "name": "activePlayer",
              "type": "address"
            },
            {
              "internalType": "address",
              "name": "winner",
              "type": "address"
            },
            {
              "internalType": "bytes",
              "name": "maskedWord",
              "type": "bytes"
            },
            {
              "internalType": "string",
              "name": "guesses",
              "type": "string"
            },
            {
              "internalType": "uint8",
              "name": "incorrectGuess",
              "type": "uint8"
            },
            {
              "internalType": "uint256",
              "name": "date",
              "type": "uint256"
            }
          ],
          "internalType": "struct Penduel.Battle",
          "name": "",
          "type": "tuple"
        }
      ],
      "stateMutability": "view",
      "type": "function"
    },
    {
      "inputs": [
        {
          "internalType": "string",
          "name": "battleName",
          "type": "string"
        }
      ],
      "name": "getGuesses",
      "outputs": [
        {
          "internalType": "string",
          "name": "_guesses",
          "type": "string"
        }
      ],
      "stateMutability": "view",
      "type": "function"
    },
    {
      "inputs": [
        {
          "internalType": "string",
          "name": "maskedWord",
          "type": "string"
        }
      ],
      "name": "getHangWord",
      "outputs": [
        {
          "internalType": "bytes",
          "name": "hangWord",
          "type": "bytes"
        }
      ],
      "stateMutability": "nonpayable",
      "type": "function"
    },
    {
      "inputs": [
        {
          "internalType": "string",
          "name": "battleName",
          "type": "string"
        }
      ],
      "name": "getMaskedWord",
      "outputs": [
        {
          "internalType": "string",
          "name": "",
          "type": "string"
        }
      ],
      "stateMutability": "view",
      "type": "function"
    },
    {
      "inputs": [
        {
          "internalType": "string",
          "name": "battleName",
          "type": "string"
        }
      ],
      "name": "getNumberOfIncorrectGuess",
      "outputs": [
        {
          "internalType": "uint8",
          "name": "",
          "type": "uint8"
        }
      ],
      "stateMutability": "view",
      "type": "function"
    },
    {
      "inputs": [
        {
          "internalType": "address",
          "name": "playerAddress",
          "type": "address"
        }
      ],
      "name": "getPlayer",
      "outputs": [
        {
          "components": [
            {
              "internalType": "address payable",
              "name": "playerAddress",
              "type": "address"
            },
            {
              "internalType": "string",
              "name": "playerName",
              "type": "string"
            },
            {
              "internalType": "uint256",
              "name": "playerMana",
              "type": "uint256"
            },
            {
              "internalType": "uint256",
              "name": "playerHealth",
              "type": "uint256"
            },
            {
              "internalType": "bool",
              "name": "inBattle",
              "type": "bool"
            }
          ],
          "internalType": "struct Penduel.Player",
          "name": "",
          "type": "tuple"
        }
      ],
      "stateMutability": "view",
      "type": "function"
    },
    {
      "inputs": [
        {
          "internalType": "address",
          "name": "playerTokenAddress",
          "type": "address"
        }
      ],
      "name": "getPlayerToken",
      "outputs": [
        {
          "components": [
            {
              "internalType": "string",
              "name": "name",
              "type": "string"
            },
            {
              "internalType": "uint256",
              "name": "id",
              "type": "uint256"
            },
            {
              "internalType": "uint256",
              "name": "attackStrength",
              "type": "uint256"
            },
            {
              "internalType": "uint256",
              "name": "defenseStrength",
              "type": "uint256"
            }
          ],
          "internalType": "struct Penduel.GameToken",
          "name": "",
          "type": "tuple"
        }
      ],
      "stateMutability": "view",
      "type": "function"
    },
    {
      "inputs": [],
      "name": "getTotalSupply",
      "outputs": [
        {
          "internalType": "uint256",
          "name": "",
          "type": "uint256"
        }
      ],
      "stateMutability": "view",
      "type": "function"
    },
    {
      "inputs": [
        {
          "internalType": "address",
          "name": "account",
          "type": "address"
        },
        {
          "internalType": "address",
          "name": "operator",
          "type": "address"
        }
      ],
      "name": "isApprovedForAll",
      "outputs": [
        {
          "internalType": "bool",
          "name": "",
          "type": "bool"
        }
      ],
      "stateMutability": "view",
      "type": "function"
    },
    {
      "inputs": [
        {
          "internalType": "string",
          "name": "battleName",
          "type": "string"
        }
      ],
      "name": "isBattle",
      "outputs": [
        {
          "internalType": "bool",
          "name": "",
          "type": "bool"
        }
      ],
      "stateMutability": "view",
      "type": "function"
    },
    {
      "inputs": [
        {
          "internalType": "address",
          "name": "playerAddress",
          "type": "address"
        }
      ],
      "name": "isPlayer",
      "outputs": [
        {
          "internalType": "bool",
          "name": "",
          "type": "bool"
        }
      ],
      "stateMutability": "view",
      "type": "function"
    },
    {
      "inputs": [
        {
          "internalType": "address",
          "name": "playerTokenAddress",
          "type": "address"
        }
      ],
      "name": "isPlayerToken",
      "outputs": [
        {
          "internalType": "bool",
          "name": "",
          "type": "bool"
        }
      ],
      "stateMutability": "view",
      "type": "function"
    },
    {
      "inputs": [
        {
          "internalType": "string",
          "name": "battleName",
          "type": "string"
        }
      ],
      "name": "joinBattle",
      "outputs": [
        {
          "components": [
            {
              "internalType": "enum Penduel.BattleStatus",
              "name": "battleStatus",
              "type": "uint8"
            },
            {
              "internalType": "bytes32",
              "name": "battleHash",
              "type": "bytes32"
            },
            {
              "internalType": "string",
              "name": "name",
              "type": "string"
            },
            {
              "internalType": "uint256",
              "name": "bet",
              "type": "uint256"
            },
            {
              "internalType": "address[2]",
              "name": "players",
              "type": "address[2]"
            },
            {
              "internalType": "address",
              "name": "activePlayer",
              "type": "address"
            },
            {
              "internalType": "address",
              "name": "winner",
              "type": "address"
            },
            {
              "internalType": "bytes",
              "name": "maskedWord",
              "type": "bytes"
            },
            {
              "internalType": "string",
              "name": "guesses",
              "type": "string"
            },
            {
              "internalType": "uint8",
              "name": "incorrectGuess",
              "type": "uint8"
            },
            {
              "internalType": "uint256",
              "name": "date",
              "type": "uint256"
            }
          ],
          "internalType": "struct Penduel.Battle",
          "name": "",
          "type": "tuple"
        }
      ],
      "stateMutability": "payable",
      "type": "function"
    },
    {
      "inputs": [],
      "name": "owner",
      "outputs": [
        {
          "internalType": "address",
          "name": "",
          "type": "address"
        }
      ],
      "stateMutability": "view",
      "type": "function"
    },
    {
      "inputs": [
        {
          "internalType": "uint256",
          "name": "amount",
          "type": "uint256"
        }
      ],
      "name": "ownerWithdraw",
      "outputs": [],
      "stateMutability": "nonpayable",
      "type": "function"
    },
    {
      "inputs": [
        {
          "internalType": "string",
          "name": "battleName",
          "type": "string"
        }
      ],
      "name": "quitBattle",
      "outputs": [],
      "stateMutability": "nonpayable",
      "type": "function"
    },
    {
      "inputs": [
        {
          "internalType": "string",
          "name": "playerName",
          "type": "string"
        },
        {
          "internalType": "string",
          "name": "gameTokenName",
          "type": "string"
        }
      ],
      "name": "registerPlayer",
      "outputs": [],
      "stateMutability": "nonpayable",
      "type": "function"
    },
    {
      "inputs": [],
      "name": "renounceOwnership",
      "outputs": [],
      "stateMutability": "nonpayable",
      "type": "function"
    },
    {
      "inputs": [
        {
          "internalType": "address",
          "name": "from",
          "type": "address"
        },
        {
          "internalType": "address",
          "name": "to",
          "type": "address"
        },
        {
          "internalType": "uint256[]",
          "name": "ids",
          "type": "uint256[]"
        },
        {
          "internalType": "uint256[]",
          "name": "amounts",
          "type": "uint256[]"
        },
        {
          "internalType": "bytes",
          "name": "data",
          "type": "bytes"
        }
      ],
      "name": "safeBatchTransferFrom",
      "outputs": [],
      "stateMutability": "nonpayable",
      "type": "function"
    },
    {
      "inputs": [
        {
          "internalType": "address",
          "name": "from",
          "type": "address"
        },
        {
          "internalType": "address",
          "name": "to",
          "type": "address"
        },
        {
          "internalType": "uint256",
          "name": "id",
          "type": "uint256"
        },
        {
          "internalType": "uint256",
          "name": "amount",
          "type": "uint256"
        },
        {
          "internalType": "bytes",
          "name": "data",
          "type": "bytes"
        }
      ],
      "name": "safeTransferFrom",
      "outputs": [],
      "stateMutability": "nonpayable",
      "type": "function"
    },
    {
      "inputs": [
        {
          "internalType": "address",
          "name": "operator",
          "type": "address"
        },
        {
          "internalType": "bool",
          "name": "approved",
          "type": "bool"
        }
      ],
      "name": "setApprovalForAll",
      "outputs": [],
      "stateMutability": "nonpayable",
      "type": "function"
    },
    {
      "inputs": [
        {
          "internalType": "string",
          "name": "newuri",
          "type": "string"
        }
      ],
      "name": "setURI",
      "outputs": [],
      "stateMutability": "nonpayable",
      "type": "function"
    },
    {
      "inputs": [
        {
          "internalType": "bytes4",
          "name": "interfaceId",
          "type": "bytes4"
        }
      ],
      "name": "supportsInterface",
      "outputs": [
        {
          "internalType": "bool",
          "name": "",
          "type": "bool"
        }
      ],
      "stateMutability": "view",
      "type": "function"
    },
    {
      "inputs": [
        {
          "internalType": "uint256",
          "name": "tokenId",
          "type": "uint256"
        }
      ],
      "name": "tokenURI",
      "outputs": [
        {
          "internalType": "string",
          "name": "",
          "type": "string"
        }
      ],
      "stateMutability": "view",
      "type": "function"
    },
    {
      "inputs": [],
      "name": "totalSupply",
      "outputs": [
        {
          "internalType": "uint256",
          "name": "",
          "type": "uint256"
        }
      ],
      "stateMutability": "view",
      "type": "function"
    },
    {
      "inputs": [
        {
          "internalType": "uint256",
          "name": "id",
          "type": "uint256"
        }
      ],
      "name": "totalSupply",
      "outputs": [
        {
          "internalType": "uint256",
          "name": "",
          "type": "uint256"
        }
      ],
      "stateMutability": "view",
      "type": "function"
    },
    {
      "inputs": [
        {
          "internalType": "address",
          "name": "newOwner",
          "type": "address"
        }
      ],
      "name": "transferOwnership",
      "outputs": [],
      "stateMutability": "nonpayable",
      "type": "function"
    },
    {
      "inputs": [
        {
          "internalType": "uint256",
          "name": "",
          "type": "uint256"
        }
      ],
      "name": "uri",
      "outputs": [
        {
          "internalType": "string",
          "name": "",
          "type": "string"
        }
      ],
      "stateMutability": "view",
      "type": "function"
    },
    {
      "stateMutability": "payable",
      "type": "receive"
    }
  ],
  "bytecode": "0x60a06040523462000fe057620060f0803803806200001d8162001025565b92833981019060208183031262000fe0578051906001600160401b03821162000fe0570181601f8201121562000fe0578051906001600160401b03821162000a255762000074601f8301601f191660200162001025565b928284526020838301011162000fe05760005b82811062000fca57600083850160200152835184906001600160401b03811162000a2557620000b86002546200104b565b601f811162000f88575b50806020601f821160011462000f105760009162000f04575b508160011b916000199060031b1c1916176002555b60038054336001600160a01b03198216811790925560405191906001600160a01b03167f8be0079c531659141344cd1fd0a4f28419497f9722a3daafe3b4186f6b6457e0600084a36101c081016001600160401b0381118282101762000a25576040526200015d62000fe5565b600581526468656c6c6f60d81b602082015281526200017b62000fe5565b6007815266676f6f6462796560c81b602082015260208201526200019e62000fe5565b600381526239bab760e91b60208201526040820152620001bd62000fe5565b6008815267686f6c6c6964617960c01b60208201526060820152620001e162000fe5565b60068152656265666f726560d01b602082015260808201526200020362000fe5565b600581526430b33a32b960d91b602082015260a08201526200022462000fe5565b600b81526a3932b9ba37b930ba34b7b760a91b602082015260c08201526200024b62000fe5565b60078152663330b9b434b7b760c91b602082015260e08201526200026e62000fe5565b60088152676472657373696e6760c01b60208201526101008201526200029362000fe5565b600e81526d726570726573656e74617469766560901b6020820152610120820152620002be62000fe5565b600781526673696c656e636560c81b6020820152610140820152620002e262000fe5565b600a81526961636365707461626c6560b01b60208201526101608201526200030962000fe5565b600d81526c195b9d9a5c9bdb9b595b9d185b609a1b60208201526101808201526200033362000fe5565b600981526870686f746f636f707960b81b60208201526101a0820152600754600e60075580600e1062000e54575b5060076000908152600080516020620060d0833981519152915b600e821062000d645733608052835184906001600160401b03811162000a2557620003a86005546200104b565b601f811162000d21575b506020601f821160011462000cb457819260009262000ca8575b50508160011b916000199060031b1c1916176005555b604051608081016001600160401b0381118282101762000a25576040526200040962001005565b600081528152600060208201526000604082015260006060820152600d546801000000000000000081101562000a25576001810180600d5581101562000b7857600d6000528151805190927fd7b6990105719101dabeb77144f2a3385c8033acd3af97e9423a695e81ad1eb5916001600160401b03811162000a2557620004a7816200049b8660021b8601546200104b565b8660021b8601620010a1565b6020601f821160011462000c2b579080606093926003969760009262000c1f575b50508160011b9160001990871b1c1916178560021b8401555b60208101516001600296871b94909401938401556040808201519584019590955501519101555160a081018181106001600160401b0382111762000a2557604052600081526200053062001005565b600081526020820152600060408201526000606082015260006080820152600c546801000000000000000081101562000a25576001810180600c5581101562000b7857600c6000528151600582027fdf6966c971051c3d54ec59162606531493a51404a002842f56009d7e5cf4a8c790810180546001600160a01b0319166001600160a01b039390931692909217909155602083015180519093906001600160401b03811162000a25576200060281620005f3600160058802870101546200104b565b600160058802870101620010a1565b6020601f821160011462000b9a5791816080926005946004979860009262000b8e575b50508160011b916000199060031b1c1916176001848802860101555b604081015160028488028601015560608101516003848802860101550151151560ff8019858488028601015416911617930201015560405180604081011060018060401b0360408301111762000a2557604081016040526000815260006020820152620006ad62001005565b60008152604051916001600160401b0361016084019081119084111762000a255761016083016040526000835260006020840152620006eb62001005565b600081526040840152600060608401526080830152600060a0830152600060c08301526200071862001005565b6000815260e083015261010082015260006101208201526000610140820152600e546801000000000000000081101562000a25576001810180600e5581101562000b7857600e60005281517fbb7b4a454dc3493923482f07822329ed19e8244eff582cc204f8554c3620c3fd90600381101562000b6257600c83028201805460ff191660ff929092169190911781556020840151600190910155604083015180519093906001600160401b03811162000a2557620007f381620007e46002600c8802870101546200104b565b6002600c8802870101620010a1565b6020601f821160011462000ae457819293949560009262000ad8575b50508160011b916000199060031b1c1916176002600c8502840101555b60608101516003600c850284010155608081015160005b6002811062000ab257505060a08101516006600c8502840190810180546001600160a01b039384166001600160a01b03199182161790915560c08401516007830180549190941691161790915560e08201518051600890920191906001600160401b03821162000a25578190620008c782620008c086546200104b565b86620010a1565b602090601f831160011462000a475760009262000a3b575b50508160011b916000199060031b1c19161790555b6101008101518051600c85028401600901916001600160401b03821162000a25576200092d826200092685546200104b565b85620010a1565b602090601f8311600114620009ae57928261014093600b979693600c96600092620009a2575b50508160011b916000199060031b1c19161790555b600a83870285010160ff6101208301511660ff1982541617905501519302010155604051614fce9081620010e282396080518161132c0152f35b01519050898062000953565b90601f198316918460005260206000209260005b81811062000a0c575093600b979693600c9693600193836101409810620009f2575b505050811b01905562000968565b015160001960f88460031b161c19169055898080620009e4565b92936020600181928786015181550195019301620009c2565b634e487b7160e01b600052604160045260246000fd5b015190508680620008df565b6000858152602081209350601f198516905b81811062000a99575090846001959493921062000a7f575b505050811b019055620008f4565b015160001960f88460031b161c1916905586808062000a71565b9293602060018192878601518155019501930162000a59565b81516001600160a01b03166004600c870286018301015560209091019060010162000843565b0151905085806200080f565b6002600c860285010160005260206000209060005b601f198416811062000b49575060019394959683601f1981161062000b2f575b505050811b016002600c8502840101556200082c565b015160001960f88460031b161c1916905585808062000b19565b9091602060018192858b01518155019301910162000af9565b634e487b7160e01b600052602160045260246000fd5b634e487b7160e01b600052603260045260246000fd5b01519050888062000625565b60016005860285010160005260206000209560005b601f198416811062000c065750826004969760059593600193608096601f1981161062000bec575b505050811b0160018488028601015562000641565b015160001960f88460031b161c1916905588808062000bd7565b8282015188556001909701966020928301920162000baf565b015190508780620004c8565b8460021b840160005260206000209560005b601f198416811062000c8f575091600395966001926060959483601f1981161062000c76575b505050811b018560021b840155620004e1565b015160001983891b60f8161c1916905587808062000c63565b8282015188556001909701966020928301920162000c3d565b015190508280620003cc565b600560005260206000209060005b601f198416811062000d08575060019383601f1981161062000cee575b505050811b01600555620003e2565b015160001960f88460031b161c1916905582808062000cdf565b9091602060018192858801518155019301910162000cc2565b62000d529060056000526020600020601f840160051c8101916020851062000d59575b601f0160051c019062001088565b82620003b2565b909150819062000d44565b80518051906001600160401b03821162000a255762000d908262000d8987546200104b565b87620010a1565b602090601f831160011462000de057928260019493602093869560009262000dd4575b5050600019600383901b1c191690841b1786555b019301910190916200037b565b01519050898062000db3565b908560005260206000209160005b601f198516811062000e3b57509260209260019592869583601f1981161062000e21575b505050831b8301865562000dc7565b015160001960f88460031b161c1916905588808062000e12565b9192602060018192868501518155019401920162000dee565b6007600052600080516020620060d0833981519152907fa66cc928b5edb82af9bd49922954155ab7b0942694bea4ce44661d9a8736c6965b818301811062000e9e57505062000361565b8062000ead600192546200104b565b8062000ebc575b500162000e8c565b601f8111831462000ed45750600081555b8662000eb4565b62000ef4908260005283601f6020600020920160051c8201910162001088565b6000602081208183555562000ecd565b905082015183620000db565b60026000908152600080516020620060b08339815191529250601f198416905b81811062000f6f5750908360019493921062000f55575b5050811b01600255620000f0565b84015160001960f88460031b161c19169055838062000f47565b9192602060018192868901518155019401920162000f30565b600260005262000fc390600080516020620060b0833981519152601f840160051c8101916020851062000d5957601f0160051c019062001088565b82620000c2565b8060208092840101518282870101520162000087565b600080fd5b60408051919082016001600160401b0381118382101762000a2557604052565b60405190602082016001600160401b0381118382101762000a2557604052565b6040519190601f01601f191682016001600160401b0381118382101762000a2557604052565b90600182811c921680156200107d575b60208310146200106757565b634e487b7160e01b600052602260045260246000fd5b91607f16916200105b565b81811062001094575050565b6000815560010162001088565b9190601f8111620010b157505050565b620010df926000526020600020906020601f840160051c8301931062000d5957601f0160051c019062001088565b56fe6080604052600436101561001b575b361561001957600080fd5b005b60003560e01c8062fdd58e14610359578063015a37921461035057806301ffc9a71461034757806302fe53051461033e57806309c95e10146103355780630daea2cd1461032c5780630e89341c1461032357806310898e4c1461031a578063110553e9146103115780631107ae3d1461030857806312065fe0146102ff57806316801d17146102f657806318160ddd146102305780632ca04522146102ed5780632d5fbd96146102e45780632eb2c2d6146102db578063331dcd31146102d257806333f707d1146102c95780634974da81146102c05780634e1273f4146102b75780634f558e79146102ae578063548fb999146102a55780635c12cd4b1461029c5780635c93fc3d146102935780636c0360eb1461028a578063715018a614610281578063845f433b146102785780638da5cb5b1461026f578063996d7bea146102665780639ec40aa31461025d578063a1b4f57c14610254578063a22cb4651461024b578063bd85b03914610242578063bf103a4d14610239578063c4e41b2214610230578063c87b56dd14610227578063cb2da2c91461021e578063d8b3226414610215578063e985e9c51461020c578063efa1c48214610203578063f242432a146101fa5763f2fde38b0361000e576101f561249f565b61000e565b506101f5612261565b506101f5612178565b506101f561211a565b506101f561207a565b506101f5611fbc565b506101f5611ee4565b506101f5610bd4565b506101f5611ec0565b506101f5611e93565b506101f5611d9e565b506101f5611af9565b506101f5611ae2565b506101f5611a39565b506101f5611a0f565b506101f56118ff565b506101f561189d565b506101f56117d0565b506101f56115e5565b506101f56115ac565b506101f5611546565b506101f5611517565b506101f561145d565b506101f56113be565b506101f5611315565b506101f5610fec565b506101f5610e1b565b506101f5610d69565b506101f5610bf3565b506101f5610bab565b506101f5610a5a565b506101f5610a41565b506101f5610a18565b506101f5610970565b506101f56108a0565b506101f5610872565b506101f5610844565b506101f561073d565b506101f5610551565b506101f5610453565b506101f56103a7565b600435906001600160a01b038216820361037857565b600080fd5b602435906001600160a01b038216820361037857565b35906001600160a01b038216820361037857565b50346103785760403660031901126103785760206103cf6103c6610362565b60243590614507565b604051908152f35b60005b8381106103ea5750506000910152565b81810151838201526020016103da565b90602091610413815180928185528580860191016103d7565b601f01601f1916010190565b9060608061043684516080855260808501906103fa565b936020810151602085015260408101516040850152015191015290565b50346103785760008060031936011261053c57600d5461047281610d97565b906104806040519283610635565b808252600d835260209283830191817fd7b6990105719101dabeb77144f2a3385c8033acd3af97e9423a695e81ad1eb5845b8383106105175750505050604051928484019085855251809152604084019460408260051b8601019392955b8287106104eb5785850386f35b909192938280610507600193603f198a8203018652885161041f565b96019201960195929190926104de565b60048860019261052a859b9a989b612750565b815201920192019190969395966104b2565b80fd5b6001600160e01b031981160361037857565b50346103785760203660031901126103785760206004356105718161053f565b63ffffffff60e01b16636cdb3d1360e11b81149081156105af575b811561059e575b506040519015158152f35b6301ffc9a760e01b14905038610593565b6303a24d0760e21b8114915061058c565b50634e487b7160e01b600052604160045260246000fd5b60a081019081106001600160401b038211176105f257604052565b6105fa6105c0565b604052565b608081019081106001600160401b038211176105f257604052565b604081019081106001600160401b038211176105f257604052565b90601f801991011681019081106001600160401b038211176105f257604052565b6040519061016082018281106001600160401b038211176105f257604052565b60405190610683826105d7565b565b60405190610683826105ff565b604051906106838261061a565b6020906001600160401b0381116106bc575b601f01601f19160190565b6106c46105c0565b6106b1565b81601f82011215610378578035906106e08261069f565b926106ee6040519485610635565b8284526020838301011161037857816000926020809301838601378301015290565b602060031982011261037857600435906001600160401b0382116103785761073a916004016106c9565b90565b50346103785761074c36610710565b6107546144af565b80516001600160401b038111610837575b610779816107746002546116e5565b612a90565b602080601f83116001146107b4575081926000926107a9575b50508160011b916000199060031b1c191617600255005b015190503880610792565b6002600052601f198316939091907f405787fa12a823e0f2b7631cc41b3ba8828b3321ca811111fa75cd3aa3bb5ace926000905b86821061081f5750508360019510610806575b505050811b01600255005b015160001960f88460031b161c191690553880806107fb565b806001859682949686015181550195019301906107e8565b61083f6105c0565b610765565b5034610378576020366003190112610378576020610868610863610362565b612593565b6040519015158152f35b5034610378576000366003190112610378576020604051600a8152f35b90602061073a9281815201906103fa565b503461037857602080600319360112610378576040516000916002546108c5816116e5565b8084529060019081811690811561093f57506001146108ff575b6108fb846108ef81880382610635565b6040519182918261088f565b0390f35b919350600260005283600020916000925b82841061092c57505050816108fb936108ef92820101936108df565b8054858501870152928501928101610910565b60ff1916858501525050151560051b82010191506108ef816108fb6108df565b90602061073a92818152019061041f565b50346103785760203660031901126103785761098a610362565b6109926126fe565b5061099c816126dd565b156109d75760018060a01b0316600052600a6020526108fb6109cb6109c5604060002054612723565b50612750565b6040519182918261095f565b60405162461bcd60e51b815260206004820152601960248201527847616d6520746f6b656e20646f65736e27742065786973742160381b6044820152606490fd5b503461037857602060ff610120610a36610a3136610710565b6129a1565b015116604051908152f35b5034610378576020610868610a5536610710565b6127ce565b503461037857600036600319011261037857602047604051908152f35b60031115610a8157565b634e487b7160e01b600052602160045260246000fd5b906003821015610a815752565b6000915b60028310610ab557505050565b81516001600160a01b031681526001929092019160209182019101610aa8565b90610ae1818351610a97565b60208201516020820152610160610b0760408401516101808060408601528401906103fa565b9260608101516060840152610b2460808201516080850190610aa4565b60a08101516001600160a01b031660c084015260c08101516001600160a01b031660e0840152610b7b610b6660e08301519561010096868203888801526103fa565b948201519461012095858203878701526103fa565b9381015190610b92610140928386019060ff169052565b015191015290565b90602061073a928181520190610ad5565b5034610378576108fb610bc0610a3136610710565b604051918291602083526020830190610ad5565b5034610378576000366003190112610378576020600654604051908152f35b50610bfd36610710565b610c0e610c0933612593565b612d34565b610c26610c21610c1d836127ce565b1590565b6130ab565b610c3333313411156130f0565b610c43640ba43b74003411613153565b610c603331610c5061319a565b3491610c5a6131bf565b91614f1a565b6040516020810190610c8481610c76858561088f565b03601f198101835282610635565b51902090610d11610c93610692565b3381529260006020850152610ca6613014565b92610caf613014565b610cb7610656565b60008152602081019390935260408301828152346060850152608084019687523360a085015294600060c085015260e0840152610100830152600061012083015242610140830152610d0b600e54916127a8565b5561326f565b5190516001600160a01b0390610d32906020015b516001600160a01b031690565b16907f5da93d412071ca49c5b3543268fc9249b407b8de53c1589d76d6532f0a5b7df860405180610d6433948261088f565b0390a3005b5034610378576108fb610d83610d7e36610710565b612a1d565b6040519182916020835260208301906103fa565b6020906001600160401b038111610db0575b60051b0190565b610db86105c0565b610da9565b81601f8201121561037857803591610dd483610d97565b92610de26040519485610635565b808452602092838086019260051b820101928311610378578301905b828210610e0c575050505090565b81358152908301908301610dfe565b50346103785760a036600319011261037857610e35610362565b610e3d61037d565b906001600160401b039060443582811161037857610e5f903690600401610dbd565b9160643581811161037857610e78903690600401610dbd565b9060843590811161037857610e919036906004016106c9565b6001600160a01b038381169491903386148015610fc9575b610eb2906146a2565b610ebf83518551146147d9565b8616610ecc811515614705565b610ed884848988614e2d565b60005b8351811015610f855780610ef2610f8092866145c5565b51610f79610f718b610f26610f07868c6145c5565b51948c610f6087610f3d83610f26866000526000602052604060002090565b9060018060a01b0316600052602052604060002090565b54610f4a8282101561475f565b0391610f26846000526000602052604060002090565b556000526000602052604060002090565b9182546147cc565b9055612f88565b610edb565b5093869194610019966040517f4a39dc06d4c0dbc64b70af90fd698a233a518aa5d07e595d983b8c0526c8f7fb339180610fc08a8a83614836565b0390a433614d3f565b50600086815260016020908152604080832033845290915290205460ff16610ea9565b5034610378576040366003190112610378576004356001600160f81b031981168103610378576024356001600160401b038111610378576110319036906004016106c9565b61103a816129a1565b9161105a6001845161104b81610a77565b61105481610a77565b1461387d565b61107a6002845161106a81610a77565b61107381610a77565b14156138f9565b60808301805180516001600160a01b03916110a4918390811633149182156112fc575b5050613954565b6110d96110d26110c660a06110b8886129a1565b01516001600160a01b031690565b6001600160a01b031690565b33146139a0565b610c766111446101208701946110ff600660ff6110f7895160ff1690565b1611156139e2565b60e0880194611118828751611112613661565b9061437f565b909652851594856111d3575b50506040516001600160f81b031990911660208201529182906021820190565b6111546101008701918251613a74565b90526111608585613776565b7fe212ed376777ebdfaa9739efc3d6eed905003d9d42dff523214c309a7396a61f61119c61118d86612a1d565b9260405191829115948261088f565b0390a2156111af57506100199150613af1565b51600691506111c29060ff165b60ff1690565b10156111ca57005b61001990613d14565b8151516112949290611205906111f790610d25906111fc906001600160a01b031683565b612579565b54935160200190565b54611220611212836125d0565b50546001600160a01b031690565b60a08d01805190949190829061123e906001600160a01b03166110c6565b91160361129b5750506112526003916125d0565b500161125e8154612f29565b90555b61127e6112776112728a5160ff1690565b613a51565b60ff168952565b61128789613ab5565b6001600160a01b03169052565b3880611124565b9091506112aa611212836125d0565b83519091906112c1906001600160a01b03166110c6565b9116036112e6576112d36003916125d0565b50016112df8154612f29565b9055611261565b506112f76112f2613a1f565b614eaa565b611261565b60200151166001600160a01b031690503314823861109d565b5034610378576020366003190112610378576004357f00000000000000000000000000000000000000000000000000000000000000006001600160a01b031633036113835760008080809381811561137a575b3390f11561137257005b61001961256c565b506108fc611368565b60405162461bcd60e51b815260206004820152601360248201527231b0b63632b91034b9903737ba1037bbb732b960691b6044820152606490fd5b5034610378577fa8a13d5362cedeaaf8906a83b0afcab2c07c8bdac8a04ed19d273c4307f260bd6114136113f136610710565b6113f96144af565b61140a611405826142e9565b614210565b610d838161426c565b0390a1005b90815180825260208080930193019160005b828110611438575050505090565b83518552938101939281019260010161142a565b90602061073a928181520190611418565b5034610378576040366003190112610378576004356001600160401b03808211610378573660238301121561037857816004013561149a81610d97565b926114a86040519485610635565b81845260209160248386019160051b8301019136831161037857602401905b8282106115005785602435868111610378576108fb916114ee6114f4923690600401610dbd565b906145e7565b6040519182918261144c565b83809161150c84610393565b8152019101906114c7565b503461037857602036600319011261037857600435600052600460205260206040600020541515604051908152f35b50346103785760206001600160a01b0360a0610a36610a3136610710565b9060018060a01b03825116815260808061158d602085015160a0602086015260a08501906103fa565b9360408101516040850152606081015160608501520151151591015290565b5034610378576020366003190112610378576108fb6115d16115cc610362565b612655565b604051918291602083526020830190611564565b50346103785760008060031936011261053c57600e5461160481610d97565b906116126040519283610635565b808252600e835260209283830191817fbb7b4a454dc3493923482f07822329ed19e8244eff582cc204f8554c3620c3fd845b8383106116a95750505050604051928484019085855251809152604084019460408260051b8601019392955b82871061167d5785850386f35b909192938280611699600193603f198a82030186528851610ad5565b9601920196019592919092611670565b600c886001926116bc859b9a989b6128dc565b81520192019201919096939596611644565b50634e487b7160e01b600052600060045260246000fd5b90600182811c92168015611715575b60208310146116ff57565b634e487b7160e01b600052602260045260246000fd5b91607f16916116f4565b9060009291805491611730836116e5565b9182825260019384811690816000146117925750600114611752575b50505050565b90919394506000526020928360002092846000945b83861061177e57505050500101903880808061174c565b805485870183015294019385908201611767565b9294505050602093945060ff191683830152151560051b0101903880808061174c565b906106836117c9926040519384809261171f565b0383610635565b50346103785760008060031936011261053c57604051816005546117f3816116e5565b80845290600190818116908115611875575060011461181c576108fb846108ef81880382610635565b60058352602094507f036b6384b5eca791c62761152d0c79bb0604c104a5fb6f4eb0703f3154bb3db05b82841061186257505050816108fb936108ef92820101936108df565b8054858501870152928501928101611846565b6108fb96506108ef9450602092508593915060ff191682840152151560051b820101936108df565b50346103785760008060031936011261053c576118b86144af565b600380546001600160a01b031981169091556040519082906001600160a01b03167f8be0079c531659141344cd1fd0a4f28419497f9722a3daafe3b4186f6b6457e08284a3f35b5034610378576040366003190112610378576001600160401b03600435818111610378576119319036906004016106c9565b906024359081116103785761194a9036906004016106c9565b61195333612593565b6119ce5761001991600c5461198c611969610676565b338152836020820152600a60408201526006606082015260006080820152612c68565b61199533612579565b557f81ef79d1cda814a60c0fc60792e648a06d9c6bae67176346d1cc8b63030bfccd604051806119c633948261088f565b0390a2612d80565b60405162461bcd60e51b8152602060048201526019602482015278141b185e595c88185b1c9958591e481c9959da5cdd195c9959603a1b6044820152606490fd5b5034610378576000366003190112610378576003546040516001600160a01b039091168152602090f35b503461037857611a77611a4b36610710565b610a3181604051611a5b8161061a565b600a81526971756974426174746c6560b01b6020820152614ef3565b60808101908151611a9d60018060a01b0391828151163314908115611ac9575b50613c67565b82515116338103611abf5750611aba610d25610019935160200190565b613e59565b6100199250613e59565b6020015133915083166001600160a01b03161438611a97565b503461037857610019611af436610710565b612d80565b506108fb611b0636610710565b611b0e6127e1565b50611c32611b1b826129a1565b917fcb17c4d26368c123b39a5b879cf729cad76aa10dfe5b9cd5355296f2732b86036080840191611cd885611b58855160018060a01b0390511690565b6001600160a01b039390611b70908516331415613392565b611b90611b8b610c1d6080611b8433612655565b0151151590565b6133e8565b611b9d3331341115613428565b611bac60608301513414613489565b611bc98251611bba81610a77565b611bc381610a77565b156134d5565b60018252611beb33611bdc885160200190565b6001600160a01b039091169052565b8551516001600160a01b031660a0830152611c78611c72611c6d611c0e846127a8565b54604051906325e41da160e01b8252818060209d8e93600483019190602083019252565b038173512a528818ea1bbc93ee378c221aa93b0798383f5afa908115611d91575b600091611d64575b506007548b811015611d5c5790612f72565b61352a565b50613553565b611c88611c83613661565b613809565b96611ccd611cad611c9f60e086019a808c5261371c565b516001600160f81b03191690565b6040516001600160f81b0319909116928101928352918290600101610c76565b610100830152613776565b825151611d0d90600490611cfe90611cf8906001600160a01b0316612579565b546125d0565b5001805460ff19166001179055565b611d266004611cfe611cf86111f7610d25885160200190565b60408501519251516001600160a01b0316935190611d4d6040519283923397169583613751565b0390a360405191829182610b9a565b508a90612f72565b611d8491508b3d8d11611d8a575b611d7c8183610635565b81019061351b565b38611c5b565b503d611d72565b611d9961256c565b611c53565b503461037857604036600319011261037857611db8610362565b6024358015158103610378576001600160a01b03821691338314611e3c57336000908152600160205260409020611e06918391611df59190610f26565b9060ff801983541691151516179055565b604051901515815233907f17307eab39ab6107e8899845ad3d59bd9653f200f220920489ca2b5937696c31908060208101610d64565b60405162461bcd60e51b815260206004820152602960248201527f455243313135353a2073657474696e6720617070726f76616c20737461747573604482015268103337b91039b2b63360b91b6064820152608490fd5b50346103785760203660031901126103785760043560005260046020526020604060002054604051908152f35b5034610378576020366003190112610378576020610868611edf610362565b6126dd565b50346103785760208060031936011261037857611f02600435614134565b60405190600092600554611f15816116e5565b90600190818116908115611f9d5750600114611f5c575b602f60f81b86526108fb856108ef81610c76611f4b60018c018a612791565b64173539b7b760d91b815260050190565b90919450600560005284600020906000915b838310611f8a5750505082019092019181610c76611f4b611f2c565b8054868401880152918601918101611f6e565b60ff191684870152505080151502830101925081610c76611f4b611f2c565b5034610378576108fb611fce36610710565b611fda611405826142e9565b6108ef61203c6120366040516325e41da160e01b81526000600482015260208160248173512a528818ea1bbc93ee378c221aa93b0798383f5afa90811561206d575b60009161204f575b50600754908115612042575b0661352a565b506117b5565b9161426c565b61204a612f5b565b612030565b612067915060203d8111611d8a57611d7c8183610635565b38612024565b61207561256c565b61201c565b50346103785761208936610710565b612092816127ce565b156120c95760096108ef6120b16120ab6108fb946127a8565b54612866565b506120c2604051809481930161171f565b0382610635565b60405162461bcd60e51b815260206004820152602360248201527f2867657447756573736573293a20426174746c6520646f65736e27742065786960448201526273742160e81b6064820152608490fd5b503461037857604036600319011261037857602060ff61216c61213b610362565b61214361037d565b6001600160a01b0391821660009081526001865260408082209290931681526020919091522090565b54166040519015158152f35b50346103785760008060031936011261053c57600c5461219781610d97565b906121a56040519283610635565b808252600c835260209283830191817fdf6966c971051c3d54ec59162606531493a51404a002842f56009d7e5cf4a8c7845b83831061223c5750505050604051928484019085855251809152604084019460408260051b8601019392955b8287106122105785850386f35b90919293828061222c600193603f198a82030186528851611564565b9601920196019592919092612203565b60058860019261224f859b9a989b6125fd565b815201920192019190969395966121d7565b50346103785760a03660031901126103785761227b610362565b61228361037d565b6064356044356084356001600160401b038111610378576122a89036906004016106c9565b6001600160a01b038581169591949190338714801561247c575b6122cb906146a2565b82168015966122da8815614705565b6122e385614dab565b976122ed87614dab565b908215612420575b61239e575b5061001997508561231984610f26886000526000602052604060002090565b546123268282101561475f565b0361233f84610f26886000526000602052604060002090565b5561235884610f26876000526000602052604060002090565b6123638782546147cc565b9055604080518681526020810188905233917fc3d58168c5ae7397731d063d5bbf3d657854427343f4c083240f7aacaa2d0f6291a433614c19565b959391600097959391975b895181101561240d57806123c0612408928c6145c5565b516124026123ce838c6145c5565b516123e3836000526004602052604060002090565b546123f082821015614dd0565b03916000526004602052604060002090565b55612f88565b6123a9565b50919395509193956100199750386122fa565b9896939095926000989592985b885181101561246c578089610f79610f716124568461244f612467978f6145c5565b51946145c5565b516000526004602052604060002090565b61242d565b50929590939698979194976122f5565b50600087815260016020908152604080832033845290915290205460ff166122c2565b5034610378576020366003190112610378576124b9610362565b6124c16144af565b6001600160a01b0390811690811561251857600380546001600160a01b03198116841790915560405160009390929091167f8be0079c531659141344cd1fd0a4f28419497f9722a3daafe3b4186f6b6457e08484a3f35b60405162461bcd60e51b815260206004820152602660248201527f4f776e61626c653a206e6577206f776e657220697320746865207a65726f206160448201526564647265737360d01b6064820152608490fd5b506040513d6000823e3d90fd5b6001600160a01b0316600090815260096020526040902090565b6001600160a01b03166000908152600960205260409020546125b457600090565b600190565b50634e487b7160e01b600052603260045260246000fd5b600c548110156125f0575b600c6000526005602060002091020190600090565b6125f86125b9565b6125db565b9060405161260a816105d7565b608060ff6004839560018060a01b038154168552604051612632816120c2816001860161171f565b602086015260028101546040860152600381015460608601520154161515910152565b60006080604051612665816105d7565b82815260606020820152826040820152826060820152015261268681612593565b156126a05761269a611cf861073a92612579565b506125fd565b60405162461bcd60e51b8152602060048201526015602482015274506c6179657220646f65736e27742065786973742160581b6044820152606490fd5b6001600160a01b03166000908152600a60205260409020546125b457600090565b6040519061270b826105ff565b60006060838181528260208201528260408201520152565b600d54811015612743575b600d60005260206000209060021b0190600090565b61274b6125b9565b61272e565b9060405161275d816105ff565b606060038294604051612774816120c2818561171f565b845260018101546020850152600281015460408501520154910152565b906127a4602092828151948592016103d7565b0190565b60206127c19181604051938285809451938492016103d7565b8101600b81520301902090565b6127d7906127a8565b546125b457600090565b6040519061016082018281106001600160401b03821117612859575b60405281610140600091828152826020820152606060408201528260608201526040516128298161061a565b604036823760808201528260a08201528260c0820152606060e08201526060610100820152826101208201520152565b6128616105c0565b6127fd565b600e54811015612886575b600e600052600c602060002091020190600090565b61288e6125b9565b612871565b6003821015610a815752565b60405191906000835b600282106128bc575050506106838261061a565b82546001600160a01b0316815260019283019291909101906020016128a8565b90600b6128e7610656565b926128fc6128f6825460ff1690565b85612893565b60018101546020850152612912600282016117b5565b60408501526003810154606085015261292d6004820161289f565b608085015260068101546001600160a01b031660a085015260078101546001600160a01b031660c0850152612964600882016117b5565b60e0850152612975600982016117b5565b61010085015261299761298c600a83015460ff1690565b60ff16610120860152565b0154610140830152565b6129a96127e1565b506129b3816127ce565b156129cd576129c76120ab61073a926127a8565b506128dc565b60405162461bcd60e51b815260206004820152602260248201527f28676574426174746c65293a20426174746c6520646f65736e27742065786973604482015261742160f01b6064820152608490fd5b612a26816127ce565b15612a3c5761073a6120b16120ab6008936127a8565b60405162461bcd60e51b815260206004820152602660248201527f286765744d61736b6564576f7264293a20426174746c6520646f65736e27742060448201526565786973742160d01b6064820152608490fd5b601f8111612a9c575050565b6000906002825260208220906020601f850160051c83019410612ada575b601f0160051c01915b828110612acf57505050565b818155600101612ac3565b9092508290612aba565b601f8111612af0575050565b6000906008825260208220906020601f850160051c83019410612b2e575b601f0160051c01915b828110612b2357505050565b818155600101612b17565b9092508290612b0e565b90601f8111612b4657505050565b600091825260208220906020601f850160051c83019410612b82575b601f0160051c01915b828110612b7757505050565b818155600101612b6b565b9092508290612b62565b91909182516001600160401b038111612c5b575b612bb481612bae84546116e5565b84612b38565b602080601f8311600114612bf0575081929394600092612be5575b50508160011b916000199060031b1c1916179055565b015190503880612bcf565b90601f19831695612c0685600052602060002090565b926000905b888210612c4357505083600195969710612c2a575b505050811b019055565b015160001960f88460031b161c19169055388080612c20565b80600185968294968601518155019501930190612c0b565b612c636105c0565b612ba0565b6106839060046080600c54600160401b811015612d27575b6001810180600c55811015612d1a575b600c60005283516005919091027fdf6966c971051c3d54ec59162606531493a51404a002842f56009d7e5cf4a8c70180546001600160a01b0319166001600160a01b039290921691909117815592612cef602082015160018601612b8c565b60408101516002850155606081015160038501550151151591019060ff801983541691151516179055565b612d226125b9565b612c90565b612d2f6105c0565b612c80565b15612d3b57565b60405162461bcd60e51b815260206004820152601c60248201527f506c6561736520526567697374657220506c61796572204669727374000000006044820152606490fd5b6080612d8b33612655565b0151612ed55761068390612da1610c0933612593565b612da96126fe565b50612db333613064565b612dbc81612f40565b60066040516020810190612dee81610c76334486909160349282526001600160601b03199060601b1660208201520190565b51902006928315612e9c575b7fca8ab07e9ed17d119729fc652dd24df9d8430ca862dda4631925b5b4b99da36291612e8a91612e28610685565b908152856020820152846040820152816060820152612e5c600d5491612e57612e52600654612f88565b600655565b612fa0565b336000908152600a602052604090205560408051868152602081019590955284015233929081906060820190565b0390a2612e95613045565b903361485b565b927fca8ab07e9ed17d119729fc652dd24df9d8430ca862dda4631925b5b4b99da36291612ecb612e8a92612f88565b9491509150612dfa565b60405162461bcd60e51b8152602060048201526015602482015274506c6179657220697320696e206120626174746c6560581b6044820152606490fd5b50634e487b7160e01b600052601160045260246000fd5b600019810191908211612f3857565b610683612f12565b600a0390600a8211612f3857565b91908203918211612f3857565b50634e487b7160e01b600052601260045260246000fd5b8115612f7c570690565b612f84612f5b565b0690565b6001906000198114612f98570190565b6127a4612f12565b60036060600d54600160401b811015613007575b6001810180600d55811015612ffa575b600d60005260206000209060021b0192612fdf815185612b8c565b60208101516001850155604081015160028501550151910155565b6130026125b9565b612fc4565b61300f6105c0565b612fb4565b60405190602082018281106001600160401b03821117613038575b60405260008252565b6130406105c0565b61302f565b604051906130528261061a565b600382526203078360ec1b6020830152565b600a9060405160208101914483524460408301526001600160601b03199060601b16606082015260548152613098816105ff565b5190200680156130a55790565b50600590565b156130b257565b60405162461bcd60e51b8152602060048201526016602482015275426174746c6520616c7265616479206578697374732160501b6044820152606490fd5b156130f757565b60405162461bcd60e51b815260206004820152602e60248201527f637265617465426174746c653a204572726f722c20696e737566666963656e7460448201526d207661756c742062616c616e636560901b6064820152608490fd5b1561315a57565b60405162461bcd60e51b815260206004820152601860248201527708ae4e4dee45840dad2dcd2daeada40605c606a4082ecc2f60431b6044820152606490fd5b604051906131a78261061a565b600982526803130b630b731b29d160bd1b6020830152565b604051906131cc8261061a565b60088252670103b30b63ab29d160c51b6020830152565b906003811015610a815760ff80198354169116179055565b806000190460021181151516613212575b60011b90565b61321a612f12565b61320c565b600a908060001904821181151516613235570290565b61323d612f12565b0290565b9060005b6002811061325257505050565b81516001600160a01b031681840155602090910190600101613245565b600b610140600e54600160401b811015613385575b6001810180600e55811015613378575b600e600052600c6020600020910201926132b881516132b281610a77565b856131e3565b602081015160018501556132d3604082015160028601612b8c565b606081015160038501556132ee608082015160048601613241565b60a08101516006850180546001600160a01b039283166001600160a01b03199182161790915560c083015160078701805491909316911617905560e081015161333a9060088601612b8c565b61334c61010082015160098601612b8c565b61337161335e61012083015160ff1690565b600a86019060ff1660ff19825416179055565b0151910155565b6133806125b9565b613294565b61338d6105c0565b613284565b1561339957565b60405162461bcd60e51b815260206004820152602160248201527f4f6e6c7920706c617965722074776f2063616e206a6f696e206120626174746c6044820152606560f81b6064820152608490fd5b156133ef57565b60405162461bcd60e51b8152602060048201526011602482015270416c726561647920696e20626174746c6560781b6044820152606490fd5b1561342f57565b60405162461bcd60e51b815260206004820152602c60248201527f6a6f696e426174746c653a204572726f722c20696e737566666963656e74207660448201526b61756c742062616c616e636560a01b6064820152608490fd5b1561349057565b60405162461bcd60e51b815260206004820152601b60248201527f416d6f756e74206d75737420626520657175616c2061742062657400000000006044820152606490fd5b156134dc57565b60405162461bcd60e51b8152602060048201526017602482015276426174746c6520616c726561647920737461727465642160481b6044820152606490fd5b90816020910312610378575190565b600754811015613546575b600760005260206000200190600090565b61354e6125b9565b613535565b908160081461365d5761356682546116e5565b6001600160401b038111613650575b613589816135846008546116e5565b612ae4565b6000601f82116001146135c3578192936000926135b8575b50508160011b916000199060031b1c191617600855565b0154905038806135a1565b6135d7601f19831694600052602060002090565b6008600052907ff3f7a9fe364faab93b216da50a3214154f22a0a2b415b23a84c8169e8b636ee391815b868110613638575083600195961061361f575b505050811b01600855565b015460001960f88460031b161c19169055388080613614565b81830154845560019384019390920191602001613601565b6136586105c0565b613575565b9050565b6040519060008260085491613675836116e5565b8083526001938085169081156136fb575060011461369b575b5061068392500383610635565b600860009081527ff3f7a9fe364faab93b216da50a3214154f22a0a2b415b23a84c8169e8b636ee394602093509091905b8183106136e357505061068393508201013861368e565b855488840185015294850194879450918301916136cc565b905061068394506020925060ff191682840152151560051b8201013861368e565b60209080511561372a570190565b6127a46125b9565b90602091805182101561374457010190565b61374c6125b9565b010190565b909161376861073a936040845260408401906103fa565b9160208184039101526103fa565b61377f816127ce565b156137b8576101406137956120ab600b936127a8565b9390936137ab575b6132b881516132b281610a77565b6137b36116ce565b61379d565b60405162461bcd60e51b8152602060048201526024808201527f28757064617465426174746c65293a20426174746c6520646f65736e277420656044820152631e1a5cdd60e21b6064820152608490fd5b600180805b61381757505090565b825181101561387857613853906001600160f81b0319806138388387613732565b51169085511561386b575b6020860151160361385957612f88565b8161380e565b605f6138658286613732565b53612f88565b6138736125b9565b613843565b505090565b1561388457565b60405162461bcd60e51b815260206004820152604160248201527f426174746c65206e6f7420737461727465642e20506c656173652074656c6c2060448201527f616e6f7468657220706c6179657220746f206a6f696e2074686520626174746c6064820152606560f81b608482015260a490fd5b1561390057565b60405162461bcd60e51b815260206004820152602660248201527f63686f73656e4c65747465723a20426174746c652068617320616c726561647960448201526508195b99195960d21b6064820152608490fd5b1561395b57565b60405162461bcd60e51b815260206004820152601a60248201527f596f7520617265206e6f7420696e207468697320626174746c650000000000006044820152606490fd5b156139a757565b60405162461bcd60e51b815260206004820152601360248201527224ba1034b9903737ba103cb7bab9103a3ab93760691b6044820152606490fd5b156139e957565b60405162461bcd60e51b815260206004820152600e60248201526d546f6f206261642063686f69636560901b6044820152606490fd5b60405190613a2c8261061a565b601682527532b93937b91d1010afb334b7322732bba632ba3a32b960511b6020830152565b60ff60019116019060ff8211612f3857565b60ff166030019060ff8211612f3857565b6020610683919392936040519481613a9587935180928680870191016103d7565b8201613aa9825180938680850191016103d7565b01038085520183610635565b6080613ac0826129a1565b0160018060a01b03918260a0613ada8285515116936129a1565b01511603613aeb5751602001511690565b51511690565b613afa906129a1565b6080810180519060018060a01b039182808251163314918215613c56575b505015613bfd5751338282511614918215613beb575b505015613b9357613b4a60e0820151613b45613661565b614433565b7f6b5fd31b10b00ec94eb179707ba8b02caa87421f956fff0ee903bd6a22db99a46000604051a1613b785750565b60a0810151613b9091906001600160a01b0316613e59565b50565b60405162461bcd60e51b815260206004820152602a60248201527f5f7265736f6c7665426174746c653a596f7520617265206e6f7420696e207468604482015269697320626174746c652160b01b6064820152608490fd5b90915060203392015116143880613b2e565b60405162461bcd60e51b815260206004820152602b60248201527f4f6e6c7920706c617965727320696e207468697320626174746c652063616e2060448201526a6d616b652061206d6f766560a81b6064820152608490fd5b602091925001511633148238613b18565b15613c6e57565b60405162461bcd60e51b815260206004820152602660248201527f71756974426174746c653a596f7520617265206e6f7420696e207468697320626044820152656174746c652160d01b6064820152608490fd5b15613cc957565b606460405162461bcd60e51b815260206004820152602060248201527f5f656e64426174746c653a20426174746c6520616c726561647920656e6465646044820152fd5b1561037857565b613d1c6127e1565b50613d3d60028251613d2d81610a77565b613d3681610a77565b1415613cc2565b60028152600060c0820152613e2660408201613d5a838251613776565b600080600080516020614f79833981519152613e056080870194613df86002613de288613dea83613de2613dab6111f7610d25613da26111f7885160018060a01b0390511690565b54965160200190565b5493613dc76004613dbb836125d0565b5001805460ff19169055565b613ddd6003613dd5836125d0565b500160069055565b6125d0565b5001600a9055565b613dc76004613dbb836125d0565b516040519182918261088f565b0390a35180516001600160a01b0390811615918215613e41575b5050613d0d565b61073a606082016000613e3982516131fb565b915282613f90565b60200151166001600160a01b03169050153880613e1f565b613e2690613e656127e1565b50613e7660028451613d2d81610a77565b600283526001600160a01b03811660c08401526040830190613e99848351613776565b60808401805151613ed690600290613de290613ebd906001600160a01b0316612579565b54613dea83613de2613dab6111f7610d258a5160200190565b6001600160a01b0392918316916000908390859082613f52575b90600080516020614f79833981519152915193613f1460405192839216958261088f565b0390a351805183166001600160a01b0316821492908315613f38575b505050613d0d565b60200151919250166001600160a01b031614388080613f30565b929080600080516020614f7983398151915292865190828251169050808614600014613f88575060200151165b93909150613ef0565b915050613f7f565b9060808201519160018060a01b0392838082511633149182156140d6575b5050156103785781156140a55760c0015160009283928392613fd8906001600160a01b03166110c6565b604080516001600160a01b0383168152602081018490529193917f13b46ae1da3b476d0302ec781f7dd6982727671bc7bc07411d908daeb468751e9190a160405192165af16140256140e7565b5061402f81614117565b1561403657565b60405162461bcd60e51b815260206004820152603a60248201527f416464726573733a20756e61626c6520746f2073656e642076616c75652c207260448201527f6563697069656e74206d617920686176652072657665727465640000000000006064820152608490fd5b0390fd5b60405162461bcd60e51b815260206004820152600960248201526806761696e203c3d20360bc1b6044820152606490fd5b602091925001511633148338613fae565b3d15614112573d906140f88261069f565b916141066040519384610635565b82523d6000602084013e565b606090565b1561411e57565b634e487b7160e01b600052600160045260246000fd5b9081156141f15760008083805b6141dd5750836141508361069f565b9261415e6040519485610635565b808452601f1961416d8261069f565b01366020860137905b614181575090925050565b61418c600a91612f29565b94856141d46141cb6141bb6141b66111bc6141b06141a98861321f565b600a900490565b87612f4e565b613a63565b60f81b6001600160f81b03191690565b851a9186613732565b53049384614176565b916141e9600a91612f88565b920480614141565b90506040516141ff8161061a565b60018152600360fc1b602082015290565b1561421757565b60405162461bcd60e51b815260206004820152602760248201527f4572726f722c20776f72642077697468206c6f77657263617365206c657474656044820152667273206f6e6c7960c81b6064820152608490fd5b6007546106839190600160401b8110156142ca575b60018101806007558110156142bd575b60076000527fa66cc928b5edb82af9bd49922954155ab7b0942694bea4ce44661d9a8736c68801612b8c565b6142c56125b9565b614291565b6142d26105c0565b614281565b60ff6001911660ff8114612f98570190565b6000805b60ff81166020811080614341575b156143385761431f906001600160f81b0319906143189086613732565b511661434b565b156143325761432d906142d7565b6142ed565b50905090565b50505050600190565b50835181106142fb565b60ff60f81b16606160f81b8110159081614370575b501561436b57600190565b600090565b603d60f91b1015905038614360565b929160019160009183908390825b61439c575b5050505090509190565b60ff86166020811080614429575b15614423576001600160f81b0319806143c38388613732565b5116818416149081614409575b506143eb575b506143e3839495966142d7565b95949361438d565b839495506143fc82841a918a613732565b536143e3839594506143d6565b605f60f81b915061441a838c613732565b511614386143d0565b50614392565b50845181106143aa565b600180926000908282905b61444b575b505050505090565b60ff811660208110806144a5575b1561449f576001600160f81b031961447e81614475848a613732565b51169285613732565b511603614495575b61448f906142d7565b8361443e565b9194508491614486565b50614443565b5085518110614459565b6003546001600160a01b031633036144c357565b606460405162461bcd60e51b815260206004820152602060248201527f4f776e61626c653a2063616c6c6572206973206e6f7420746865206f776e65726044820152fd5b6001600160a01b0381161561453b576000918252602082815260408084206001600160a01b03909316845291905290205490565b60405162461bcd60e51b815260206004820152602a60248201527f455243313135353a2061646472657373207a65726f206973206e6f742061207660448201526930b634b21037bbb732b960b11b6064820152608490fd5b9061459d82610d97565b6145aa6040519182610635565b82815280926145bb601f1991610d97565b0190602036910137565b60209181518110156145da575b60051b010190565b6145e26125b9565b6145d2565b919091805183510361464b576145fd8151614593565b9060005b8151811015614644578061462f61461e610d2561463f94866145c5565b61462883896145c5565b5190614507565b61463982866145c5565b52612f88565b614601565b5090925050565b60405162461bcd60e51b815260206004820152602960248201527f455243313135353a206163636f756e747320616e6420696473206c656e677468604482015268040dad2e6dac2e8c6d60bb1b6064820152608490fd5b156146a957565b60405162461bcd60e51b815260206004820152602e60248201527f455243313135353a2063616c6c6572206973206e6f7420746f6b656e206f776e60448201526d195c881bdc88185c1c1c9bdd995960921b6064820152608490fd5b1561470c57565b60405162461bcd60e51b815260206004820152602560248201527f455243313135353a207472616e7366657220746f20746865207a65726f206164604482015264647265737360d81b6064820152608490fd5b1561476657565b60405162461bcd60e51b815260206004820152602a60248201527f455243313135353a20696e73756666696369656e742062616c616e636520666f60448201526939103a3930b739b332b960b11b6064820152608490fd5b9060018201809211612f3857565b91908201809211612f3857565b156147e057565b60405162461bcd60e51b815260206004820152602860248201527f455243313135353a2069647320616e6420616d6f756e7473206c656e677468206044820152670dad2e6dac2e8c6d60c31b6064820152608490fd5b909161484d61073a93604084526040840190611418565b916020818403910152611418565b926001600160a01b03841692831561491c5761487683614dab565b9261487f614d79565b9560005b85518110156148b0578061489a6148ab928a6145c5565b51610f79610f71612456848b6145c5565b614883565b50919350919450610683936148d382610f26856000526000602052604060002090565b6148dd81546147be565b9055604080518481526001602082015260009133917fc3d58168c5ae7397731d063d5bbf3d657854427343f4c083240f7aacaa2d0f629190a433614ab9565b60405162461bcd60e51b815260206004820152602160248201527f455243313135353a206d696e7420746f20746865207a65726f206164647265736044820152607360f81b6064820152608490fd5b90816020910312610378575161073a8161053f565b61073a939260a092600180851b031682526000602083015260408201526001606082015281608082015201906103fa565b919261073a95949160a094600180871b0380921685521660208401526040830152606082015281608082015201906103fa565b60809060208152602860208201527f455243313135353a204552433131353552656365697665722072656a656374656040820152676420746f6b656e7360c01b60608201520190565b60009060033d11614a3a57565b905060046000803e60005160e01c90565b600060443d1061073a57604051600319913d83016004833e81516001600160401b03918282113d602484011117614aa857818401948551938411614ab0573d85010160208487010111614aa8575061073a92910160200190610635565b949350505050565b50949350505050565b92919091823b614ac95750505050565b614af092602092600060405180968195829463f23a6e6160e01b9a8b855260048501614980565b03926001600160a01b03165af160009181614be9575b50614bc15750506001614b17614a2d565b6308c379a014614b92575b614b30575b3880808061174c565b60405162461bcd60e51b815260206004820152603460248201527f455243313135353a207472616e7366657220746f206e6f6e2d455243313135356044820152732932b1b2b4bb32b91034b6b83632b6b2b73a32b960611b6064820152608490fd5b614b9a614a4b565b80614ba55750614b22565b60405162461bcd60e51b81529081906140a1906004830161088f565b6001600160e01b03191614614b275760405162461bcd60e51b8152806140a1600482016149e4565b614c0b91925060203d8111614c12575b614c038183610635565b81019061496b565b9038614b06565b503d614bf9565b9493919092813b614c2d575b505050505050565b6000602094614c546040519788968795869463f23a6e6160e01b9c8d8752600487016149b1565b03926001600160a01b03165af160009181614cd1575b50614ca95750506001614c7b614a2d565b6308c379a014614c96575b614b30575b388080808080614c25565b614c9e614a4b565b80614ba55750614c86565b6001600160e01b03191614614c8b5760405162461bcd60e51b8152806140a1600482016149e4565b614cea91925060203d8111614c1257614c038183610635565b9038614c6a565b939061073a9593614d2391614d319460018060a01b03809216885216602087015260a0604087015260a0860190611418565b908482036060860152611418565b9160808184039101526103fa565b9493919092813b614d5257505050505050565b6000602094614c546040519788968795869463bc197c8160e01b9c8d875260048701614cf1565b604051614d858161061a565b600181526001602082016020368237825115614d9f575290565b614da76125b9565b5290565b60405190614db88261061a565b60018252602082016020368237825115614d9f575290565b15614dd757565b60405162461bcd60e51b815260206004820152602860248201527f455243313135353a206275726e20616d6f756e74206578636565647320746f74604482015267616c537570706c7960c01b6064820152608490fd5b919392916001600160a01b039190821615614e81575b1615614e4e57509050565b60005b8351811015614e7b5780614e68614e7692866145c5565b516124026123ce83866145c5565b614e51565b50509050565b929060005b8551811015614ea2578061489a614e9d92866145c5565b614e86565b509092614e43565b610c76614ed86106839260405192839163104c13eb60e21b60208401526020602484015260448301906103fa565b600080916020815191016a636f6e736f6c652e6c6f675afa50565b90614ed861068392610c76604051938492634b5c427760e01b602085015260248401613751565b61068393614f64614ed893614f4d9560405196879563c67ea9d160e01b60208801526080602488015260a48701906103fa565b9160448601526023198583030160648601526103fa565b90608483015203601f19810183528261063556feae6e5eafb6cd1cb4b139e7a0b9140aa182ee7d50e99f50d660156f79212acbc0a26469706673582212201ebaf585a5e12312ca9450dd3ca0d8f1567c0919ce1f3ad883c0e8de0612572f64736f6c63430008100033405787fa12a823e0f2b7631cc41b3ba8828b3321ca811111fa75cd3aa3bb5acea66cc928b5edb82af9bd49922954155ab7b0942694bea4ce44661d9a8736c688",
  "linkReferences": {},
  "deployedLinkReferences": {}
}