{
  "_format": "hh-sol-artifact-1",
  "contractName": "Penduel",
  "sourceName": "contracts/Penduel.sol",
  "abi": [
    {
      "inputs": [
        {
          "internalType": "string",
          "name": "_metadataURI",
          "type": "string"
        }
      ],
      "stateMutability": "nonpayable",
      "type": "constructor"
    },
    {
      "anonymous": false,
      "inputs": [
        {
          "indexed": true,
          "internalType": "address",
          "name": "account",
          "type": "address"
        },
        {
          "indexed": true,
          "internalType": "address",
          "name": "operator",
          "type": "address"
        },
        {
          "indexed": false,
          "internalType": "bool",
          "name": "approved",
          "type": "bool"
        }
      ],
      "name": "ApprovalForAll",
      "type": "event"
    },
    {
      "anonymous": false,
      "inputs": [
        {
          "indexed": false,
          "internalType": "string",
          "name": "battleName",
          "type": "string"
        },
        {
          "indexed": true,
          "internalType": "address",
          "name": "player1",
          "type": "address"
        },
        {
          "indexed": true,
          "internalType": "address",
          "name": "player2",
          "type": "address"
        },
        {
          "indexed": false,
          "internalType": "string",
          "name": "_maskedWord",
          "type": "string"
        }
      ],
      "name": "BattleBegin",
      "type": "event"
    },
    {
      "anonymous": false,
      "inputs": [
        {
          "indexed": false,
          "internalType": "string",
          "name": "battleName",
          "type": "string"
        },
        {
          "indexed": true,
          "internalType": "address",
          "name": "player1",
          "type": "address"
        },
        {
          "indexed": true,
          "internalType": "address",
          "name": "player2",
          "type": "address"
        }
      ],
      "name": "BattleCreate",
      "type": "event"
    },
    {
      "anonymous": false,
      "inputs": [
        {
          "indexed": false,
          "internalType": "string",
          "name": "battleName",
          "type": "string"
        },
        {
          "indexed": true,
          "internalType": "address",
          "name": "winner",
          "type": "address"
        },
        {
          "indexed": true,
          "internalType": "address",
          "name": "loser",
          "type": "address"
        }
      ],
      "name": "BattleEnded",
      "type": "event"
    },
    {
      "anonymous": false,
      "inputs": [
        {
          "indexed": true,
          "internalType": "bool",
          "name": "_findNewLetter",
          "type": "bool"
        },
        {
          "indexed": false,
          "internalType": "string",
          "name": "_maskedWord",
          "type": "string"
        },
        {
          "indexed": false,
          "internalType": "string",
          "name": "_letter",
          "type": "string"
        }
      ],
      "name": "BattleLetter",
      "type": "event"
    },
    {
      "anonymous": false,
      "inputs": [
        {
          "indexed": true,
          "internalType": "address",
          "name": "owner",
          "type": "address"
        },
        {
          "indexed": false,
          "internalType": "uint256",
          "name": "id",
          "type": "uint256"
        },
        {
          "indexed": false,
          "internalType": "uint256",
          "name": "attackStrength",
          "type": "uint256"
        },
        {
          "indexed": false,
          "internalType": "uint256",
          "name": "defenseStrength",
          "type": "uint256"
        }
      ],
      "name": "NewGameToken",
      "type": "event"
    },
    {
      "anonymous": false,
      "inputs": [
        {
          "indexed": true,
          "internalType": "address",
          "name": "owner",
          "type": "address"
        },
        {
          "indexed": false,
          "internalType": "string",
          "name": "playerName",
          "type": "string"
        }
      ],
      "name": "NewPlayer",
      "type": "event"
    },
    {
      "anonymous": false,
      "inputs": [
        {
          "indexed": true,
          "internalType": "address",
          "name": "previousOwner",
          "type": "address"
        },
        {
          "indexed": true,
          "internalType": "address",
          "name": "newOwner",
          "type": "address"
        }
      ],
      "name": "OwnershipTransferred",
      "type": "event"
    },
    {
      "anonymous": false,
      "inputs": [
        {
          "indexed": false,
          "internalType": "bool",
          "name": "_wordIsFind",
          "type": "bool"
        }
      ],
      "name": "RoundEnded",
      "type": "event"
    },
    {
      "anonymous": false,
      "inputs": [
        {
          "indexed": true,
          "internalType": "address",
          "name": "operator",
          "type": "address"
        },
        {
          "indexed": true,
          "internalType": "address",
          "name": "from",
          "type": "address"
        },
        {
          "indexed": true,
          "internalType": "address",
          "name": "to",
          "type": "address"
        },
        {
          "indexed": false,
          "internalType": "uint256[]",
          "name": "ids",
          "type": "uint256[]"
        },
        {
          "indexed": false,
          "internalType": "uint256[]",
          "name": "values",
          "type": "uint256[]"
        }
      ],
      "name": "TransferBatch",
      "type": "event"
    },
    {
      "anonymous": false,
      "inputs": [
        {
          "indexed": true,
          "internalType": "address",
          "name": "operator",
          "type": "address"
        },
        {
          "indexed": true,
          "internalType": "address",
          "name": "from",
          "type": "address"
        },
        {
          "indexed": true,
          "internalType": "address",
          "name": "to",
          "type": "address"
        },
        {
          "indexed": false,
          "internalType": "uint256",
          "name": "id",
          "type": "uint256"
        },
        {
          "indexed": false,
          "internalType": "uint256",
          "name": "value",
          "type": "uint256"
        }
      ],
      "name": "TransferSingle",
      "type": "event"
    },
    {
      "anonymous": false,
      "inputs": [
        {
          "indexed": false,
          "internalType": "string",
          "name": "value",
          "type": "string"
        },
        {
          "indexed": true,
          "internalType": "uint256",
          "name": "id",
          "type": "uint256"
        }
      ],
      "name": "URI",
      "type": "event"
    },
    {
      "anonymous": false,
      "inputs": [
        {
          "indexed": false,
          "internalType": "string",
          "name": "wordToAdd",
          "type": "string"
        }
      ],
      "name": "WordAdded",
      "type": "event"
    },
    {
      "inputs": [],
      "name": "CELESTION",
      "outputs": [
        {
          "internalType": "uint256",
          "name": "",
          "type": "uint256"
        }
      ],
      "stateMutability": "view",
      "type": "function"
    },
    {
      "inputs": [],
      "name": "DEVIL",
      "outputs": [
        {
          "internalType": "uint256",
          "name": "",
          "type": "uint256"
        }
      ],
      "stateMutability": "view",
      "type": "function"
    },
    {
      "inputs": [],
      "name": "FIREBIRD",
      "outputs": [
        {
          "internalType": "uint256",
          "name": "",
          "type": "uint256"
        }
      ],
      "stateMutability": "view",
      "type": "function"
    },
    {
      "inputs": [],
      "name": "GRIFFIN",
      "outputs": [
        {
          "internalType": "uint256",
          "name": "",
          "type": "uint256"
        }
      ],
      "stateMutability": "view",
      "type": "function"
    },
    {
      "inputs": [],
      "name": "KAMO",
      "outputs": [
        {
          "internalType": "uint256",
          "name": "",
          "type": "uint256"
        }
      ],
      "stateMutability": "view",
      "type": "function"
    },
    {
      "inputs": [],
      "name": "KUKULKAN",
      "outputs": [
        {
          "internalType": "uint256",
          "name": "",
          "type": "uint256"
        }
      ],
      "stateMutability": "view",
      "type": "function"
    },
    {
      "inputs": [],
      "name": "MAX_ATTACK_DEFEND_STRENGTH",
      "outputs": [
        {
          "internalType": "uint256",
          "name": "",
          "type": "uint256"
        }
      ],
      "stateMutability": "view",
      "type": "function"
    },
    {
      "inputs": [
        {
          "internalType": "string",
          "name": "_wordToAdd",
          "type": "string"
        }
      ],
      "name": "addWord",
      "outputs": [],
      "stateMutability": "nonpayable",
      "type": "function"
    },
    {
      "inputs": [
        {
          "internalType": "address",
          "name": "account",
          "type": "address"
        },
        {
          "internalType": "uint256",
          "name": "id",
          "type": "uint256"
        }
      ],
      "name": "balanceOf",
      "outputs": [
        {
          "internalType": "uint256",
          "name": "",
          "type": "uint256"
        }
      ],
      "stateMutability": "view",
      "type": "function"
    },
    {
      "inputs": [
        {
          "internalType": "address[]",
          "name": "accounts",
          "type": "address[]"
        },
        {
          "internalType": "uint256[]",
          "name": "ids",
          "type": "uint256[]"
        }
      ],
      "name": "balanceOfBatch",
      "outputs": [
        {
          "internalType": "uint256[]",
          "name": "",
          "type": "uint256[]"
        }
      ],
      "stateMutability": "view",
      "type": "function"
    },
    {
      "inputs": [],
      "name": "baseURI",
      "outputs": [
        {
          "internalType": "string",
          "name": "",
          "type": "string"
        }
      ],
      "stateMutability": "view",
      "type": "function"
    },
    {
      "inputs": [
        {
          "internalType": "string",
          "name": "",
          "type": "string"
        }
      ],
      "name": "battleIndex",
      "outputs": [
        {
          "internalType": "uint256",
          "name": "",
          "type": "uint256"
        }
      ],
      "stateMutability": "view",
      "type": "function"
    },
    {
      "inputs": [
        {
          "internalType": "uint256",
          "name": "",
          "type": "uint256"
        }
      ],
      "name": "battles",
      "outputs": [
        {
          "internalType": "enum Penduel.BattleStatus",
          "name": "battleStatus",
          "type": "uint8"
        },
        {
          "internalType": "bytes32",
          "name": "battleHash",
          "type": "bytes32"
        },
        {
          "internalType": "string",
          "name": "name",
          "type": "string"
        },
        {
          "internalType": "address",
          "name": "activePlayer",
          "type": "address"
        },
        {
          "internalType": "address",
          "name": "winner",
          "type": "address"
        },
        {
          "internalType": "bytes",
          "name": "maskedWord",
          "type": "bytes"
        }
      ],
      "stateMutability": "view",
      "type": "function"
    },
    {
      "inputs": [
        {
          "internalType": "bytes1",
          "name": "_letter",
          "type": "bytes1"
        },
        {
          "internalType": "string",
          "name": "_battleName",
          "type": "string"
        }
      ],
      "name": "chosenLetter",
      "outputs": [],
      "stateMutability": "nonpayable",
      "type": "function"
    },
    {
      "inputs": [
        {
          "internalType": "string",
          "name": "_battleName",
          "type": "string"
        }
      ],
      "name": "createBattle",
      "outputs": [],
      "stateMutability": "nonpayable",
      "type": "function"
    },
    {
      "inputs": [
        {
          "internalType": "string",
          "name": "_battleName",
          "type": "string"
        }
      ],
      "name": "createRandomGameToken",
      "outputs": [],
      "stateMutability": "nonpayable",
      "type": "function"
    },
    {
      "inputs": [
        {
          "internalType": "uint256",
          "name": "id",
          "type": "uint256"
        }
      ],
      "name": "exists",
      "outputs": [
        {
          "internalType": "bool",
          "name": "",
          "type": "bool"
        }
      ],
      "stateMutability": "view",
      "type": "function"
    },
    {
      "inputs": [
        {
          "internalType": "uint256",
          "name": "",
          "type": "uint256"
        }
      ],
      "name": "gameTokens",
      "outputs": [
        {
          "internalType": "string",
          "name": "name",
          "type": "string"
        },
        {
          "internalType": "uint256",
          "name": "id",
          "type": "uint256"
        },
        {
          "internalType": "uint256",
          "name": "attackStrength",
          "type": "uint256"
        },
        {
          "internalType": "uint256",
          "name": "defenseStrength",
          "type": "uint256"
        }
      ],
      "stateMutability": "view",
      "type": "function"
    },
    {
      "inputs": [
        {
          "internalType": "string",
          "name": "_battleName",
          "type": "string"
        }
      ],
      "name": "getActivePlayer",
      "outputs": [
        {
          "internalType": "address",
          "name": "",
          "type": "address"
        }
      ],
      "stateMutability": "view",
      "type": "function"
    },
    {
      "inputs": [],
      "name": "getAllBattles",
      "outputs": [
        {
          "components": [
            {
              "internalType": "enum Penduel.BattleStatus",
              "name": "battleStatus",
              "type": "uint8"
            },
            {
              "internalType": "bytes32",
              "name": "battleHash",
              "type": "bytes32"
            },
            {
              "internalType": "string",
              "name": "name",
              "type": "string"
            },
            {
              "internalType": "address[2]",
              "name": "players",
              "type": "address[2]"
            },
            {
              "internalType": "address",
              "name": "activePlayer",
              "type": "address"
            },
            {
              "internalType": "address",
              "name": "winner",
              "type": "address"
            },
            {
              "internalType": "bytes",
              "name": "maskedWord",
              "type": "bytes"
            }
          ],
          "internalType": "struct Penduel.Battle[]",
          "name": "",
          "type": "tuple[]"
        }
      ],
      "stateMutability": "view",
      "type": "function"
    },
    {
      "inputs": [],
      "name": "getAllPlayerTokens",
      "outputs": [
        {
          "components": [
            {
              "internalType": "string",
              "name": "name",
              "type": "string"
            },
            {
              "internalType": "uint256",
              "name": "id",
              "type": "uint256"
            },
            {
              "internalType": "uint256",
              "name": "attackStrength",
              "type": "uint256"
            },
            {
              "internalType": "uint256",
              "name": "defenseStrength",
              "type": "uint256"
            }
          ],
          "internalType": "struct Penduel.GameToken[]",
          "name": "",
          "type": "tuple[]"
        }
      ],
      "stateMutability": "view",
      "type": "function"
    },
    {
      "inputs": [],
      "name": "getAllPlayers",
      "outputs": [
        {
          "components": [
            {
              "internalType": "address",
              "name": "playerAddress",
              "type": "address"
            },
            {
              "internalType": "string",
              "name": "playerName",
              "type": "string"
            },
            {
              "internalType": "uint256",
              "name": "playerMana",
              "type": "uint256"
            },
            {
              "internalType": "uint256",
              "name": "playerHealth",
              "type": "uint256"
            },
            {
              "internalType": "bool",
              "name": "inBattle",
              "type": "bool"
            }
          ],
          "internalType": "struct Penduel.Player[]",
          "name": "",
          "type": "tuple[]"
        }
      ],
      "stateMutability": "view",
      "type": "function"
    },
    {
      "inputs": [
        {
          "internalType": "string",
          "name": "_battleName",
          "type": "string"
        }
      ],
      "name": "getBattle",
      "outputs": [
        {
          "components": [
            {
              "internalType": "enum Penduel.BattleStatus",
              "name": "battleStatus",
              "type": "uint8"
            },
            {
              "internalType": "bytes32",
              "name": "battleHash",
              "type": "bytes32"
            },
            {
              "internalType": "string",
              "name": "name",
              "type": "string"
            },
            {
              "internalType": "address[2]",
              "name": "players",
              "type": "address[2]"
            },
            {
              "internalType": "address",
              "name": "activePlayer",
              "type": "address"
            },
            {
              "internalType": "address",
              "name": "winner",
              "type": "address"
            },
            {
              "internalType": "bytes",
              "name": "maskedWord",
              "type": "bytes"
            }
          ],
          "internalType": "struct Penduel.Battle",
          "name": "",
          "type": "tuple"
        }
      ],
      "stateMutability": "view",
      "type": "function"
    },
    {
      "inputs": [
        {
          "internalType": "string",
          "name": "_maskedWord",
          "type": "string"
        }
      ],
      "name": "getHangWord",
      "outputs": [
        {
          "internalType": "bytes",
          "name": "hangWord",
          "type": "bytes"
        }
      ],
      "stateMutability": "nonpayable",
      "type": "function"
    },
    {
      "inputs": [
        {
          "internalType": "string",
          "name": "_battleName",
          "type": "string"
        }
      ],
      "name": "getMaskedWord",
      "outputs": [
        {
          "internalType": "string",
          "name": "",
          "type": "string"
        }
      ],
      "stateMutability": "view",
      "type": "function"
    },
    {
      "inputs": [
        {
          "internalType": "address",
          "name": "_playerAddress",
          "type": "address"
        }
      ],
      "name": "getPlayer",
      "outputs": [
        {
          "components": [
            {
              "internalType": "address",
              "name": "playerAddress",
              "type": "address"
            },
            {
              "internalType": "string",
              "name": "playerName",
              "type": "string"
            },
            {
              "internalType": "uint256",
              "name": "playerMana",
              "type": "uint256"
            },
            {
              "internalType": "uint256",
              "name": "playerHealth",
              "type": "uint256"
            },
            {
              "internalType": "bool",
              "name": "inBattle",
              "type": "bool"
            }
          ],
          "internalType": "struct Penduel.Player",
          "name": "",
          "type": "tuple"
        }
      ],
      "stateMutability": "view",
      "type": "function"
    },
    {
      "inputs": [
        {
          "internalType": "address",
          "name": "_playerTokenAddress",
          "type": "address"
        }
      ],
      "name": "getPlayerToken",
      "outputs": [
        {
          "components": [
            {
              "internalType": "string",
              "name": "name",
              "type": "string"
            },
            {
              "internalType": "uint256",
              "name": "id",
              "type": "uint256"
            },
            {
              "internalType": "uint256",
              "name": "attackStrength",
              "type": "uint256"
            },
            {
              "internalType": "uint256",
              "name": "defenseStrength",
              "type": "uint256"
            }
          ],
          "internalType": "struct Penduel.GameToken",
          "name": "",
          "type": "tuple"
        }
      ],
      "stateMutability": "view",
      "type": "function"
    },
    {
      "inputs": [],
      "name": "getTotalSupply",
      "outputs": [
        {
          "internalType": "uint256",
          "name": "",
          "type": "uint256"
        }
      ],
      "stateMutability": "view",
      "type": "function"
    },
    {
      "inputs": [
        {
          "internalType": "address",
          "name": "account",
          "type": "address"
        },
        {
          "internalType": "address",
          "name": "operator",
          "type": "address"
        }
      ],
      "name": "isApprovedForAll",
      "outputs": [
        {
          "internalType": "bool",
          "name": "",
          "type": "bool"
        }
      ],
      "stateMutability": "view",
      "type": "function"
    },
    {
      "inputs": [
        {
          "internalType": "string",
          "name": "_battleName",
          "type": "string"
        }
      ],
      "name": "isBattle",
      "outputs": [
        {
          "internalType": "bool",
          "name": "",
          "type": "bool"
        }
      ],
      "stateMutability": "view",
      "type": "function"
    },
    {
      "inputs": [
        {
          "internalType": "address",
          "name": "_playerAddress",
          "type": "address"
        }
      ],
      "name": "isPlayer",
      "outputs": [
        {
          "internalType": "bool",
          "name": "",
          "type": "bool"
        }
      ],
      "stateMutability": "view",
      "type": "function"
    },
    {
      "inputs": [
        {
          "internalType": "address",
          "name": "_playerTokenAddress",
          "type": "address"
        }
      ],
      "name": "isPlayerToken",
      "outputs": [
        {
          "internalType": "bool",
          "name": "",
          "type": "bool"
        }
      ],
      "stateMutability": "view",
      "type": "function"
    },
    {
      "inputs": [
        {
          "internalType": "string",
          "name": "_battleName",
          "type": "string"
        }
      ],
      "name": "joinBattle",
      "outputs": [
        {
          "components": [
            {
              "internalType": "enum Penduel.BattleStatus",
              "name": "battleStatus",
              "type": "uint8"
            },
            {
              "internalType": "bytes32",
              "name": "battleHash",
              "type": "bytes32"
            },
            {
              "internalType": "string",
              "name": "name",
              "type": "string"
            },
            {
              "internalType": "address[2]",
              "name": "players",
              "type": "address[2]"
            },
            {
              "internalType": "address",
              "name": "activePlayer",
              "type": "address"
            },
            {
              "internalType": "address",
              "name": "winner",
              "type": "address"
            },
            {
              "internalType": "bytes",
              "name": "maskedWord",
              "type": "bytes"
            }
          ],
          "internalType": "struct Penduel.Battle",
          "name": "",
          "type": "tuple"
        }
      ],
      "stateMutability": "nonpayable",
      "type": "function"
    },
    {
      "inputs": [],
      "name": "owner",
      "outputs": [
        {
          "internalType": "address",
          "name": "",
          "type": "address"
        }
      ],
      "stateMutability": "view",
      "type": "function"
    },
    {
      "inputs": [
        {
          "internalType": "address",
          "name": "",
          "type": "address"
        }
      ],
      "name": "playerIndex",
      "outputs": [
        {
          "internalType": "uint256",
          "name": "",
          "type": "uint256"
        }
      ],
      "stateMutability": "view",
      "type": "function"
    },
    {
      "inputs": [
        {
          "internalType": "address",
          "name": "",
          "type": "address"
        }
      ],
      "name": "playerTokenIndex",
      "outputs": [
        {
          "internalType": "uint256",
          "name": "",
          "type": "uint256"
        }
      ],
      "stateMutability": "view",
      "type": "function"
    },
    {
      "inputs": [
        {
          "internalType": "uint256",
          "name": "",
          "type": "uint256"
        }
      ],
      "name": "players",
      "outputs": [
        {
          "internalType": "address",
          "name": "playerAddress",
          "type": "address"
        },
        {
          "internalType": "string",
          "name": "playerName",
          "type": "string"
        },
        {
          "internalType": "uint256",
          "name": "playerMana",
          "type": "uint256"
        },
        {
          "internalType": "uint256",
          "name": "playerHealth",
          "type": "uint256"
        },
        {
          "internalType": "bool",
          "name": "inBattle",
          "type": "bool"
        }
      ],
      "stateMutability": "view",
      "type": "function"
    },
    {
      "inputs": [
        {
          "internalType": "string",
          "name": "_battleName",
          "type": "string"
        }
      ],
      "name": "quitBattle",
      "outputs": [],
      "stateMutability": "nonpayable",
      "type": "function"
    },
    {
      "inputs": [
        {
          "internalType": "string",
          "name": "_playerName",
          "type": "string"
        },
        {
          "internalType": "string",
          "name": "_gameTokenName",
          "type": "string"
        }
      ],
      "name": "registerPlayer",
      "outputs": [],
      "stateMutability": "nonpayable",
      "type": "function"
    },
    {
      "inputs": [],
      "name": "renounceOwnership",
      "outputs": [],
      "stateMutability": "nonpayable",
      "type": "function"
    },
    {
      "inputs": [
        {
          "internalType": "address",
          "name": "from",
          "type": "address"
        },
        {
          "internalType": "address",
          "name": "to",
          "type": "address"
        },
        {
          "internalType": "uint256[]",
          "name": "ids",
          "type": "uint256[]"
        },
        {
          "internalType": "uint256[]",
          "name": "amounts",
          "type": "uint256[]"
        },
        {
          "internalType": "bytes",
          "name": "data",
          "type": "bytes"
        }
      ],
      "name": "safeBatchTransferFrom",
      "outputs": [],
      "stateMutability": "nonpayable",
      "type": "function"
    },
    {
      "inputs": [
        {
          "internalType": "address",
          "name": "from",
          "type": "address"
        },
        {
          "internalType": "address",
          "name": "to",
          "type": "address"
        },
        {
          "internalType": "uint256",
          "name": "id",
          "type": "uint256"
        },
        {
          "internalType": "uint256",
          "name": "amount",
          "type": "uint256"
        },
        {
          "internalType": "bytes",
          "name": "data",
          "type": "bytes"
        }
      ],
      "name": "safeTransferFrom",
      "outputs": [],
      "stateMutability": "nonpayable",
      "type": "function"
    },
    {
      "inputs": [
        {
          "internalType": "address",
          "name": "operator",
          "type": "address"
        },
        {
          "internalType": "bool",
          "name": "approved",
          "type": "bool"
        }
      ],
      "name": "setApprovalForAll",
      "outputs": [],
      "stateMutability": "nonpayable",
      "type": "function"
    },
    {
      "inputs": [
        {
          "internalType": "string",
          "name": "newuri",
          "type": "string"
        }
      ],
      "name": "setURI",
      "outputs": [],
      "stateMutability": "nonpayable",
      "type": "function"
    },
    {
      "inputs": [
        {
          "internalType": "bytes4",
          "name": "interfaceId",
          "type": "bytes4"
        }
      ],
      "name": "supportsInterface",
      "outputs": [
        {
          "internalType": "bool",
          "name": "",
          "type": "bool"
        }
      ],
      "stateMutability": "view",
      "type": "function"
    },
    {
      "inputs": [
        {
          "internalType": "uint256",
          "name": "tokenId",
          "type": "uint256"
        }
      ],
      "name": "tokenURI",
      "outputs": [
        {
          "internalType": "string",
          "name": "",
          "type": "string"
        }
      ],
      "stateMutability": "view",
      "type": "function"
    },
    {
      "inputs": [],
      "name": "totalSupply",
      "outputs": [
        {
          "internalType": "uint256",
          "name": "",
          "type": "uint256"
        }
      ],
      "stateMutability": "view",
      "type": "function"
    },
    {
      "inputs": [
        {
          "internalType": "uint256",
          "name": "id",
          "type": "uint256"
        }
      ],
      "name": "totalSupply",
      "outputs": [
        {
          "internalType": "uint256",
          "name": "",
          "type": "uint256"
        }
      ],
      "stateMutability": "view",
      "type": "function"
    },
    {
      "inputs": [
        {
          "internalType": "address",
          "name": "newOwner",
          "type": "address"
        }
      ],
      "name": "transferOwnership",
      "outputs": [],
      "stateMutability": "nonpayable",
      "type": "function"
    },
    {
      "inputs": [
        {
          "internalType": "uint256",
          "name": "",
          "type": "uint256"
        }
      ],
      "name": "uri",
      "outputs": [
        {
          "internalType": "string",
          "name": "",
          "type": "string"
        }
      ],
      "stateMutability": "view",
      "type": "function"
    }
  ],
  "bytecode": "0x60806040523462000e635762005864803803806200001d8162000ea8565b92833981019060208183031262000e63578051906001600160401b03821162000e63570181601f8201121562000e63578051906001600160401b0382116200094e5762000074601f8301601f191660200162000ea8565b928284526020838301011162000e635760005b82811062000e4d57600083850160200152835184906001600160401b0381116200094e57620000b860025462000ece565b601f811162000e0b575b50806020601f821160011462000d935760009162000d87575b508160011b916000199060031b1c1916176002555b60038054336001600160a01b0319821681179092556001600160a01b03167f8be0079c531659141344cd1fd0a4f28419497f9722a3daafe3b4186f6b6457e0600080a3600780546001600160a01b0319167311f7ad1df281604f2bd22ba13e334ca4d14d7c281790556040516101c081016001600160401b038111828210176200094e576040526200018162000e68565b600581526468656c6c6f60d81b602082015281526200019f62000e68565b6007815266676f6f6462796560c81b60208201526020820152620001c262000e68565b600381526239bab760e91b60208201526040820152620001e162000e68565b9060089182815267686f6c6c6964617960c01b602082015260608201526200020862000e68565b60068152656265666f726560d01b602082015260808201526200022a62000e68565b600581526430b33a32b960d91b602082015260a08201526200024b62000e68565b600b81526a3932b9ba37b930ba34b7b760a91b602082015260c08201526200027262000e68565b60078152663330b9b434b7b760c91b602082015260e08201526200029562000e68565b828152676472657373696e6760c01b6020820152610100820152620002b962000e68565b600e81526d726570726573656e74617469766560901b6020820152610120820152620002e462000e68565b600781526673696c656e636560c81b60208201526101408201526200030862000e68565b600a81526961636365707461626c6560b01b60208201526101608201526200032f62000e68565b600d81526c195b9d9a5c9bdb9b595b9d185b609a1b60208201526101808201526200035962000e68565b600981526870686f746f636f707960b81b60208201526101a08201528154600e835580600e1062000d01575b50906000526020600020906000905b600e821062000c1357835184906001600160401b0381116200094e57620003bd60055462000ece565b601f811162000bd0575b50602091601f821160011462000b665791819260009262000b5a575b50508160011b916000199060031b1c1916176005555b604051608081016001600160401b038111828210176200094e576040526200042062000e88565b600081528152600060208201526000604082015260006060820152600e54680100000000000000008110156200094e576001810180600e5581101562000a2957600e6000528151805190927fbb7b4a454dc3493923482f07822329ed19e8244eff582cc204f8554c3620c3fd916001600160401b0381116200094e57620004be81620004b28660021b86015462000ece565b8660021b860162000f24565b6020601f821160011462000add579080606093926003969760009262000ad1575b50508160011b9160001990871b1c1916178560021b8401555b60208101516001600296871b94909401938401556040808201519584019590955501519101555160a081018181106001600160401b038211176200094e57604052600081526200054762000e88565b600081526020820152600060408201526000606082015260006080820152600d5490680100000000000000008210156200094e576001820180600d5582101562000a2957600d6000528051600583027fd7b6990105719101dabeb77144f2a3385c8033acd3af97e9423a695e81ad1eb590810180546001600160a01b0319166001600160a01b039390931692909217909155602082015180519093906001600160401b0381116200094e576200061a816200060b6001600586028701015462000ece565b60016005860287010162000f24565b6020601f821160011462000a4b579181600592600495946080979860009262000a3f575b50508160011b916000199060031b1c1916176001838302850101555b60408601516002838302850101556060860151600383830285010155020101910151151560ff8019835416911617905560405180604081011060018060401b036040830111176200094e57604081810181526000808352602083015251906001600160401b0360e08301908111908311176200094e5760e082016040526000825260006020830152620006ec62000e88565b600081526040830152606082015260006080820152600060a08201526200071262000e88565b6000815260c0820152600f5490680100000000000000008210156200094e576001820180600f5582101562000a2957600f60005280517f8d1108e10bcb7c27dddfc02ed9d693a074039d026cf4ea4240b40f7d581ac80290600381101562000a135760ff80198560031b840154169116178360031b820155602082015160018460031b83010155604082015192835160018060401b0381116200094e57620007d781620007c860028560031b8701015462000ece565b60028560031b87010162000f24565b6020601f82116001146200099557819293949560009262000989575b50508160011b916000199060031b1c19161760028260031b840101555b606083015160005b60028110620009645760808501516005600385901b860190810180546001600160a01b039384166001600160a01b03199182161790915560a08801516006830180549190941691161790915560c086015180519091600701906001600160401b0381116200094e57620008988162000891845462000ece565b8462000f24565b602092601f8211600114620008e55792819293600092620008d9575b50508160011b916000199060031b1c19161790555b6040516148df908162000f658239f35b015190508380620008b4565b601f198216938360005260206000209160005b8681106200093557508360019596106200091b575b505050811b019055620008c9565b015160001960f88460031b161c191690558380806200090d565b91926020600181928685015181550194019201620008f8565b634e487b7160e01b600052604160045260246000fd5b81516001600160a01b0316600384811b86018301015560209091019060010162000818565b015190508580620007f3565b60028360031b85010160005260206000209060005b601f1984168110620009fa575060019394959683601f19811610620009e0575b505050811b0160028260031b8401015562000810565b015160001960f88460031b161c19169055858080620009ca565b9091602060018192858b015181550193019101620009aa565b634e487b7160e01b600052602160045260246000fd5b634e487b7160e01b600052603260045260246000fd5b0151905088806200063e565b60016005840285010160005260206000209560005b601f198416811062000ab8575082608096976004969593600193600596601f1981161062000a9e575b505050811b016001838302850101556200065a565b015160001960f88460031b161c1916905588808062000a89565b8282015188556001909701966020928301920162000a60565b015190508780620004df565b8460021b840160005260206000209560005b601f198416811062000b41575091600395966001926060959483601f1981161062000b28575b505050811b018560021b840155620004f8565b015160001983891b60f8161c1916905587808062000b15565b8282015188556001909701966020928301920162000aef565b015190508280620003e3565b601f19821692600560005260206000209160005b85811062000bb75750836001951062000b9d575b505050811b01600555620003f9565b015160001960f88460031b161c1916905582808062000b8e565b9192602060018192868501518155019401920162000b7a565b62000c019060056000526020600020601f840160051c8101916020851062000c08575b601f0160051c019062000f0b565b82620003c7565b909150819062000bf3565b80518051906001600160401b0382116200094e5762000c3f8262000c38875462000ece565b8762000f24565b602090601f831160011462000c8f57928260019493602093869560009262000c83575b5050600019600383901b1c191690841b1786555b0193019101909162000394565b01519050898062000c62565b90601f198316918660005260206000209260005b81811062000ce857509260019592859287966020961062000cce575b505050831b8301865562000c76565b015160001960f88460031b161c1916905588808062000cbf565b9293602060018192878601518155019501930162000ca3565b82600052600e602060002091820191015b81811062000d21575062000385565b8062000d306001925462000ece565b8062000d3f575b500162000d12565b601f8111831462000d575750600081555b8662000d37565b62000d77908260005283601f6020600020920160051c8201910162000f0b565b6000602081208183555562000d50565b905082015183620000db565b60026000908152600080516020620058448339815191529250601f198416905b81811062000df25750908360019493921062000dd8575b5050811b01600255620000f0565b84015160001960f88460031b161c19169055838062000dca565b9192602060018192868901518155019401920162000db3565b600260005262000e469060008051602062005844833981519152601f840160051c8101916020851062000c0857601f0160051c019062000f0b565b82620000c2565b8060208092840101518282870101520162000087565b600080fd5b60408051919082016001600160401b038111838210176200094e57604052565b60405190602082016001600160401b038111838210176200094e57604052565b6040519190601f01601f191682016001600160401b038111838210176200094e57604052565b90600182811c9216801562000f00575b602083101462000eea57565b634e487b7160e01b600052602260045260246000fd5b91607f169162000ede565b81811062000f17575050565b6000815560010162000f0b565b9190601f811162000f3457505050565b62000f62926000526020600020906020601f840160051c8301931062000c0857601f0160051c019062000f0b565b56fe60806040526004361015610013575b600080fd5b60003560e01c8062fdd58e146103f1578063015a3792146103e857806301ffc9a7146103df57806302fe5305146103d65780630677aa4e146103cd578063083c0e8e146103c457806309c95e10146103bb5780630daea2cd146103b25780630e89341c146103a957806310898e4c146103a05780631107ae3d1461039757806316801d171461038e57806318160ddd1461029b5780632ca04522146103855780632d5fbd961461037c5780632eb2c2d614610373578063331dcd311461036a5780634974da81146103615780634e1273f4146103585780634f558e791461034f578063548fb999146103465780635c12cd4b1461033d5780635c93fc3d14610334578063606d2e961461032b5780636c0360eb14610322578063703730a514610319578063715018a614610310578063845f433b14610307578063885c7d36146102fe5780638da5cb5b146102f5578063996d7bea146102ec5780639e4ecd11146102e35780639ec40aa3146102da578063a1b4f57c146102d1578063a22cb465146102c8578063b1309f06146102bf578063bd85b039146102b6578063bf034b69146102ad578063bf103a4d146102a4578063c4e41b221461029b578063c87b56dd14610292578063cb2da2c914610289578063d2198cc514610280578063de96cefc14610277578063e985e9c51461026e578063efa1c48214610265578063f1da73391461025c578063f242432a14610253578063f2fde38b1461024a5763f71d96cb1461024257600080fd5b61000e612614565b5061000e6124ea565b5061000e6122ac565b5061000e61228f565b5061000e6121a6565b5061000e612148565b5061000e61212b565b5061000e61210e565b5061000e612062565b5061000e611f8a565b5061000e610c54565b5061000e611f66565b5061000e611eef565b5061000e611e95565b5061000e611e5a565b5061000e611d20565b5061000e611aa8565b5061000e611a91565b5061000e611a74565b5061000e6119cb565b5061000e6119a1565b5061000e611966565b5061000e61184e565b5061000e6117ef565b5061000e6117d2565b5061000e611705565b5061000e61165d565b5061000e6113f6565b5061000e6113bd565b5061000e61134c565b5061000e61131d565b5061000e611263565b5061000e6111c4565b5061000e610fff565b5061000e610e43565b5061000e610d91565b5061000e610c73565b5061000e610c26565b5061000e610b24565b5061000e610a7c565b5061000e6109ac565b5061000e61097e565b5061000e610950565b5061000e610915565b5061000e6108e1565b5061000e6107d8565b5061000e6105e4565b5061000e6104e6565b5061000e61043a565b600435906001600160a01b038216820361000e57565b602435906001600160a01b038216820361000e57565b35906001600160a01b038216820361000e57565b503461000e57604036600319011261000e5760206104626104596103fa565b60243590613ec5565b604051908152f35b60005b83811061047d5750506000910152565b818101518382015260200161046d565b906020916104a68151809281855285808601910161046a565b601f01601f1916010190565b906060806104c9845160808552608085019061048d565b936020810151602085015260408101516040850152015191015290565b503461000e576000806003193601126105cf57600e5461050581610dbf565b9061051360405192836106e3565b808252600e835260209283830191817fbb7b4a454dc3493923482f07822329ed19e8244eff582cc204f8554c3620c3fd845b8383106105aa5750505050604051928484019085855251809152604084019460408260051b8601019392955b82871061057e5785850386f35b90919293828061059a600193603f198a820301865288516104b2565b9601920196019592919092610571565b6004886001926105bd859b9a989b6127e0565b81520192019201919096939596610545565b80fd5b6001600160e01b031981160361000e57565b503461000e57602036600319011261000e576020600435610604816105d2565b63ffffffff60e01b16636cdb3d1360e11b8114908115610642575b8115610631575b506040519015158152f35b6301ffc9a760e01b14905038610626565b6303a24d0760e21b8114915061061f565b50634e487b7160e01b600052604160045260246000fd5b60a081019081106001600160401b0382111761068557604052565b61068d610653565b604052565b608081019081106001600160401b0382111761068557604052565b60e081019081106001600160401b0382111761068557604052565b604081019081106001600160401b0382111761068557604052565b90601f801991011681019081106001600160401b0382111761068557604052565b60405190610711826106ad565b565b604051906107118261066a565b6040519061071182610692565b60405190610711826106c8565b6020906001600160401b038111610757575b601f01601f19160190565b61075f610653565b61074c565b81601f8201121561000e5780359061077b8261073a565b9261078960405194856106e3565b8284526020838301011161000e57816000926020809301838601378301015290565b602060031982011261000e57600435906001600160401b03821161000e576107d591600401610764565b90565b503461000e576107e7366107ab565b6107ef613e6d565b80516001600160401b0381116108d4575b6108148161080f600254611523565b6129e7565b602080601f831160011461085157508192600092610846575b5050600019600383901b1c191660019190911b17600255005b01519050388061082d565b6002600052601f198316939091907f405787fa12a823e0f2b7631cc41b3ba8828b3321ca811111fa75cd3aa3bb5ace926000905b8682106108bc57505083600195106108a3575b505050811b01600255005b015160001960f88460031b161c19169055388080610898565b80600185968294968601518155019501930190610885565b6108dc610653565b610800565b503461000e57600036600319011261000e57602060405160038152f35b9060018060a01b0316600052602052604060002090565b503461000e57602036600319011261000e576001600160a01b036109376103fa565b16600052600b6020526020604060002054604051908152f35b503461000e57602036600319011261000e57602061097461096f6103fa565b61267f565b6040519015158152f35b503461000e57600036600319011261000e576020604051600a8152f35b9060206107d592818152019061048d565b503461000e5760208060031936011261000e576040516000916002546109d181611523565b80845290600190818116908115610a4b5750600114610a0b575b610a07846109fb818803826106e3565b6040519182918261099b565b0390f35b919350600260005283600020916000925b828410610a385750505081610a07936109fb92820101936109eb565b8054858501870152928501928101610a1c565b60ff1916858501525050151560051b82010191506109fb81610a076109eb565b9060206107d59281815201906104b2565b503461000e57602036600319011261000e57610a966103fa565b610a9e6127bb565b50610aa88161279a565b15610ae35760018060a01b0316600052600b602052610a07610ad7610ad1604060002054611ec2565b506127e0565b60405191829182610a6b565b60405162461bcd60e51b815260206004820152601960248201527847616d6520746f6b656e20646f65736e27742065786973742160381b6044820152606490fd5b503461000e576020610974610b38366107ab565b612821565b60031115610b4757565b634e487b7160e01b600052602160045260246000fd5b906003821015610b475752565b919091610b78838251610b5d565b6020928382015184820152610b9c604083015161010080604085015283019061048d565b9160608101516060830190956000915b60028310610bf65750505060808101516001600160a01b031660a08301529293506107d59260c09060a08101516001600160a01b03168383015201519060e081840391015261048d565b87516001600160a01b0316815296810196600192909201918101610bac565b9060206107d5928181520190610b6a565b503461000e57610a07610c40610c3b366107ab565b612989565b604051918291602083526020830190610b6a565b503461000e57600036600319011261000e576020600654604051908152f35b503461000e57610c82366107ab565b610c93610c8e3361267f565b612c8b565b610cab610ca6610ca283612821565b1590565b61301b565b6040516020810190610ccf81610cc1858561099b565b03601f1981018352826106e3565b51902090610d39610cde61072d565b3381529260006020850152610cf1612f74565b92610cfa610704565b600081526020810192909252604082018181526060830195865233608084015293600060a084015260c0830152610d33600f5491611e34565b556130bc565b5190516001600160a01b0390610d5a906020015b516001600160a01b031690565b16907f5da93d412071ca49c5b3543268fc9249b407b8de53c1589d76d6532f0a5b7df860405180610d8c33948261099b565b0390a3005b503461000e57610a07610dab610da6366107ab565b6129be565b60405191829160208352602083019061048d565b6020906001600160401b038111610dd8575b60051b0190565b610de0610653565b610dd1565b81601f8201121561000e57803591610dfc83610dbf565b92610e0a60405194856106e3565b808452602092838086019260051b82010192831161000e578301905b828210610e34575050505090565b81358152908301908301610e26565b503461000e5760a036600319011261000e57610e5d6103fa565b610e65610410565b906001600160401b039060443582811161000e57610e87903690600401610de5565b9160643581811161000e57610ea0903690600401610de5565b9060843590811161000e57610eb9903690600401610764565b6001600160a01b038381169491903386148015610fdc575b610eda90614060565b610ee78351855114614197565b8616610ef48115156140c3565b610f00848489886147ef565b60005b8351811015610f965780610f1a610f919286613f83565b51610f8a610f828b6108fe610f2f868c613f83565b51948c610f7187610f4e836108fe866000526000602052604060002090565b54610f5b8282101561411d565b03916108fe846000526000602052604060002090565b556000526000602052604060002090565b91825461418a565b9055612fc4565b610f03565b5093869194610fda966040517f4a39dc06d4c0dbc64b70af90fd698a233a518aa5d07e595d983b8c0526c8f7fb339180610fd18a8a836141f4565b0390a433614701565b005b50600086815260016020908152604080832033845290915290205460ff16610ed1565b503461000e57604036600319011261000e576004356001600160f81b03198116810361000e576024356001600160401b03811161000e57611044903690600401610764565b9061104e82612989565b61106d6001825161105e81610b3d565b61106781610b3d565b146135fc565b61108d6002825161107d81610b3d565b61108681610b3d565b1415613678565b606081015180516110b591906001600160a01b0390811633149182156111ab575b50506136d3565b6110ea6110e36110d760806110c987612989565b01516001600160a01b031690565b6001600160a01b031690565b331461371f565b7f09baee9270c15e7b92d832a35366ae2961b3ef81962655f5885d945b290a3c08610cc161115d60c084019461112a8187516111246133dd565b90613d3d565b90965261113f8615958661118a575b886134e3565b6040516001600160f81b031990911660208201529182906021820190565b611166856129be565b926111786040519283921595836134be565b0390a261118157005b610fda9061379d565b6111a66111968a613761565b6001600160a01b03166080830152565b611139565b60200151166001600160a01b03169050331438806110ae565b503461000e577fa8a13d5362cedeaaf8906a83b0afcab2c07c8bdac8a04ed19d273c4307f260bd6112196111f7366107ab565b6111ff613e6d565b61121061120b82613ca7565b613be0565b610dab81613c3c565b0390a1005b90815180825260208080930193019160005b82811061123e575050505090565b835185529381019392810192600101611230565b9060206107d592818152019061121e565b503461000e57604036600319011261000e576004356001600160401b0380821161000e573660238301121561000e5781600401356112a081610dbf565b926112ae60405194856106e3565b81845260209160248386019160051b8301019136831161000e57602401905b828210611306578560243586811161000e57610a07916112f46112fa923690600401610de5565b90613fa5565b60405191829182611252565b83809161131284610426565b8152019101906112cd565b503461000e57602036600319011261000e57600435600052600460205260206040600020541515604051908152f35b503461000e5760206001600160a01b03608061136a610c3b366107ab565b015116604051908152f35b9060018060a01b03825116815260808061139e602085015160a0602086015260a085019061048d565b9360408101516040850152606081015160608501520151151591015290565b503461000e57602036600319011261000e57610a076113e26113dd6103fa565b6126fd565b604051918291602083526020830190611375565b503461000e576000806003193601126105cf57600f5461141581610dbf565b9061142360405192836106e3565b808252600f835260209283830191817f8d1108e10bcb7c27dddfc02ed9d693a074039d026cf4ea4240b40f7d581ac802845b8383106114ba5750505050604051928484019085855251809152604084019460408260051b8601019392955b82871061148e5785850386f35b9091929382806114aa600193603f198a82030186528851610b6a565b9601920196019592919092611481565b6008886001926114cd859b9a989b6128ff565b81520192019201919096939596611455565b50634e487b7160e01b600052603260045260246000fd5b600f54811015611516575b600f60005260206000209060031b0190600090565b61151e6114df565b611501565b90600182811c92168015611553575b602083101461153d57565b634e487b7160e01b600052602260045260246000fd5b91607f1691611532565b906000929180549161156e83611523565b9182825260019384811690816000146115d05750600114611590575b50505050565b90919394506000526020928360002092846000945b8386106115bc57505050500101903880808061158a565b8054858701830152940193859082016115a5565b9294505050602093945060ff191683830152151560051b0101903880808061158a565b90610711611607926040519384809261155d565b03836106e3565b926107d59694926116228561163894610b5d565b602085015260c0604085015260c084019061048d565b6001600160a01b0391821660608401529316608082015280830360a09091015261048d565b503461000e57602036600319011261000e57600435600f5481101561000e57611685906114f6565b5060ff815416610a0760076001840154936040516116b1816116aa816002860161155d565b03826106e3565b60018060a01b03906116e28260058501541692600685015416936116db604051809781930161155d565b03856106e3565b6040519687968761160e565b50634e487b7160e01b600052600060045260246000fd5b503461000e576000806003193601126105cf576040518160055461172881611523565b808452906001908181169081156117aa575060011461175157610a07846109fb818803826106e3565b60058352602094507f036b6384b5eca791c62761152d0c79bb0604c104a5fb6f4eb0703f3154bb3db05b8284106117975750505081610a07936109fb92820101936109eb565b805485850187015292850192810161177b565b610a0796506109fb9450602092508593915060ff191682840152151560051b820101936109eb565b503461000e57600036600319011261000e57602060405160028152f35b503461000e576000806003193601126105cf5761180a613e6d565b600380546001600160a01b0319811690915581906001600160a01b03167f8be0079c531659141344cd1fd0a4f28419497f9722a3daafe3b4186f6b6457e08280a380f35b503461000e57604036600319011261000e576001600160401b0360043581811161000e57611880903690600401610764565b9060243590811161000e57611899903690600401610764565b6118a23361267f565b611925576118f090600d546118db6118b8610713565b338152856020820152600a60408201526019606082015260006080820152612bbf565b336000908152600a6020526040902055612cd7565b7f81ef79d1cda814a60c0fc60792e648a06d9c6bae67176346d1cc8b63030bfccd6040518061192033948261099b565b0390a2005b60405162461bcd60e51b8152602060048201526019602482015278141b185e595c88185b1c9958591e481c9959da5cdd195c9959603a1b6044820152606490fd5b503461000e57602036600319011261000e576001600160a01b036119886103fa565b16600052600a6020526020604060002054604051908152f35b503461000e57600036600319011261000e576003546040516001600160a01b039091168152602090f35b503461000e57611a096119dd366107ab565b610c3b816040516119ed816106c8565b600a81526971756974426174746c6560b01b602082015261486c565b60608101908151611a2f60018060a01b0391828151163314908115611a5b575b5061391a565b82515116338103611a515750611a4c610d4d610fda935160200190565b6139c0565b610fda92506139c0565b6020015133915083166001600160a01b03161438611a29565b503461000e57600036600319011261000e57602060405160058152f35b503461000e57610fda611aa3366107ab565b612cd7565b503461000e57610a07611aba366107ab565b611ac2612834565b50611acc81612989565b90611aea8251611adb81610b3d565b611ae481610b3d565b156131ae565b606082018051517fcb17c4d26368c123b39a5b879cf729cad76aa10dfe5b9cd5355296f2732b8603906001600160a01b0390611b2a9082163314156131f4565b611b4a611b45610ca26080611b3e336126fd565b0151151590565b61324a565b60018552611b6c33611b5d855160200190565b6001600160a01b039091169052565b825151611b8d906001600160a01b03165b6001600160a01b03166080870152565b611c0f611c09611c04611bdd6020611bb26110d76110d760075460018060a01b031690565b611bbb8a611e34565b549060405180809581946325e41da160e01b8352600483019190602083019252565b03915afa908115611d13575b600091611ce5575b506008546020811015611cdc5790612ec6565b6132a6565b506132cf565b611c3085611c23611c1e6133dd565b613588565b9560c082019687526134e3565b611c428451611c3d613498565b61486c565b825151611c8d90600490611c7e90611c78906001600160a01b03165b6001600160a01b03166000908152600a6020526040902090565b546125ae565b5001805460ff19166001179055565b611ca66004611c7e611c78611c5e610d4d885160200190565b60408501519251516001600160a01b0316935190611ccd60405192839233971695836134be565b0390a360405191829182610c15565b50602090612ec6565b611d06915060203d8111611d0c575b611cfe81836106e3565b81019061328a565b38611bf1565b503d611cf4565b611d1b613299565b611be9565b503461000e57604036600319011261000e57611d3a6103fa565b602435801515810361000e576001600160a01b03821691338314611dc6573360009081526001602090815260408083206001600160a01b03909416835292905220611d90908260ff801983541691151516179055565b604051901515815233907f17307eab39ab6107e8899845ad3d59bd9653f200f220920489ca2b5937696c31908060208101610d8c565b60405162461bcd60e51b815260206004820152602960248201527f455243313135353a2073657474696e6720617070726f76616c20737461747573604482015268103337b91039b2b63360b91b6064820152608490fd5b90611e306020928281519485920161046a565b0190565b6020611e4d91816040519382858094519384920161046a565b8101600c81520301902090565b503461000e576020611e8281611e6f366107ab565b816040519382858094519384920161046a565b8101600c81520301902054604051908152f35b503461000e57602036600319011261000e5760043560005260046020526020604060002054604051908152f35b600e54811015611ee2575b600e60005260206000209060021b0190600090565b611eea6114df565b611ecd565b503461000e57602036600319011261000e57600435600e5481101561000e57611f1a611f5291611ec2565b5060405190611f2d82611607818461155d565b600181015490600360028201549101549060405194859460808652608086019061048d565b926020850152604084015260608301520390f35b503461000e57602036600319011261000e576020610974611f856103fa565b61279a565b503461000e5760208060031936011261000e57611fa8600435613b0e565b60405190600092600554611fbb81611523565b906001908181169081156120435750600114612002575b602f60f81b8652610a07856109fb81610cc1611ff160018c018a611e1d565b64173539b7b760d91b815260050190565b90919450600560005284600020906000915b8383106120305750505082019092019181610cc1611ff1611fd2565b8054868401880152918601918101612014565b60ff191684870152505080151502830101925081610cc1611ff1611fd2565b503461000e57610a07612074366107ab565b61208061120b82613ca7565b6007546040516325e41da160e01b8152600060048201526109fb916120dd916120d791611c049190602090829060249082906001600160a01b03165afa908115612101575b6000916120e3575b5060085490612ec6565b506115f3565b91613c3c565b6120fb915060203d8111611d0c57611cfe81836106e3565b386120cd565b612109613299565b6120c5565b503461000e57600036600319011261000e57602060405160008152f35b503461000e57600036600319011261000e57602060405160018152f35b503461000e57604036600319011261000e57602060ff61219a6121696103fa565b612171610410565b6001600160a01b0391821660009081526001865260408082209290931681526020919091522090565b54166040519015158152f35b503461000e576000806003193601126105cf57600d546121c581610dbf565b906121d360405192836106e3565b808252600d835260209283830191817fd7b6990105719101dabeb77144f2a3385c8033acd3af97e9423a695e81ad1eb5845b83831061226a5750505050604051928484019085855251809152604084019460408260051b8601019392955b82871061223e5785850386f35b90919293828061225a600193603f198a82030186528851611375565b9601920196019592919092612231565b60058860019261227d859b9a989b6126a5565b81520192019201919096939596612205565b503461000e57600036600319011261000e57602060405160048152f35b503461000e5760a036600319011261000e576122c66103fa565b6122ce610410565b6064356044356084356001600160401b03811161000e576122f3903690600401610764565b6001600160a01b03858116959194919033871480156124c7575b61231690614060565b821680159661232588156140c3565b61232e8561476d565b976123388761476d565b90821561246b575b6123e9575b50610fda975085612364846108fe886000526000602052604060002090565b546123718282101561411d565b0361238a846108fe886000526000602052604060002090565b556123a3846108fe876000526000602052604060002090565b6123ae87825461418a565b9055604080518681526020810188905233917fc3d58168c5ae7397731d063d5bbf3d657854427343f4c083240f7aacaa2d0f6291a4336145db565b959391600097959391975b8951811015612458578061240b612453928c613f83565b5161244d612419838c613f83565b5161242e836000526004602052604060002090565b5461243b82821015614792565b03916000526004602052604060002090565b55612fc4565b6123f4565b5091939550919395610fda975038612345565b9896939095926000989592985b88518110156124b7578089610f8a610f826124a18461249a6124b2978f613f83565b5194613f83565b516000526004602052604060002090565b612478565b5092959093969897919497612340565b50600087815260016020908152604080832033845290915290205460ff1661230d565b503461000e57602036600319011261000e576125046103fa565b61250c613e6d565b6001600160a01b0390811690811561255a57600380546001600160a01b031981168417909155167f8be0079c531659141344cd1fd0a4f28419497f9722a3daafe3b4186f6b6457e0600080a3005b60405162461bcd60e51b815260206004820152602660248201527f4f776e61626c653a206e6577206f776e657220697320746865207a65726f206160448201526564647265737360d01b6064820152608490fd5b600d548110156125ce575b600d6000526005602060002091020190600090565b6125d66114df565b6125b9565b93906080939695926126029160018060a01b0316865260a0602087015260a086019061048d565b95604085015260608401521515910152565b503461000e57602036600319011261000e57600435600d5481101561000e5761263c906125ae565b5060018060a01b03815416610a076040519261265f846116db816001850161155d565b60028101549060ff600460038301549201541691604051958695866125db565b6001600160a01b03166000908152600a60205260409020546126a057600090565b600190565b906040516126b28161066a565b608060ff6004839560018060a01b0381541685526040516126da816116aa816001860161155d565b602086015260028101546040860152600381015460608601520154161515910152565b6000608060405161270d8161066a565b82815260606020820152826040820152826060820152015261272e8161267f565b1561275d576001600160a01b03166000908152600a602052604090206107d59061275790611c78565b506126a5565b60405162461bcd60e51b8152602060048201526015602482015274506c6179657220646f65736e27742065786973742160581b6044820152606490fd5b6001600160a01b03166000908152600b60205260409020546126a057600090565b604051906127c882610692565b60006060838181528260208201528260408201520152565b906040516127ed81610692565b606060038294604051612804816116aa818561155d565b845260018101546020850152600281015460408501520154910152565b61282a90611e34565b546126a057600090565b60405190612841826106ad565b606060c0836000815260006020820152826040820152604051612863816106c8565b60403682378382015260006080820152600060a08201520152565b1561288557565b60405162461bcd60e51b8152602060048201526015602482015274426174746c6520646f65736e27742065786973742160581b6044820152606490fd5b60405191906000835b600282106128df57505050610711826106c8565b82546001600160a01b0316815260019283019291909101906020016128cb565b9060405161290c816106ad565b809260ff815416906003821015610b475760076129849160c09385526001810154602086015261293e600282016115f3565b604086015261294f600382016128c2565b6060860152600581015461296b906001600160a01b0316611b7d565b60068101546001600160a01b031660a0860152016115f3565b910152565b6129b86129b26107d59261299b612834565b506129ad6129a882612821565b61287e565b611e34565b546114f6565b506128ff565b6107d56129d66129b26007936129ad6129a882612821565b506116aa604051809481930161155d565b601f81116129f3575050565b6000906002825260208220906020601f850160051c83019410612a31575b601f0160051c01915b828110612a2657505050565b818155600101612a1a565b9092508290612a11565b601f8111612a47575050565b6000906009825260208220906020601f850160051c83019410612a85575b601f0160051c01915b828110612a7a57505050565b818155600101612a6e565b9092508290612a65565b90601f8111612a9d57505050565b600091825260208220906020601f850160051c83019410612ad9575b601f0160051c01915b828110612ace57505050565b818155600101612ac2565b9092508290612ab9565b91909182516001600160401b038111612bb2575b612b0b81612b058454611523565b84612a8f565b602080601f8311600114612b47575081929394600092612b3c575b50508160011b916000199060031b1c1916179055565b015190503880612b26565b90601f19831695612b5d85600052602060002090565b926000905b888210612b9a57505083600195969710612b81575b505050811b019055565b015160001960f88460031b161c19169055388080612b77565b80600185968294968601518155019501930190612b62565b612bba610653565b612af7565b6107119060046080600d54600160401b811015612c7e575b6001810180600d55811015612c71575b600d60005283516005919091027fd7b6990105719101dabeb77144f2a3385c8033acd3af97e9423a695e81ad1eb50180546001600160a01b0319166001600160a01b039290921691909117815592612c46602082015160018601612ae3565b60408101516002850155606081015160038501550151151591019060ff801983541691151516179055565b612c796114df565b612be7565b612c86610653565b612bd7565b15612c9257565b60405162461bcd60e51b815260206004820152601c60248201527f506c6561736520526567697374657220506c61796572204669727374000000006044820152606490fd5b6080612ce2336126fd565b0151612e4057612cf4610c8e3361267f565b612cfc6127bb565b50612d0633612fd4565b612d0f81612e94565b600660ff612d59612d536040516020810190612d4981610cc1334286909160349282526001600160601b03199060601b1660208201520190565b5190206064900690565b60ff1690565b16069160ff831615612e0b575b612dd97fca8ab07e9ed17d119729fc652dd24df9d8430ca862dda4631925b5b4b99da3629394612d94610720565b90815260ff861690816020820152836040820152846060820152612dba600e5491612f00565b336000908152600b6020526040902055612dd2612fa5565b9033614219565b612dec612de7600654612fc4565b600655565b6040805160ff95909516855260208501919091528301523391606090a2565b612dd9612e387fca8ab07e9ed17d119729fc652dd24df9d8430ca862dda4631925b5b4b99da36294612ee6565b935050612d66565b60405162461bcd60e51b8152602060048201526015602482015274506c6179657220697320696e206120626174746c6560581b6044820152606490fd5b50634e487b7160e01b600052601160045260246000fd5b600a0390600a8211612ea257565b610711612e7d565b600019810191908211612ea257565b91908203918211612ea257565b8115612ed0570690565b634e487b7160e01b600052601260045260246000fd5b60ff6001911660ff8114612ef8570190565b611e30612e7d565b60036060600e54600160401b811015612f67575b6001810180600e55811015612f5a575b600e60005260206000209060021b0192612f3f815185612ae3565b60208101516001850155604081015160028501550151910155565b612f626114df565b612f24565b612f6f610653565b612f14565b60405190602082018281106001600160401b03821117612f98575b60405260008252565b612fa0610653565b612f8f565b60405190612fb2826106c8565b600382526203078360ec1b6020830152565b6001906000198114612ef8570190565b600a9060405160208101914483524260408301526001600160601b03199060601b1660608201526054815261300881610692565b5190200680156130155790565b50600590565b1561302257565b60405162461bcd60e51b8152602060048201526016602482015275426174746c6520616c7265616479206578697374732160501b6044820152606490fd5b906003811015610b475760ff80198354169116179055565b90600a820291808304600a1490151715612ea257565b9060005b6002811061309f57505050565b81516001600160a01b031681840155602090910190600101613092565b600f54600160401b8110156131a1575b6001810180600f55811015613194575b600f600052815191600391821b7f8d1108e10bcb7c27dddfc02ed9d693a074039d026cf4ea4240b40f7d581ac8020191831015610b475760c06007916131256107119585613060565b60208101516001850155613140604082015160028601612ae3565b61315160608201516003860161308e565b60808101516005850180546001600160a01b039283166001600160a01b03199182161790915560a083015160068701805491909316911617905501519101612ae3565b61319c6114df565b6130dc565b6131a9610653565b6130cc565b156131b557565b60405162461bcd60e51b8152602060048201526017602482015276426174746c6520616c726561647920737461727465642160481b6044820152606490fd5b156131fb57565b60405162461bcd60e51b815260206004820152602160248201527f4f6e6c7920706c617965722074776f2063616e206a6f696e206120626174746c6044820152606560f81b6064820152608490fd5b1561325157565b60405162461bcd60e51b8152602060048201526011602482015270416c726561647920696e20626174746c6560781b6044820152606490fd5b9081602091031261000e575190565b506040513d6000823e3d90fd5b6008548110156132c2575b600860005260206000200190600090565b6132ca6114df565b6132b1565b90816009146133d9576132e28254611523565b6001600160401b0381116133cc575b61330581613300600954611523565b612a3b565b6000601f821160011461333f57819293600092613334575b50508160011b916000199060031b1c191617600955565b01549050388061331d565b613353601f19831694600052602060002090565b6009600052907f6e1540171b6c0c960b71a7020d9f60077f6af931a8bbf590da0223dacf75c7af91815b8681106133b4575083600195961061339b575b505050811b01600955565b015460001960f88460031b161c19169055388080613390565b8183015484556001938401939092019160200161337d565b6133d4610653565b6132f1565b9050565b60405190600082600954916133f183611523565b8083526001938085169081156134775750600114613417575b50610711925003836106e3565b600960009081527f6e1540171b6c0c960b71a7020d9f60077f6af931a8bbf590da0223dacf75c7af94602093509091905b81831061345f57505061071193508201013861340a565b85548884018501529485019487945091830191613448565b905061071194506020925060ff191682840152151560051b8201013861340a565b604051906134a5826106c8565b600a8252691b585cdad95915dbdc9960b21b6020830152565b90916134d56107d59360408452604084019061048d565b91602081840391015261048d565b6134ec81612821565b1561352d576129b26134fd91611e34565b613520575b8151916003831015610b475760c06007916131256107119585613060565b6135286116ee565b613502565b60405162461bcd60e51b815260206004820152601460248201527310985d1d1b1948191bd95cdb89dd08195e1a5cdd60621b6044820152606490fd5b90602091805182101561357b57010190565b6135836114df565b010190565b600180805b61359657505090565b82518110156135f7576135d2906001600160f81b0319806135b78387613569565b5116908551156135ea575b602086015116036135d857612fc4565b8161358d565b605f6135e48286613569565b53612fc4565b6135f26114df565b6135c2565b505090565b1561360357565b60405162461bcd60e51b815260206004820152604160248201527f426174746c65206e6f7420737461727465642e20506c656173652074656c6c2060448201527f616e6f7468657220706c6179657220746f206a6f696e2074686520626174746c6064820152606560f81b608482015260a490fd5b1561367f57565b60405162461bcd60e51b815260206004820152602660248201527f63686f73656e4c65747465723a20426174746c652068617320616c726561647960448201526508195b99195960d21b6064820152608490fd5b156136da57565b60405162461bcd60e51b815260206004820152601a60248201527f596f7520617265206e6f7420696e207468697320626174746c650000000000006044820152606490fd5b1561372657565b60405162461bcd60e51b815260206004820152601360248201527224ba1034b9903737ba103cb7bab9103a3ab93760691b6044820152606490fd5b606061376c82612989565b0160018060a01b0391826080613786828551511693612989565b015116036137975751602001511690565b51511690565b6137a690612989565b6060810180519060018060a01b039182808251163314918215613909575b5050156138b0575133828251161491821561389e575b505015613846576137f660c08201516137f16133dd565b613df1565b60405181151581527f589068fcf2fbda53e0b05d6b1160908791495e6ba7d7e49e11a03c289ad55b4190602090a161382b5750565b608081015161384391906001600160a01b03166139c0565b50565b60405162461bcd60e51b815260206004820152602a60248201527f5f7265736f6c7665426174746c653a596f7520617265206e6f7420696e207468604482015269697320626174746c652160b01b6064820152608490fd5b909150602033920151161438806137da565b60405162461bcd60e51b815260206004820152602b60248201527f4f6e6c7920706c617965727320696e207468697320626174746c652063616e2060448201526a6d616b652061206d6f766560a81b6064820152608490fd5b6020919250015116331482386137c4565b1561392157565b60405162461bcd60e51b815260206004820152602660248201527f71756974426174746c653a596f7520617265206e6f7420696e207468697320626044820152656174746c652160d01b6064820152608490fd5b1561397c57565b606460405162461bcd60e51b815260206004820152602060248201527f5f656e64426174746c653a20426174746c6520616c726561647920656e6465646044820152fd5b6139c8612834565b506139e9600283516139d981610b3d565b6139e281610b3d565b1415613975565b600282526001600160a01b03811660a08301526040820190613a0c8383516134e3565b6060830190613a5f6004613a4e613a2e611c5e865160018060a01b0390511690565b54613a5a83613a4e613a47611c5e610d4d8b5160200190565b54936125ae565b5001805460ff19169055565b6125ae565b6000926001600160a01b039182169283613ab1575b50907fae6e5eafb6cd1cb4b139e7a0b9140aa182ee7d50e99f50d660156f79212acbc0915193613aab60405192839216958261099b565b0390a390565b5180519194507fae6e5eafb6cd1cb4b139e7a0b9140aa182ee7d50e99f50d660156f79212acbc092918291908216858103613af5575060200151165b939091613a74565b915050613aed565b60ff166030019060ff8211612ea257565b8015613bc2578060008281935b613bae575081613b2a8461073a565b93613b3860405195866106e3565b808552601f19613b478261073a565b01366020870137905b613b5a5750505090565b613b6390612eaa565b9182613ba6613b9d613b8d613b88612d53600a870496613b8288613078565b90612eb9565b613afd565b60f81b6001600160f81b03191690565b841a9186613569565b539182613b50565b92613bba600a91612fc4565b930480613b1b565b50604051613bcf816106c8565b60018152600360fc1b602082015290565b15613be757565b60405162461bcd60e51b815260206004820152602760248201527f4572726f722c20776f72642077697468206c6f77657263617365206c657474656044820152667273206f6e6c7960c81b6064820152608490fd5b6008546107119190600160401b811015613c9a575b6001810180600855811015613c8d575b60086000527ff3f7a9fe364faab93b216da50a3214154f22a0a2b415b23a84c8169e8b636ee301612ae3565b613c956114df565b613c61565b613ca2610653565b613c51565b6000805b60ff81166020811080613cff575b15613cf657613cdd906001600160f81b031990613cd69086613569565b5116613d09565b15613cf057613ceb90612ee6565b613cab565b50905090565b50505050600190565b5083518110613cb9565b60ff60f81b16606160f81b8110159081613d2e575b5015613d2957600190565b600090565b603d60f91b1015905038613d1e565b929160019160009183908390825b613d5a575b5050505090509190565b60ff86166020811080613de7575b15613de1576001600160f81b031980613d818388613569565b5116818416149081613dc7575b50613da9575b50613da183949596612ee6565b959493613d4b565b83949550613dba82841a918a613569565b53613da183959450613d94565b605f60f81b9150613dd8838c613569565b51161438613d8e565b50613d50565b5084518110613d68565b600180926000908282905b613e09575b505050505090565b60ff81166020811080613e63575b15613e5d576001600160f81b0319613e3c81613e33848a613569565b51169285613569565b511603613e53575b613e4d90612ee6565b83613dfc565b9194508491613e44565b50613e01565b5085518110613e17565b6003546001600160a01b03163303613e8157565b606460405162461bcd60e51b815260206004820152602060248201527f4f776e61626c653a2063616c6c6572206973206e6f7420746865206f776e65726044820152fd5b6001600160a01b03811615613ef9576000918252602082815260408084206001600160a01b03909316845291905290205490565b60405162461bcd60e51b815260206004820152602a60248201527f455243313135353a2061646472657373207a65726f206973206e6f742061207660448201526930b634b21037bbb732b960b11b6064820152608490fd5b90613f5b82610dbf565b613f6860405191826106e3565b8281528092613f79601f1991610dbf565b0190602036910137565b6020918151811015613f98575b60051b010190565b613fa06114df565b613f90565b919091805183510361400957613fbb8151613f51565b9060005b81518110156140025780613fed613fdc610d4d613ffd9486613f83565b613fe68389613f83565b5190613ec5565b613ff78286613f83565b52612fc4565b613fbf565b5090925050565b60405162461bcd60e51b815260206004820152602960248201527f455243313135353a206163636f756e747320616e6420696473206c656e677468604482015268040dad2e6dac2e8c6d60bb1b6064820152608490fd5b1561406757565b60405162461bcd60e51b815260206004820152602e60248201527f455243313135353a2063616c6c6572206973206e6f7420746f6b656e206f776e60448201526d195c881bdc88185c1c1c9bdd995960921b6064820152608490fd5b156140ca57565b60405162461bcd60e51b815260206004820152602560248201527f455243313135353a207472616e7366657220746f20746865207a65726f206164604482015264647265737360d81b6064820152608490fd5b1561412457565b60405162461bcd60e51b815260206004820152602a60248201527f455243313135353a20696e73756666696369656e742062616c616e636520666f60448201526939103a3930b739b332b960b11b6064820152608490fd5b9060018201809211612ea257565b91908201809211612ea257565b1561419e57565b60405162461bcd60e51b815260206004820152602860248201527f455243313135353a2069647320616e6420616d6f756e7473206c656e677468206044820152670dad2e6dac2e8c6d60c31b6064820152608490fd5b909161420b6107d59360408452604084019061121e565b91602081840391015261121e565b926001600160a01b0384169283156142da576142348361476d565b9261423d61473b565b9560005b855181101561426e5780614258614269928a613f83565b51610f8a610f826124a1848b613f83565b614241565b5091935091945061071193614291826108fe856000526000602052604060002090565b61429b815461417c565b9055604080518481526001602082015260009133917fc3d58168c5ae7397731d063d5bbf3d657854427343f4c083240f7aacaa2d0f629190a433614477565b60405162461bcd60e51b815260206004820152602160248201527f455243313135353a206d696e7420746f20746865207a65726f206164647265736044820152607360f81b6064820152608490fd5b9081602091031261000e57516107d5816105d2565b6107d5939260a092600180851b0316825260006020830152604082015260016060820152816080820152019061048d565b91926107d595949160a094600180871b03809216855216602084015260408301526060820152816080820152019061048d565b60809060208152602860208201527f455243313135353a204552433131353552656365697665722072656a656374656040820152676420746f6b656e7360c01b60608201520190565b60009060033d116143f857565b905060046000803e60005160e01c90565b600060443d106107d557604051600319913d83016004833e81516001600160401b03918282113d6024840111176144665781840194855193841161446e573d8501016020848701011161446657506107d5929101602001906106e3565b949350505050565b50949350505050565b92919091823b6144875750505050565b6144ae92602092600060405180968195829463f23a6e6160e01b9a8b85526004850161433e565b03926001600160a01b03165af1600091816145ab575b5061458357505060016144d56143eb565b6308c379a014614554575b6144ee575b3880808061158a565b60405162461bcd60e51b815260206004820152603460248201527f455243313135353a207472616e7366657220746f206e6f6e2d455243313135356044820152732932b1b2b4bb32b91034b6b83632b6b2b73a32b960611b6064820152608490fd5b0390fd5b61455c614409565b8061456757506144e0565b60405162461bcd60e51b8152908190614550906004830161099b565b6001600160e01b031916146144e55760405162461bcd60e51b815280614550600482016143a2565b6145cd91925060203d81116145d4575b6145c581836106e3565b810190614329565b90386144c4565b503d6145bb565b9493919092813b6145ef575b505050505050565b60006020946146166040519788968795869463f23a6e6160e01b9c8d87526004870161436f565b03926001600160a01b03165af160009181614693575b5061466b575050600161463d6143eb565b6308c379a014614658575b6144ee575b3880808080806145e7565b614660614409565b806145675750614648565b6001600160e01b0319161461464d5760405162461bcd60e51b815280614550600482016143a2565b6146ac91925060203d81116145d4576145c581836106e3565b903861462c565b93906107d595936146e5916146f39460018060a01b03809216885216602087015260a0604087015260a086019061121e565b90848203606086015261121e565b91608081840391015261048d565b9493919092813b61471457505050505050565b60006020946146166040519788968795869463bc197c8160e01b9c8d8752600487016146b3565b604051614747816106c8565b600181526001602082016020368237825115614761575290565b6147696114df565b5290565b6040519061477a826106c8565b60018252602082016020368237825115614761575290565b1561479957565b60405162461bcd60e51b815260206004820152602860248201527f455243313135353a206275726e20616d6f756e74206578636565647320746f74604482015267616c537570706c7960c01b6064820152608490fd5b919392916001600160a01b039190821615614843575b161561481057509050565b60005b835181101561483d578061482a6148389286613f83565b5161244d6124198386613f83565b614813565b50509050565b929060005b8551811015614864578061425861485f9286613f83565b614848565b509092614805565b60009190610cc161489684936040519283916020830195634b5c427760e01b8752602484016134be565b51906a636f6e736f6c652e6c6f675afa5056fea264697066735822122036c2eeae78b28770780d2cee6fc39e49fccac81f3fad57b105077d0ae7a8fbff64736f6c63430008110033405787fa12a823e0f2b7631cc41b3ba8828b3321ca811111fa75cd3aa3bb5ace",
  "linkReferences": {},
  "deployedLinkReferences": {}
}