{
  "_format": "hh-sol-artifact-1",
  "contractName": "Penduel",
  "sourceName": "contracts/Penduel.sol",
  "abi": [
    {
      "inputs": [
        {
          "internalType": "string",
          "name": "_metadataURI",
          "type": "string"
        }
      ],
      "stateMutability": "nonpayable",
      "type": "constructor"
    },
    {
      "anonymous": false,
      "inputs": [
        {
          "indexed": true,
          "internalType": "address",
          "name": "account",
          "type": "address"
        },
        {
          "indexed": true,
          "internalType": "address",
          "name": "operator",
          "type": "address"
        },
        {
          "indexed": false,
          "internalType": "bool",
          "name": "approved",
          "type": "bool"
        }
      ],
      "name": "ApprovalForAll",
      "type": "event"
    },
    {
      "anonymous": false,
      "inputs": [
        {
          "indexed": false,
          "internalType": "string",
          "name": "battleName",
          "type": "string"
        },
        {
          "indexed": true,
          "internalType": "address",
          "name": "player1",
          "type": "address"
        },
        {
          "indexed": true,
          "internalType": "address",
          "name": "player2",
          "type": "address"
        },
        {
          "indexed": false,
          "internalType": "string",
          "name": "_maskedWord",
          "type": "string"
        }
      ],
      "name": "BattleBegin",
      "type": "event"
    },
    {
      "anonymous": false,
      "inputs": [
        {
          "indexed": false,
          "internalType": "string",
          "name": "battleName",
          "type": "string"
        },
        {
          "indexed": true,
          "internalType": "address",
          "name": "player1",
          "type": "address"
        },
        {
          "indexed": true,
          "internalType": "address",
          "name": "player2",
          "type": "address"
        }
      ],
      "name": "BattleCreate",
      "type": "event"
    },
    {
      "anonymous": false,
      "inputs": [
        {
          "indexed": false,
          "internalType": "string",
          "name": "battleName",
          "type": "string"
        },
        {
          "indexed": true,
          "internalType": "address",
          "name": "winner",
          "type": "address"
        },
        {
          "indexed": true,
          "internalType": "address",
          "name": "loser",
          "type": "address"
        }
      ],
      "name": "BattleEnded",
      "type": "event"
    },
    {
      "anonymous": false,
      "inputs": [
        {
          "indexed": true,
          "internalType": "bool",
          "name": "_findNewLetter",
          "type": "bool"
        },
        {
          "indexed": false,
          "internalType": "string",
          "name": "_maskedWord",
          "type": "string"
        }
      ],
      "name": "BattleLetter",
      "type": "event"
    },
    {
      "anonymous": false,
      "inputs": [
        {
          "indexed": true,
          "internalType": "address",
          "name": "owner",
          "type": "address"
        },
        {
          "indexed": false,
          "internalType": "uint256",
          "name": "id",
          "type": "uint256"
        },
        {
          "indexed": false,
          "internalType": "uint256",
          "name": "attackStrength",
          "type": "uint256"
        },
        {
          "indexed": false,
          "internalType": "uint256",
          "name": "defenseStrength",
          "type": "uint256"
        }
      ],
      "name": "NewGameToken",
      "type": "event"
    },
    {
      "anonymous": false,
      "inputs": [
        {
          "indexed": true,
          "internalType": "address",
          "name": "owner",
          "type": "address"
        },
        {
          "indexed": false,
          "internalType": "string",
          "name": "playerName",
          "type": "string"
        }
      ],
      "name": "NewPlayer",
      "type": "event"
    },
    {
      "anonymous": false,
      "inputs": [
        {
          "indexed": true,
          "internalType": "address",
          "name": "previousOwner",
          "type": "address"
        },
        {
          "indexed": true,
          "internalType": "address",
          "name": "newOwner",
          "type": "address"
        }
      ],
      "name": "OwnershipTransferred",
      "type": "event"
    },
    {
      "anonymous": false,
      "inputs": [
        {
          "indexed": false,
          "internalType": "bool",
          "name": "_wordIsFind",
          "type": "bool"
        }
      ],
      "name": "RoundEnded",
      "type": "event"
    },
    {
      "anonymous": false,
      "inputs": [
        {
          "indexed": true,
          "internalType": "address",
          "name": "operator",
          "type": "address"
        },
        {
          "indexed": true,
          "internalType": "address",
          "name": "from",
          "type": "address"
        },
        {
          "indexed": true,
          "internalType": "address",
          "name": "to",
          "type": "address"
        },
        {
          "indexed": false,
          "internalType": "uint256[]",
          "name": "ids",
          "type": "uint256[]"
        },
        {
          "indexed": false,
          "internalType": "uint256[]",
          "name": "values",
          "type": "uint256[]"
        }
      ],
      "name": "TransferBatch",
      "type": "event"
    },
    {
      "anonymous": false,
      "inputs": [
        {
          "indexed": true,
          "internalType": "address",
          "name": "operator",
          "type": "address"
        },
        {
          "indexed": true,
          "internalType": "address",
          "name": "from",
          "type": "address"
        },
        {
          "indexed": true,
          "internalType": "address",
          "name": "to",
          "type": "address"
        },
        {
          "indexed": false,
          "internalType": "uint256",
          "name": "id",
          "type": "uint256"
        },
        {
          "indexed": false,
          "internalType": "uint256",
          "name": "value",
          "type": "uint256"
        }
      ],
      "name": "TransferSingle",
      "type": "event"
    },
    {
      "anonymous": false,
      "inputs": [
        {
          "indexed": false,
          "internalType": "string",
          "name": "value",
          "type": "string"
        },
        {
          "indexed": true,
          "internalType": "uint256",
          "name": "id",
          "type": "uint256"
        }
      ],
      "name": "URI",
      "type": "event"
    },
    {
      "anonymous": false,
      "inputs": [
        {
          "indexed": false,
          "internalType": "string",
          "name": "wordToAdd",
          "type": "string"
        }
      ],
      "name": "WordAdded",
      "type": "event"
    },
    {
      "inputs": [],
      "name": "CELESTION",
      "outputs": [
        {
          "internalType": "uint256",
          "name": "",
          "type": "uint256"
        }
      ],
      "stateMutability": "view",
      "type": "function"
    },
    {
      "inputs": [],
      "name": "DEVIL",
      "outputs": [
        {
          "internalType": "uint256",
          "name": "",
          "type": "uint256"
        }
      ],
      "stateMutability": "view",
      "type": "function"
    },
    {
      "inputs": [],
      "name": "FIREBIRD",
      "outputs": [
        {
          "internalType": "uint256",
          "name": "",
          "type": "uint256"
        }
      ],
      "stateMutability": "view",
      "type": "function"
    },
    {
      "inputs": [],
      "name": "GRIFFIN",
      "outputs": [
        {
          "internalType": "uint256",
          "name": "",
          "type": "uint256"
        }
      ],
      "stateMutability": "view",
      "type": "function"
    },
    {
      "inputs": [],
      "name": "KAMO",
      "outputs": [
        {
          "internalType": "uint256",
          "name": "",
          "type": "uint256"
        }
      ],
      "stateMutability": "view",
      "type": "function"
    },
    {
      "inputs": [],
      "name": "KUKULKAN",
      "outputs": [
        {
          "internalType": "uint256",
          "name": "",
          "type": "uint256"
        }
      ],
      "stateMutability": "view",
      "type": "function"
    },
    {
      "inputs": [],
      "name": "MAX_ATTACK_DEFEND_STRENGTH",
      "outputs": [
        {
          "internalType": "uint256",
          "name": "",
          "type": "uint256"
        }
      ],
      "stateMutability": "view",
      "type": "function"
    },
    {
      "inputs": [
        {
          "internalType": "string",
          "name": "_wordToAdd",
          "type": "string"
        }
      ],
      "name": "addWord",
      "outputs": [],
      "stateMutability": "nonpayable",
      "type": "function"
    },
    {
      "inputs": [
        {
          "internalType": "address",
          "name": "account",
          "type": "address"
        },
        {
          "internalType": "uint256",
          "name": "id",
          "type": "uint256"
        }
      ],
      "name": "balanceOf",
      "outputs": [
        {
          "internalType": "uint256",
          "name": "",
          "type": "uint256"
        }
      ],
      "stateMutability": "view",
      "type": "function"
    },
    {
      "inputs": [
        {
          "internalType": "address[]",
          "name": "accounts",
          "type": "address[]"
        },
        {
          "internalType": "uint256[]",
          "name": "ids",
          "type": "uint256[]"
        }
      ],
      "name": "balanceOfBatch",
      "outputs": [
        {
          "internalType": "uint256[]",
          "name": "",
          "type": "uint256[]"
        }
      ],
      "stateMutability": "view",
      "type": "function"
    },
    {
      "inputs": [],
      "name": "baseURI",
      "outputs": [
        {
          "internalType": "string",
          "name": "",
          "type": "string"
        }
      ],
      "stateMutability": "view",
      "type": "function"
    },
    {
      "inputs": [
        {
          "internalType": "string",
          "name": "",
          "type": "string"
        }
      ],
      "name": "battleIndex",
      "outputs": [
        {
          "internalType": "uint256",
          "name": "",
          "type": "uint256"
        }
      ],
      "stateMutability": "view",
      "type": "function"
    },
    {
      "inputs": [
        {
          "internalType": "uint256",
          "name": "",
          "type": "uint256"
        }
      ],
      "name": "battles",
      "outputs": [
        {
          "internalType": "enum Penduel.BattleStatus",
          "name": "battleStatus",
          "type": "uint8"
        },
        {
          "internalType": "bytes32",
          "name": "battleHash",
          "type": "bytes32"
        },
        {
          "internalType": "string",
          "name": "name",
          "type": "string"
        },
        {
          "internalType": "address",
          "name": "activePlayer",
          "type": "address"
        },
        {
          "internalType": "address",
          "name": "winner",
          "type": "address"
        },
        {
          "internalType": "bytes",
          "name": "maskedWord",
          "type": "bytes"
        }
      ],
      "stateMutability": "view",
      "type": "function"
    },
    {
      "inputs": [
        {
          "internalType": "bytes1",
          "name": "_letter",
          "type": "bytes1"
        },
        {
          "internalType": "string",
          "name": "_battleName",
          "type": "string"
        }
      ],
      "name": "chosenLetter",
      "outputs": [],
      "stateMutability": "nonpayable",
      "type": "function"
    },
    {
      "inputs": [
        {
          "internalType": "string",
          "name": "_battleName",
          "type": "string"
        }
      ],
      "name": "createBattle",
      "outputs": [],
      "stateMutability": "nonpayable",
      "type": "function"
    },
    {
      "inputs": [
        {
          "internalType": "string",
          "name": "_battleName",
          "type": "string"
        }
      ],
      "name": "createRandomGameToken",
      "outputs": [],
      "stateMutability": "nonpayable",
      "type": "function"
    },
    {
      "inputs": [
        {
          "internalType": "uint256",
          "name": "id",
          "type": "uint256"
        }
      ],
      "name": "exists",
      "outputs": [
        {
          "internalType": "bool",
          "name": "",
          "type": "bool"
        }
      ],
      "stateMutability": "view",
      "type": "function"
    },
    {
      "inputs": [
        {
          "internalType": "uint256",
          "name": "",
          "type": "uint256"
        }
      ],
      "name": "gameTokens",
      "outputs": [
        {
          "internalType": "string",
          "name": "name",
          "type": "string"
        },
        {
          "internalType": "uint256",
          "name": "id",
          "type": "uint256"
        },
        {
          "internalType": "uint256",
          "name": "attackStrength",
          "type": "uint256"
        },
        {
          "internalType": "uint256",
          "name": "defenseStrength",
          "type": "uint256"
        }
      ],
      "stateMutability": "view",
      "type": "function"
    },
    {
      "inputs": [
        {
          "internalType": "string",
          "name": "_battleName",
          "type": "string"
        }
      ],
      "name": "getActivePlayer",
      "outputs": [
        {
          "internalType": "address",
          "name": "",
          "type": "address"
        }
      ],
      "stateMutability": "view",
      "type": "function"
    },
    {
      "inputs": [],
      "name": "getAllBattles",
      "outputs": [
        {
          "components": [
            {
              "internalType": "enum Penduel.BattleStatus",
              "name": "battleStatus",
              "type": "uint8"
            },
            {
              "internalType": "bytes32",
              "name": "battleHash",
              "type": "bytes32"
            },
            {
              "internalType": "string",
              "name": "name",
              "type": "string"
            },
            {
              "internalType": "address[2]",
              "name": "players",
              "type": "address[2]"
            },
            {
              "internalType": "address",
              "name": "activePlayer",
              "type": "address"
            },
            {
              "internalType": "address",
              "name": "winner",
              "type": "address"
            },
            {
              "internalType": "bytes",
              "name": "maskedWord",
              "type": "bytes"
            }
          ],
          "internalType": "struct Penduel.Battle[]",
          "name": "",
          "type": "tuple[]"
        }
      ],
      "stateMutability": "view",
      "type": "function"
    },
    {
      "inputs": [],
      "name": "getAllPlayerTokens",
      "outputs": [
        {
          "components": [
            {
              "internalType": "string",
              "name": "name",
              "type": "string"
            },
            {
              "internalType": "uint256",
              "name": "id",
              "type": "uint256"
            },
            {
              "internalType": "uint256",
              "name": "attackStrength",
              "type": "uint256"
            },
            {
              "internalType": "uint256",
              "name": "defenseStrength",
              "type": "uint256"
            }
          ],
          "internalType": "struct Penduel.GameToken[]",
          "name": "",
          "type": "tuple[]"
        }
      ],
      "stateMutability": "view",
      "type": "function"
    },
    {
      "inputs": [],
      "name": "getAllPlayers",
      "outputs": [
        {
          "components": [
            {
              "internalType": "address",
              "name": "playerAddress",
              "type": "address"
            },
            {
              "internalType": "string",
              "name": "playerName",
              "type": "string"
            },
            {
              "internalType": "uint256",
              "name": "playerMana",
              "type": "uint256"
            },
            {
              "internalType": "uint256",
              "name": "playerHealth",
              "type": "uint256"
            },
            {
              "internalType": "bool",
              "name": "inBattle",
              "type": "bool"
            }
          ],
          "internalType": "struct Penduel.Player[]",
          "name": "",
          "type": "tuple[]"
        }
      ],
      "stateMutability": "view",
      "type": "function"
    },
    {
      "inputs": [
        {
          "internalType": "string",
          "name": "_battleName",
          "type": "string"
        }
      ],
      "name": "getBattle",
      "outputs": [
        {
          "components": [
            {
              "internalType": "enum Penduel.BattleStatus",
              "name": "battleStatus",
              "type": "uint8"
            },
            {
              "internalType": "bytes32",
              "name": "battleHash",
              "type": "bytes32"
            },
            {
              "internalType": "string",
              "name": "name",
              "type": "string"
            },
            {
              "internalType": "address[2]",
              "name": "players",
              "type": "address[2]"
            },
            {
              "internalType": "address",
              "name": "activePlayer",
              "type": "address"
            },
            {
              "internalType": "address",
              "name": "winner",
              "type": "address"
            },
            {
              "internalType": "bytes",
              "name": "maskedWord",
              "type": "bytes"
            }
          ],
          "internalType": "struct Penduel.Battle",
          "name": "",
          "type": "tuple"
        }
      ],
      "stateMutability": "view",
      "type": "function"
    },
    {
      "inputs": [
        {
          "internalType": "string",
          "name": "_maskedWord",
          "type": "string"
        }
      ],
      "name": "getHangWord",
      "outputs": [
        {
          "internalType": "bytes",
          "name": "hangWord",
          "type": "bytes"
        }
      ],
      "stateMutability": "nonpayable",
      "type": "function"
    },
    {
      "inputs": [
        {
          "internalType": "string",
          "name": "_battleName",
          "type": "string"
        }
      ],
      "name": "getMaskedWord",
      "outputs": [
        {
          "internalType": "string",
          "name": "",
          "type": "string"
        }
      ],
      "stateMutability": "view",
      "type": "function"
    },
    {
      "inputs": [
        {
          "internalType": "address",
          "name": "_playerAddress",
          "type": "address"
        }
      ],
      "name": "getPlayer",
      "outputs": [
        {
          "components": [
            {
              "internalType": "address",
              "name": "playerAddress",
              "type": "address"
            },
            {
              "internalType": "string",
              "name": "playerName",
              "type": "string"
            },
            {
              "internalType": "uint256",
              "name": "playerMana",
              "type": "uint256"
            },
            {
              "internalType": "uint256",
              "name": "playerHealth",
              "type": "uint256"
            },
            {
              "internalType": "bool",
              "name": "inBattle",
              "type": "bool"
            }
          ],
          "internalType": "struct Penduel.Player",
          "name": "",
          "type": "tuple"
        }
      ],
      "stateMutability": "view",
      "type": "function"
    },
    {
      "inputs": [
        {
          "internalType": "address",
          "name": "_playerTokenAddress",
          "type": "address"
        }
      ],
      "name": "getPlayerToken",
      "outputs": [
        {
          "components": [
            {
              "internalType": "string",
              "name": "name",
              "type": "string"
            },
            {
              "internalType": "uint256",
              "name": "id",
              "type": "uint256"
            },
            {
              "internalType": "uint256",
              "name": "attackStrength",
              "type": "uint256"
            },
            {
              "internalType": "uint256",
              "name": "defenseStrength",
              "type": "uint256"
            }
          ],
          "internalType": "struct Penduel.GameToken",
          "name": "",
          "type": "tuple"
        }
      ],
      "stateMutability": "view",
      "type": "function"
    },
    {
      "inputs": [],
      "name": "getTotalSupply",
      "outputs": [
        {
          "internalType": "uint256",
          "name": "",
          "type": "uint256"
        }
      ],
      "stateMutability": "view",
      "type": "function"
    },
    {
      "inputs": [
        {
          "internalType": "address",
          "name": "account",
          "type": "address"
        },
        {
          "internalType": "address",
          "name": "operator",
          "type": "address"
        }
      ],
      "name": "isApprovedForAll",
      "outputs": [
        {
          "internalType": "bool",
          "name": "",
          "type": "bool"
        }
      ],
      "stateMutability": "view",
      "type": "function"
    },
    {
      "inputs": [
        {
          "internalType": "string",
          "name": "_battleName",
          "type": "string"
        }
      ],
      "name": "isBattle",
      "outputs": [
        {
          "internalType": "bool",
          "name": "",
          "type": "bool"
        }
      ],
      "stateMutability": "view",
      "type": "function"
    },
    {
      "inputs": [
        {
          "internalType": "address",
          "name": "_playerAddress",
          "type": "address"
        }
      ],
      "name": "isPlayer",
      "outputs": [
        {
          "internalType": "bool",
          "name": "",
          "type": "bool"
        }
      ],
      "stateMutability": "view",
      "type": "function"
    },
    {
      "inputs": [
        {
          "internalType": "address",
          "name": "_playerTokenAddress",
          "type": "address"
        }
      ],
      "name": "isPlayerToken",
      "outputs": [
        {
          "internalType": "bool",
          "name": "",
          "type": "bool"
        }
      ],
      "stateMutability": "view",
      "type": "function"
    },
    {
      "inputs": [
        {
          "internalType": "string",
          "name": "_battleName",
          "type": "string"
        }
      ],
      "name": "joinBattle",
      "outputs": [
        {
          "components": [
            {
              "internalType": "enum Penduel.BattleStatus",
              "name": "battleStatus",
              "type": "uint8"
            },
            {
              "internalType": "bytes32",
              "name": "battleHash",
              "type": "bytes32"
            },
            {
              "internalType": "string",
              "name": "name",
              "type": "string"
            },
            {
              "internalType": "address[2]",
              "name": "players",
              "type": "address[2]"
            },
            {
              "internalType": "address",
              "name": "activePlayer",
              "type": "address"
            },
            {
              "internalType": "address",
              "name": "winner",
              "type": "address"
            },
            {
              "internalType": "bytes",
              "name": "maskedWord",
              "type": "bytes"
            }
          ],
          "internalType": "struct Penduel.Battle",
          "name": "",
          "type": "tuple"
        }
      ],
      "stateMutability": "nonpayable",
      "type": "function"
    },
    {
      "inputs": [],
      "name": "owner",
      "outputs": [
        {
          "internalType": "address",
          "name": "",
          "type": "address"
        }
      ],
      "stateMutability": "view",
      "type": "function"
    },
    {
      "inputs": [
        {
          "internalType": "address",
          "name": "",
          "type": "address"
        }
      ],
      "name": "playerIndex",
      "outputs": [
        {
          "internalType": "uint256",
          "name": "",
          "type": "uint256"
        }
      ],
      "stateMutability": "view",
      "type": "function"
    },
    {
      "inputs": [
        {
          "internalType": "address",
          "name": "",
          "type": "address"
        }
      ],
      "name": "playerTokenIndex",
      "outputs": [
        {
          "internalType": "uint256",
          "name": "",
          "type": "uint256"
        }
      ],
      "stateMutability": "view",
      "type": "function"
    },
    {
      "inputs": [
        {
          "internalType": "uint256",
          "name": "",
          "type": "uint256"
        }
      ],
      "name": "players",
      "outputs": [
        {
          "internalType": "address",
          "name": "playerAddress",
          "type": "address"
        },
        {
          "internalType": "string",
          "name": "playerName",
          "type": "string"
        },
        {
          "internalType": "uint256",
          "name": "playerMana",
          "type": "uint256"
        },
        {
          "internalType": "uint256",
          "name": "playerHealth",
          "type": "uint256"
        },
        {
          "internalType": "bool",
          "name": "inBattle",
          "type": "bool"
        }
      ],
      "stateMutability": "view",
      "type": "function"
    },
    {
      "inputs": [
        {
          "internalType": "string",
          "name": "_battleName",
          "type": "string"
        }
      ],
      "name": "quitBattle",
      "outputs": [],
      "stateMutability": "nonpayable",
      "type": "function"
    },
    {
      "inputs": [
        {
          "internalType": "string",
          "name": "_playerName",
          "type": "string"
        },
        {
          "internalType": "string",
          "name": "_gameTokenName",
          "type": "string"
        }
      ],
      "name": "registerPlayer",
      "outputs": [],
      "stateMutability": "nonpayable",
      "type": "function"
    },
    {
      "inputs": [],
      "name": "renounceOwnership",
      "outputs": [],
      "stateMutability": "nonpayable",
      "type": "function"
    },
    {
      "inputs": [
        {
          "internalType": "address",
          "name": "from",
          "type": "address"
        },
        {
          "internalType": "address",
          "name": "to",
          "type": "address"
        },
        {
          "internalType": "uint256[]",
          "name": "ids",
          "type": "uint256[]"
        },
        {
          "internalType": "uint256[]",
          "name": "amounts",
          "type": "uint256[]"
        },
        {
          "internalType": "bytes",
          "name": "data",
          "type": "bytes"
        }
      ],
      "name": "safeBatchTransferFrom",
      "outputs": [],
      "stateMutability": "nonpayable",
      "type": "function"
    },
    {
      "inputs": [
        {
          "internalType": "address",
          "name": "from",
          "type": "address"
        },
        {
          "internalType": "address",
          "name": "to",
          "type": "address"
        },
        {
          "internalType": "uint256",
          "name": "id",
          "type": "uint256"
        },
        {
          "internalType": "uint256",
          "name": "amount",
          "type": "uint256"
        },
        {
          "internalType": "bytes",
          "name": "data",
          "type": "bytes"
        }
      ],
      "name": "safeTransferFrom",
      "outputs": [],
      "stateMutability": "nonpayable",
      "type": "function"
    },
    {
      "inputs": [
        {
          "internalType": "address",
          "name": "operator",
          "type": "address"
        },
        {
          "internalType": "bool",
          "name": "approved",
          "type": "bool"
        }
      ],
      "name": "setApprovalForAll",
      "outputs": [],
      "stateMutability": "nonpayable",
      "type": "function"
    },
    {
      "inputs": [
        {
          "internalType": "string",
          "name": "newuri",
          "type": "string"
        }
      ],
      "name": "setURI",
      "outputs": [],
      "stateMutability": "nonpayable",
      "type": "function"
    },
    {
      "inputs": [
        {
          "internalType": "bytes4",
          "name": "interfaceId",
          "type": "bytes4"
        }
      ],
      "name": "supportsInterface",
      "outputs": [
        {
          "internalType": "bool",
          "name": "",
          "type": "bool"
        }
      ],
      "stateMutability": "view",
      "type": "function"
    },
    {
      "inputs": [
        {
          "internalType": "uint256",
          "name": "tokenId",
          "type": "uint256"
        }
      ],
      "name": "tokenURI",
      "outputs": [
        {
          "internalType": "string",
          "name": "",
          "type": "string"
        }
      ],
      "stateMutability": "view",
      "type": "function"
    },
    {
      "inputs": [],
      "name": "totalSupply",
      "outputs": [
        {
          "internalType": "uint256",
          "name": "",
          "type": "uint256"
        }
      ],
      "stateMutability": "view",
      "type": "function"
    },
    {
      "inputs": [
        {
          "internalType": "uint256",
          "name": "id",
          "type": "uint256"
        }
      ],
      "name": "totalSupply",
      "outputs": [
        {
          "internalType": "uint256",
          "name": "",
          "type": "uint256"
        }
      ],
      "stateMutability": "view",
      "type": "function"
    },
    {
      "inputs": [
        {
          "internalType": "address",
          "name": "newOwner",
          "type": "address"
        }
      ],
      "name": "transferOwnership",
      "outputs": [],
      "stateMutability": "nonpayable",
      "type": "function"
    },
    {
      "inputs": [
        {
          "internalType": "uint256",
          "name": "",
          "type": "uint256"
        }
      ],
      "name": "uri",
      "outputs": [
        {
          "internalType": "string",
          "name": "",
          "type": "string"
        }
      ],
      "stateMutability": "view",
      "type": "function"
    }
  ],
  "bytecode": "0x60806040523462000e635762005740803803806200001d8162000ea8565b92833981019060208183031262000e63578051906001600160401b03821162000e63570181601f8201121562000e63578051906001600160401b0382116200094e5762000074601f8301601f191660200162000ea8565b928284526020838301011162000e635760005b82811062000e4d57600083850160200152835184906001600160401b0381116200094e57620000b860025462000ece565b601f811162000e0b575b50806020601f821160011462000d935760009162000d87575b508160011b916000199060031b1c1916176002555b60038054336001600160a01b0319821681179092556001600160a01b03167f8be0079c531659141344cd1fd0a4f28419497f9722a3daafe3b4186f6b6457e0600080a3600780546001600160a01b0319167354ec7b16a76282403083ef454a02596a4a7f96e41790556040516101c081016001600160401b038111828210176200094e576040526200018162000e68565b600581526468656c6c6f60d81b602082015281526200019f62000e68565b6007815266676f6f6462796560c81b60208201526020820152620001c262000e68565b600381526239bab760e91b60208201526040820152620001e162000e68565b9060089182815267686f6c6c6964617960c01b602082015260608201526200020862000e68565b60068152656265666f726560d01b602082015260808201526200022a62000e68565b600581526430b33a32b960d91b602082015260a08201526200024b62000e68565b600b81526a3932b9ba37b930ba34b7b760a91b602082015260c08201526200027262000e68565b60078152663330b9b434b7b760c91b602082015260e08201526200029562000e68565b828152676472657373696e6760c01b6020820152610100820152620002b962000e68565b600e81526d726570726573656e74617469766560901b6020820152610120820152620002e462000e68565b600781526673696c656e636560c81b60208201526101408201526200030862000e68565b600a81526961636365707461626c6560b01b60208201526101608201526200032f62000e68565b600d81526c195b9d9a5c9bdb9b595b9d185b609a1b60208201526101808201526200035962000e68565b600981526870686f746f636f707960b81b60208201526101a08201528154600e835580600e1062000d01575b50906000526020600020906000905b600e821062000c1357835184906001600160401b0381116200094e57620003bd60055462000ece565b601f811162000bd0575b50602091601f821160011462000b665791819260009262000b5a575b50508160011b916000199060031b1c1916176005555b604051608081016001600160401b038111828210176200094e576040526200042062000e88565b600081528152600060208201526000604082015260006060820152600e54680100000000000000008110156200094e576001810180600e5581101562000a2957600e6000528151805190927fbb7b4a454dc3493923482f07822329ed19e8244eff582cc204f8554c3620c3fd916001600160401b0381116200094e57620004be81620004b28660021b86015462000ece565b8660021b860162000f24565b6020601f821160011462000add579080606093926003969760009262000ad1575b50508160011b9160001990871b1c1916178560021b8401555b60208101516001600296871b94909401938401556040808201519584019590955501519101555160a081018181106001600160401b038211176200094e57604052600081526200054762000e88565b600081526020820152600060408201526000606082015260006080820152600d5490680100000000000000008210156200094e576001820180600d5582101562000a2957600d6000528051600583027fd7b6990105719101dabeb77144f2a3385c8033acd3af97e9423a695e81ad1eb590810180546001600160a01b0319166001600160a01b039390931692909217909155602082015180519093906001600160401b0381116200094e576200061a816200060b6001600586028701015462000ece565b60016005860287010162000f24565b6020601f821160011462000a4b579181600592600495946080979860009262000a3f575b50508160011b916000199060031b1c1916176001838302850101555b60408601516002838302850101556060860151600383830285010155020101910151151560ff8019835416911617905560405180604081011060018060401b036040830111176200094e57604081810181526000808352602083015251906001600160401b0360e08301908111908311176200094e5760e082016040526000825260006020830152620006ec62000e88565b600081526040830152606082015260006080820152600060a08201526200071262000e88565b6000815260c0820152600f5490680100000000000000008210156200094e576001820180600f5582101562000a2957600f60005280517f8d1108e10bcb7c27dddfc02ed9d693a074039d026cf4ea4240b40f7d581ac80290600381101562000a135760ff80198560031b840154169116178360031b820155602082015160018460031b83010155604082015192835160018060401b0381116200094e57620007d781620007c860028560031b8701015462000ece565b60028560031b87010162000f24565b6020601f82116001146200099557819293949560009262000989575b50508160011b916000199060031b1c19161760028260031b840101555b606083015160005b60028110620009645760808501516005600385901b860190810180546001600160a01b039384166001600160a01b03199182161790915560a08801516006830180549190941691161790915560c086015180519091600701906001600160401b0381116200094e57620008988162000891845462000ece565b8462000f24565b602092601f8211600114620008e55792819293600092620008d9575b50508160011b916000199060031b1c19161790555b6040516147bb908162000f658239f35b015190508380620008b4565b601f198216938360005260206000209160005b8681106200093557508360019596106200091b575b505050811b019055620008c9565b015160001960f88460031b161c191690558380806200090d565b91926020600181928685015181550194019201620008f8565b634e487b7160e01b600052604160045260246000fd5b81516001600160a01b0316600384811b86018301015560209091019060010162000818565b015190508580620007f3565b60028360031b85010160005260206000209060005b601f1984168110620009fa575060019394959683601f19811610620009e0575b505050811b0160028260031b8401015562000810565b015160001960f88460031b161c19169055858080620009ca565b9091602060018192858b015181550193019101620009aa565b634e487b7160e01b600052602160045260246000fd5b634e487b7160e01b600052603260045260246000fd5b0151905088806200063e565b60016005840285010160005260206000209560005b601f198416811062000ab8575082608096976004969593600193600596601f1981161062000a9e575b505050811b016001838302850101556200065a565b015160001960f88460031b161c1916905588808062000a89565b8282015188556001909701966020928301920162000a60565b015190508780620004df565b8460021b840160005260206000209560005b601f198416811062000b41575091600395966001926060959483601f1981161062000b28575b505050811b018560021b840155620004f8565b015160001983891b60f8161c1916905587808062000b15565b8282015188556001909701966020928301920162000aef565b015190508280620003e3565b601f19821692600560005260206000209160005b85811062000bb75750836001951062000b9d575b505050811b01600555620003f9565b015160001960f88460031b161c1916905582808062000b8e565b9192602060018192868501518155019401920162000b7a565b62000c019060056000526020600020601f840160051c8101916020851062000c08575b601f0160051c019062000f0b565b82620003c7565b909150819062000bf3565b80518051906001600160401b0382116200094e5762000c3f8262000c38875462000ece565b8762000f24565b602090601f831160011462000c8f57928260019493602093869560009262000c83575b5050600019600383901b1c191690841b1786555b0193019101909162000394565b01519050898062000c62565b90601f198316918660005260206000209260005b81811062000ce857509260019592859287966020961062000cce575b505050831b8301865562000c76565b015160001960f88460031b161c1916905588808062000cbf565b9293602060018192878601518155019501930162000ca3565b82600052600e602060002091820191015b81811062000d21575062000385565b8062000d306001925462000ece565b8062000d3f575b500162000d12565b601f8111831462000d575750600081555b8662000d37565b62000d77908260005283601f6020600020920160051c8201910162000f0b565b6000602081208183555562000d50565b905082015183620000db565b60026000908152600080516020620057208339815191529250601f198416905b81811062000df25750908360019493921062000dd8575b5050811b01600255620000f0565b84015160001960f88460031b161c19169055838062000dca565b9192602060018192868901518155019401920162000db3565b600260005262000e469060008051602062005720833981519152601f840160051c8101916020851062000c0857601f0160051c019062000f0b565b82620000c2565b8060208092840101518282870101520162000087565b600080fd5b60408051919082016001600160401b038111838210176200094e57604052565b60405190602082016001600160401b038111838210176200094e57604052565b6040519190601f01601f191682016001600160401b038111838210176200094e57604052565b90600182811c9216801562000f00575b602083101462000eea57565b634e487b7160e01b600052602260045260246000fd5b91607f169162000ede565b81811062000f17575050565b6000815560010162000f0b565b9190601f811162000f3457505050565b62000f62926000526020600020906020601f840160051c8301931062000c0857601f0160051c019062000f0b565b56fe60806040526004361015610013575b600080fd5b60003560e01c8062fdd58e146103f1578063015a3792146103e857806301ffc9a7146103df57806302fe5305146103d65780630677aa4e146103cd578063083c0e8e146103c457806309c95e10146103bb5780630daea2cd146103b25780630e89341c146103a957806310898e4c146103a05780631107ae3d1461039757806316801d171461038e57806318160ddd1461029b5780632ca04522146103855780632d5fbd961461037c5780632eb2c2d614610373578063331dcd311461036a5780634974da81146103615780634e1273f4146103585780634f558e791461034f578063548fb999146103465780635c12cd4b1461033d5780635c93fc3d14610334578063606d2e961461032b5780636c0360eb14610322578063703730a514610319578063715018a614610310578063845f433b14610307578063885c7d36146102fe5780638da5cb5b146102f5578063996d7bea146102ec5780639e4ecd11146102e35780639ec40aa3146102da578063a1b4f57c146102d1578063a22cb465146102c8578063b1309f06146102bf578063bd85b039146102b6578063bf034b69146102ad578063bf103a4d146102a4578063c4e41b221461029b578063c87b56dd14610292578063cb2da2c914610289578063d2198cc514610280578063de96cefc14610277578063e985e9c51461026e578063efa1c48214610265578063f1da73391461025c578063f242432a14610253578063f2fde38b1461024a5763f71d96cb1461024257600080fd5b61000e61259c565b5061000e612472565b5061000e612234565b5061000e612217565b5061000e61212e565b5061000e6120d0565b5061000e6120b3565b5061000e612096565b5061000e61202b565b5061000e611f53565b5061000e610c54565b5061000e611f2f565b5061000e611eb8565b5061000e611e5e565b5061000e611e23565b5061000e611ce9565b5061000e611a83565b5061000e611a6c565b5061000e611a4f565b5061000e6119a6565b5061000e61197c565b5061000e611941565b5061000e611829565b5061000e6117ca565b5061000e6117ad565b5061000e6116e0565b5061000e611638565b5061000e6113d1565b5061000e611398565b5061000e611327565b5061000e6112f8565b5061000e61123e565b5061000e61119f565b5061000e610fff565b5061000e610e43565b5061000e610d91565b5061000e610c73565b5061000e610c26565b5061000e610b24565b5061000e610a7c565b5061000e6109ac565b5061000e61097e565b5061000e610950565b5061000e610915565b5061000e6108e1565b5061000e6107d8565b5061000e6105e4565b5061000e6104e6565b5061000e61043a565b600435906001600160a01b038216820361000e57565b602435906001600160a01b038216820361000e57565b35906001600160a01b038216820361000e57565b503461000e57604036600319011261000e5760206104626104596103fa565b60243590613da1565b604051908152f35b60005b83811061047d5750506000910152565b818101518382015260200161046d565b906020916104a68151809281855285808601910161046a565b601f01601f1916010190565b906060806104c9845160808552608085019061048d565b936020810151602085015260408101516040850152015191015290565b503461000e576000806003193601126105cf57600e5461050581610dbf565b9061051360405192836106e3565b808252600e835260209283830191817fbb7b4a454dc3493923482f07822329ed19e8244eff582cc204f8554c3620c3fd845b8383106105aa5750505050604051928484019085855251809152604084019460408260051b8601019392955b82871061057e5785850386f35b90919293828061059a600193603f198a820301865288516104b2565b9601920196019592919092610571565b6004886001926105bd859b9a989b612768565b81520192019201919096939596610545565b80fd5b6001600160e01b031981160361000e57565b503461000e57602036600319011261000e576020600435610604816105d2565b63ffffffff60e01b16636cdb3d1360e11b8114908115610642575b8115610631575b506040519015158152f35b6301ffc9a760e01b14905038610626565b6303a24d0760e21b8114915061061f565b50634e487b7160e01b600052604160045260246000fd5b60a081019081106001600160401b0382111761068557604052565b61068d610653565b604052565b608081019081106001600160401b0382111761068557604052565b60e081019081106001600160401b0382111761068557604052565b604081019081106001600160401b0382111761068557604052565b90601f801991011681019081106001600160401b0382111761068557604052565b60405190610711826106ad565b565b604051906107118261066a565b6040519061071182610692565b60405190610711826106c8565b6020906001600160401b038111610757575b601f01601f19160190565b61075f610653565b61074c565b81601f8201121561000e5780359061077b8261073a565b9261078960405194856106e3565b8284526020838301011161000e57816000926020809301838601378301015290565b602060031982011261000e57600435906001600160401b03821161000e576107d591600401610764565b90565b503461000e576107e7366107ab565b6107ef613d49565b80516001600160401b0381116108d4575b6108148161080f6002546114fe565b61296f565b602080601f831160011461085157508192600092610846575b5050600019600383901b1c191660019190911b17600255005b01519050388061082d565b6002600052601f198316939091907f405787fa12a823e0f2b7631cc41b3ba8828b3321ca811111fa75cd3aa3bb5ace926000905b8682106108bc57505083600195106108a3575b505050811b01600255005b015160001960f88460031b161c19169055388080610898565b80600185968294968601518155019501930190610885565b6108dc610653565b610800565b503461000e57600036600319011261000e57602060405160038152f35b9060018060a01b0316600052602052604060002090565b503461000e57602036600319011261000e576001600160a01b036109376103fa565b16600052600b6020526020604060002054604051908152f35b503461000e57602036600319011261000e57602061097461096f6103fa565b612607565b6040519015158152f35b503461000e57600036600319011261000e576020604051600a8152f35b9060206107d592818152019061048d565b503461000e5760208060031936011261000e576040516000916002546109d1816114fe565b80845290600190818116908115610a4b5750600114610a0b575b610a07846109fb818803826106e3565b6040519182918261099b565b0390f35b919350600260005283600020916000925b828410610a385750505081610a07936109fb92820101936109eb565b8054858501870152928501928101610a1c565b60ff1916858501525050151560051b82010191506109fb81610a076109eb565b9060206107d59281815201906104b2565b503461000e57602036600319011261000e57610a966103fa565b610a9e612743565b50610aa881612722565b15610ae35760018060a01b0316600052600b602052610a07610ad7610ad1604060002054611e8b565b50612768565b60405191829182610a6b565b60405162461bcd60e51b815260206004820152601960248201527847616d6520746f6b656e20646f65736e27742065786973742160381b6044820152606490fd5b503461000e576020610974610b38366107ab565b6127a9565b60031115610b4757565b634e487b7160e01b600052602160045260246000fd5b906003821015610b475752565b919091610b78838251610b5d565b6020928382015184820152610b9c604083015161010080604085015283019061048d565b9160608101516060830190956000915b60028310610bf65750505060808101516001600160a01b031660a08301529293506107d59260c09060a08101516001600160a01b03168383015201519060e081840391015261048d565b87516001600160a01b0316815296810196600192909201918101610bac565b9060206107d5928181520190610b6a565b503461000e57610a07610c40610c3b366107ab565b612911565b604051918291602083526020830190610b6a565b503461000e57600036600319011261000e576020600654604051908152f35b503461000e57610c82366107ab565b610c93610c8e33612607565b612c13565b610cab610ca6610ca2836127a9565b1590565b612fa3565b6040516020810190610ccf81610cc1858561099b565b03601f1981018352826106e3565b51902090610d39610cde61072d565b3381529260006020850152610cf1612efc565b92610cfa610704565b600081526020810192909252604082018181526060830195865233608084015293600060a084015260c0830152610d33600f5491611dfd565b55613044565b5190516001600160a01b0390610d5a906020015b516001600160a01b031690565b16907f5da93d412071ca49c5b3543268fc9249b407b8de53c1589d76d6532f0a5b7df860405180610d8c33948261099b565b0390a3005b503461000e57610a07610dab610da6366107ab565b612946565b60405191829160208352602083019061048d565b6020906001600160401b038111610dd8575b60051b0190565b610de0610653565b610dd1565b81601f8201121561000e57803591610dfc83610dbf565b92610e0a60405194856106e3565b808452602092838086019260051b82010192831161000e578301905b828210610e34575050505090565b81358152908301908301610e26565b503461000e5760a036600319011261000e57610e5d6103fa565b610e65610410565b906001600160401b039060443582811161000e57610e87903690600401610de5565b9160643581811161000e57610ea0903690600401610de5565b9060843590811161000e57610eb9903690600401610764565b6001600160a01b038381169491903386148015610fdc575b610eda90613f3c565b610ee78351855114614073565b8616610ef4811515613f9f565b610f00848489886146cb565b60005b8351811015610f965780610f1a610f919286613e5f565b51610f8a610f828b6108fe610f2f868c613e5f565b51948c610f7187610f4e836108fe866000526000602052604060002090565b54610f5b82821015613ff9565b03916108fe846000526000602052604060002090565b556000526000602052604060002090565b918254614066565b9055612f4c565b610f03565b5093869194610fda966040517f4a39dc06d4c0dbc64b70af90fd698a233a518aa5d07e595d983b8c0526c8f7fb339180610fd18a8a836140d0565b0390a4336145dd565b005b50600086815260016020908152604080832033845290915290205460ff16610ed1565b503461000e57604036600319011261000e576004356001600160f81b03198116810361000e576024356001600160401b03811161000e57611044903690600401610764565b9061104e82612911565b61106d6001825161105e81610b3d565b61106781610b3d565b14613584565b61108d6002825161107d81610b3d565b61108681610b3d565b1415613600565b606081015180516110b591906001600160a01b039081163314918215611186575b505061365b565b6110ea6110e36110d760806110c987612911565b01516001600160a01b031690565b6001600160a01b031690565b33146136a7565b61110260c082019283516110fc613365565b90613c95565b90925261111782159182611165575b8461346b565b7fe212ed376777ebdfaa9739efc3d6eed905003d9d42dff523214c309a7396a61f61115361114485612946565b9260405191829115948261099b565b0390a261115c57005b610fda90613725565b611181611171866136e9565b6001600160a01b03166080830152565b611111565b60200151166001600160a01b03169050331438806110ae565b503461000e577fa8a13d5362cedeaaf8906a83b0afcab2c07c8bdac8a04ed19d273c4307f260bd6111f46111d2366107ab565b6111da613d49565b6111eb6111e682613bff565b613b38565b610dab81613b94565b0390a1005b90815180825260208080930193019160005b828110611219575050505090565b83518552938101939281019260010161120b565b9060206107d59281815201906111f9565b503461000e57604036600319011261000e576004356001600160401b0380821161000e573660238301121561000e57816004013561127b81610dbf565b9261128960405194856106e3565b81845260209160248386019160051b8301019136831161000e57602401905b8282106112e1578560243586811161000e57610a07916112cf6112d5923690600401610de5565b90613e81565b6040519182918261122d565b8380916112ed84610426565b8152019101906112a8565b503461000e57602036600319011261000e57600435600052600460205260206040600020541515604051908152f35b503461000e5760206001600160a01b036080611345610c3b366107ab565b015116604051908152f35b9060018060a01b038251168152608080611379602085015160a0602086015260a085019061048d565b9360408101516040850152606081015160608501520151151591015290565b503461000e57602036600319011261000e57610a076113bd6113b86103fa565b612685565b604051918291602083526020830190611350565b503461000e576000806003193601126105cf57600f546113f081610dbf565b906113fe60405192836106e3565b808252600f835260209283830191817f8d1108e10bcb7c27dddfc02ed9d693a074039d026cf4ea4240b40f7d581ac802845b8383106114955750505050604051928484019085855251809152604084019460408260051b8601019392955b8287106114695785850386f35b909192938280611485600193603f198a82030186528851610b6a565b960192019601959291909261145c565b6008886001926114a8859b9a989b612887565b81520192019201919096939596611430565b50634e487b7160e01b600052603260045260246000fd5b600f548110156114f1575b600f60005260206000209060031b0190600090565b6114f96114ba565b6114dc565b90600182811c9216801561152e575b602083101461151857565b634e487b7160e01b600052602260045260246000fd5b91607f169161150d565b9060009291805491611549836114fe565b9182825260019384811690816000146115ab575060011461156b575b50505050565b90919394506000526020928360002092846000945b838610611597575050505001019038808080611565565b805485870183015294019385908201611580565b9294505050602093945060ff191683830152151560051b01019038808080611565565b906107116115e29260405193848092611538565b03836106e3565b926107d59694926115fd8561161394610b5d565b602085015260c0604085015260c084019061048d565b6001600160a01b0391821660608401529316608082015280830360a09091015261048d565b503461000e57602036600319011261000e57600435600f5481101561000e57611660906114d1565b5060ff815416610a07600760018401549360405161168c816116858160028601611538565b03826106e3565b60018060a01b03906116bd8260058501541692600685015416936116b66040518097819301611538565b03856106e3565b604051968796876115e9565b50634e487b7160e01b600052600060045260246000fd5b503461000e576000806003193601126105cf5760405181600554611703816114fe565b80845290600190818116908115611785575060011461172c57610a07846109fb818803826106e3565b60058352602094507f036b6384b5eca791c62761152d0c79bb0604c104a5fb6f4eb0703f3154bb3db05b8284106117725750505081610a07936109fb92820101936109eb565b8054858501870152928501928101611756565b610a0796506109fb9450602092508593915060ff191682840152151560051b820101936109eb565b503461000e57600036600319011261000e57602060405160028152f35b503461000e576000806003193601126105cf576117e5613d49565b600380546001600160a01b0319811690915581906001600160a01b03167f8be0079c531659141344cd1fd0a4f28419497f9722a3daafe3b4186f6b6457e08280a380f35b503461000e57604036600319011261000e576001600160401b0360043581811161000e5761185b903690600401610764565b9060243590811161000e57611874903690600401610764565b61187d33612607565b611900576118cb90600d546118b6611893610713565b338152856020820152600a60408201526019606082015260006080820152612b47565b336000908152600a6020526040902055612c5f565b7f81ef79d1cda814a60c0fc60792e648a06d9c6bae67176346d1cc8b63030bfccd604051806118fb33948261099b565b0390a2005b60405162461bcd60e51b8152602060048201526019602482015278141b185e595c88185b1c9958591e481c9959da5cdd195c9959603a1b6044820152606490fd5b503461000e57602036600319011261000e576001600160a01b036119636103fa565b16600052600a6020526020604060002054604051908152f35b503461000e57600036600319011261000e576003546040516001600160a01b039091168152602090f35b503461000e576119e46119b8366107ab565b610c3b816040516119c8816106c8565b600a81526971756974426174746c6560b01b6020820152614748565b60608101908151611a0a60018060a01b0391828151163314908115611a36575b506138ba565b82515116338103611a2c5750611a27610d4d610fda935160200190565b613951565b610fda9250613951565b6020015133915083166001600160a01b03161438611a04565b503461000e57600036600319011261000e57602060405160058152f35b503461000e57610fda611a7e366107ab565b612c5f565b503461000e57610a07611a95366107ab565b611a9d6127bc565b50611aa781612911565b90611ac58251611ab681610b3d565b611abf81610b3d565b15613136565b606082018051517fcb17c4d26368c123b39a5b879cf729cad76aa10dfe5b9cd5355296f2732b8603906001600160a01b0390611b0590821633141561317c565b611b25611b20610ca26080611b1933612685565b0151151590565b6131d2565b60018552611b4733611b38855160200190565b6001600160a01b039091169052565b825151611b68906001600160a01b03165b6001600160a01b03166080870152565b611be1611bdb611bd6611bb86020611b8d6110d76110d760075460018060a01b031690565b611b968a611dfd565b549060405180809581946325e41da160e01b8352600483019190602083019252565b03915afa908115611cdc575b600091611cae575b5060085490612e4e565b61322e565b50613257565b611c0285611bf5611bf0613365565b613510565b9560c0820196875261346b565b611c148451611c0f613420565b614748565b825151611c5f90600490611c5090611c4a906001600160a01b03165b6001600160a01b03166000908152600a6020526040902090565b54612536565b5001805460ff19166001179055565b611c786004611c50611c4a611c30610d4d885160200190565b60408501519251516001600160a01b0316935190611c9f6040519283923397169583613446565b0390a360405191829182610c15565b611ccf915060203d8111611cd5575b611cc781836106e3565b810190613212565b38611bcc565b503d611cbd565b611ce4613221565b611bc4565b503461000e57604036600319011261000e57611d036103fa565b602435801515810361000e576001600160a01b03821691338314611d8f573360009081526001602090815260408083206001600160a01b03909416835292905220611d59908260ff801983541691151516179055565b604051901515815233907f17307eab39ab6107e8899845ad3d59bd9653f200f220920489ca2b5937696c31908060208101610d8c565b60405162461bcd60e51b815260206004820152602960248201527f455243313135353a2073657474696e6720617070726f76616c20737461747573604482015268103337b91039b2b63360b91b6064820152608490fd5b90611df96020928281519485920161046a565b0190565b6020611e1691816040519382858094519384920161046a565b8101600c81520301902090565b503461000e576020611e4b81611e38366107ab565b816040519382858094519384920161046a565b8101600c81520301902054604051908152f35b503461000e57602036600319011261000e5760043560005260046020526020604060002054604051908152f35b600e54811015611eab575b600e60005260206000209060021b0190600090565b611eb36114ba565b611e96565b503461000e57602036600319011261000e57600435600e5481101561000e57611ee3611f1b91611e8b565b5060405190611ef6826115e28184611538565b600181015490600360028201549101549060405194859460808652608086019061048d565b926020850152604084015260608301520390f35b503461000e57602036600319011261000e576020610974611f4e6103fa565b612722565b503461000e5760208060031936011261000e57611f71600435613a66565b60405190600092600554611f84816114fe565b9060019081811690811561200c5750600114611fcb575b602f60f81b8652610a07856109fb81610cc1611fba60018c018a611de6565b64173539b7b760d91b815260050190565b90919450600560005284600020906000915b838310611ff95750505082019092019181610cc1611fba611f9b565b8054868401880152918601918101611fdd565b60ff191684870152505080151502830101925081610cc1611fba611f9b565b503461000e57610a0761203d366107ab565b6120496111e682613bff565b6007546040516325e41da160e01b8152600060048201526109fb916120909161208a91611bd6919060209082906001600160a01b0316818060248101611bb8565b506115ce565b91613b94565b503461000e57600036600319011261000e57602060405160008152f35b503461000e57600036600319011261000e57602060405160018152f35b503461000e57604036600319011261000e57602060ff6121226120f16103fa565b6120f9610410565b6001600160a01b0391821660009081526001865260408082209290931681526020919091522090565b54166040519015158152f35b503461000e576000806003193601126105cf57600d5461214d81610dbf565b9061215b60405192836106e3565b808252600d835260209283830191817fd7b6990105719101dabeb77144f2a3385c8033acd3af97e9423a695e81ad1eb5845b8383106121f25750505050604051928484019085855251809152604084019460408260051b8601019392955b8287106121c65785850386f35b9091929382806121e2600193603f198a82030186528851611350565b96019201960195929190926121b9565b600588600192612205859b9a989b61262d565b8152019201920191909693959661218d565b503461000e57600036600319011261000e57602060405160048152f35b503461000e5760a036600319011261000e5761224e6103fa565b612256610410565b6064356044356084356001600160401b03811161000e5761227b903690600401610764565b6001600160a01b038581169591949190338714801561244f575b61229e90613f3c565b82168015966122ad8815613f9f565b6122b685614649565b976122c087614649565b9082156123f3575b612371575b50610fda9750856122ec846108fe886000526000602052604060002090565b546122f982821015613ff9565b03612312846108fe886000526000602052604060002090565b5561232b846108fe876000526000602052604060002090565b612336878254614066565b9055604080518681526020810188905233917fc3d58168c5ae7397731d063d5bbf3d657854427343f4c083240f7aacaa2d0f6291a4336144b7565b959391600097959391975b89518110156123e057806123936123db928c613e5f565b516123d56123a1838c613e5f565b516123b6836000526004602052604060002090565b546123c38282101561466e565b03916000526004602052604060002090565b55612f4c565b61237c565b5091939550919395610fda9750386122cd565b9896939095926000989592985b885181101561243f578089610f8a610f826124298461242261243a978f613e5f565b5194613e5f565b516000526004602052604060002090565b612400565b50929590939698979194976122c8565b50600087815260016020908152604080832033845290915290205460ff16612295565b503461000e57602036600319011261000e5761248c6103fa565b612494613d49565b6001600160a01b039081169081156124e257600380546001600160a01b031981168417909155167f8be0079c531659141344cd1fd0a4f28419497f9722a3daafe3b4186f6b6457e0600080a3005b60405162461bcd60e51b815260206004820152602660248201527f4f776e61626c653a206e6577206f776e657220697320746865207a65726f206160448201526564647265737360d01b6064820152608490fd5b600d54811015612556575b600d6000526005602060002091020190600090565b61255e6114ba565b612541565b939060809396959261258a9160018060a01b0316865260a0602087015260a086019061048d565b95604085015260608401521515910152565b503461000e57602036600319011261000e57600435600d5481101561000e576125c490612536565b5060018060a01b03815416610a07604051926125e7846116b68160018501611538565b60028101549060ff60046003830154920154169160405195869586612563565b6001600160a01b03166000908152600a602052604090205461262857600090565b600190565b9060405161263a8161066a565b608060ff6004839560018060a01b038154168552604051612662816116858160018601611538565b602086015260028101546040860152600381015460608601520154161515910152565b600060806040516126958161066a565b8281526060602082015282604082015282606082015201526126b681612607565b156126e5576001600160a01b03166000908152600a602052604090206107d5906126df90611c4a565b5061262d565b60405162461bcd60e51b8152602060048201526015602482015274506c6179657220646f65736e27742065786973742160581b6044820152606490fd5b6001600160a01b03166000908152600b602052604090205461262857600090565b6040519061275082610692565b60006060838181528260208201528260408201520152565b9060405161277581610692565b60606003829460405161278c816116858185611538565b845260018101546020850152600281015460408501520154910152565b6127b290611dfd565b5461262857600090565b604051906127c9826106ad565b606060c08360008152600060208201528260408201526040516127eb816106c8565b60403682378382015260006080820152600060a08201520152565b1561280d57565b60405162461bcd60e51b8152602060048201526015602482015274426174746c6520646f65736e27742065786973742160581b6044820152606490fd5b60405191906000835b6002821061286757505050610711826106c8565b82546001600160a01b031681526001928301929190910190602001612853565b90604051612894816106ad565b809260ff815416906003821015610b4757600761290c9160c0938552600181015460208601526128c6600282016115ce565b60408601526128d76003820161284a565b606086015260058101546128f3906001600160a01b0316611b58565b60068101546001600160a01b031660a0860152016115ce565b910152565b61294061293a6107d5926129236127bc565b50612935612930826127a9565b612806565b611dfd565b546114d1565b50612887565b6107d561295e61293a600793612935612930826127a9565b506116856040518094819301611538565b601f811161297b575050565b6000906002825260208220906020601f850160051c830194106129b9575b601f0160051c01915b8281106129ae57505050565b8181556001016129a2565b9092508290612999565b601f81116129cf575050565b6000906009825260208220906020601f850160051c83019410612a0d575b601f0160051c01915b828110612a0257505050565b8181556001016129f6565b90925082906129ed565b90601f8111612a2557505050565b600091825260208220906020601f850160051c83019410612a61575b601f0160051c01915b828110612a5657505050565b818155600101612a4a565b9092508290612a41565b91909182516001600160401b038111612b3a575b612a9381612a8d84546114fe565b84612a17565b602080601f8311600114612acf575081929394600092612ac4575b50508160011b916000199060031b1c1916179055565b015190503880612aae565b90601f19831695612ae585600052602060002090565b926000905b888210612b2257505083600195969710612b09575b505050811b019055565b015160001960f88460031b161c19169055388080612aff565b80600185968294968601518155019501930190612aea565b612b42610653565b612a7f565b6107119060046080600d54600160401b811015612c06575b6001810180600d55811015612bf9575b600d60005283516005919091027fd7b6990105719101dabeb77144f2a3385c8033acd3af97e9423a695e81ad1eb50180546001600160a01b0319166001600160a01b039290921691909117815592612bce602082015160018601612a6b565b60408101516002850155606081015160038501550151151591019060ff801983541691151516179055565b612c016114ba565b612b6f565b612c0e610653565b612b5f565b15612c1a57565b60405162461bcd60e51b815260206004820152601c60248201527f506c6561736520526567697374657220506c61796572204669727374000000006044820152606490fd5b6080612c6a33612685565b0151612dc857612c7c610c8e33612607565b612c84612743565b50612c8e33612f5c565b612c9781612e1c565b600660ff612ce1612cdb6040516020810190612cd181610cc1334286909160349282526001600160601b03199060601b1660208201520190565b5190206064900690565b60ff1690565b16069160ff831615612d93575b612d617fca8ab07e9ed17d119729fc652dd24df9d8430ca862dda4631925b5b4b99da3629394612d1c610720565b90815260ff861690816020820152836040820152846060820152612d42600e5491612e88565b336000908152600b6020526040902055612d5a612f2d565b90336140f5565b612d74612d6f600654612f4c565b600655565b6040805160ff95909516855260208501919091528301523391606090a2565b612d61612dc07fca8ab07e9ed17d119729fc652dd24df9d8430ca862dda4631925b5b4b99da36294612e6e565b935050612cee565b60405162461bcd60e51b8152602060048201526015602482015274506c6179657220697320696e206120626174746c6560581b6044820152606490fd5b50634e487b7160e01b600052601160045260246000fd5b600a0390600a8211612e2a57565b610711612e05565b600019810191908211612e2a57565b91908203918211612e2a57565b8115612e58570690565b634e487b7160e01b600052601260045260246000fd5b60ff6001911660ff8114612e80570190565b611df9612e05565b60036060600e54600160401b811015612eef575b6001810180600e55811015612ee2575b600e60005260206000209060021b0192612ec7815185612a6b565b60208101516001850155604081015160028501550151910155565b612eea6114ba565b612eac565b612ef7610653565b612e9c565b60405190602082018281106001600160401b03821117612f20575b60405260008252565b612f28610653565b612f17565b60405190612f3a826106c8565b600382526203078360ec1b6020830152565b6001906000198114612e80570190565b600a9060405160208101914483524260408301526001600160601b03199060601b16606082015260548152612f9081610692565b519020068015612f9d5790565b50600590565b15612faa57565b60405162461bcd60e51b8152602060048201526016602482015275426174746c6520616c7265616479206578697374732160501b6044820152606490fd5b906003811015610b475760ff80198354169116179055565b90600a820291808304600a1490151715612e2a57565b9060005b6002811061302757505050565b81516001600160a01b03168184015560209091019060010161301a565b600f54600160401b811015613129575b6001810180600f5581101561311c575b600f600052815191600391821b7f8d1108e10bcb7c27dddfc02ed9d693a074039d026cf4ea4240b40f7d581ac8020191831015610b475760c06007916130ad6107119585612fe8565b602081015160018501556130c8604082015160028601612a6b565b6130d9606082015160038601613016565b60808101516005850180546001600160a01b039283166001600160a01b03199182161790915560a083015160068701805491909316911617905501519101612a6b565b6131246114ba565b613064565b613131610653565b613054565b1561313d57565b60405162461bcd60e51b8152602060048201526017602482015276426174746c6520616c726561647920737461727465642160481b6044820152606490fd5b1561318357565b60405162461bcd60e51b815260206004820152602160248201527f4f6e6c7920706c617965722074776f2063616e206a6f696e206120626174746c6044820152606560f81b6064820152608490fd5b156131d957565b60405162461bcd60e51b8152602060048201526011602482015270416c726561647920696e20626174746c6560781b6044820152606490fd5b9081602091031261000e575190565b506040513d6000823e3d90fd5b60085481101561324a575b600860005260206000200190600090565b6132526114ba565b613239565b90816009146133615761326a82546114fe565b6001600160401b038111613354575b61328d816132886009546114fe565b6129c3565b6000601f82116001146132c7578192936000926132bc575b50508160011b916000199060031b1c191617600955565b0154905038806132a5565b6132db601f19831694600052602060002090565b6009600052907f6e1540171b6c0c960b71a7020d9f60077f6af931a8bbf590da0223dacf75c7af91815b86811061333c5750836001959610613323575b505050811b01600955565b015460001960f88460031b161c19169055388080613318565b81830154845560019384019390920191602001613305565b61335c610653565b613279565b9050565b6040519060008260095491613379836114fe565b8083526001938085169081156133ff575060011461339f575b50610711925003836106e3565b600960009081527f6e1540171b6c0c960b71a7020d9f60077f6af931a8bbf590da0223dacf75c7af94602093509091905b8183106133e7575050610711935082010138613392565b855488840185015294850194879450918301916133d0565b905061071194506020925060ff191682840152151560051b82010138613392565b6040519061342d826106c8565b600a8252691b585cdad95915dbdc9960b21b6020830152565b909161345d6107d59360408452604084019061048d565b91602081840391015261048d565b613474816127a9565b156134b55761293a61348591611dfd565b6134a8575b8151916003831015610b475760c06007916130ad6107119585612fe8565b6134b06116c9565b61348a565b60405162461bcd60e51b815260206004820152601460248201527310985d1d1b1948191bd95cdb89dd08195e1a5cdd60621b6044820152606490fd5b90602091805182101561350357010190565b61350b6114ba565b010190565b600180805b61351e57505090565b825181101561357f5761355a906001600160f81b03198061353f83876134f1565b511690855115613572575b6020860151160361356057612f4c565b81613515565b605f61356c82866134f1565b53612f4c565b61357a6114ba565b61354a565b505090565b1561358b57565b60405162461bcd60e51b815260206004820152604160248201527f426174746c65206e6f7420737461727465642e20506c656173652074656c6c2060448201527f616e6f7468657220706c6179657220746f206a6f696e2074686520626174746c6064820152606560f81b608482015260a490fd5b1561360757565b60405162461bcd60e51b815260206004820152602660248201527f63686f73656e4c65747465723a20426174746c652068617320616c726561647960448201526508195b99195960d21b6064820152608490fd5b1561366257565b60405162461bcd60e51b815260206004820152601a60248201527f596f7520617265206e6f7420696e207468697320626174746c650000000000006044820152606490fd5b156136ae57565b60405162461bcd60e51b815260206004820152601360248201527224ba1034b9903737ba103cb7bab9103a3ab93760691b6044820152606490fd5b60606136f482612911565b0160018060a01b039182608061370e828551511693612911565b0151160361371f5751602001511690565b51511690565b61372e90612911565b60608101805160018060a01b0390818082511633149182156138a9575b5050156138505761376c915133828251161491821561383e575b50506138ba565b60c0810151613779613365565b60018092816000905b6137db575b505060405183151581527f589068fcf2fbda53e0b05d6b1160908791495e6ba7d7e49e11a03c289ad55b41925060209150a16137c05750565b60808101516137d891906001600160a01b0316613951565b50565b60ff81166020811080613834575b1561382e576001600160f81b031961380e8161380584896134f1565b511692856134f1565b511603613825575b61381f90612e6e565b82613782565b60009450613816565b50613787565b50845181106137e9565b90915060203392015116143880613765565b60405162461bcd60e51b815260206004820152602b60248201527f4f6e6c7920706c617965727320696e207468697320626174746c652063616e2060448201526a6d616b652061206d6f766560a81b6064820152608490fd5b60209192500151163314813861374b565b156138c157565b60405162461bcd60e51b815260206004820152601b60248201527f596f7520617265206e6f7420696e207468697320626174746c652100000000006044820152606490fd5b1561390d57565b606460405162461bcd60e51b815260206004820152602060248201527f5f656e64426174746c653a20426174746c6520616c726561647920656e6465646044820152fd5b6139596127bc565b5061397a6002835161396a81610b3d565b61397381610b3d565b1415613906565b600282526001600160a01b03811660a0830152604082019061399d83835161346b565b7fae6e5eafb6cd1cb4b139e7a0b9140aa182ee7d50e99f50d660156f79212acbc060608401613a1060046139ff6139df611c30855160018060a01b0390511690565b54613a0b836139ff6139f8611c30610d4d8a5160200190565b5493612536565b5001805460ff19169055565b612536565b5180516001600160a01b03938416939182918216858103613a4c57506020015116935b5193613a4660405192839216958261099b565b0390a390565b91505093613a33565b60ff166030019060ff8211612e2a57565b8015613b1a578060008281935b613b06575081613a828461073a565b93613a9060405195866106e3565b808552601f19613a9f8261073a565b01366020870137905b613ab25750505090565b613abb90612e32565b9182613afe613af5613ae5613ae0612cdb600a870496613ada88613000565b90612e41565b613a55565b60f81b6001600160f81b03191690565b841a91866134f1565b539182613aa8565b92613b12600a91612f4c565b930480613a73565b50604051613b27816106c8565b60018152600360fc1b602082015290565b15613b3f57565b60405162461bcd60e51b815260206004820152602760248201527f4572726f722c20776f72642077697468206c6f77657263617365206c657474656044820152667273206f6e6c7960c81b6064820152608490fd5b6008546107119190600160401b811015613bf2575b6001810180600855811015613be5575b60086000527ff3f7a9fe364faab93b216da50a3214154f22a0a2b415b23a84c8169e8b636ee301612a6b565b613bed6114ba565b613bb9565b613bfa610653565b613ba9565b6000805b60ff81166020811080613c57575b15613c4e57613c35906001600160f81b031990613c2e90866134f1565b5116613c61565b15613c4857613c4390612e6e565b613c03565b50905090565b50505050600190565b5083518110613c11565b60ff60f81b16606160f81b8110159081613c86575b5015613c8157600190565b600090565b603d60f91b1015905038613c76565b929160019160009183908390825b613cb2575b5050505090509190565b60ff86166020811080613d3f575b15613d39576001600160f81b031980613cd983886134f1565b5116818416149081613d1f575b50613d01575b50613cf983949596612e6e565b959493613ca3565b83949550613d1282841a918a6134f1565b53613cf983959450613cec565b605f60f81b9150613d30838c6134f1565b51161438613ce6565b50613ca8565b5084518110613cc0565b6003546001600160a01b03163303613d5d57565b606460405162461bcd60e51b815260206004820152602060248201527f4f776e61626c653a2063616c6c6572206973206e6f7420746865206f776e65726044820152fd5b6001600160a01b03811615613dd5576000918252602082815260408084206001600160a01b03909316845291905290205490565b60405162461bcd60e51b815260206004820152602a60248201527f455243313135353a2061646472657373207a65726f206973206e6f742061207660448201526930b634b21037bbb732b960b11b6064820152608490fd5b90613e3782610dbf565b613e4460405191826106e3565b8281528092613e55601f1991610dbf565b0190602036910137565b6020918151811015613e74575b60051b010190565b613e7c6114ba565b613e6c565b9190918051835103613ee557613e978151613e2d565b9060005b8151811015613ede5780613ec9613eb8610d4d613ed99486613e5f565b613ec28389613e5f565b5190613da1565b613ed38286613e5f565b52612f4c565b613e9b565b5090925050565b60405162461bcd60e51b815260206004820152602960248201527f455243313135353a206163636f756e747320616e6420696473206c656e677468604482015268040dad2e6dac2e8c6d60bb1b6064820152608490fd5b15613f4357565b60405162461bcd60e51b815260206004820152602e60248201527f455243313135353a2063616c6c6572206973206e6f7420746f6b656e206f776e60448201526d195c881bdc88185c1c1c9bdd995960921b6064820152608490fd5b15613fa657565b60405162461bcd60e51b815260206004820152602560248201527f455243313135353a207472616e7366657220746f20746865207a65726f206164604482015264647265737360d81b6064820152608490fd5b1561400057565b60405162461bcd60e51b815260206004820152602a60248201527f455243313135353a20696e73756666696369656e742062616c616e636520666f60448201526939103a3930b739b332b960b11b6064820152608490fd5b9060018201809211612e2a57565b91908201809211612e2a57565b1561407a57565b60405162461bcd60e51b815260206004820152602860248201527f455243313135353a2069647320616e6420616d6f756e7473206c656e677468206044820152670dad2e6dac2e8c6d60c31b6064820152608490fd5b90916140e76107d5936040845260408401906111f9565b9160208184039101526111f9565b926001600160a01b0384169283156141b65761411083614649565b92614119614617565b9560005b855181101561414a5780614134614145928a613e5f565b51610f8a610f82612429848b613e5f565b61411d565b509193509194506107119361416d826108fe856000526000602052604060002090565b6141778154614058565b9055604080518481526001602082015260009133917fc3d58168c5ae7397731d063d5bbf3d657854427343f4c083240f7aacaa2d0f629190a433614353565b60405162461bcd60e51b815260206004820152602160248201527f455243313135353a206d696e7420746f20746865207a65726f206164647265736044820152607360f81b6064820152608490fd5b9081602091031261000e57516107d5816105d2565b6107d5939260a092600180851b0316825260006020830152604082015260016060820152816080820152019061048d565b91926107d595949160a094600180871b03809216855216602084015260408301526060820152816080820152019061048d565b60809060208152602860208201527f455243313135353a204552433131353552656365697665722072656a656374656040820152676420746f6b656e7360c01b60608201520190565b60009060033d116142d457565b905060046000803e60005160e01c90565b600060443d106107d557604051600319913d83016004833e81516001600160401b03918282113d6024840111176143425781840194855193841161434a573d8501016020848701011161434257506107d5929101602001906106e3565b949350505050565b50949350505050565b92919091823b6143635750505050565b61438a92602092600060405180968195829463f23a6e6160e01b9a8b85526004850161421a565b03926001600160a01b03165af160009181614487575b5061445f57505060016143b16142c7565b6308c379a014614430575b6143ca575b38808080611565565b60405162461bcd60e51b815260206004820152603460248201527f455243313135353a207472616e7366657220746f206e6f6e2d455243313135356044820152732932b1b2b4bb32b91034b6b83632b6b2b73a32b960611b6064820152608490fd5b0390fd5b6144386142e5565b8061444357506143bc565b60405162461bcd60e51b815290819061442c906004830161099b565b6001600160e01b031916146143c15760405162461bcd60e51b81528061442c6004820161427e565b6144a991925060203d81116144b0575b6144a181836106e3565b810190614205565b90386143a0565b503d614497565b9493919092813b6144cb575b505050505050565b60006020946144f26040519788968795869463f23a6e6160e01b9c8d87526004870161424b565b03926001600160a01b03165af16000918161456f575b5061454757505060016145196142c7565b6308c379a014614534575b6143ca575b3880808080806144c3565b61453c6142e5565b806144435750614524565b6001600160e01b031916146145295760405162461bcd60e51b81528061442c6004820161427e565b61458891925060203d81116144b0576144a181836106e3565b9038614508565b93906107d595936145c1916145cf9460018060a01b03809216885216602087015260a0604087015260a08601906111f9565b9084820360608601526111f9565b91608081840391015261048d565b9493919092813b6145f057505050505050565b60006020946144f26040519788968795869463bc197c8160e01b9c8d87526004870161458f565b604051614623816106c8565b60018152600160208201602036823782511561463d575290565b6146456114ba565b5290565b60405190614656826106c8565b6001825260208201602036823782511561463d575290565b1561467557565b60405162461bcd60e51b815260206004820152602860248201527f455243313135353a206275726e20616d6f756e74206578636565647320746f74604482015267616c537570706c7960c01b6064820152608490fd5b919392916001600160a01b03919082161561471f575b16156146ec57509050565b60005b835181101561471957806147066147149286613e5f565b516123d56123a18386613e5f565b6146ef565b50509050565b929060005b8551811015614740578061413461473b9286613e5f565b614724565b5090926146e1565b60009190610cc161477284936040519283916020830195634b5c427760e01b875260248401613446565b51906a636f6e736f6c652e6c6f675afa5056fea2646970667358221220e271a0918b7c5ea782a5038b795b5fe83c3767a92480dfcad637e7d85b375ae364736f6c63430008110033405787fa12a823e0f2b7631cc41b3ba8828b3321ca811111fa75cd3aa3bb5ace",
  "linkReferences": {},
  "deployedLinkReferences": {}
}