{
  "_format": "hh-sol-artifact-1",
  "contractName": "Penduel",
  "sourceName": "contracts/Penduel.sol",
  "abi": [
    {
      "inputs": [
        {
          "internalType": "string",
          "name": "_metadataURI",
          "type": "string"
        }
      ],
      "stateMutability": "nonpayable",
      "type": "constructor"
    },
    {
      "anonymous": false,
      "inputs": [
        {
          "indexed": true,
          "internalType": "address",
          "name": "account",
          "type": "address"
        },
        {
          "indexed": true,
          "internalType": "address",
          "name": "operator",
          "type": "address"
        },
        {
          "indexed": false,
          "internalType": "bool",
          "name": "approved",
          "type": "bool"
        }
      ],
      "name": "ApprovalForAll",
      "type": "event"
    },
    {
      "anonymous": false,
      "inputs": [
        {
          "indexed": false,
          "internalType": "string",
          "name": "battleName",
          "type": "string"
        },
        {
          "indexed": true,
          "internalType": "address",
          "name": "winner",
          "type": "address"
        },
        {
          "indexed": true,
          "internalType": "address",
          "name": "loser",
          "type": "address"
        }
      ],
      "name": "BattleEnded",
      "type": "event"
    },
    {
      "anonymous": false,
      "inputs": [
        {
          "indexed": true,
          "internalType": "string",
          "name": "battleName",
          "type": "string"
        },
        {
          "indexed": true,
          "internalType": "bool",
          "name": "isFirstMove",
          "type": "bool"
        }
      ],
      "name": "BattleMove",
      "type": "event"
    },
    {
      "anonymous": false,
      "inputs": [
        {
          "indexed": false,
          "internalType": "string",
          "name": "battleName",
          "type": "string"
        },
        {
          "indexed": true,
          "internalType": "address",
          "name": "player1",
          "type": "address"
        },
        {
          "indexed": true,
          "internalType": "address",
          "name": "player2",
          "type": "address"
        }
      ],
      "name": "NewBattle",
      "type": "event"
    },
    {
      "anonymous": false,
      "inputs": [
        {
          "indexed": true,
          "internalType": "address",
          "name": "owner",
          "type": "address"
        },
        {
          "indexed": false,
          "internalType": "uint256",
          "name": "id",
          "type": "uint256"
        },
        {
          "indexed": false,
          "internalType": "uint256",
          "name": "attackStrength",
          "type": "uint256"
        },
        {
          "indexed": false,
          "internalType": "uint256",
          "name": "defenseStrength",
          "type": "uint256"
        }
      ],
      "name": "NewGameToken",
      "type": "event"
    },
    {
      "anonymous": false,
      "inputs": [
        {
          "indexed": true,
          "internalType": "address",
          "name": "owner",
          "type": "address"
        },
        {
          "indexed": false,
          "internalType": "string",
          "name": "name",
          "type": "string"
        }
      ],
      "name": "NewPlayer",
      "type": "event"
    },
    {
      "anonymous": false,
      "inputs": [
        {
          "indexed": true,
          "internalType": "address",
          "name": "previousOwner",
          "type": "address"
        },
        {
          "indexed": true,
          "internalType": "address",
          "name": "newOwner",
          "type": "address"
        }
      ],
      "name": "OwnershipTransferred",
      "type": "event"
    },
    {
      "anonymous": false,
      "inputs": [
        {
          "indexed": false,
          "internalType": "address[2]",
          "name": "damagedPlayers",
          "type": "address[2]"
        }
      ],
      "name": "RoundEnded",
      "type": "event"
    },
    {
      "anonymous": false,
      "inputs": [
        {
          "indexed": true,
          "internalType": "address",
          "name": "operator",
          "type": "address"
        },
        {
          "indexed": true,
          "internalType": "address",
          "name": "from",
          "type": "address"
        },
        {
          "indexed": true,
          "internalType": "address",
          "name": "to",
          "type": "address"
        },
        {
          "indexed": false,
          "internalType": "uint256[]",
          "name": "ids",
          "type": "uint256[]"
        },
        {
          "indexed": false,
          "internalType": "uint256[]",
          "name": "values",
          "type": "uint256[]"
        }
      ],
      "name": "TransferBatch",
      "type": "event"
    },
    {
      "anonymous": false,
      "inputs": [
        {
          "indexed": true,
          "internalType": "address",
          "name": "operator",
          "type": "address"
        },
        {
          "indexed": true,
          "internalType": "address",
          "name": "from",
          "type": "address"
        },
        {
          "indexed": true,
          "internalType": "address",
          "name": "to",
          "type": "address"
        },
        {
          "indexed": false,
          "internalType": "uint256",
          "name": "id",
          "type": "uint256"
        },
        {
          "indexed": false,
          "internalType": "uint256",
          "name": "value",
          "type": "uint256"
        }
      ],
      "name": "TransferSingle",
      "type": "event"
    },
    {
      "anonymous": false,
      "inputs": [
        {
          "indexed": false,
          "internalType": "string",
          "name": "value",
          "type": "string"
        },
        {
          "indexed": true,
          "internalType": "uint256",
          "name": "id",
          "type": "uint256"
        }
      ],
      "name": "URI",
      "type": "event"
    },
    {
      "anonymous": false,
      "inputs": [
        {
          "indexed": false,
          "internalType": "bytes32",
          "name": "word",
          "type": "bytes32"
        }
      ],
      "name": "WordAdded",
      "type": "event"
    },
    {
      "inputs": [],
      "name": "CELESTION",
      "outputs": [
        {
          "internalType": "uint256",
          "name": "",
          "type": "uint256"
        }
      ],
      "stateMutability": "view",
      "type": "function"
    },
    {
      "inputs": [],
      "name": "DEVIL",
      "outputs": [
        {
          "internalType": "uint256",
          "name": "",
          "type": "uint256"
        }
      ],
      "stateMutability": "view",
      "type": "function"
    },
    {
      "inputs": [],
      "name": "FIREBIRD",
      "outputs": [
        {
          "internalType": "uint256",
          "name": "",
          "type": "uint256"
        }
      ],
      "stateMutability": "view",
      "type": "function"
    },
    {
      "inputs": [],
      "name": "GRIFFIN",
      "outputs": [
        {
          "internalType": "uint256",
          "name": "",
          "type": "uint256"
        }
      ],
      "stateMutability": "view",
      "type": "function"
    },
    {
      "inputs": [],
      "name": "KAMO",
      "outputs": [
        {
          "internalType": "uint256",
          "name": "",
          "type": "uint256"
        }
      ],
      "stateMutability": "view",
      "type": "function"
    },
    {
      "inputs": [],
      "name": "KUKULKAN",
      "outputs": [
        {
          "internalType": "uint256",
          "name": "",
          "type": "uint256"
        }
      ],
      "stateMutability": "view",
      "type": "function"
    },
    {
      "inputs": [],
      "name": "MAX_ATTACK_DEFEND_STRENGTH",
      "outputs": [
        {
          "internalType": "uint256",
          "name": "",
          "type": "uint256"
        }
      ],
      "stateMutability": "view",
      "type": "function"
    },
    {
      "inputs": [
        {
          "internalType": "bytes32",
          "name": "word",
          "type": "bytes32"
        }
      ],
      "name": "addWord",
      "outputs": [],
      "stateMutability": "nonpayable",
      "type": "function"
    },
    {
      "inputs": [
        {
          "internalType": "uint8",
          "name": "_choice",
          "type": "uint8"
        },
        {
          "internalType": "string",
          "name": "_battleName",
          "type": "string"
        }
      ],
      "name": "attackOrDefendChoice",
      "outputs": [],
      "stateMutability": "nonpayable",
      "type": "function"
    },
    {
      "inputs": [
        {
          "internalType": "address",
          "name": "account",
          "type": "address"
        },
        {
          "internalType": "uint256",
          "name": "id",
          "type": "uint256"
        }
      ],
      "name": "balanceOf",
      "outputs": [
        {
          "internalType": "uint256",
          "name": "",
          "type": "uint256"
        }
      ],
      "stateMutability": "view",
      "type": "function"
    },
    {
      "inputs": [
        {
          "internalType": "address[]",
          "name": "accounts",
          "type": "address[]"
        },
        {
          "internalType": "uint256[]",
          "name": "ids",
          "type": "uint256[]"
        }
      ],
      "name": "balanceOfBatch",
      "outputs": [
        {
          "internalType": "uint256[]",
          "name": "",
          "type": "uint256[]"
        }
      ],
      "stateMutability": "view",
      "type": "function"
    },
    {
      "inputs": [],
      "name": "baseURI",
      "outputs": [
        {
          "internalType": "string",
          "name": "",
          "type": "string"
        }
      ],
      "stateMutability": "view",
      "type": "function"
    },
    {
      "inputs": [
        {
          "internalType": "string",
          "name": "",
          "type": "string"
        }
      ],
      "name": "battleIndex",
      "outputs": [
        {
          "internalType": "uint256",
          "name": "",
          "type": "uint256"
        }
      ],
      "stateMutability": "view",
      "type": "function"
    },
    {
      "inputs": [
        {
          "internalType": "uint256",
          "name": "",
          "type": "uint256"
        }
      ],
      "name": "battles",
      "outputs": [
        {
          "internalType": "enum Penduel.BattleStatus",
          "name": "battleStatus",
          "type": "uint8"
        },
        {
          "internalType": "bytes32",
          "name": "battleHash",
          "type": "bytes32"
        },
        {
          "internalType": "string",
          "name": "name",
          "type": "string"
        },
        {
          "internalType": "address",
          "name": "winner",
          "type": "address"
        },
        {
          "internalType": "string",
          "name": "word",
          "type": "string"
        }
      ],
      "stateMutability": "view",
      "type": "function"
    },
    {
      "inputs": [
        {
          "internalType": "string",
          "name": "_name",
          "type": "string"
        }
      ],
      "name": "createBattle",
      "outputs": [
        {
          "components": [
            {
              "internalType": "enum Penduel.BattleStatus",
              "name": "battleStatus",
              "type": "uint8"
            },
            {
              "internalType": "bytes32",
              "name": "battleHash",
              "type": "bytes32"
            },
            {
              "internalType": "string",
              "name": "name",
              "type": "string"
            },
            {
              "internalType": "address[2]",
              "name": "players",
              "type": "address[2]"
            },
            {
              "internalType": "uint8[2]",
              "name": "moves",
              "type": "uint8[2]"
            },
            {
              "internalType": "address",
              "name": "winner",
              "type": "address"
            },
            {
              "internalType": "string",
              "name": "word",
              "type": "string"
            }
          ],
          "internalType": "struct Penduel.Battle",
          "name": "",
          "type": "tuple"
        }
      ],
      "stateMutability": "nonpayable",
      "type": "function"
    },
    {
      "inputs": [
        {
          "internalType": "string",
          "name": "_name",
          "type": "string"
        }
      ],
      "name": "createRandomGameToken",
      "outputs": [],
      "stateMutability": "nonpayable",
      "type": "function"
    },
    {
      "inputs": [
        {
          "internalType": "uint256",
          "name": "id",
          "type": "uint256"
        }
      ],
      "name": "exists",
      "outputs": [
        {
          "internalType": "bool",
          "name": "",
          "type": "bool"
        }
      ],
      "stateMutability": "view",
      "type": "function"
    },
    {
      "inputs": [
        {
          "internalType": "uint256",
          "name": "",
          "type": "uint256"
        }
      ],
      "name": "gameTokens",
      "outputs": [
        {
          "internalType": "string",
          "name": "name",
          "type": "string"
        },
        {
          "internalType": "uint256",
          "name": "id",
          "type": "uint256"
        },
        {
          "internalType": "uint256",
          "name": "attackStrength",
          "type": "uint256"
        },
        {
          "internalType": "uint256",
          "name": "defenseStrength",
          "type": "uint256"
        }
      ],
      "stateMutability": "view",
      "type": "function"
    },
    {
      "inputs": [],
      "name": "getAllBattles",
      "outputs": [
        {
          "components": [
            {
              "internalType": "enum Penduel.BattleStatus",
              "name": "battleStatus",
              "type": "uint8"
            },
            {
              "internalType": "bytes32",
              "name": "battleHash",
              "type": "bytes32"
            },
            {
              "internalType": "string",
              "name": "name",
              "type": "string"
            },
            {
              "internalType": "address[2]",
              "name": "players",
              "type": "address[2]"
            },
            {
              "internalType": "uint8[2]",
              "name": "moves",
              "type": "uint8[2]"
            },
            {
              "internalType": "address",
              "name": "winner",
              "type": "address"
            },
            {
              "internalType": "string",
              "name": "word",
              "type": "string"
            }
          ],
          "internalType": "struct Penduel.Battle[]",
          "name": "",
          "type": "tuple[]"
        }
      ],
      "stateMutability": "view",
      "type": "function"
    },
    {
      "inputs": [],
      "name": "getAllPlayerTokens",
      "outputs": [
        {
          "components": [
            {
              "internalType": "string",
              "name": "name",
              "type": "string"
            },
            {
              "internalType": "uint256",
              "name": "id",
              "type": "uint256"
            },
            {
              "internalType": "uint256",
              "name": "attackStrength",
              "type": "uint256"
            },
            {
              "internalType": "uint256",
              "name": "defenseStrength",
              "type": "uint256"
            }
          ],
          "internalType": "struct Penduel.GameToken[]",
          "name": "",
          "type": "tuple[]"
        }
      ],
      "stateMutability": "view",
      "type": "function"
    },
    {
      "inputs": [],
      "name": "getAllPlayers",
      "outputs": [
        {
          "components": [
            {
              "internalType": "address",
              "name": "playerAddress",
              "type": "address"
            },
            {
              "internalType": "string",
              "name": "playerName",
              "type": "string"
            },
            {
              "internalType": "uint256",
              "name": "playerMana",
              "type": "uint256"
            },
            {
              "internalType": "uint256",
              "name": "playerHealth",
              "type": "uint256"
            },
            {
              "internalType": "bool",
              "name": "inBattle",
              "type": "bool"
            }
          ],
          "internalType": "struct Penduel.Player[]",
          "name": "",
          "type": "tuple[]"
        }
      ],
      "stateMutability": "view",
      "type": "function"
    },
    {
      "inputs": [
        {
          "internalType": "string",
          "name": "_name",
          "type": "string"
        }
      ],
      "name": "getBattle",
      "outputs": [
        {
          "components": [
            {
              "internalType": "enum Penduel.BattleStatus",
              "name": "battleStatus",
              "type": "uint8"
            },
            {
              "internalType": "bytes32",
              "name": "battleHash",
              "type": "bytes32"
            },
            {
              "internalType": "string",
              "name": "name",
              "type": "string"
            },
            {
              "internalType": "address[2]",
              "name": "players",
              "type": "address[2]"
            },
            {
              "internalType": "uint8[2]",
              "name": "moves",
              "type": "uint8[2]"
            },
            {
              "internalType": "address",
              "name": "winner",
              "type": "address"
            },
            {
              "internalType": "string",
              "name": "word",
              "type": "string"
            }
          ],
          "internalType": "struct Penduel.Battle",
          "name": "",
          "type": "tuple"
        }
      ],
      "stateMutability": "view",
      "type": "function"
    },
    {
      "inputs": [
        {
          "internalType": "string",
          "name": "_battleName",
          "type": "string"
        }
      ],
      "name": "getBattleMoves",
      "outputs": [
        {
          "internalType": "uint256",
          "name": "P1Move",
          "type": "uint256"
        },
        {
          "internalType": "uint256",
          "name": "P2Move",
          "type": "uint256"
        }
      ],
      "stateMutability": "view",
      "type": "function"
    },
    {
      "inputs": [
        {
          "internalType": "address",
          "name": "addr",
          "type": "address"
        }
      ],
      "name": "getPlayer",
      "outputs": [
        {
          "components": [
            {
              "internalType": "address",
              "name": "playerAddress",
              "type": "address"
            },
            {
              "internalType": "string",
              "name": "playerName",
              "type": "string"
            },
            {
              "internalType": "uint256",
              "name": "playerMana",
              "type": "uint256"
            },
            {
              "internalType": "uint256",
              "name": "playerHealth",
              "type": "uint256"
            },
            {
              "internalType": "bool",
              "name": "inBattle",
              "type": "bool"
            }
          ],
          "internalType": "struct Penduel.Player",
          "name": "",
          "type": "tuple"
        }
      ],
      "stateMutability": "view",
      "type": "function"
    },
    {
      "inputs": [
        {
          "internalType": "address",
          "name": "addr",
          "type": "address"
        }
      ],
      "name": "getPlayerToken",
      "outputs": [
        {
          "components": [
            {
              "internalType": "string",
              "name": "name",
              "type": "string"
            },
            {
              "internalType": "uint256",
              "name": "id",
              "type": "uint256"
            },
            {
              "internalType": "uint256",
              "name": "attackStrength",
              "type": "uint256"
            },
            {
              "internalType": "uint256",
              "name": "defenseStrength",
              "type": "uint256"
            }
          ],
          "internalType": "struct Penduel.GameToken",
          "name": "",
          "type": "tuple"
        }
      ],
      "stateMutability": "view",
      "type": "function"
    },
    {
      "inputs": [],
      "name": "getTotalSupply",
      "outputs": [
        {
          "internalType": "uint256",
          "name": "",
          "type": "uint256"
        }
      ],
      "stateMutability": "view",
      "type": "function"
    },
    {
      "inputs": [
        {
          "internalType": "address",
          "name": "account",
          "type": "address"
        },
        {
          "internalType": "address",
          "name": "operator",
          "type": "address"
        }
      ],
      "name": "isApprovedForAll",
      "outputs": [
        {
          "internalType": "bool",
          "name": "",
          "type": "bool"
        }
      ],
      "stateMutability": "view",
      "type": "function"
    },
    {
      "inputs": [
        {
          "internalType": "string",
          "name": "_name",
          "type": "string"
        }
      ],
      "name": "isBattle",
      "outputs": [
        {
          "internalType": "bool",
          "name": "",
          "type": "bool"
        }
      ],
      "stateMutability": "view",
      "type": "function"
    },
    {
      "inputs": [
        {
          "internalType": "address",
          "name": "addr",
          "type": "address"
        }
      ],
      "name": "isPlayer",
      "outputs": [
        {
          "internalType": "bool",
          "name": "",
          "type": "bool"
        }
      ],
      "stateMutability": "view",
      "type": "function"
    },
    {
      "inputs": [
        {
          "internalType": "address",
          "name": "addr",
          "type": "address"
        }
      ],
      "name": "isPlayerToken",
      "outputs": [
        {
          "internalType": "bool",
          "name": "",
          "type": "bool"
        }
      ],
      "stateMutability": "view",
      "type": "function"
    },
    {
      "inputs": [
        {
          "internalType": "string",
          "name": "_name",
          "type": "string"
        }
      ],
      "name": "joinBattle",
      "outputs": [
        {
          "components": [
            {
              "internalType": "enum Penduel.BattleStatus",
              "name": "battleStatus",
              "type": "uint8"
            },
            {
              "internalType": "bytes32",
              "name": "battleHash",
              "type": "bytes32"
            },
            {
              "internalType": "string",
              "name": "name",
              "type": "string"
            },
            {
              "internalType": "address[2]",
              "name": "players",
              "type": "address[2]"
            },
            {
              "internalType": "uint8[2]",
              "name": "moves",
              "type": "uint8[2]"
            },
            {
              "internalType": "address",
              "name": "winner",
              "type": "address"
            },
            {
              "internalType": "string",
              "name": "word",
              "type": "string"
            }
          ],
          "internalType": "struct Penduel.Battle",
          "name": "",
          "type": "tuple"
        }
      ],
      "stateMutability": "nonpayable",
      "type": "function"
    },
    {
      "inputs": [],
      "name": "owner",
      "outputs": [
        {
          "internalType": "address",
          "name": "",
          "type": "address"
        }
      ],
      "stateMutability": "view",
      "type": "function"
    },
    {
      "inputs": [
        {
          "internalType": "address",
          "name": "",
          "type": "address"
        }
      ],
      "name": "playerIndex",
      "outputs": [
        {
          "internalType": "uint256",
          "name": "",
          "type": "uint256"
        }
      ],
      "stateMutability": "view",
      "type": "function"
    },
    {
      "inputs": [
        {
          "internalType": "address",
          "name": "",
          "type": "address"
        }
      ],
      "name": "playerTokenIndex",
      "outputs": [
        {
          "internalType": "uint256",
          "name": "",
          "type": "uint256"
        }
      ],
      "stateMutability": "view",
      "type": "function"
    },
    {
      "inputs": [
        {
          "internalType": "uint256",
          "name": "",
          "type": "uint256"
        }
      ],
      "name": "players",
      "outputs": [
        {
          "internalType": "address",
          "name": "playerAddress",
          "type": "address"
        },
        {
          "internalType": "string",
          "name": "playerName",
          "type": "string"
        },
        {
          "internalType": "uint256",
          "name": "playerMana",
          "type": "uint256"
        },
        {
          "internalType": "uint256",
          "name": "playerHealth",
          "type": "uint256"
        },
        {
          "internalType": "bool",
          "name": "inBattle",
          "type": "bool"
        }
      ],
      "stateMutability": "view",
      "type": "function"
    },
    {
      "inputs": [
        {
          "internalType": "string",
          "name": "_battleName",
          "type": "string"
        }
      ],
      "name": "quitBattle",
      "outputs": [],
      "stateMutability": "nonpayable",
      "type": "function"
    },
    {
      "inputs": [
        {
          "internalType": "string",
          "name": "_name",
          "type": "string"
        },
        {
          "internalType": "string",
          "name": "_gameTokenName",
          "type": "string"
        }
      ],
      "name": "registerPlayer",
      "outputs": [],
      "stateMutability": "nonpayable",
      "type": "function"
    },
    {
      "inputs": [],
      "name": "renounceOwnership",
      "outputs": [],
      "stateMutability": "nonpayable",
      "type": "function"
    },
    {
      "inputs": [
        {
          "internalType": "address",
          "name": "from",
          "type": "address"
        },
        {
          "internalType": "address",
          "name": "to",
          "type": "address"
        },
        {
          "internalType": "uint256[]",
          "name": "ids",
          "type": "uint256[]"
        },
        {
          "internalType": "uint256[]",
          "name": "amounts",
          "type": "uint256[]"
        },
        {
          "internalType": "bytes",
          "name": "data",
          "type": "bytes"
        }
      ],
      "name": "safeBatchTransferFrom",
      "outputs": [],
      "stateMutability": "nonpayable",
      "type": "function"
    },
    {
      "inputs": [
        {
          "internalType": "address",
          "name": "from",
          "type": "address"
        },
        {
          "internalType": "address",
          "name": "to",
          "type": "address"
        },
        {
          "internalType": "uint256",
          "name": "id",
          "type": "uint256"
        },
        {
          "internalType": "uint256",
          "name": "amount",
          "type": "uint256"
        },
        {
          "internalType": "bytes",
          "name": "data",
          "type": "bytes"
        }
      ],
      "name": "safeTransferFrom",
      "outputs": [],
      "stateMutability": "nonpayable",
      "type": "function"
    },
    {
      "inputs": [
        {
          "internalType": "address",
          "name": "operator",
          "type": "address"
        },
        {
          "internalType": "bool",
          "name": "approved",
          "type": "bool"
        }
      ],
      "name": "setApprovalForAll",
      "outputs": [],
      "stateMutability": "nonpayable",
      "type": "function"
    },
    {
      "inputs": [
        {
          "internalType": "string",
          "name": "newuri",
          "type": "string"
        }
      ],
      "name": "setURI",
      "outputs": [],
      "stateMutability": "nonpayable",
      "type": "function"
    },
    {
      "inputs": [
        {
          "internalType": "bytes4",
          "name": "interfaceId",
          "type": "bytes4"
        }
      ],
      "name": "supportsInterface",
      "outputs": [
        {
          "internalType": "bool",
          "name": "",
          "type": "bool"
        }
      ],
      "stateMutability": "view",
      "type": "function"
    },
    {
      "inputs": [
        {
          "internalType": "uint256",
          "name": "tokenId",
          "type": "uint256"
        }
      ],
      "name": "tokenURI",
      "outputs": [
        {
          "internalType": "string",
          "name": "",
          "type": "string"
        }
      ],
      "stateMutability": "view",
      "type": "function"
    },
    {
      "inputs": [],
      "name": "totalSupply",
      "outputs": [
        {
          "internalType": "uint256",
          "name": "",
          "type": "uint256"
        }
      ],
      "stateMutability": "view",
      "type": "function"
    },
    {
      "inputs": [
        {
          "internalType": "uint256",
          "name": "id",
          "type": "uint256"
        }
      ],
      "name": "totalSupply",
      "outputs": [
        {
          "internalType": "uint256",
          "name": "",
          "type": "uint256"
        }
      ],
      "stateMutability": "view",
      "type": "function"
    },
    {
      "inputs": [
        {
          "internalType": "address",
          "name": "newOwner",
          "type": "address"
        }
      ],
      "name": "transferOwnership",
      "outputs": [],
      "stateMutability": "nonpayable",
      "type": "function"
    },
    {
      "inputs": [
        {
          "internalType": "bytes32",
          "name": "word",
          "type": "bytes32"
        }
      ],
      "name": "underscores",
      "outputs": [
        {
          "internalType": "string",
          "name": "",
          "type": "string"
        }
      ],
      "stateMutability": "pure",
      "type": "function"
    },
    {
      "inputs": [
        {
          "internalType": "uint256",
          "name": "",
          "type": "uint256"
        }
      ],
      "name": "uri",
      "outputs": [
        {
          "internalType": "string",
          "name": "",
          "type": "string"
        }
      ],
      "stateMutability": "view",
      "type": "function"
    }
  ],
  "bytecode": "0x60806040523462000dd25762005617803803806200001d8162000e17565b92833981019060208183031262000dd2578051906001600160401b03821162000dd2570181601f8201121562000dd2578051906001600160401b038211620008c95762000074601f8301601f191660200162000e17565b928284526020838301011162000dd25760005b82811062000dbc57600083850160200152835184906001600160401b038111620008c957600254600181811c9116801562000db1575b6020821014620008a857601f811162000d6f575b50806020601f821160011462000cf75760009162000ceb575b508160011b916000199060031b1c1916176002555b60038054336001600160a01b0319821681179092556001600160a01b03167f8be0079c531659141344cd1fd0a4f28419497f9722a3daafe3b4186f6b6457e0600080a36040516101c081016001600160401b03811182821017620008c95760409081526468656c6c6f60d81b825266676f6f6462796560c81b60208301526239bab760e91b9082015267686f6c6c6964617960c01b6060820152656265666f726560d01b60808201526430b33a32b960d91b60a08201526a3932b9ba37b930ba34b7b760a91b60c0820152663330b9b434b7b760c91b60e0820152676472657373696e6760c01b6101008201526d726570726573656e74617469766560901b6101208201526673696c656e636560c81b6101408201526961636365707461626c6560b01b6101608201526c195b9d9a5c9bdb9b595b9d185b609a1b6101808201526870686f746f636f707960b81b6101a082015260078054600e9182905590919080831062000ca2575b506007600052602060002060005b83811062000c8d57845185906001600160401b038111620008c957600554600181811c9116801562000c82575b6020821014620008a857601f811162000c4b575b50602091601f821160011462000be15791819260009262000bd5575b50508160011b916000199060031b1c1916176005555b604051608081016001600160401b03811182821017620008c9576040526200031162000df7565b600081528152600060208201526000604082015260006060820152600c5468010000000000000000811015620008c9576001810180600c5581101562000a1557600c6000528151805190927fdf6966c971051c3d54ec59162606531493a51404a002842f56009d7e5cf4a8c7916001600160401b038111620008c9578360021b830154600181811c9116801562000bca575b6020821014620008a857601f811162000b8f575b506020601f821160011462000b12579080606093926003969760009262000b06575b50508160011b9160001990871b1c1916178560021b8401555b60208101516001600296871b94909401938401556040808201519584019590955501519101555160a081018181106001600160401b03821117620008c957604052600081526200044162000df7565b906000825260208101918252600060408201526000606082015260006080820152600b549168010000000000000000831015620008c9576001830180600b5583101562000a1557600b6000528151600584027f0175b7a638427703f0dbe7bb9bbf987a2551717b34e79f33b5b1008d1fa01db990810180546001600160a01b0319166001600160a01b039390931692909217909155905180519093906001600160401b038111620008c95760016005830284010154600181811c9116801562000afb575b6020821014620008a857601f811162000abd575b506020601f821160011462000a37579181600592600495946080979860009262000a2b575b50508160011b916000199060031b1c1916176001838302850101555b60408601516002838302850101556060860151600383830285010155020101910151151560ff801983541691161790556200059462000dd7565b6000815260006020820152620005a962000dd7565b60008082526020820152604051916001600160401b0360e0840190811190841117620008c95760e083016040526000835260006020840152620005eb62000df7565b60008152604084015260608301526080820152600060a08201526200060f62000df7565b6000815260c0820152600d549068010000000000000000821015620008c9576001820180600d5582101562000a1557600d60005280517fd7b6990105719101dabeb77144f2a3385c8033acd3af97e9423a695e81ad1eb5906003811015620009ff5760ff80198560031b840154169116178360031b820155602082015160018460031b83010155604082015192835160018060401b038111620008c95760028260031b84010154600181811c91168015620009f4575b6020821014620008a857601f8111620009b6575b506020601f8211600114620009385781929394956000926200092c575b50508160011b916000199060031b1c19161760028260031b840101555b606083015160005b60028110620009075750506080830151600090815b60028110620008df57600384901b85016005810184905560a08701516006820180546001600160a01b0319166001600160a01b039290921691909117905560c087015180519091600701906001600160401b038111620008c9578154600181811c91168015620008be575b6020821014620008a857601f811162000866575b50602092601f8211600114620007fd5792819293600092620007f1575b50508160011b916000199060031b1c19161790555b6040516147a0908162000e578239f35b015190508380620007cc565b601f198216938360005260206000209160005b8681106200084d575083600195961062000833575b505050811b019055620007e1565b015160001960f88460031b161c1916905583808062000825565b9192602060018192868501518155019401920162000810565b6200089690836000526020600020601f840160051c810191602085106200089d575b601f0160051c019062000e3d565b83620007af565b909150819062000888565b634e487b7160e01b600052602260045260246000fd5b90607f16906200079b565b634e487b7160e01b600052604160045260246000fd5b9091602060019160ff855116908460031b60ff811b9283911b16911916179301910162000730565b81516001600160a01b0316600384811b8601830101556020909101906001016200071b565b015190508580620006f6565b60028360031b85010160005260206000209060005b601f19841681106200099d575060019394959683601f1981161062000983575b505050811b0160028260031b8401015562000713565b015160001960f88460031b161c191690558580806200096d565b9091602060018192858b0151815501930191016200094d565b620009ed9060028460031b8601016000526020600020601f840160051c810191602085106200089d57601f0160051c019062000e3d565b85620006d9565b90607f1690620006c5565b634e487b7160e01b600052602160045260246000fd5b634e487b7160e01b600052603260045260246000fd5b0151905088806200053e565b60016005840285010160005260206000209560005b601f198416811062000aa4575082608096976004969593600193600596601f1981161062000a8a575b505050811b016001838302850101556200055a565b015160001960f88460031b161c1916905588808062000a75565b8282015188556001909701966020928301920162000a4c565b62000af4906001600585028601016000526020600020601f840160051c810191602085106200089d57601f0160051c019062000e3d565b8562000519565b90607f169062000505565b015190508780620003d9565b8460021b840160005260206000209560005b601f198416811062000b76575091600395966001926060959483601f1981161062000b5d575b505050811b018560021b840155620003f2565b015160001983891b60f8161c1916905587808062000b4a565b8282015188556001909701966020928301920162000b24565b62000bc3908560021b85016000526020600020601f840160051c810191602085106200089d57601f0160051c019062000e3d565b85620003b7565b90607f1690620003a3565b015190508280620002d4565b601f19821692600560005260206000209160005b85811062000c325750836001951062000c18575b505050811b01600555620002ea565b015160001960f88460031b161c1916905582808062000c09565b9192602060018192868501518155019401920162000bf5565b62000c7b9060056000526020600020601f840160051c810191602085106200089d57601f0160051c019062000e3d565b82620002b8565b90607f1690620002a4565b60019060208451940193818401550162000277565b60076000527fa66cc928b5edb82af9bd49922954155ab7b0942694bea4ce44661d9a8736c6889081019083015b81811062000cde575062000269565b6000815560010162000ccf565b905082015183620000ea565b60026000908152600080516020620055f78339815191529250601f198416905b81811062000d565750908360019493921062000d3c575b5050811b01600255620000ff565b84015160001960f88460031b161c19169055838062000d2e565b9192602060018192868901518155019401920162000d17565b600260005262000daa90600080516020620055f7833981519152601f840160051c810191602085106200089d57601f0160051c019062000e3d565b82620000d1565b90607f1690620000bd565b8060208092840101518282870101520162000087565b600080fd5b60408051919082016001600160401b03811183821017620008c957604052565b60405190602082016001600160401b03811183821017620008c957604052565b6040519190601f01601f191682016001600160401b03811183821017620008c957604052565b81811062000e49575050565b6000815560010162000e3d56fe6080604052600436101561001257600080fd5b60003560e01c8062fdd58e14612f70578063015a379214612e8757806301ffc9a714612e1957806302fe530514612cf05780630677aa4e14612cd4578063083c0e8e14612c9a57806309c95e1014612c775780630daea2cd14612c5b5780630e89341c14612baa57806310898e4c14612b725780631107ae3d14612b3857806315ff1e7514612abf57806316801d1714612a7557806318160ddd146109f05780632855a6b0146129905780632ca04522146127a45780632eb2c2d6146123635780634e1273f4146121c55780634f558e79146121975780635c12cd4b1461215f5780635c93fc3d14612076578063606d2e9614611fd75780636c0360eb14611ef5578063703730a514611ed9578063715018a614611e7c578063845f433b14611ba8578063885c7d3614611b6e5780638da5cb5b14611b45578063996d7bea14611a725780639b09cc8714611a1c5780639e4ecd1114611a005780639ec40aa3146119c8578063a1b4f57c146117c4578063a22cb465146116d7578063b1309f061461167b578063ba27495614610af6578063bd85b03914610aca578063bf034b6914610a3b578063bf103a4d14610a0e578063c4e41b22146109f0578063c87b56dd146108e4578063d2198cc5146108c8578063de96cefc146108ac578063e985e9c514610856578063efa1c4821461076d578063f1da733914610751578063f242432a14610388578063f2fde38b146102c55763f71d96cb1461023657600080fd5b346102c05760203660031901126102c057600435600b548110156102c057600b6000526005602060002091020160018060a01b038154166102796001830161335c565b9160028101549060ff6004600383015492015416906102aa604051958695865260a0602087015260a0860190612fee565b9260408501526060840152151560808301520390f35b600080fd5b346102c05760203660031901126102c0576102de612f9f565b6102e66143e1565b6001600160a01b0390811690811561033457600380546001600160a01b031981168417909155167f8be0079c531659141344cd1fd0a4f28419497f9722a3daafe3b4186f6b6457e0600080a3005b60405162461bcd60e51b815260206004820152602660248201527f4f776e61626c653a206e6577206f776e657220697320746865207a65726f206160448201526564647265737360d01b6064820152608490fd5b346102c05760a03660031901126102c0576103a1612f9f565b6103a9612fb5565b90608480356001600160401b0381116102c0576103ca9036906004016130ef565b6001600160a01b03919083831633148015610726575b6103e9906144df565b828516156103f78115614542565b610402604435614745565b61040d606435614745565b91858716156106c6575b610606575b5050604435600052602094600086526040600020848616600052865260406000205461044c60643582101561459c565b604435600052600087526040600020858716600052875260643590036040600020556044356000526000865260406000208482166000528652604060002061049760643582546140f6565b905560405160443581526064358782015284821690858716907fc3d58168c5ae7397731d063d5bbf3d657854427343f4c083240f7aacaa2d0f6260403392a4803b6104de57005b60a06000610528958895604051978896879586938563f23a6e6160e01b9d8e87523360048801521660248601526044356044860152606435606486015284015260a4830190612fee565b0393165af1600091816105d7575b506105ad575050600190610548614664565b6308c379a014610578575b5061055b575b005b60405162461bcd60e51b815280610574600482016146f0565b0390fd5b610580614682565b908161058c5750610553565b61057460405192839262461bcd60e51b845260048401526024830190612fee565b6001600160e01b0319161490506105595760405162461bcd60e51b8152806105746004820161461b565b6105f8919250843d86116105ff575b6105f081836130b3565b8101906145fb565b9084610536565b503d6105e6565b92959194909360005b84518110156106b75761062281866144cb565b519061062e81886144cb565b518260005260046020526040600020548181106106625761065d93600052600460205203604060002055613d68565b61060f565b60405162461bcd60e51b815260206004820152602860248201527f455243313135353a206275726e20616d6f756e74206578636565647320746f74604482015267616c537570706c7960c01b60648201528b90fd5b5093509390949150858061041c565b959260009794919592975b865181101561071857806106e8610713928b6144cb565b516106f3828a6144cb565b51600052600460205261070c60406000209182546140f6565b9055613d68565b6106d1565b509295969194909396610417565b5082841660005260016020526040600020336000526020526103e960ff6040600020541690506103e0565b346102c05760003660031901126102c057602060405160048152f35b346102c05760003660031901126102c057600b5461078a81613212565b9061079860405192836130b3565b808252600b6000908152602091828401917f0175b7a638427703f0dbe7bb9bbf987a2551717b34e79f33b5b1008d1fa01db9835b8383106108335750505050604051918083019381845251809452604083019360408160051b85010192916000955b8287106108075785850386f35b909192938280610823600193603f198a820301865288516132bb565b96019201960195929190926107fa565b600586600192610845859a999a613466565b8152019201920191909594956107cc565b346102c05760403660031901126102c05761086f612f9f565b610877612fb5565b9060018060a01b03809116600052600160205260406000209116600052602052602060ff604060002054166040519015158152f35b346102c05760003660031901126102c057602060405160018152f35b346102c05760003660031901126102c057602060405160008152f35b346102c0576020806003193601126102c057610901600435614266565b9060405191826000916005549261091784613322565b6001948686821691826000146109cb575050600114610989575b509264173539b7b760d91b6006939285602f60f81b610971975261095d825180938a8785019101612fcb565b0191820152036019198101855201836130b3565b610985604051928284938452830190612fee565b0390f35b8591506005600052816000206000905b8282106109b357505083010164173539b7b760d91b610931565b80548983018501528895508793909101908601610999565b60ff1916818701528215159092028501909101915064173539b7b760d91b9050610931565b346102c05760003660031901126102c0576020600654604051908152f35b346102c05760203660031901126102c0576020610a31610a2c612f9f565b613556565b6040519015158152f35b346102c05760203660031901126102c057600435600c548110156102c057600c600052610ab69060021b7fdf6966c971051c3d54ec59162606531493a51404a002842f56009d7e5cf4a8c701610a908161335c565b906001810154906003600282015491015490604051948594608086526080860190612fee565b926020850152604084015260608301520390f35b346102c05760203660031901126102c05760043560005260046020526020604060002054604051908152f35b346102c05760403660031901126102c05760043560ff811681036102c0576024356001600160401b0381116102c057610b339036906004016130ef565b90610b3d826137ac565b90815160038110156115f05760010361160657815160038110156115f0576002146115b05760608201805180516001600160a01b03163314908115611599575b50156115545760808301518151516001600160a01b0316330361154c576000905b600260ff8316101561144157611fe060ff9260051b160151166115075751516001600160a01b031633036115005760005b600160ff8316148080156114f3575b156114ae57156114a75760036040610bf5336134b6565b015110155b1561145757610c276040516020818751610c178183858c01612fcb565b8101600a81520301902054613303565b5090600260ff8216101561144157601f60ff6005610c6194600785831c1601019416911683549060031b60ff811b9283911b169119161790565b905560808101515160ff166114385760ff60005b166002039060ff821161103557608001516020015160ff1661142e5760ff8060005b1691160360ff81116110355760ff16600181036114275760015b604051808451610cc5818360208901612fcb565b8101039020901515907f54b82b77e7ae55a8e6c9e89deba70c7191dea2a3b08ae647b380e9f981d6a0f8600080a315610cfa57005b610d03906137ac565b606081015180516001600160a01b03163314908115611410575b50156113b757608081015160ff815116151590816113a6575b50156113575760018060a01b0360608201515116600052600860205260406000205460ff608083015151166060610d7860018060a01b038286015151166134b6565b0151606084015151604090610d95906001600160a01b03166135d5565b015160608581015151919291610db3906001600160a01b03166135d5565b01519260405194610dc38661307d565b8552602085015260408401526060830152608082015260018060a01b0360206060840151015116600052600860205260406000205460ff602060808501510151166060610e1e60018060a01b036020838801510151166134b6565b0151606085015160200151604090610e3e906001600160a01b03166135d5565b015160608681015160200151919291610e5f906001600160a01b03166135d5565b01519260405194610e6f8661307d565b8552602085015260408401526060830152608082015260405191610e9283613047565b600083526000602084015282602082015160018114808091611349575b1561111c57505050606081015160408301511161106b575050606082015151610ee29083906001600160a01b0316614103565b505b604051906000825b6002821061104b5750505060407fc6bf860cbc15f7020f73993a671f01bbb1831a8a7a12c126ca735eb632e7577591a160006080820151526000602060808301510152610f3d81604081015161408c565b606081015151610f55906001600160a01b0316613d77565b60018060a01b03606083015151166000526009602052806002610f7c604060002054613402565b500155600a03600a81116110355760018060a01b036060830151511660005260096020526003610fb0604060002054613402565b500155606081015160200151610fce906001600160a01b0316613d77565b60018060a01b03602060608401510151166000526009602052806002610ff8604060002054613402565b500155600a0390600a8211611035576020606060018060a01b0392015101511660005260096020526003611030604060002054613402565b500155005b634e487b7160e01b600052601160045260246000fd5b82516001600160a01b031681526020928301926001929092019101610eec565b6060820151604082015181106110a15750505060608201516020015161109b9083906001600160a01b0316614103565b50610ee4565b6002929350906110e2916110c460036110ba8451613421565b5001918254613d4a565b905560608101516110da60036110ba8751613421565b905551613421565b50018054600219928382019291831161103557600292611103925551613421565b5001805491820191821161103557556060810151610ee4565b8061133b575b156111f5575061113b60408401516080850151906140f6565b60608301519092909183831061116a5750505060608401515161109b92508491506001600160a01b0316614103565b60029361119d93806080880151116000146111d25750505060408401515b60036111948651613421565b50015551613421565b50018054600219810192908311611035576002926111bc925551613421565b5001805490600382018092116110355755610ee4565b6111db91613d4a565b6060880151602001516001600160a01b0316909152611188565b600214808061132d575b156112c9575061121860408301516080840151906140f6565b60608401519092909183831061124a5750505060608401516020015161109b92508491506001600160a01b0316614103565b60029361127493806080850151116000146112a95750505060408101515b60036111948351613421565b50018054916003830180931161103557600292611292925551613421565b500180546002198101919082116110355755610ee4565b6112b291613d4a565b6060880151516001600160a01b0316909152611268565b90508061131f575b6112dd575b5050610ee4565b6112e960029151613421565b50018054916003830180931161103557600292611307925551613421565b500180549060038201809211611035575582806112d6565b5060026020830151146112d1565b5060016020850151146111ff565b506002602085015114611122565b506001602086015114610eaf565b60405162461bcd60e51b815260206004820152602160248201527f506c6179657273207374696c6c206e65656420746f206d616b652061206d6f766044820152606560f81b6064820152608490fd5b60ff91506020015116151582610d36565b60405162461bcd60e51b815260206004820152602b60248201527f4f6e6c7920706c617965727320696e207468697320626174746c652063616e2060448201526a6d616b652061206d6f766560a81b6064820152608490fd5b602001516001600160a01b03163314905082610d1d565b6000610cb1565b60ff806001610c97565b60ff6001610c75565b634e487b7160e01b600052603260045260246000fd5b60405162461bcd60e51b815260206004820152602260248201527f4d616e61206e6f742073756666696369656e7420666f722061747461636b696e604482015261672160f01b6064820152608490fd5b6001610bfa565b60405162461bcd60e51b815260206004820152601f60248201527f43686f6963652073686f756c64206265206569746865722031206f72203221006044820152606490fd5b50600260ff841614610bde565b6001610bcf565b60405162461bcd60e51b815260206004820152601d60248201527f596f75206861766520616c7265616479206d6164652061206d6f7665210000006044820152606490fd5b600190610b9e565b60405162461bcd60e51b815260206004820152601a60248201527f596f7520617265206e6f7420696e207468697320626174746c650000000000006044820152606490fd5b602001516001600160a01b03163314905085610b7d565b60405162461bcd60e51b815260206004820152601860248201527710985d1d1b19481a185cc8185b1c9958591e48195b99195960421b6044820152606490fd5b634e487b7160e01b600052602160045260246000fd5b60405162461bcd60e51b815260206004820152604160248201527f426174746c65206e6f7420737461727465642e20506c656173652074656c6c2060448201527f616e6f7468657220706c6179657220746f206a6f696e2074686520626174746c6064820152606560f81b608482015260a490fd5b346102c05760203660031901126102c0576004356001600160401b0381116102c0576116c460206116b1819336906004016130ef565b8160405193828580945193849201612fcb565b8101600a81520301902054604051908152f35b346102c05760403660031901126102c0576116f0612f9f565b60243590811515908183036102c0576001600160a01b03169133831461176d5761173f9033600052600160205260406000208460005260205260406000209060ff801983541691151516179055565b6040519081527f17307eab39ab6107e8899845ad3d59bd9653f200f220920489ca2b5937696c3160203392a3005b60405162461bcd60e51b815260206004820152602960248201527f455243313135353a2073657474696e6720617070726f76616c20737461747573604482015268103337b91039b2b63360b91b6064820152608490fd5b346102c0576020806003193601126102c0576004356001600160401b0381116102c0576117f59036906004016130ef565b906117fe613685565b50611808826137ac565b91825160038110156115f057611989576060830180515190916001600160a01b03918216331461193a57608061183d336134b6565b01516119015784611857916001825233868651015261408c565b8082515116600052600883526004611873604060002054613421565b500160ff19906001828254161790558184845101511660005260088452600160046118a2604060002054613421565b5001918254161790556040840151915151167f024187b16c217a79f8d8e6252b542ec6e278fa91304acd9cfd866f2bbf00bd08604051848152806118ea339587830190612fee565b0390a3610985604051928284938452830190613143565b60405162461bcd60e51b8152600481018590526011602482015270416c726561647920696e20626174746c6560781b6044820152606490fd5b60405162461bcd60e51b815260048101859052602160248201527f4f6e6c7920706c617965722074776f2063616e206a6f696e206120626174746c6044820152606560f81b6064820152608490fd5b60405162461bcd60e51b8152600481018390526017602482015276426174746c6520616c726561647920737461727465642160481b6044820152606490fd5b346102c05760203660031901126102c0576004356001600160401b0381116102c0576119fb6105599136906004016130ef565b613888565b346102c05760003660031901126102c057602060405160058152f35b346102c05760203660031901126102c0576004356001600160401b0381116102c0576080611a58611a5360409336906004016130ef565b6137ac565b015160ff6020818351169201511682519182526020820152f35b346102c05760203660031901126102c0576004356001600160401b0381116102c057611a53611aa59136906004016130ef565b6060810190815160018060a01b0390818151163314908115611b35575b5015611af0578251518116338103611ae4575060206105599351015116614103565b90506105599250614103565b60405162461bcd60e51b815260206004820152601b60248201527f596f7520617265206e6f7420696e207468697320626174746c652100000000006044820152606490fd5b6020015182163314905084611ac2565b346102c05760003660031901126102c0576003546040516001600160a01b039091168152602090f35b346102c05760203660031901126102c0576001600160a01b03611b8f612f9f565b1660005260086020526020604060002054604051908152f35b346102c05760403660031901126102c0576001600160401b036004358181116102c057611bd99036906004016130ef565b6024358281116102c057611bf19036906004016130ef565b611bfa33613440565b611e3b57600b54604051611c0d8161307d565b338152602081019084825260408101600a815260608201906019825260006080840152600160401b851015611e0f5760018501600b55611c4c85613421565b949094611e2557835185546001600160a01b0319166001600160a01b039190911617855551805190988111611e0f57611c886001860154613322565b601f8111611dcf575b506020601f8211600114611d51579260809282611cf5979693600496611d099c9d600092611d46575b50508160011b916000199060031b1c19161760018701555b5160028601555160038501550151151591019060ff801983541691151516179055565b336000526008602052604060002055613888565b7f81ef79d1cda814a60c0fc60792e648a06d9c6bae67176346d1cc8b63030bfccd6040516020815280611d4133946020830190612fee565b0390a2005b015190508d80611cba565b6001860160005260206000209960005b601f1984168110611db7575092600183611d099b9c60049794608097611cf59b9a97601f19811610611d9e575b505050811b016001870155611cd2565b015160001960f88460031b161c191690558d8080611d8e565b828201518c556001909b019a60209283019201611d61565b611dff90600187016000526020600020601f840160051c81019160208510611e05575b601f0160051c0190613825565b89611c91565b9091508190611df2565b634e487b7160e01b600052604160045260246000fd5b634e487b7160e01b600052600060045260246000fd5b60405162461bcd60e51b8152602060048201526019602482015278141b185e595c88185b1c9958591e481c9959da5cdd195c9959603a1b6044820152606490fd5b346102c05760003660031901126102c057611e956143e1565b600380546001600160a01b031981169091556000906001600160a01b03167f8be0079c531659141344cd1fd0a4f28419497f9722a3daafe3b4186f6b6457e08280a3005b346102c05760003660031901126102c057602060405160028152f35b346102c05760003660031901126102c057604051600090600554611f1881613322565b808352600191808316908115611faf5750600114611f55575b61098583611f41818703826130b3565b604051918291602083526020830190612fee565b6005600090815260209450917f036b6384b5eca791c62761152d0c79bb0604c104a5fb6f4eb0703f3154bb3db05b828410611f9c57505050810190910190611f4181611f31565b8054858501870152928501928101611f83565b6109859550611f4193506020915091849260ff191682840152151560051b8201019350611f31565b346102c05760203660031901126102c057600435600d548110156102c05761204d90600d60005260206000209060031b0161098560ff8254169160018101546120636120256002840161335c565b60068401546001600160a01b0316936120409060070161335c565b9260405197888098613136565b602087015260a0604087015260a0860190612fee565b9160608501528382036080850152612fee565b346102c05760003660031901126102c057600d5461209381613212565b906120a160405192836130b3565b808252600d6000908152602091828401917fd7b6990105719101dabeb77144f2a3385c8033acd3af97e9423a695e81ad1eb5835b83831061213c5750505050604051918083019381845251809452604083019360408160051b85010192916000955b8287106121105785850386f35b90919293828061212c600193603f198a82030186528851613143565b9601920196019592919092612103565b60088660019261214e859a999a6136db565b8152019201920191909594956120d5565b346102c05760203660031901126102c05761098561218361217e612f9f565b6134b6565b6040519182916020835260208301906132bb565b346102c05760203660031901126102c057600435600052600460205260206040600020541515604051908152f35b346102c05760403660031901126102c0576004356001600160401b038082116102c057366023830112156102c05781600401359061220282613212565b9261221060405194856130b3565b82845260209260248486019160051b830101913683116102c057602401905b828210612344575050506024359081116102c057612251903690600401613229565b82518151036122ed5782519261226684613212565b9361227460405195866130b3565b808552612283601f1991613212565b01368486013760005b81518110156122d6576122d1906122c16001600160a01b036122ae83866144cb565b51166122ba83876144cb565b5190614439565b6122cb82886144cb565b52613d68565b61228c565b505050610985604051928284938452830190613287565b60405162461bcd60e51b815260048101839052602960248201527f455243313135353a206163636f756e747320616e6420696473206c656e677468604482015268040dad2e6dac2e8c6d60bb1b6064820152608490fd5b81356001600160a01b03811681036102c057815290840190840161222f565b346102c05760031960a0368201126102c05761237d612f9f565b90612386612fb5565b906001600160401b03604480358281116102c0576123a8903690600401613229565b9060649081358481116102c0576123c3903690600401613229565b9460849485359081116102c0576123de9036906004016130ef565b6001600160a01b0398891698909190338a14801561277b575b612400906144df565b85518851036127285788169586156124188115614542565b8a156126e5575b612620575b60005b86518110156124b7578061243e6124b292896144cb565b518c61244a838d6144cb565b51918060005282602092600084526040600020816000528452604060002054906124768383101561459c565b8360005260008552604060002090600052845203604060002055600052600081526040600020908b6000525261070c60406000209182546140f6565b612427565b5090919293968998878a604051604081527f4a39dc06d4c0dbc64b70af90fd698a233a518aa5d07e595d983b8c0526c8f7fb6124f6604083018c613287565b9180830360208201528061250b339489613287565b0390a43b61251557005b604051978896879663bc197c8160e01b9b8c89523360048a01526024890152870160a0905260a4870161254791613287565b9084878303019087015261255a91613287565b91848303019084015261256c91612fee565b03815a602094600091f160009181612600575b506125d85750506001612590614664565b6308c379a0146125a1575b61055b57005b6125a9614682565b806125b4575061259b565b60405162461bcd60e51b815260206004820152908190610574906024830190612fee565b6001600160e01b031916146105595760405162461bcd60e51b8152806105746004820161461b565b61261991925060203d81116105ff576105f081836130b3565b908361257f565b96949398929590979160005b85518110156126d65761263f81876144cb565b5161264a82896144cb565b519080600052602060048152604060002054918383106126835761267e949392916004916000525203604060002055613d68565b61262c565b508b9067616c537570706c7960c01b8f7f455243313135353a206275726e20616d6f756e74206578636565647320746f748e6040519462461bcd60e51b8652600486015260286024860152840152820152fd5b50919790959298939496612424565b98959996949392919060005b8b5181101561271957808c6106f38261270d612714958f6144cb565b51926144cb565b6126f1565b5090919293949699959861241f565b60405162461bcd60e51b815260206004820152602860248201527f455243313135353a2069647320616e6420616d6f756e7473206c656e6774682081860152670dad2e6dac2e8c6d60c31b818701528790fd5b5089600052600160205260406000203360005260205261240060ff6040600020541690506123f7565b346102c0576020806003193601126102c0576004356001600160401b0381116102c0576127d59036906004016130ef565b906127de613685565b506127f06127eb33613440565b61383c565b6127f982613654565b6129535760405181810190828252612826816128186040820187612fee565b03601f1981018352826130b3565b519020906040519261283784613047565b33845260008285015260405161284c81613047565b60008152600083820152600754600510156114415760076000526060906000955b84871061290a57849596506040519661288588613062565b600088528588015283604088015260608701526080860152600060a086015260c08501526128c5600d549283928160405193828580945193849201612fcb565b8101600a81520301902055600160401b811015611e0f57826128f08260016128f69401600d55613303565b90613dc3565b610985604051928284938452830190613143565b909161294b9061294560216040518361292c82955180928c8086019101612fcb565b8101605f60f81b8a8201520360018101845201826130b3565b96613d68565b95919061286d565b6064906040519062461bcd60e51b825260048201526016602482015275426174746c6520616c7265616479206578697374732160501b6044820152fd5b346102c05760203660031901126102c0576004356129ac6143e1565b6129b581614344565b15612a3057600754600160401b811015611e0f5760018101806007558110156114415760076000527fa66cc928b5edb82af9bd49922954155ab7b0942694bea4ce44661d9a8736c688018190556040519081527ff5ff5d97d5e9483a6f2bb74fe5f59b700ec3273812b91582875dd1bf71d5ca7890602090a1005b60405162461bcd60e51b815260206004820152601d60248201527f4572726f722c206c6f77657263617365206c657474657273206f6e6c790000006044820152606490fd5b346102c05760203660031901126102c0576004356001600160401b0381116102c057612aab611a536109859236906004016130ef565b604051918291602083526020830190613143565b346102c0576020806003193601126102c05760609060005b818110612af35750610985604051928284938452830190612fee565b91612b3390612b2d602160405183612b148295518092898086019101612fcb565b8101605f60f81b878201520360018101845201826130b3565b92613d68565b612ad7565b346102c05760203660031901126102c0576004356001600160401b0381116102c057610a31612b6d60209236906004016130ef565b613654565b346102c05760203660031901126102c057610985612b96612b91612f9f565b6135d5565b604051918291602083526020830190613013565b346102c0576020806003193601126102c0576040519060008260025491612bd083613322565b92838352600190858282169182600014612c3b575050600114612bfb575b50610971925003836130b3565b849150600260005281600020906000915b858310612c23575050610971935082010185612bee565b80548389018501528794508693909201918101612c0c565b60ff19168582015261097195151560051b8501019250879150612bee9050565b346102c05760003660031901126102c0576020604051600a8152f35b346102c05760203660031901126102c0576020610a31612c95612f9f565b613440565b346102c05760203660031901126102c0576001600160a01b03612cbb612f9f565b1660005260096020526020604060002054604051908152f35b346102c05760003660031901126102c057602060405160038152f35b346102c0576020806003193601126102c0576001600160401b036004358181116102c057612d229036906004016130ef565b91612d2b6143e1565b8251918211611e0f57612d3f600254613322565b601f8111612de8575b5080601f8311600114612d8457508192600092612d79575b5050600019600383901b1c191660019190911b17600255005b015190508280612d60565b90601f19831693600260005282600020926000905b868210612dd05750508360019510612db7575b505050811b01600255005b015160001960f88460031b161c19169055828080612dac565b80600185968294968601518155019501930190612d99565b612e1390600260005282600020601f850160051c810191848610611e0557601f0160051c0190613825565b83612d48565b346102c05760203660031901126102c05760043563ffffffff60e01b81168091036102c057602090636cdb3d1360e11b8114908115612e76575b8115612e65575b506040519015158152f35b6301ffc9a760e01b14905082612e5a565b6303a24d0760e21b81149150612e53565b346102c05760003660031901126102c057600c54612ea481613212565b90612eb260405192836130b3565b808252600c6000908152602091828401917fdf6966c971051c3d54ec59162606531493a51404a002842f56009d7e5cf4a8c7835b838310612f4d5750505050604051918083019381845251809452604083019360408160051b85010192916000955b828710612f215785850386f35b909192938280612f3d600193603f198a82030186528851613013565b9601920196019592919092612f14565b600486600192612f5f859a999a61359c565b815201920192019190959495612ee6565b346102c05760403660031901126102c0576020612f97612f8e612f9f565b60243590614439565b604051908152f35b600435906001600160a01b03821682036102c057565b602435906001600160a01b03821682036102c057565b60005b838110612fde5750506000910152565b8181015183820152602001612fce565b9060209161300781518092818552858086019101612fcb565b601f01601f1916010190565b9060608061302a8451608085526080850190612fee565b936020810151602085015260408101516040850152015191015290565b604081019081106001600160401b03821117611e0f57604052565b60e081019081106001600160401b03821117611e0f57604052565b60a081019081106001600160401b03821117611e0f57604052565b608081019081106001600160401b03821117611e0f57604052565b90601f801991011681019081106001600160401b03821117611e0f57604052565b6001600160401b038111611e0f57601f01601f191660200190565b81601f820112156102c057803590613106826130d4565b9261311460405194856130b3565b828452602083830101116102c057816000926020809301838601378301015290565b9060038210156115f05752565b919091613151838251613136565b60209283820151848201526131756040830151610120806040850152830190612fee565b916060810151606083016000905b87600283106131f4575050505060808101519460009060a084015b600283106131dc5750505060a08101516001600160a01b031660e083015260c00151818303610100909201919091529192506131d991612fee565b90565b818060019260ff8b511681520198019201919661319e565b83516001600160a01b03168252928301926001929092019101613183565b6001600160401b038111611e0f5760051b60200190565b81601f820112156102c05780359161324083613212565b9261324e60405194856130b3565b808452602092838086019260051b8201019283116102c0578301905b828210613278575050505090565b8135815290830190830161326a565b90815180825260208080930193019160005b8281106132a7575050505090565b835185529381019392810192600101613299565b9060018060a01b0382511681526080806132e4602085015160a0602086015260a0850190612fee565b9360408101516040850152606081015160608501520151151591015290565b600d5481101561144157600d60005260206000209060031b0190600090565b90600182811c92168015613352575b602083101461333c57565b634e487b7160e01b600052602260045260246000fd5b91607f1691613331565b906040519182600082549261337084613322565b9081845260019485811690816000146133df575060011461339c575b505061339a925003836130b3565b565b9093915060005260209081600020936000915b8183106133c757505061339a9350820101388061338c565b855488840185015294850194879450918301916133af565b91505061339a94506020925060ff191682840152151560051b820101388061338c565b600c5481101561144157600c60005260206000209060021b0190600090565b600b5481101561144157600b6000526005602060002091020190600090565b6001600160a01b031660009081526008602052604090205461346157600090565b600190565b906040516134738161307d565b608060ff6004839560018060a01b0381541685526134936001820161335c565b602086015260028101546040860152600381015460608601520154161515910152565b60806040516134c48161307d565b60009181838093526060602082015282604082015282606082015201526134ea82613440565b15613519576001600160a01b039091168152600860205260409020546131d99061351390613421565b50613466565b60405162461bcd60e51b8152602060048201526015602482015274506c6179657220646f65736e27742065786973742160581b6044820152606490fd5b6001600160a01b031660009081526009602052604090205461346157600090565b6040519061358482613098565b60006060838181528260208201528260408201520152565b906040516135a981613098565b6060600382946135b88161335c565b845260018101546020850152600281015460408501520154910152565b6135dd613577565b506135e781613556565b156136135760018060a01b031660005260096020526131d961360d604060002054613402565b5061359c565b60405162461bcd60e51b815260206004820152601960248201527847616d6520746f6b656e20646f65736e27742065786973742160381b6044820152606490fd5b602061366d918160405193828580945193849201612fcb565b8101600a815203019020541560001461346157600090565b604090606060c0835161369781613062565b80946000825260006020830152838183015280516136b481613047565b81368237848301528051906136c882613047565b3682376080820152600060a08201520152565b906040516136e881613062565b809260ff81541660038110156115f0578252600180820154906020918285015260029061371682850161335c565b60408601526040519182600386016000915b83831061379057505050505060c09261378b9282613747600794613047565b60608701526040519060ff6005840154818116845260081c169082015261376d81613047565b608086015260068101546001600160a01b031660a08601520161335c565b910152565b81546001600160a01b0316815291840191908401908601613728565b6137b4613685565b506137be81613654565b156137e8576137e2610c1760206131d9938160405193828580945193849201612fcb565b506136db565b60405162461bcd60e51b8152602060048201526015602482015274426174746c6520646f65736e27742065786973742160581b6044820152606490fd5b818110613830575050565b60008155600101613825565b1561384357565b60405162461bcd60e51b815260206004820152601c60248201527f506c6561736520526567697374657220506c61796572204669727374000000006044820152606490fd5b6080613893336134b6565b0151613d0d576138a56127eb33613440565b6138ad613577565b506138b733613d77565b80600a0390600a82116110355760409081516020908181014281523360601b858301526034825260608201906001600160401b039280831084841117611e0f57606460069260ff949285938a5251902006160681811615613cff575b85519761391f89613098565b88521695828101908782528581018581526060820190888252600c5493600160401b851015611e0f57600195868601600c5561395a86613402565b959095611e2557518051918211611e0f576139758654613322565b601f8111613ccf575b508890601f8311600114613c67576003959493929160009183613c5c575b505060001982871b1c191690881b1785555b5186850155516002840155519101553360005260098352846000205583516139d581613047565b600381526203078360ec1b838201523315613c0e576139f387614745565b82865191613a0083613047565b81835285368185013781613a13846144be565b526000825b613bca575b5050505086600052600083528460002033600052835284600020805490838201809211611035575584518781528284820152600033917fc3d58168c5ae7397731d063d5bbf3d657854427343f4c083240f7aacaa2d0f62883392a4333b613ac2575b5050613a8c600654613d68565b60065582519485528401528201527fca8ab07e9ed17d119729fc652dd24df9d8430ca862dda4631925b5b4b99da36260603392a2565b8451838180613b0063f23a6e6160e01b95868352336004840152600060248401528c604484015287606484015260a0608484015260a4830190612fee565b03816000335af160009181613bab575b50613b82575050613b1f614664565b6308c379a014613b4e575b613b36575b3880613a7f565b825162461bcd60e51b815280610574600482016146f0565b613b56614682565b80613b615750613b2a565b82610574865192839262461bcd60e51b845260048401526024830190612fee565b6001600160e01b031916149050613b2f57825162461bcd60e51b8152806105746004820161461b565b613bc3919250853d87116105ff576105f081836130b3565b9038613b10565b8151811015613c095780613be1613c0392866144cb565b51613bec82856144cb565b516000526004895261070c8b6000209182546140f6565b82613a18565b613a1d565b845162461bcd60e51b815260048101849052602160248201527f455243313135353a206d696e7420746f20746865207a65726f206164647265736044820152607360f81b6064820152608490fd5b01519050388061399c565b949392918891601f19821690886000528b6000209160005b8d828210613cb9575050978360039910613ca1575b505050811b0185556139ae565b015160001983891b60f8161c19169055388080613c94565b838b015185558d96909401939283019201613c7f565b613cf990876000528a600020601f850160051c8101918c8610611e0557601f0160051c0190613825565b3861397e565b613d0890613d57565b613913565b60405162461bcd60e51b8152602060048201526015602482015274506c6179657220697320696e206120626174746c6560581b6044820152606490fd5b9190820391821161103557565b60ff1660ff81146110355760010190565b60001981146110355760010190565b600a9060405160208101914483524260408301526bffffffffffffffffffffffff199060601b16606082015260548152613db081613098565b519020068015613dbd5790565b50600590565b90611e255781516003808210156115f05760ff1983541660ff809316178355602092838501519360019485830155600291828101946040880151938451966001600160401b0397888111611e0f5780613e1c8354613322565b97601f9889811161405e575b508790898311600114613ff357600092613fe8575b5050600019828a1b1c1916908a1b1790555b60608901518860005b838110613fcb5750505060808901519060009283905b8a87848410613f9c5750505050505081600791600560c09401556006810160018060a01b0360a08b01511660018060a01b031982541617905501960151908151948511611e0f57613ebf8754613322565b838111613f64575b5080928511600114613efe5750938394918492600095613ef3575b50501b92600019911b1c1916179055565b015193503880613ee2565b92919084601f1981168860005285600020956000905b89838310613f4a5750505010613f30575b50505050811b019055565b01519060f884600019921b161c1916905538808080613f25565b858701518955909701969485019488935090810190613f14565b613f8d9088600052826000208580890160051c820192858a10613f93575b0160051c0190613825565b38613ec7565b92508192613f82565b909192939495613fc0908585895116919060031b60ff811b9283911b169119161790565b950193920190613e6e565b82516001600160a01b03168682018a0155918601918a9101613e58565b015190503880613e3d565b908c9350601f1983169185600052896000209260005b8b82821061403f5750508411614027575b505050811b019055613e4f565b0151600019838c1b60f8161c1916905538808061401a565b91929395968291958786015181550195019301908e9594939291614009565b6140869085600052896000208b80860160051c8201928c8710613f93570160051c0190613825565b38613e28565b9061409682613654565b156140ba576128f0610c17602061339a948160405193828580945193849201612fcb565b60405162461bcd60e51b815260206004820152601460248201527310985d1d1b1948191bd95cdb89dd08195e1a5cdd60621b6044820152606490fd5b9190820180921161103557565b61410b613685565b50815160038110156115f05760021461422a576002825260018060a01b038091168060a08401527fae6e5eafb6cd1cb4b139e7a0b9140aa182ee7d50e99f50d660156f79212acbc0604084019261416385855161408c565b806060860181815151166000526008602052600a60026141e960406000205485602086510151166000526040600020549084846141c660046141a485613421565b50019360ff1994858154169055601960036141be83613421565b500155613421565b50015560046141d483613421565b5001908154169055601960036141be83613421565b500155518051821685810361422157506020015116935b519361421b6040519283926020845216956020830190612fee565b0390a390565b91505093614200565b60405162461bcd60e51b815260206004820152601460248201527310985d1d1b1948185b1c9958591e48195b99195960621b6044820152606490fd5b80156143265780816000925b614312575080614281836130d4565b9261428f60405194856130b3565b808452601f1961429e826130d4565b01366020860137915b6142b057505090565b6000198201918083116110355782600a9081840493828502928584041485151715611035576142e260ff938492613d4a565b1660300191821161103557855111156114415760f81b6001600160f81b03191660001a908401601f0153806142a7565b9161431e600a91613d68565b920480614272565b5060405161433381613047565b60018152600360fc1b602082015290565b60005b60ff8116602081108080614391575b156143885715611441578261436e911a60f81b6143ad565b156143815761437c90613d57565b614347565b5050600090565b50505050600190565b156114415783821a60f81b6001600160f81b0319161515614356565b60ff60f81b16606160f81b81101590816143d2575b50156143cd57600190565b600090565b603d60f91b10159050386143c2565b6003546001600160a01b031633036143f557565b606460405162461bcd60e51b815260206004820152602060248201527f4f776e61626c653a2063616c6c6572206973206e6f7420746865206f776e65726044820152fd5b6001600160a01b031690811561446657600052600060205260406000209060005260205260406000205490565b60405162461bcd60e51b815260206004820152602a60248201527f455243313135353a2061646472657373207a65726f206973206e6f742061207660448201526930b634b21037bbb732b960b11b6064820152608490fd5b8051156114415760200190565b80518210156114415760209160051b010190565b156144e657565b60405162461bcd60e51b815260206004820152602e60248201527f455243313135353a2063616c6c6572206973206e6f7420746f6b656e206f776e60448201526d195c881bdc88185c1c1c9bdd995960921b6064820152608490fd5b1561454957565b60405162461bcd60e51b815260206004820152602560248201527f455243313135353a207472616e7366657220746f20746865207a65726f206164604482015264647265737360d81b6064820152608490fd5b156145a357565b60405162461bcd60e51b815260206004820152602a60248201527f455243313135353a20696e73756666696369656e742062616c616e636520666f60448201526939103a3930b739b332b960b11b6064820152608490fd5b908160209103126102c057516001600160e01b0319811681036102c05790565b60809060208152602860208201527f455243313135353a204552433131353552656365697665722072656a656374656040820152676420746f6b656e7360c01b60608201520190565b60009060033d1161467157565b905060046000803e60005160e01c90565b600060443d106131d957604051600319913d83016004833e81516001600160401b03918282113d6024840111176146df578184019485519384116146e7573d850101602084870101116146df57506131d9929101602001906130b3565b949350505050565b50949350505050565b60809060208152603460208201527f455243313135353a207472616e7366657220746f206e6f6e2d455243313135356040820152732932b1b2b4bb32b91034b6b83632b6b2b73a32b960611b60608201520190565b6040519061475282613047565b6001825260203681840137614766826144be565b529056fea2646970667358221220332d951cf5e859d989d082ddda8d81b11c4b0ca73a225b6b8b8f904b6451e52764736f6c63430008110033405787fa12a823e0f2b7631cc41b3ba8828b3321ca811111fa75cd3aa3bb5ace",
  "linkReferences": {},
  "deployedLinkReferences": {}
}