{
  "_format": "hh-sol-artifact-1",
  "contractName": "Penduel",
  "sourceName": "contracts/Penduel.sol",
  "abi": [
    {
      "inputs": [
        {
          "internalType": "string",
          "name": "_metadataURI",
          "type": "string"
        }
      ],
      "stateMutability": "nonpayable",
      "type": "constructor"
    },
    {
      "anonymous": false,
      "inputs": [
        {
          "indexed": true,
          "internalType": "address",
          "name": "account",
          "type": "address"
        },
        {
          "indexed": true,
          "internalType": "address",
          "name": "operator",
          "type": "address"
        },
        {
          "indexed": false,
          "internalType": "bool",
          "name": "approved",
          "type": "bool"
        }
      ],
      "name": "ApprovalForAll",
      "type": "event"
    },
    {
      "anonymous": false,
      "inputs": [
        {
          "indexed": false,
          "internalType": "string",
          "name": "battleName",
          "type": "string"
        },
        {
          "indexed": true,
          "internalType": "address",
          "name": "player1",
          "type": "address"
        },
        {
          "indexed": true,
          "internalType": "address",
          "name": "player2",
          "type": "address"
        },
        {
          "indexed": false,
          "internalType": "string",
          "name": "maskedWord",
          "type": "string"
        }
      ],
      "name": "BattleBegin",
      "type": "event"
    },
    {
      "anonymous": false,
      "inputs": [
        {
          "indexed": false,
          "internalType": "string",
          "name": "battleName",
          "type": "string"
        },
        {
          "indexed": true,
          "internalType": "address",
          "name": "player1",
          "type": "address"
        },
        {
          "indexed": true,
          "internalType": "address",
          "name": "player2",
          "type": "address"
        }
      ],
      "name": "BattleCreate",
      "type": "event"
    },
    {
      "anonymous": false,
      "inputs": [
        {
          "indexed": false,
          "internalType": "string",
          "name": "battleName",
          "type": "string"
        },
        {
          "indexed": true,
          "internalType": "address",
          "name": "winner",
          "type": "address"
        },
        {
          "indexed": true,
          "internalType": "address",
          "name": "loser",
          "type": "address"
        }
      ],
      "name": "BattleEnded",
      "type": "event"
    },
    {
      "anonymous": false,
      "inputs": [
        {
          "indexed": true,
          "internalType": "bool",
          "name": "_findNewLetter",
          "type": "bool"
        },
        {
          "indexed": false,
          "internalType": "string",
          "name": "maskedWord",
          "type": "string"
        }
      ],
      "name": "BattleLetter",
      "type": "event"
    },
    {
      "anonymous": false,
      "inputs": [
        {
          "indexed": true,
          "internalType": "address",
          "name": "owner",
          "type": "address"
        },
        {
          "indexed": false,
          "internalType": "uint256",
          "name": "id",
          "type": "uint256"
        },
        {
          "indexed": false,
          "internalType": "uint256",
          "name": "attackStrength",
          "type": "uint256"
        },
        {
          "indexed": false,
          "internalType": "uint256",
          "name": "defenseStrength",
          "type": "uint256"
        }
      ],
      "name": "NewGameToken",
      "type": "event"
    },
    {
      "anonymous": false,
      "inputs": [
        {
          "indexed": true,
          "internalType": "address",
          "name": "owner",
          "type": "address"
        },
        {
          "indexed": false,
          "internalType": "string",
          "name": "playerName",
          "type": "string"
        }
      ],
      "name": "NewPlayer",
      "type": "event"
    },
    {
      "anonymous": false,
      "inputs": [
        {
          "indexed": true,
          "internalType": "address",
          "name": "previousOwner",
          "type": "address"
        },
        {
          "indexed": true,
          "internalType": "address",
          "name": "newOwner",
          "type": "address"
        }
      ],
      "name": "OwnershipTransferred",
      "type": "event"
    },
    {
      "anonymous": false,
      "inputs": [
        {
          "indexed": false,
          "internalType": "address",
          "name": "player",
          "type": "address"
        },
        {
          "indexed": false,
          "internalType": "uint256",
          "name": "amount",
          "type": "uint256"
        }
      ],
      "name": "PlayerWithdraw",
      "type": "event"
    },
    {
      "anonymous": false,
      "inputs": [],
      "name": "RoundEnded",
      "type": "event"
    },
    {
      "anonymous": false,
      "inputs": [
        {
          "indexed": true,
          "internalType": "address",
          "name": "operator",
          "type": "address"
        },
        {
          "indexed": true,
          "internalType": "address",
          "name": "from",
          "type": "address"
        },
        {
          "indexed": true,
          "internalType": "address",
          "name": "to",
          "type": "address"
        },
        {
          "indexed": false,
          "internalType": "uint256[]",
          "name": "ids",
          "type": "uint256[]"
        },
        {
          "indexed": false,
          "internalType": "uint256[]",
          "name": "values",
          "type": "uint256[]"
        }
      ],
      "name": "TransferBatch",
      "type": "event"
    },
    {
      "anonymous": false,
      "inputs": [
        {
          "indexed": true,
          "internalType": "address",
          "name": "operator",
          "type": "address"
        },
        {
          "indexed": true,
          "internalType": "address",
          "name": "from",
          "type": "address"
        },
        {
          "indexed": true,
          "internalType": "address",
          "name": "to",
          "type": "address"
        },
        {
          "indexed": false,
          "internalType": "uint256",
          "name": "id",
          "type": "uint256"
        },
        {
          "indexed": false,
          "internalType": "uint256",
          "name": "value",
          "type": "uint256"
        }
      ],
      "name": "TransferSingle",
      "type": "event"
    },
    {
      "anonymous": false,
      "inputs": [
        {
          "indexed": false,
          "internalType": "string",
          "name": "value",
          "type": "string"
        },
        {
          "indexed": true,
          "internalType": "uint256",
          "name": "id",
          "type": "uint256"
        }
      ],
      "name": "URI",
      "type": "event"
    },
    {
      "anonymous": false,
      "inputs": [
        {
          "indexed": false,
          "internalType": "string",
          "name": "wordToAdd",
          "type": "string"
        }
      ],
      "name": "WordAdded",
      "type": "event"
    },
    {
      "inputs": [],
      "name": "MAX_ATTACK_DEFEND_STRENGTH",
      "outputs": [
        {
          "internalType": "uint256",
          "name": "",
          "type": "uint256"
        }
      ],
      "stateMutability": "view",
      "type": "function"
    },
    {
      "inputs": [
        {
          "internalType": "string",
          "name": "wordToAdd",
          "type": "string"
        }
      ],
      "name": "addWord",
      "outputs": [],
      "stateMutability": "nonpayable",
      "type": "function"
    },
    {
      "inputs": [
        {
          "internalType": "address",
          "name": "account",
          "type": "address"
        },
        {
          "internalType": "uint256",
          "name": "id",
          "type": "uint256"
        }
      ],
      "name": "balanceOf",
      "outputs": [
        {
          "internalType": "uint256",
          "name": "",
          "type": "uint256"
        }
      ],
      "stateMutability": "view",
      "type": "function"
    },
    {
      "inputs": [
        {
          "internalType": "address[]",
          "name": "accounts",
          "type": "address[]"
        },
        {
          "internalType": "uint256[]",
          "name": "ids",
          "type": "uint256[]"
        }
      ],
      "name": "balanceOfBatch",
      "outputs": [
        {
          "internalType": "uint256[]",
          "name": "",
          "type": "uint256[]"
        }
      ],
      "stateMutability": "view",
      "type": "function"
    },
    {
      "inputs": [],
      "name": "baseURI",
      "outputs": [
        {
          "internalType": "string",
          "name": "",
          "type": "string"
        }
      ],
      "stateMutability": "view",
      "type": "function"
    },
    {
      "inputs": [
        {
          "internalType": "bytes1",
          "name": "pLetter",
          "type": "bytes1"
        },
        {
          "internalType": "string",
          "name": "battleName",
          "type": "string"
        }
      ],
      "name": "chosenLetter",
      "outputs": [],
      "stateMutability": "nonpayable",
      "type": "function"
    },
    {
      "inputs": [
        {
          "internalType": "string",
          "name": "battleName",
          "type": "string"
        }
      ],
      "name": "createBattle",
      "outputs": [],
      "stateMutability": "payable",
      "type": "function"
    },
    {
      "inputs": [
        {
          "internalType": "string",
          "name": "battleName",
          "type": "string"
        }
      ],
      "name": "createRandomGameToken",
      "outputs": [],
      "stateMutability": "nonpayable",
      "type": "function"
    },
    {
      "inputs": [
        {
          "internalType": "uint256",
          "name": "id",
          "type": "uint256"
        }
      ],
      "name": "exists",
      "outputs": [
        {
          "internalType": "bool",
          "name": "",
          "type": "bool"
        }
      ],
      "stateMutability": "view",
      "type": "function"
    },
    {
      "inputs": [
        {
          "internalType": "string",
          "name": "battleName",
          "type": "string"
        }
      ],
      "name": "getActivePlayer",
      "outputs": [
        {
          "internalType": "address",
          "name": "",
          "type": "address"
        }
      ],
      "stateMutability": "view",
      "type": "function"
    },
    {
      "inputs": [],
      "name": "getAllBattles",
      "outputs": [
        {
          "components": [
            {
              "internalType": "enum Penduel.BattleStatus",
              "name": "battleStatus",
              "type": "uint8"
            },
            {
              "internalType": "bytes32",
              "name": "battleHash",
              "type": "bytes32"
            },
            {
              "internalType": "string",
              "name": "name",
              "type": "string"
            },
            {
              "internalType": "uint256",
              "name": "bet",
              "type": "uint256"
            },
            {
              "internalType": "address[2]",
              "name": "players",
              "type": "address[2]"
            },
            {
              "internalType": "address",
              "name": "activePlayer",
              "type": "address"
            },
            {
              "internalType": "address",
              "name": "winner",
              "type": "address"
            },
            {
              "internalType": "bytes",
              "name": "maskedWord",
              "type": "bytes"
            },
            {
              "internalType": "string",
              "name": "guesses",
              "type": "string"
            },
            {
              "internalType": "uint8",
              "name": "incorrectGuess",
              "type": "uint8"
            },
            {
              "internalType": "uint256",
              "name": "date",
              "type": "uint256"
            }
          ],
          "internalType": "struct Penduel.Battle[]",
          "name": "",
          "type": "tuple[]"
        }
      ],
      "stateMutability": "view",
      "type": "function"
    },
    {
      "inputs": [],
      "name": "getAllPlayerTokens",
      "outputs": [
        {
          "components": [
            {
              "internalType": "string",
              "name": "name",
              "type": "string"
            },
            {
              "internalType": "uint256",
              "name": "id",
              "type": "uint256"
            },
            {
              "internalType": "uint256",
              "name": "attackStrength",
              "type": "uint256"
            },
            {
              "internalType": "uint256",
              "name": "defenseStrength",
              "type": "uint256"
            }
          ],
          "internalType": "struct Penduel.GameToken[]",
          "name": "",
          "type": "tuple[]"
        }
      ],
      "stateMutability": "view",
      "type": "function"
    },
    {
      "inputs": [],
      "name": "getAllPlayers",
      "outputs": [
        {
          "components": [
            {
              "internalType": "address payable",
              "name": "playerAddress",
              "type": "address"
            },
            {
              "internalType": "string",
              "name": "playerName",
              "type": "string"
            },
            {
              "internalType": "uint256",
              "name": "playerMana",
              "type": "uint256"
            },
            {
              "internalType": "uint256",
              "name": "playerHealth",
              "type": "uint256"
            },
            {
              "internalType": "bool",
              "name": "inBattle",
              "type": "bool"
            }
          ],
          "internalType": "struct Penduel.Player[]",
          "name": "",
          "type": "tuple[]"
        }
      ],
      "stateMutability": "view",
      "type": "function"
    },
    {
      "inputs": [],
      "name": "getBalance",
      "outputs": [
        {
          "internalType": "uint256",
          "name": "",
          "type": "uint256"
        }
      ],
      "stateMutability": "view",
      "type": "function"
    },
    {
      "inputs": [
        {
          "internalType": "string",
          "name": "battleName",
          "type": "string"
        }
      ],
      "name": "getBattle",
      "outputs": [
        {
          "components": [
            {
              "internalType": "enum Penduel.BattleStatus",
              "name": "battleStatus",
              "type": "uint8"
            },
            {
              "internalType": "bytes32",
              "name": "battleHash",
              "type": "bytes32"
            },
            {
              "internalType": "string",
              "name": "name",
              "type": "string"
            },
            {
              "internalType": "uint256",
              "name": "bet",
              "type": "uint256"
            },
            {
              "internalType": "address[2]",
              "name": "players",
              "type": "address[2]"
            },
            {
              "internalType": "address",
              "name": "activePlayer",
              "type": "address"
            },
            {
              "internalType": "address",
              "name": "winner",
              "type": "address"
            },
            {
              "internalType": "bytes",
              "name": "maskedWord",
              "type": "bytes"
            },
            {
              "internalType": "string",
              "name": "guesses",
              "type": "string"
            },
            {
              "internalType": "uint8",
              "name": "incorrectGuess",
              "type": "uint8"
            },
            {
              "internalType": "uint256",
              "name": "date",
              "type": "uint256"
            }
          ],
          "internalType": "struct Penduel.Battle",
          "name": "",
          "type": "tuple"
        }
      ],
      "stateMutability": "view",
      "type": "function"
    },
    {
      "inputs": [
        {
          "internalType": "string",
          "name": "battleName",
          "type": "string"
        }
      ],
      "name": "getGuesses",
      "outputs": [
        {
          "internalType": "string",
          "name": "_guesses",
          "type": "string"
        }
      ],
      "stateMutability": "view",
      "type": "function"
    },
    {
      "inputs": [
        {
          "internalType": "string",
          "name": "battleName",
          "type": "string"
        }
      ],
      "name": "getMaskedWord",
      "outputs": [
        {
          "internalType": "string",
          "name": "",
          "type": "string"
        }
      ],
      "stateMutability": "view",
      "type": "function"
    },
    {
      "inputs": [
        {
          "internalType": "string",
          "name": "battleName",
          "type": "string"
        }
      ],
      "name": "getNumberOfIncorrectGuess",
      "outputs": [
        {
          "internalType": "uint8",
          "name": "",
          "type": "uint8"
        }
      ],
      "stateMutability": "view",
      "type": "function"
    },
    {
      "inputs": [
        {
          "internalType": "address",
          "name": "playerAddress",
          "type": "address"
        }
      ],
      "name": "getPlayer",
      "outputs": [
        {
          "components": [
            {
              "internalType": "address payable",
              "name": "playerAddress",
              "type": "address"
            },
            {
              "internalType": "string",
              "name": "playerName",
              "type": "string"
            },
            {
              "internalType": "uint256",
              "name": "playerMana",
              "type": "uint256"
            },
            {
              "internalType": "uint256",
              "name": "playerHealth",
              "type": "uint256"
            },
            {
              "internalType": "bool",
              "name": "inBattle",
              "type": "bool"
            }
          ],
          "internalType": "struct Penduel.Player",
          "name": "",
          "type": "tuple"
        }
      ],
      "stateMutability": "view",
      "type": "function"
    },
    {
      "inputs": [
        {
          "internalType": "address",
          "name": "playerTokenAddress",
          "type": "address"
        }
      ],
      "name": "getPlayerToken",
      "outputs": [
        {
          "components": [
            {
              "internalType": "string",
              "name": "name",
              "type": "string"
            },
            {
              "internalType": "uint256",
              "name": "id",
              "type": "uint256"
            },
            {
              "internalType": "uint256",
              "name": "attackStrength",
              "type": "uint256"
            },
            {
              "internalType": "uint256",
              "name": "defenseStrength",
              "type": "uint256"
            }
          ],
          "internalType": "struct Penduel.GameToken",
          "name": "",
          "type": "tuple"
        }
      ],
      "stateMutability": "view",
      "type": "function"
    },
    {
      "inputs": [],
      "name": "getTotalSupply",
      "outputs": [
        {
          "internalType": "uint256",
          "name": "",
          "type": "uint256"
        }
      ],
      "stateMutability": "view",
      "type": "function"
    },
    {
      "inputs": [
        {
          "internalType": "address",
          "name": "account",
          "type": "address"
        },
        {
          "internalType": "address",
          "name": "operator",
          "type": "address"
        }
      ],
      "name": "isApprovedForAll",
      "outputs": [
        {
          "internalType": "bool",
          "name": "",
          "type": "bool"
        }
      ],
      "stateMutability": "view",
      "type": "function"
    },
    {
      "inputs": [
        {
          "internalType": "string",
          "name": "battleName",
          "type": "string"
        }
      ],
      "name": "isBattle",
      "outputs": [
        {
          "internalType": "bool",
          "name": "",
          "type": "bool"
        }
      ],
      "stateMutability": "view",
      "type": "function"
    },
    {
      "inputs": [
        {
          "internalType": "address",
          "name": "playerAddress",
          "type": "address"
        }
      ],
      "name": "isPlayer",
      "outputs": [
        {
          "internalType": "bool",
          "name": "",
          "type": "bool"
        }
      ],
      "stateMutability": "view",
      "type": "function"
    },
    {
      "inputs": [
        {
          "internalType": "address",
          "name": "playerTokenAddress",
          "type": "address"
        }
      ],
      "name": "isPlayerToken",
      "outputs": [
        {
          "internalType": "bool",
          "name": "",
          "type": "bool"
        }
      ],
      "stateMutability": "view",
      "type": "function"
    },
    {
      "inputs": [
        {
          "internalType": "string",
          "name": "battleName",
          "type": "string"
        }
      ],
      "name": "joinBattle",
      "outputs": [
        {
          "components": [
            {
              "internalType": "enum Penduel.BattleStatus",
              "name": "battleStatus",
              "type": "uint8"
            },
            {
              "internalType": "bytes32",
              "name": "battleHash",
              "type": "bytes32"
            },
            {
              "internalType": "string",
              "name": "name",
              "type": "string"
            },
            {
              "internalType": "uint256",
              "name": "bet",
              "type": "uint256"
            },
            {
              "internalType": "address[2]",
              "name": "players",
              "type": "address[2]"
            },
            {
              "internalType": "address",
              "name": "activePlayer",
              "type": "address"
            },
            {
              "internalType": "address",
              "name": "winner",
              "type": "address"
            },
            {
              "internalType": "bytes",
              "name": "maskedWord",
              "type": "bytes"
            },
            {
              "internalType": "string",
              "name": "guesses",
              "type": "string"
            },
            {
              "internalType": "uint8",
              "name": "incorrectGuess",
              "type": "uint8"
            },
            {
              "internalType": "uint256",
              "name": "date",
              "type": "uint256"
            }
          ],
          "internalType": "struct Penduel.Battle",
          "name": "",
          "type": "tuple"
        }
      ],
      "stateMutability": "payable",
      "type": "function"
    },
    {
      "inputs": [],
      "name": "numberOfWords",
      "outputs": [
        {
          "internalType": "uint256",
          "name": "",
          "type": "uint256"
        }
      ],
      "stateMutability": "view",
      "type": "function"
    },
    {
      "inputs": [],
      "name": "owner",
      "outputs": [
        {
          "internalType": "address",
          "name": "",
          "type": "address"
        }
      ],
      "stateMutability": "view",
      "type": "function"
    },
    {
      "inputs": [
        {
          "internalType": "uint256",
          "name": "amount",
          "type": "uint256"
        }
      ],
      "name": "ownerWithdraw",
      "outputs": [],
      "stateMutability": "nonpayable",
      "type": "function"
    },
    {
      "inputs": [
        {
          "internalType": "string",
          "name": "battleName",
          "type": "string"
        }
      ],
      "name": "quitBattle",
      "outputs": [],
      "stateMutability": "nonpayable",
      "type": "function"
    },
    {
      "inputs": [
        {
          "internalType": "string",
          "name": "playerName",
          "type": "string"
        },
        {
          "internalType": "string",
          "name": "gameTokenName",
          "type": "string"
        }
      ],
      "name": "registerPlayer",
      "outputs": [],
      "stateMutability": "nonpayable",
      "type": "function"
    },
    {
      "inputs": [],
      "name": "removeAll",
      "outputs": [],
      "stateMutability": "nonpayable",
      "type": "function"
    },
    {
      "inputs": [],
      "name": "renounceOwnership",
      "outputs": [],
      "stateMutability": "nonpayable",
      "type": "function"
    },
    {
      "inputs": [
        {
          "internalType": "address",
          "name": "from",
          "type": "address"
        },
        {
          "internalType": "address",
          "name": "to",
          "type": "address"
        },
        {
          "internalType": "uint256[]",
          "name": "ids",
          "type": "uint256[]"
        },
        {
          "internalType": "uint256[]",
          "name": "amounts",
          "type": "uint256[]"
        },
        {
          "internalType": "bytes",
          "name": "data",
          "type": "bytes"
        }
      ],
      "name": "safeBatchTransferFrom",
      "outputs": [],
      "stateMutability": "nonpayable",
      "type": "function"
    },
    {
      "inputs": [
        {
          "internalType": "address",
          "name": "from",
          "type": "address"
        },
        {
          "internalType": "address",
          "name": "to",
          "type": "address"
        },
        {
          "internalType": "uint256",
          "name": "id",
          "type": "uint256"
        },
        {
          "internalType": "uint256",
          "name": "amount",
          "type": "uint256"
        },
        {
          "internalType": "bytes",
          "name": "data",
          "type": "bytes"
        }
      ],
      "name": "safeTransferFrom",
      "outputs": [],
      "stateMutability": "nonpayable",
      "type": "function"
    },
    {
      "inputs": [
        {
          "internalType": "address",
          "name": "operator",
          "type": "address"
        },
        {
          "internalType": "bool",
          "name": "approved",
          "type": "bool"
        }
      ],
      "name": "setApprovalForAll",
      "outputs": [],
      "stateMutability": "nonpayable",
      "type": "function"
    },
    {
      "inputs": [
        {
          "internalType": "string",
          "name": "newuri",
          "type": "string"
        }
      ],
      "name": "setURI",
      "outputs": [],
      "stateMutability": "nonpayable",
      "type": "function"
    },
    {
      "inputs": [
        {
          "internalType": "bytes4",
          "name": "interfaceId",
          "type": "bytes4"
        }
      ],
      "name": "supportsInterface",
      "outputs": [
        {
          "internalType": "bool",
          "name": "",
          "type": "bool"
        }
      ],
      "stateMutability": "view",
      "type": "function"
    },
    {
      "inputs": [
        {
          "internalType": "uint256",
          "name": "tokenId",
          "type": "uint256"
        }
      ],
      "name": "tokenURI",
      "outputs": [
        {
          "internalType": "string",
          "name": "",
          "type": "string"
        }
      ],
      "stateMutability": "view",
      "type": "function"
    },
    {
      "inputs": [],
      "name": "totalSupply",
      "outputs": [
        {
          "internalType": "uint256",
          "name": "",
          "type": "uint256"
        }
      ],
      "stateMutability": "view",
      "type": "function"
    },
    {
      "inputs": [
        {
          "internalType": "uint256",
          "name": "id",
          "type": "uint256"
        }
      ],
      "name": "totalSupply",
      "outputs": [
        {
          "internalType": "uint256",
          "name": "",
          "type": "uint256"
        }
      ],
      "stateMutability": "view",
      "type": "function"
    },
    {
      "inputs": [
        {
          "internalType": "address",
          "name": "newOwner",
          "type": "address"
        }
      ],
      "name": "transferOwnership",
      "outputs": [],
      "stateMutability": "nonpayable",
      "type": "function"
    },
    {
      "inputs": [
        {
          "internalType": "uint256",
          "name": "",
          "type": "uint256"
        }
      ],
      "name": "uri",
      "outputs": [
        {
          "internalType": "string",
          "name": "",
          "type": "string"
        }
      ],
      "stateMutability": "view",
      "type": "function"
    },
    {
      "stateMutability": "payable",
      "type": "receive"
    }
  ],
  "bytecode": "0x60a06040523462000ff5576200634e803803806200001d816200103a565b92833981019060208183031262000ff5578051906001600160401b03821162000ff5570181601f8201121562000ff5578051906001600160401b03821162000a3a5762000074601f8301601f19166020016200103a565b928284526020838301011162000ff55760005b82811062000fdf57600083850160200152835184906001600160401b03811162000a3a57620000b860025462001060565b601f811162000f9d575b50806020601f821160011462000f255760009162000f19575b508160011b916000199060031b1c1916176002555b60038054336001600160a01b03198216811790925560405191906001600160a01b03167f8be0079c531659141344cd1fd0a4f28419497f9722a3daafe3b4186f6b6457e0600084a36101c081016001600160401b0381118282101762000a3a576040526200015d62000ffa565b600581526468656c6c6f60d81b602082015281526200017b62000ffa565b6007815266676f6f6462796560c81b602082015260208201526200019e62000ffa565b600381526239bab760e91b60208201526040820152620001bd62000ffa565b6008815267686f6c6c6964617960c01b60208201526060820152620001e162000ffa565b60068152656265666f726560d01b602082015260808201526200020362000ffa565b600581526430b33a32b960d91b602082015260a08201526200022462000ffa565b600b81526a3932b9ba37b930ba34b7b760a91b602082015260c08201526200024b62000ffa565b60078152663330b9b434b7b760c91b602082015260e08201526200026e62000ffa565b60088152676472657373696e6760c01b60208201526101008201526200029362000ffa565b600e81526d726570726573656e74617469766560901b6020820152610120820152620002be62000ffa565b600781526673696c656e636560c81b6020820152610140820152620002e262000ffa565b600a81526961636365707461626c6560b01b60208201526101608201526200030962000ffa565b600d81526c195b9d9a5c9bdb9b595b9d185b609a1b60208201526101808201526200033362000ffa565b600981526870686f746f636f707960b81b60208201526101a0820152600754600e60075580600e1062000e69575b50600760009081526000805160206200632e833981519152915b600e821062000d795733608052835184906001600160401b03811162000a3a57620003a860055462001060565b601f811162000d36575b506020601f821160011462000cc957819260009262000cbd575b50508160011b916000199060031b1c1916176005555b604051608081016001600160401b0381118282101762000a3a57604052620004096200101a565b600081528152600060208201526000604082015260006060820152600d546801000000000000000081101562000a3a576001810180600d5581101562000b8d57600d6000528151805190927fd7b6990105719101dabeb77144f2a3385c8033acd3af97e9423a695e81ad1eb5916001600160401b03811162000a3a57620004a7816200049b8660021b86015462001060565b8660021b8601620010b6565b6020601f821160011462000c40579080606093926003969760009262000c34575b50508160011b9160001990871b1c1916178560021b8401555b60208101516001600296871b94909401938401556040808201519584019590955501519101555160a081018181106001600160401b0382111762000a3a5760405260008152620005306200101a565b600081526020820152600060408201526000606082015260006080820152600c546801000000000000000081101562000a3a576001810180600c5581101562000b8d57600c6000528151600582027fdf6966c971051c3d54ec59162606531493a51404a002842f56009d7e5cf4a8c790810180546001600160a01b0319166001600160a01b039390931692909217909155602083015180519093906001600160401b03811162000a3a576200060281620005f36001600588028701015462001060565b600160058802870101620010b6565b6020601f821160011462000baf5791816080926005946004979860009262000ba3575b50508160011b916000199060031b1c1916176001848802860101555b604081015160028488028601015560608101516003848802860101550151151560ff8019858488028601015416911617930201015560405180604081011060018060401b0360408301111762000a3a57604081016040526000815260006020820152620006ad6200101a565b60008152604051916001600160401b0361016084019081119084111762000a3a5761016083016040526000835260006020840152620006eb6200101a565b600081526040840152600060608401526080830152600060a0830152600060c0830152620007186200101a565b6000815260e083015261010082015260006101208201526000610140820152600e546801000000000000000081101562000a3a576001810180600e5581101562000b8d57600e60005281517fbb7b4a454dc3493923482f07822329ed19e8244eff582cc204f8554c3620c3fd90600381101562000b7757600c83028201805460ff191660ff929092169190911781556020840151600190910155604083015180519093906001600160401b03811162000a3a57620007f381620007e46002600c88028701015462001060565b6002600c8802870101620010b6565b6020601f821160011462000af957819293949560009262000aed575b50508160011b916000199060031b1c1916176002600c8502840101555b60608101516003600c850284010155608081015160005b6002811062000ac757505060a08101516006600c8502840190810180546001600160a01b039384166001600160a01b03199182161790915560c08401516007830180549190941691161790915560e08201518051600890920191906001600160401b03821162000a3a578190620008c782620008c0865462001060565b86620010b6565b602090601f831160011462000a5c5760009262000a50575b50508160011b916000199060031b1c19161790555b6101008101518051600c85028401600901916001600160401b03821162000a3a576200092d8262000926855462001060565b85620010b6565b602090601f8311600114620009c357928261014093600b979693600c96600092620009b7575b50508160011b916000199060031b1c19161790555b600a83870285010160ff6101208301511660ff19825416179055015193020101556040516152179081620010f7823960805181818161133001528181613e4301528181614022015261409b0152f35b01519050898062000953565b90601f198316918460005260206000209260005b81811062000a21575093600b979693600c969360019383610140981062000a07575b505050811b01905562000968565b015160001960f88460031b161c19169055898080620009f9565b92936020600181928786015181550195019301620009d7565b634e487b7160e01b600052604160045260246000fd5b015190508680620008df565b6000858152602081209350601f198516905b81811062000aae575090846001959493921062000a94575b505050811b019055620008f4565b015160001960f88460031b161c1916905586808062000a86565b9293602060018192878601518155019501930162000a6e565b81516001600160a01b03166004600c870286018301015560209091019060010162000843565b0151905085806200080f565b6002600c860285010160005260206000209060005b601f198416811062000b5e575060019394959683601f1981161062000b44575b505050811b016002600c8502840101556200082c565b015160001960f88460031b161c1916905585808062000b2e565b9091602060018192858b01518155019301910162000b0e565b634e487b7160e01b600052602160045260246000fd5b634e487b7160e01b600052603260045260246000fd5b01519050888062000625565b60016005860285010160005260206000209560005b601f198416811062000c1b5750826004969760059593600193608096601f1981161062000c01575b505050811b0160018488028601015562000641565b015160001960f88460031b161c1916905588808062000bec565b8282015188556001909701966020928301920162000bc4565b015190508780620004c8565b8460021b840160005260206000209560005b601f198416811062000ca4575091600395966001926060959483601f1981161062000c8b575b505050811b018560021b840155620004e1565b015160001983891b60f8161c1916905587808062000c78565b8282015188556001909701966020928301920162000c52565b015190508280620003cc565b600560005260206000209060005b601f198416811062000d1d575060019383601f1981161062000d03575b505050811b01600555620003e2565b015160001960f88460031b161c1916905582808062000cf4565b9091602060018192858801518155019301910162000cd7565b62000d679060056000526020600020601f840160051c8101916020851062000d6e575b601f0160051c01906200109d565b82620003b2565b909150819062000d59565b80518051906001600160401b03821162000a3a5762000da58262000d9e875462001060565b87620010b6565b602090601f831160011462000df557928260019493602093869560009262000de9575b5050600019600383901b1c191690841b1786555b019301910190916200037b565b01519050898062000dc8565b908560005260206000209160005b601f198516811062000e5057509260209260019592869583601f1981161062000e36575b505050831b8301865562000ddc565b015160001960f88460031b161c1916905588808062000e27565b9192602060018192868501518155019401920162000e03565b60076000526000805160206200632e833981519152907fa66cc928b5edb82af9bd49922954155ab7b0942694bea4ce44661d9a8736c6965b818301811062000eb357505062000361565b8062000ec26001925462001060565b8062000ed1575b500162000ea1565b601f8111831462000ee95750600081555b8662000ec9565b62000f09908260005283601f6020600020920160051c820191016200109d565b6000602081208183555562000ee2565b905082015183620000db565b600260009081526000805160206200630e8339815191529250601f198416905b81811062000f845750908360019493921062000f6a575b5050811b01600255620000f0565b84015160001960f88460031b161c19169055838062000f5c565b9192602060018192868901518155019401920162000f45565b600260005262000fd8906000805160206200630e833981519152601f840160051c8101916020851062000d6e57601f0160051c01906200109d565b82620000c2565b8060208092840101518282870101520162000087565b600080fd5b60408051919082016001600160401b0381118382101762000a3a57604052565b60405190602082016001600160401b0381118382101762000a3a57604052565b6040519190601f01601f191682016001600160401b0381118382101762000a3a57604052565b90600182811c9216801562001092575b60208310146200107c57565b634e487b7160e01b600052602260045260246000fd5b91607f169162001070565b818110620010a9575050565b600081556001016200109d565b9190601f8111620010c657505050565b620010f4926000526020600020906020601f840160051c8301931062000d6e57601f0160051c01906200109d565b56fe6080604052600436101561001b575b361561001957600080fd5b005b60003560e01c8062fdd58e1461036d578063015a37921461036457806301ffc9a71461035b57806302fe53051461035257806309c95e10146103495780630daea2cd146103405780630e89341c1461033757806310898e4c1461032e578063110553e9146103255780631107ae3d1461031c57806312065fe01461031357806316801d171461030a57806318160ddd146102445780632ca04522146103015780632d5fbd96146102f85780632eb2c2d6146102ef578063331dcd31146102e657806333f707d1146102dd5780634974da81146102d45780634e1273f4146102cb5780634f558e79146102c2578063548fb999146102b95780635c12cd4b146102b05780635c93fc3d146102a75780636c0360eb1461029e578063715018a614610295578063845f433b1461028c5780638da5cb5b14610283578063996d7bea1461027a5780639ec40aa314610271578063a1b4f57c14610268578063a22cb4651461025f578063bd85b03914610256578063bf103a4d1461024d578063c4e41b2214610244578063c87b56dd1461023b578063d5743ff814610232578063d8b3226414610229578063e985e9c514610220578063efa1c48214610217578063f242432a1461020e578063f2fde38b146102055763fcb633610361000e57610200612610565b61000e565b50610200612543565b50610200612305565b5061020061221c565b506102006121be565b5061020061211e565b5061020061206e565b50610200611f96565b50610200610be8565b50610200611f72565b50610200611f45565b50610200611e50565b50610200611bab565b50610200611b94565b50610200611aeb565b50610200611ac1565b506102006119b1565b5061020061194f565b50610200611882565b50610200611697565b5061020061165e565b506102006115f8565b506102006115c9565b5061020061150f565b506102006113c2565b50610200611319565b50610200610ff0565b50610200610e1f565b50610200610d6d565b50610200610c07565b50610200610bbf565b50610200610a6e565b50610200610a55565b50610200610a2c565b50610200610984565b506102006108b4565b50610200610886565b50610200610858565b50610200610751565b50610200610565565b50610200610467565b506102006103bb565b600435906001600160a01b038216820361038c57565b600080fd5b602435906001600160a01b038216820361038c57565b35906001600160a01b038216820361038c57565b503461038c57604036600319011261038c5760206103e36103da610376565b602435906147ae565b604051908152f35b60005b8381106103fe5750506000910152565b81810151838201526020016103ee565b90602091610427815180928185528580860191016103eb565b601f01601f1916010190565b9060608061044a845160808552608085019061040e565b936020810151602085015260408101516040850152015191015290565b503461038c5760008060031936011261055057600d5461048681610d9b565b906104946040519283610649565b808252600d835260209283830191817fd7b6990105719101dabeb77144f2a3385c8033acd3af97e9423a695e81ad1eb5845b83831061052b5750505050604051928484019085855251809152604084019460408260051b8601019392955b8287106104ff5785850386f35b90919293828061051b600193603f198a82030186528851610433565b96019201960195929190926104f2565b60048860019261053e859b9a989b61281b565b815201920192019190969395966104c6565b80fd5b6001600160e01b031981160361038c57565b503461038c57602036600319011261038c57602060043561058581610553565b63ffffffff60e01b16636cdb3d1360e11b81149081156105c3575b81156105b2575b506040519015158152f35b6301ffc9a760e01b149050386105a7565b6303a24d0760e21b811491506105a0565b50634e487b7160e01b600052604160045260246000fd5b60a081019081106001600160401b0382111761060657604052565b61060e6105d4565b604052565b608081019081106001600160401b0382111761060657604052565b604081019081106001600160401b0382111761060657604052565b90601f801991011681019081106001600160401b0382111761060657604052565b6040519061016082018281106001600160401b0382111761060657604052565b60405190610697826105eb565b565b6040519061069782610613565b604051906106978261062e565b6020906001600160401b0381116106d0575b601f01601f19160190565b6106d86105d4565b6106c5565b81601f8201121561038c578035906106f4826106b3565b926107026040519485610649565b8284526020838301011161038c57816000926020809301838601378301015290565b602060031982011261038c57600435906001600160401b03821161038c5761074e916004016106dd565b90565b503461038c5761076036610724565b610768614756565b80516001600160401b03811161084b575b61078d81610788600254611797565b612b72565b602080601f83116001146107c8575081926000926107bd575b50508160011b916000199060031b1c191617600255005b0151905038806107a6565b6002600052601f198316939091907f405787fa12a823e0f2b7631cc41b3ba8828b3321ca811111fa75cd3aa3bb5ace926000905b868210610833575050836001951061081a575b505050811b01600255005b015160001960f88460031b161c1916905538808061080f565b806001859682949686015181550195019301906107fc565b6108536105d4565b610779565b503461038c57602036600319011261038c57602061087c610877610376565b61265e565b6040519015158152f35b503461038c57600036600319011261038c576020604051600a8152f35b90602061074e92818152019061040e565b503461038c5760208060031936011261038c576040516000916002546108d981611797565b808452906001908181169081156109535750600114610913575b61090f8461090381880382610649565b604051918291826108a3565b0390f35b919350600260005283600020916000925b828410610940575050508161090f9361090392820101936108f3565b8054858501870152928501928101610924565b60ff1916858501525050151560051b82010191506109038161090f6108f3565b90602061074e928181520190610433565b503461038c57602036600319011261038c5761099e610376565b6109a66127c9565b506109b0816127a8565b156109eb5760018060a01b0316600052600a60205261090f6109df6109d96040600020546127ee565b5061281b565b60405191829182610973565b60405162461bcd60e51b815260206004820152601960248201527847616d6520746f6b656e20646f65736e27742065786973742160381b6044820152606490fd5b503461038c57602060ff610120610a4a610a4536610724565b612a6c565b015116604051908152f35b503461038c57602061087c610a6936610724565b612899565b503461038c57600036600319011261038c57602047604051908152f35b60031115610a9557565b634e487b7160e01b600052602160045260246000fd5b906003821015610a955752565b6000915b60028310610ac957505050565b81516001600160a01b031681526001929092019160209182019101610abc565b90610af5818351610aab565b60208201516020820152610160610b1b604084015161018080604086015284019061040e565b9260608101516060840152610b3860808201516080850190610ab8565b60a08101516001600160a01b031660c084015260c08101516001600160a01b031660e0840152610b8f610b7a60e083015195610100968682038888015261040e565b9482015194610120958582038787015261040e565b9381015190610ba6610140928386019060ff169052565b015191015290565b90602061074e928181520190610ae9565b503461038c5761090f610bd4610a4536610724565b604051918291602083526020830190610ae9565b503461038c57600036600319011261038c576020600654604051908152f35b50610c1136610724565b610c1e600754151561313d565b610c2f610c2a3361265e565b612dd3565b610c47610c42610c3e83612899565b1590565b61319d565b610c5433313411156131e2565b610c6464174876e8003411613245565b6040516020810190610c8881610c7a85856108a3565b03601f198101835282610649565b51902090610d15610c976106a6565b3381529260006020850152610caa6130a6565b92610cb36130a6565b610cbb61066a565b60008152602081019390935260408301828152346060850152608084019687523360a085015294600060c085015260e0840152610100830152600061012083015242610140830152610d0f600e5491612873565b55613317565b5190516001600160a01b0390610d36906020015b516001600160a01b031690565b16907f5da93d412071ca49c5b3543268fc9249b407b8de53c1589d76d6532f0a5b7df860405180610d683394826108a3565b0390a3005b503461038c5761090f610d87610d8236610724565b612ae8565b60405191829160208352602083019061040e565b6020906001600160401b038111610db4575b60051b0190565b610dbc6105d4565b610dad565b81601f8201121561038c57803591610dd883610d9b565b92610de66040519485610649565b808452602092838086019260051b82010192831161038c578301905b828210610e10575050505090565b81358152908301908301610e02565b503461038c5760a036600319011261038c57610e39610376565b610e41610391565b906001600160401b039060443582811161038c57610e63903690600401610dc1565b9160643581811161038c57610e7c903690600401610dc1565b9060843590811161038c57610e959036906004016106dd565b6001600160a01b038381169491903386148015610fcd575b610eb690614949565b610ec38351855114614a80565b8616610ed08115156149ac565b610edc848489886150d4565b60005b8351811015610f895780610ef6610f84928661486c565b51610f7d610f758b610f2a610f0b868c61486c565b51948c610f6487610f4183610f2a866000526000602052604060002090565b9060018060a01b0316600052602052604060002090565b54610f4e82821015614a06565b0391610f2a846000526000602052604060002090565b556000526000602052604060002090565b918254614a73565b905561301a565b610edf565b5093869194610019966040517f4a39dc06d4c0dbc64b70af90fd698a233a518aa5d07e595d983b8c0526c8f7fb339180610fc48a8a83614add565b0390a433614fe6565b50600086815260016020908152604080832033845290915290205460ff16610ead565b503461038c57604036600319011261038c576004356001600160f81b03198116810361038c576024356001600160401b03811161038c576110359036906004016106dd565b61103e81612a6c565b9161105e6001845161104f81610a8b565b61105881610a8b565b14613925565b61107e6002845161106e81610a8b565b61107781610a8b565b14156139a1565b60808301805180516001600160a01b03916110a891839081163314918215611300575b50506139fc565b6110dd6110d66110ca60a06110bc88612a6c565b01516001600160a01b031690565b6001600160a01b031690565b3314613a48565b610c7a611148610120870194611103600660ff6110fb895160ff1690565b161115613a8a565b60e088019461111c828751611116613709565b90614626565b909652851594856111d7575b50506040516001600160f81b031990911660208201529182906021820190565b6111586101008701918251613b1c565b9052611164858561381e565b7fe212ed376777ebdfaa9739efc3d6eed905003d9d42dff523214c309a7396a61f6111a061119186612ae8565b926040519182911594826108a3565b0390a2156111b357506100199150613b99565b51600691506111c69060ff165b60ff1690565b10156111ce57005b61001990613e0c565b8151516112989290611209906111fb90610d2990611200906001600160a01b031683565b612644565b54935160200190565b546112246112168361269b565b50546001600160a01b031690565b60a08d018051909491908290611242906001600160a01b03166110ca565b91160361129f57505061125660039161269b565b50016112628154612fc8565b90555b61128261127b6112768a5160ff1690565b613af9565b60ff168952565b61128b89613b5d565b6001600160a01b03169052565b3880611128565b9091506112ae6112168361269b565b83519091906112c5906001600160a01b03166110ca565b9116036112ea576112d760039161269b565b50016112e38154612fc8565b9055611265565b506112fb6112f6613ac7565b615151565b611265565b60200151166001600160a01b03169050331482386110a1565b503461038c57602036600319011261038c576004357f00000000000000000000000000000000000000000000000000000000000000006001600160a01b031633036113875760008080809381811561137e575b3390f11561137657005b610019612637565b506108fc61136c565b60405162461bcd60e51b815260206004820152601360248201527231b0b63632b91034b9903737ba1037bbb732b960691b6044820152606490fd5b503461038c576113d136610724565b6113d9614756565b6113e281614590565b15611475576113ef614756565b6113f88161447a565b156114305761142b816109037fa8a13d5362cedeaaf8906a83b0afcab2c07c8bdac8a04ed19d273c4307f260bd9361440f565b0390a1005b60405162461bcd60e51b815260206004820152601f60248201527f4572726f722c20776f726420616c726561647920696e20746865206c697374006044820152606490fd5b60405162461bcd60e51b815260206004820152602760248201527f4572726f722c20776f72642077697468206c6f77657263617365206c657474656044820152667273206f6e6c7960c81b6064820152608490fd5b90815180825260208080930193019160005b8281106114ea575050505090565b8351855293810193928101926001016114dc565b90602061074e9281815201906114ca565b503461038c57604036600319011261038c576004356001600160401b0380821161038c573660238301121561038c57816004013561154c81610d9b565b9261155a6040519485610649565b81845260209160248386019160051b8301019136831161038c57602401905b8282106115b2578560243586811161038c5761090f916115a06115a6923690600401610dc1565b9061488e565b604051918291826114fe565b8380916115be846103a7565b815201910190611579565b503461038c57602036600319011261038c57600435600052600460205260206040600020541515604051908152f35b503461038c5760206001600160a01b0360a0610a4a610a4536610724565b9060018060a01b03825116815260808061163f602085015160a0602086015260a085019061040e565b9360408101516040850152606081015160608501520151151591015290565b503461038c57602036600319011261038c5761090f61168361167e610376565b612720565b604051918291602083526020830190611616565b503461038c5760008060031936011261055057600e546116b681610d9b565b906116c46040519283610649565b808252600e835260209283830191817fbb7b4a454dc3493923482f07822329ed19e8244eff582cc204f8554c3620c3fd845b83831061175b5750505050604051928484019085855251809152604084019460408260051b8601019392955b82871061172f5785850386f35b90919293828061174b600193603f198a82030186528851610ae9565b9601920196019592919092611722565b600c8860019261176e859b9a989b6129a7565b815201920192019190969395966116f6565b50634e487b7160e01b600052600060045260246000fd5b90600182811c921680156117c7575b60208310146117b157565b634e487b7160e01b600052602260045260246000fd5b91607f16916117a6565b90600092918054916117e283611797565b9182825260019384811690816000146118445750600114611804575b50505050565b90919394506000526020928360002092846000945b8386106118305750505050010190388080806117fe565b805485870183015294019385908201611819565b9294505050602093945060ff191683830152151560051b010190388080806117fe565b9061069761187b92604051938480926117d1565b0383610649565b503461038c5760008060031936011261055057604051816005546118a581611797565b8084529060019081811690811561192757506001146118ce5761090f8461090381880382610649565b60058352602094507f036b6384b5eca791c62761152d0c79bb0604c104a5fb6f4eb0703f3154bb3db05b828410611914575050508161090f9361090392820101936108f3565b80548585018701529285019281016118f8565b61090f96506109039450602092508593915060ff191682840152151560051b820101936108f3565b503461038c576000806003193601126105505761196a614756565b600380546001600160a01b031981169091556040519082906001600160a01b03167f8be0079c531659141344cd1fd0a4f28419497f9722a3daafe3b4186f6b6457e08284a3f35b503461038c57604036600319011261038c576001600160401b0360043581811161038c576119e39036906004016106dd565b9060243590811161038c576119fc9036906004016106dd565b611a053361265e565b611a805761001991600c54611a3e611a1b61068a565b338152836020820152600a60408201526006606082015260006080820152612d07565b611a4733612644565b557f81ef79d1cda814a60c0fc60792e648a06d9c6bae67176346d1cc8b63030bfccd60405180611a783394826108a3565b0390a2612e1f565b60405162461bcd60e51b8152602060048201526019602482015278141b185e595c88185b1c9958591e481c9959da5cdd195c9959603a1b6044820152606490fd5b503461038c57600036600319011261038c576003546040516001600160a01b039091168152602090f35b503461038c57611b29611afd36610724565b610a4581604051611b0d8161062e565b600a81526971756974426174746c6560b01b602082015261519a565b60808101908151611b4f60018060a01b0391828151163314908115611b7b575b50613d0f565b82515116338103611b715750611b6c610d29610019935160200190565b613fe4565b6100199250613fe4565b6020015133915083166001600160a01b03161438611b49565b503461038c57610019611ba636610724565b612e1f565b5061090f611bb836610724565b611bc06128ac565b50611ce4611bcd82612a6c565b917fcb17c4d26368c123b39a5b879cf729cad76aa10dfe5b9cd5355296f2732b86036080840191611d8a85611c0a855160018060a01b0390511690565b6001600160a01b039390611c2290851633141561343a565b611c42611c3d610c3e6080611c3633612720565b0151151590565b613490565b611c4f33313411156134d0565b611c5e60608301513414613531565b611c7b8251611c6c81610a8b565b611c7581610a8b565b1561357d565b60018252611c9d33611c8e885160200190565b6001600160a01b039091169052565b8551516001600160a01b031660a0830152611d2a611d24611d1f611cc084612873565b54604051906325e41da160e01b8252818060209d8e93600483019190602083019252565b038173512a528818ea1bbc93ee378c221aa93b0798383f5afa908115611e43575b600091611e16575b506007548b811015611e0e5790612ffa565b6135d2565b506135fb565b611d3a611d35613709565b6138b1565b96611d7f611d5f611d5160e086019a808c526137c4565b516001600160f81b03191690565b6040516001600160f81b0319909116928101928352918290600101610c7a565b61010083015261381e565b825151611dbf90600490611db090611daa906001600160a01b0316612644565b5461269b565b5001805460ff19166001179055565b611dd86004611db0611daa6111fb610d29885160200190565b60408501519251516001600160a01b0316935190611dff60405192839233971695836137f9565b0390a360405191829182610bae565b508a90612ffa565b611e3691508b3d8d11611e3c575b611e2e8183610649565b8101906135c3565b38611d0d565b503d611e24565b611e4b612637565b611d05565b503461038c57604036600319011261038c57611e6a610376565b602435801515810361038c576001600160a01b03821691338314611eee57336000908152600160205260409020611eb8918391611ea79190610f2a565b9060ff801983541691151516179055565b604051901515815233907f17307eab39ab6107e8899845ad3d59bd9653f200f220920489ca2b5937696c31908060208101610d68565b60405162461bcd60e51b815260206004820152602960248201527f455243313135353a2073657474696e6720617070726f76616c20737461747573604482015268103337b91039b2b63360b91b6064820152608490fd5b503461038c57602036600319011261038c5760043560005260046020526020604060002054604051908152f35b503461038c57602036600319011261038c57602061087c611f91610376565b6127a8565b503461038c5760208060031936011261038c57611fb4600435614333565b60405190600092600554611fc781611797565b9060019081811690811561204f575060011461200e575b602f60f81b865261090f8561090381610c7a611ffd60018c018a61285c565b64173539b7b760d91b815260050190565b90919450600560005284600020906000915b83831061203c5750505082019092019181610c7a611ffd611fde565b8054868401880152918601918101612020565b60ff191684870152505080151502830101925081610c7a611ffd611fde565b503461038c5760008060031936011261055057612089614756565b60078054156120e557815b8154808210156120df5780156120cb576120c69190600019016120bf6120b9826135d2565b9061451f565b835561301a565b612094565b634e487b7160e01b84526031600452602484fd5b83604051f35b60405162461bcd60e51b81526020600482015260116024820152706e6f20776f726420746f2072656d6f766560781b6044820152606490fd5b503461038c5761212d36610724565b61213681612899565b1561216d57600961090361215561214f61090f94612873565b54612931565b5061216660405180948193016117d1565b0382610649565b60405162461bcd60e51b815260206004820152602360248201527f2867657447756573736573293a20426174746c6520646f65736e27742065786960448201526273742160e81b6064820152608490fd5b503461038c57604036600319011261038c57602060ff6122106121df610376565b6121e7610391565b6001600160a01b0391821660009081526001865260408082209290931681526020919091522090565b54166040519015158152f35b503461038c5760008060031936011261055057600c5461223b81610d9b565b906122496040519283610649565b808252600c835260209283830191817fdf6966c971051c3d54ec59162606531493a51404a002842f56009d7e5cf4a8c7845b8383106122e05750505050604051928484019085855251809152604084019460408260051b8601019392955b8287106122b45785850386f35b9091929382806122d0600193603f198a82030186528851611616565b96019201960195929190926122a7565b6005886001926122f3859b9a989b6126c8565b8152019201920191909693959661227b565b503461038c5760a036600319011261038c5761231f610376565b612327610391565b6064356044356084356001600160401b03811161038c5761234c9036906004016106dd565b6001600160a01b0385811695919491903387148015612520575b61236f90614949565b821680159661237e88156149ac565b61238785615052565b9761239187615052565b9082156124c4575b612442575b506100199750856123bd84610f2a886000526000602052604060002090565b546123ca82821015614a06565b036123e384610f2a886000526000602052604060002090565b556123fc84610f2a876000526000602052604060002090565b612407878254614a73565b9055604080518681526020810188905233917fc3d58168c5ae7397731d063d5bbf3d657854427343f4c083240f7aacaa2d0f6291a433614ec0565b959391600097959391975b89518110156124b157806124646124ac928c61486c565b516124a6612472838c61486c565b51612487836000526004602052604060002090565b5461249482821015615077565b03916000526004602052604060002090565b5561301a565b61244d565b509193955091939561001997503861239e565b9896939095926000989592985b8851811015612510578089610f7d610f756124fa846124f361250b978f61486c565b519461486c565b516000526004602052604060002090565b6124d1565b5092959093969897919497612399565b50600087815260016020908152604080832033845290915290205460ff16612366565b503461038c57602036600319011261038c5761255d610376565b612565614756565b6001600160a01b039081169081156125bc57600380546001600160a01b03198116841790915560405160009390929091167f8be0079c531659141344cd1fd0a4f28419497f9722a3daafe3b4186f6b6457e08484a3f35b60405162461bcd60e51b815260206004820152602660248201527f4f776e61626c653a206e6577206f776e657220697320746865207a65726f206160448201526564647265737360d01b6064820152608490fd5b503461038c57600036600319011261038c5761262a614756565b6020600754604051908152f35b506040513d6000823e3d90fd5b6001600160a01b0316600090815260096020526040902090565b6001600160a01b031660009081526009602052604090205461267f57600090565b600190565b50634e487b7160e01b600052603260045260246000fd5b600c548110156126bb575b600c6000526005602060002091020190600090565b6126c3612684565b6126a6565b906040516126d5816105eb565b608060ff6004839560018060a01b0381541685526040516126fd8161216681600186016117d1565b602086015260028101546040860152600381015460608601520154161515910152565b60006080604051612730816105eb565b8281526060602082015282604082015282606082015201526127518161265e565b1561276b57612765611daa61074e92612644565b506126c8565b60405162461bcd60e51b8152602060048201526015602482015274506c6179657220646f65736e27742065786973742160581b6044820152606490fd5b6001600160a01b03166000908152600a602052604090205461267f57600090565b604051906127d682610613565b60006060838181528260208201528260408201520152565b600d5481101561280e575b600d60005260206000209060021b0190600090565b612816612684565b6127f9565b9060405161282881610613565b60606003829460405161283f8161216681856117d1565b845260018101546020850152600281015460408501520154910152565b9061286f602092828151948592016103eb565b0190565b602061288c9181604051938285809451938492016103eb565b8101600b81520301902090565b6128a290612873565b5461267f57600090565b6040519061016082018281106001600160401b03821117612924575b60405281610140600091828152826020820152606060408201528260608201526040516128f48161062e565b604036823760808201528260a08201528260c0820152606060e08201526060610100820152826101208201520152565b61292c6105d4565b6128c8565b600e54811015612951575b600e600052600c602060002091020190600090565b612959612684565b61293c565b6003821015610a955752565b60405191906000835b60028210612987575050506106978261062e565b82546001600160a01b031681526001928301929190910190602001612973565b90600b6129b261066a565b926129c76129c1825460ff1690565b8561295e565b600181015460208501526129dd60028201611867565b6040850152600381015460608501526129f86004820161296a565b608085015260068101546001600160a01b031660a085015260078101546001600160a01b031660c0850152612a2f60088201611867565b60e0850152612a4060098201611867565b610100850152612a62612a57600a83015460ff1690565b60ff16610120860152565b0154610140830152565b612a746128ac565b50612a7e81612899565b15612a9857612a9261214f61074e92612873565b506129a7565b60405162461bcd60e51b815260206004820152602260248201527f28676574426174746c65293a20426174746c6520646f65736e27742065786973604482015261742160f01b6064820152608490fd5b612af181612899565b15612b075761074e61215561214f600893612873565b60405162461bcd60e51b815260206004820152602660248201527f286765744d61736b6564576f7264293a20426174746c6520646f65736e27742060448201526565786973742160d01b6064820152608490fd5b818110612b66575050565b60008155600101612b5b565b90601f8211612b7f575050565b6106979160026000526020600020906020601f840160051c83019310612bad575b601f0160051c0190612b5b565b9091508190612ba0565b90601f8211612bc4575050565b6106979160086000526020600020906020601f840160051c83019310612bad57601f0160051c0190612b5b565b9190601f8111612c0057505050565b610697926000526020600020906020601f840160051c83019310612bad57601f0160051c0190612b5b565b91909182516001600160401b038111612cfa575b612c5381612c4d8454611797565b84612bf1565b602080601f8311600114612c8f575081929394600092612c84575b50508160011b916000199060031b1c1916179055565b015190503880612c6e565b90601f19831695612ca585600052602060002090565b926000905b888210612ce257505083600195969710612cc9575b505050811b019055565b015160001960f88460031b161c19169055388080612cbf565b80600185968294968601518155019501930190612caa565b612d026105d4565b612c3f565b6106979060046080600c54600160401b811015612dc6575b6001810180600c55811015612db9575b600c60005283516005919091027fdf6966c971051c3d54ec59162606531493a51404a002842f56009d7e5cf4a8c70180546001600160a01b0319166001600160a01b039290921691909117815592612d8e602082015160018601612c2b565b60408101516002850155606081015160038501550151151591019060ff801983541691151516179055565b612dc1612684565b612d2f565b612dce6105d4565b612d1f565b15612dda57565b60405162461bcd60e51b815260206004820152601c60248201527f506c6561736520526567697374657220506c61796572204669727374000000006044820152606490fd5b6080612e2a33612720565b0151612f745761069790612e40610c2a3361265e565b612e486127c9565b50612e52336130f6565b612e5b81612fdf565b60066040516020810190612e8d81610c7a334486909160349282526001600160601b03199060601b1660208201520190565b51902006928315612f3b575b7fca8ab07e9ed17d119729fc652dd24df9d8430ca862dda4631925b5b4b99da36291612f2991612ec7610699565b908152856020820152846040820152816060820152612efb600d5491612ef6612ef160065461301a565b600655565b613032565b336000908152600a602052604090205560408051868152602081019590955284015233929081906060820190565b0390a2612f346130d7565b9033614b02565b927fca8ab07e9ed17d119729fc652dd24df9d8430ca862dda4631925b5b4b99da36291612f6a612f299261301a565b9491509150612e99565b60405162461bcd60e51b8152602060048201526015602482015274506c6179657220697320696e206120626174746c6560581b6044820152606490fd5b50634e487b7160e01b600052601160045260246000fd5b600019810191908211612fd757565b610697612fb1565b600a0390600a8211612fd757565b91908203918211612fd757565b8115613004570690565b634e487b7160e01b600052601260045260246000fd5b600190600019811461302a570190565b61286f612fb1565b60036060600d54600160401b811015613099575b6001810180600d5581101561308c575b600d60005260206000209060021b0192613071815185612c2b565b60208101516001850155604081015160028501550151910155565b613094612684565b613056565b6130a16105d4565b613046565b60405190602082018281106001600160401b038211176130ca575b60405260008252565b6130d26105d4565b6130c1565b604051906130e48261062e565b600382526203078360ec1b6020830152565b600a9060405160208101914483524460408301526001600160601b03199060601b1660608201526054815261312a81610613565b5190200680156131375790565b50600590565b1561314457565b60405162461bcd60e51b815260206004820152602b60248201527f6e6f20776f72647320696e20746865206c6973742c2061736b206f776e65722060448201526a1bd98818dbdb9d1c9858dd60aa1b6064820152608490fd5b156131a457565b60405162461bcd60e51b8152602060048201526016602482015275426174746c6520616c7265616479206578697374732160501b6044820152606490fd5b156131e957565b60405162461bcd60e51b815260206004820152602e60248201527f637265617465426174746c653a204572726f722c20696e737566666963656e7460448201526d207661756c742062616c616e636560901b6064820152608490fd5b1561324c57565b60405162461bcd60e51b815260206004820152601760248201527608ae4e4dee45840dad2dcd2daeada40605c624082ecc2f604b1b6044820152606490fd5b906003811015610a955760ff80198354169116179055565b8060001904600211811515166132ba575b60011b90565b6132c2612fb1565b6132b4565b600a9080600019048211811515166132dd570290565b6132e5612fb1565b0290565b9060005b600281106132fa57505050565b81516001600160a01b0316818401556020909101906001016132ed565b600b610140600e54600160401b81101561342d575b6001810180600e55811015613420575b600e600052600c602060002091020192613360815161335a81610a8b565b8561328b565b6020810151600185015561337b604082015160028601612c2b565b606081015160038501556133966080820151600486016132e9565b60a08101516006850180546001600160a01b039283166001600160a01b03199182161790915560c083015160078701805491909316911617905560e08101516133e29060088601612c2b565b6133f461010082015160098601612c2b565b61341961340661012083015160ff1690565b600a86019060ff1660ff19825416179055565b0151910155565b613428612684565b61333c565b6134356105d4565b61332c565b1561344157565b60405162461bcd60e51b815260206004820152602160248201527f4f6e6c7920706c617965722074776f2063616e206a6f696e206120626174746c6044820152606560f81b6064820152608490fd5b1561349757565b60405162461bcd60e51b8152602060048201526011602482015270416c726561647920696e20626174746c6560781b6044820152606490fd5b156134d757565b60405162461bcd60e51b815260206004820152602c60248201527f6a6f696e426174746c653a204572726f722c20696e737566666963656e74207660448201526b61756c742062616c616e636560a01b6064820152608490fd5b1561353857565b60405162461bcd60e51b815260206004820152601b60248201527f416d6f756e74206d75737420626520657175616c2061742062657400000000006044820152606490fd5b1561358457565b60405162461bcd60e51b8152602060048201526017602482015276426174746c6520616c726561647920737461727465642160481b6044820152606490fd5b9081602091031261038c575190565b6007548110156135ee575b600760005260206000200190600090565b6135f6612684565b6135dd565b90816008146137055761360e8254611797565b6001600160401b0381116136f8575b6136318161362c600854611797565b612bb7565b6000601f821160011461366b57819293600092613660575b50508160011b916000199060031b1c191617600855565b015490503880613649565b61367f601f19831694600052602060002090565b6008600052907ff3f7a9fe364faab93b216da50a3214154f22a0a2b415b23a84c8169e8b636ee391815b8681106136e057508360019596106136c7575b505050811b01600855565b015460001960f88460031b161c191690553880806136bc565b818301548455600193840193909201916020016136a9565b6137006105d4565b61361d565b9050565b604051906000826008549161371d83611797565b8083526001938085169081156137a35750600114613743575b5061069792500383610649565b600860009081527ff3f7a9fe364faab93b216da50a3214154f22a0a2b415b23a84c8169e8b636ee394602093509091905b81831061378b575050610697935082010138613736565b85548884018501529485019487945091830191613774565b905061069794506020925060ff191682840152151560051b82010138613736565b6020908051156137d2570190565b61286f612684565b9060209180518210156137ec57010190565b6137f4612684565b010190565b909161381061074e9360408452604084019061040e565b91602081840391015261040e565b61382781612899565b156138605761014061383d61214f600b93612873565b939093613853575b613360815161335a81610a8b565b61385b611780565b613845565b60405162461bcd60e51b8152602060048201526024808201527f28757064617465426174746c65293a20426174746c6520646f65736e277420656044820152631e1a5cdd60e21b6064820152608490fd5b600180805b6138bf57505090565b8251811015613920576138fb906001600160f81b0319806138e083876137da565b511690855115613913575b602086015116036139015761301a565b816138b6565b605f61390d82866137da565b5361301a565b61391b612684565b6138eb565b505090565b1561392c57565b60405162461bcd60e51b815260206004820152604160248201527f426174746c65206e6f7420737461727465642e20506c656173652074656c6c2060448201527f616e6f7468657220706c6179657220746f206a6f696e2074686520626174746c6064820152606560f81b608482015260a490fd5b156139a857565b60405162461bcd60e51b815260206004820152602660248201527f63686f73656e4c65747465723a20426174746c652068617320616c726561647960448201526508195b99195960d21b6064820152608490fd5b15613a0357565b60405162461bcd60e51b815260206004820152601a60248201527f596f7520617265206e6f7420696e207468697320626174746c650000000000006044820152606490fd5b15613a4f57565b60405162461bcd60e51b815260206004820152601360248201527224ba1034b9903737ba103cb7bab9103a3ab93760691b6044820152606490fd5b15613a9157565b60405162461bcd60e51b815260206004820152600e60248201526d546f6f206261642063686f69636560901b6044820152606490fd5b60405190613ad48261062e565b601682527532b93937b91d1010afb334b7322732bba632ba3a32b960511b6020830152565b60ff60019116019060ff8211612fd757565b60ff166030019060ff8211612fd757565b6020610697919392936040519481613b3d87935180928680870191016103eb565b8201613b51825180938680850191016103eb565b01038085520183610649565b6080613b6882612a6c565b0160018060a01b03918260a0613b82828551511693612a6c565b01511603613b935751602001511690565b51511690565b613ba290612a6c565b6080810180519060018060a01b039182808251163314918215613cfe575b505015613ca55751338282511614918215613c93575b505015613c3b57613bf260e0820151613bed613709565b6146da565b7f6b5fd31b10b00ec94eb179707ba8b02caa87421f956fff0ee903bd6a22db99a46000604051a1613c205750565b60a0810151613c3891906001600160a01b0316613fe4565b50565b60405162461bcd60e51b815260206004820152602a60248201527f5f7265736f6c7665426174746c653a596f7520617265206e6f7420696e207468604482015269697320626174746c652160b01b6064820152608490fd5b90915060203392015116143880613bd6565b60405162461bcd60e51b815260206004820152602b60248201527f4f6e6c7920706c617965727320696e207468697320626174746c652063616e2060448201526a6d616b652061206d6f766560a81b6064820152608490fd5b602091925001511633148238613bc0565b15613d1657565b60405162461bcd60e51b815260206004820152602660248201527f71756974426174746c653a596f7520617265206e6f7420696e207468697320626044820152656174746c652160d01b6064820152608490fd5b15613d7157565b606460405162461bcd60e51b815260206004820152602060248201527f5f656e64426174746c653a20426174746c6520616c726561647920656e6465646044820152fd5b15613dbc57565b60405162461bcd60e51b815260206004820152602260248201527f6572726f7220656e6420626174746c65207769746820626174746c6577696e6e60448201526132b960f11b6064820152608490fd5b613e146128ac565b50613e3560028251613e2581610a8b565b613e2e81610a8b565b1415613d6a565b600281526001600160a01b037f0000000000000000000000000000000000000000000000000000000000000000811660c08301819052613f5291906040840191613e8085845161381e565b6080850191613f086002613ef2613ea26111fb875160018060a01b0390511690565b54613efa83613ef2613ebb6111fb610d298c5160200190565b5493613ed76004613ecb8361269b565b5001805460ff19169055565b613eed6003613ee58361269b565b500160069055565b61269b565b5001600a9055565b613ed76004613ecb8361269b565b600090159182159485613fa5575b6000916000805160206151c2833981519152915193613f3c6040519283921695826108a3565b0390a391613f86575b8115613f6d575b50613db5565b61074e606082016000613f6582516132a3565b91528261418f565b51613f7f91506110ca90602001610d29565b1538613f4c565b805151909150613f9e906001600160a01b03166110ca565b1590613f45565b91816000926000805160206151c28339815191529287519082825116905080158614613fdc575060200151165b9391509150613f16565b915050613fd2565b613f5290613ff06128ac565b5061400160028451613e2581610a8b565b600283526001600160a01b0390808216908161417c57506001600160a01b037f000000000000000000000000000000000000000000000000000000000000000083161660c08501525b604084019161405a85845161381e565b60808501906140956002613ef261407c6111fb865160018060a01b0390511690565b54613efa83613ef2613ebb6111fb610d298b5160200190565b600083827f0000000000000000000000000000000000000000000000000000000000000000168114928315968761413e575b906000805160206151c28339815191529151936140eb6040519283921695826108a3565b0390a39261411e575b8215614102575b5050613db5565b614116919250610d296110ca915160200190565b1438806140fb565b805151909250614136906001600160a01b03166110ca565b8114916140f4565b9290806000805160206151c283398151915292875190828251169050808614600014614174575060200151165b939091506140c7565b91505061416b565b6001600160a01b031660c085015261404a565b9060808201519160018060a01b0392838082511633149182156142d5575b50501561038c5781156142a45760c00151600092839283926141d7906001600160a01b03166110ca565b604080516001600160a01b0383168152602081018490529193917f13b46ae1da3b476d0302ec781f7dd6982727671bc7bc07411d908daeb468751e9190a160405192165af16142246142e6565b5061422e81614316565b1561423557565b60405162461bcd60e51b815260206004820152603a60248201527f416464726573733a20756e61626c6520746f2073656e642076616c75652c207260448201527f6563697069656e74206d617920686176652072657665727465640000000000006064820152608490fd5b0390fd5b60405162461bcd60e51b815260206004820152600960248201526806761696e203c3d20360bc1b6044820152606490fd5b6020919250015116331483386141ad565b3d15614311573d906142f7826106b3565b916143056040519384610649565b82523d6000602084013e565b606090565b1561431d57565b634e487b7160e01b600052600160045260246000fd5b9081156143f05760008083805b6143dc57508361434f836106b3565b9261435d6040519485610649565b808452601f1961436c826106b3565b01366020860137905b614380575090925050565b61438b600a91612fc8565b94856143d36143ca6143ba6143b56111c06143af6143a8886132c7565b600a900490565b87612fed565b613b0b565b60f81b6001600160f81b03191690565b851a91866137da565b53049384614375565b916143e8600a9161301a565b920480614340565b90506040516143fe8161062e565b60018152600360fc1b602082015290565b6007546106979190600160401b81101561446d575b6001810180600755811015614460575b60076000527fa66cc928b5edb82af9bd49922954155ab7b0942694bea4ce44661d9a8736c68801612c2b565b614468612684565b614434565b6144756105d4565b614424565b6007549081156144e35760005b82811061449657505050600090565b6144c9826121666144b66144a9856135d2565b50604051928380926117d1565b6020815191012090602081519101201490565b6144db576144d69061301a565b614487565b505050600190565b60405162461bcd60e51b81526020600482015260146024820152731b9bc81ddbdc991cc81a5b881d1a19481b1a5cdd60621b6044820152606490fd5b90614571575b61452f8154611797565b9081614539575050565b81601f6000931160011461454b575055565b8183526020832061456791601f0160051c810190600101612b5b565b8160208120915555565b614579611780565b614525565b60ff6001911660ff811461302a570190565b6000805b60ff811660208110806145e8575b156145df576145c6906001600160f81b0319906145bf90866137da565b51166145f2565b156145d9576145d49061457e565b614594565b50905090565b50505050600190565b50835181106145a2565b60ff60f81b16606160f81b8110159081614617575b501561461257600190565b600090565b603d60f91b1015905038614607565b929160019160009183908390825b614643575b5050505090509190565b60ff861660208110806146d0575b156146ca576001600160f81b03198061466a83886137da565b51168184161490816146b0575b50614692575b5061468a8394959661457e565b959493614634565b839495506146a382841a918a6137da565b5361468a8395945061467d565b605f60f81b91506146c1838c6137da565b51161438614677565b50614639565b5084518110614651565b600180926000908282905b6146f2575b505050505090565b60ff8116602081108061474c575b15614746576001600160f81b03196147258161471c848a6137da565b511692856137da565b51160361473c575b6147369061457e565b836146e5565b919450849161472d565b506146ea565b5085518110614700565b6003546001600160a01b0316330361476a57565b606460405162461bcd60e51b815260206004820152602060248201527f4f776e61626c653a2063616c6c6572206973206e6f7420746865206f776e65726044820152fd5b6001600160a01b038116156147e2576000918252602082815260408084206001600160a01b03909316845291905290205490565b60405162461bcd60e51b815260206004820152602a60248201527f455243313135353a2061646472657373207a65726f206973206e6f742061207660448201526930b634b21037bbb732b960b11b6064820152608490fd5b9061484482610d9b565b6148516040519182610649565b8281528092614862601f1991610d9b565b0190602036910137565b6020918151811015614881575b60051b010190565b614889612684565b614879565b91909180518351036148f2576148a4815161483a565b9060005b81518110156148eb57806148d66148c5610d296148e6948661486c565b6148cf838961486c565b51906147ae565b6148e0828661486c565b5261301a565b6148a8565b5090925050565b60405162461bcd60e51b815260206004820152602960248201527f455243313135353a206163636f756e747320616e6420696473206c656e677468604482015268040dad2e6dac2e8c6d60bb1b6064820152608490fd5b1561495057565b60405162461bcd60e51b815260206004820152602e60248201527f455243313135353a2063616c6c6572206973206e6f7420746f6b656e206f776e60448201526d195c881bdc88185c1c1c9bdd995960921b6064820152608490fd5b156149b357565b60405162461bcd60e51b815260206004820152602560248201527f455243313135353a207472616e7366657220746f20746865207a65726f206164604482015264647265737360d81b6064820152608490fd5b15614a0d57565b60405162461bcd60e51b815260206004820152602a60248201527f455243313135353a20696e73756666696369656e742062616c616e636520666f60448201526939103a3930b739b332b960b11b6064820152608490fd5b9060018201809211612fd757565b91908201809211612fd757565b15614a8757565b60405162461bcd60e51b815260206004820152602860248201527f455243313135353a2069647320616e6420616d6f756e7473206c656e677468206044820152670dad2e6dac2e8c6d60c31b6064820152608490fd5b9091614af461074e936040845260408401906114ca565b9160208184039101526114ca565b926001600160a01b038416928315614bc357614b1d83615052565b92614b26615020565b9560005b8551811015614b575780614b41614b52928a61486c565b51610f7d610f756124fa848b61486c565b614b2a565b5091935091945061069793614b7a82610f2a856000526000602052604060002090565b614b848154614a65565b9055604080518481526001602082015260009133917fc3d58168c5ae7397731d063d5bbf3d657854427343f4c083240f7aacaa2d0f629190a433614d60565b60405162461bcd60e51b815260206004820152602160248201527f455243313135353a206d696e7420746f20746865207a65726f206164647265736044820152607360f81b6064820152608490fd5b9081602091031261038c575161074e81610553565b61074e939260a092600180851b0316825260006020830152604082015260016060820152816080820152019061040e565b919261074e95949160a094600180871b03809216855216602084015260408301526060820152816080820152019061040e565b60809060208152602860208201527f455243313135353a204552433131353552656365697665722072656a656374656040820152676420746f6b656e7360c01b60608201520190565b60009060033d11614ce157565b905060046000803e60005160e01c90565b600060443d1061074e57604051600319913d83016004833e81516001600160401b03918282113d602484011117614d4f57818401948551938411614d57573d85010160208487010111614d4f575061074e92910160200190610649565b949350505050565b50949350505050565b92919091823b614d705750505050565b614d9792602092600060405180968195829463f23a6e6160e01b9a8b855260048501614c27565b03926001600160a01b03165af160009181614e90575b50614e685750506001614dbe614cd4565b6308c379a014614e39575b614dd7575b388080806117fe565b60405162461bcd60e51b815260206004820152603460248201527f455243313135353a207472616e7366657220746f206e6f6e2d455243313135356044820152732932b1b2b4bb32b91034b6b83632b6b2b73a32b960611b6064820152608490fd5b614e41614cf2565b80614e4c5750614dc9565b60405162461bcd60e51b81529081906142a090600483016108a3565b6001600160e01b03191614614dce5760405162461bcd60e51b8152806142a060048201614c8b565b614eb291925060203d8111614eb9575b614eaa8183610649565b810190614c12565b9038614dad565b503d614ea0565b9493919092813b614ed4575b505050505050565b6000602094614efb6040519788968795869463f23a6e6160e01b9c8d875260048701614c58565b03926001600160a01b03165af160009181614f78575b50614f505750506001614f22614cd4565b6308c379a014614f3d575b614dd7575b388080808080614ecc565b614f45614cf2565b80614e4c5750614f2d565b6001600160e01b03191614614f325760405162461bcd60e51b8152806142a060048201614c8b565b614f9191925060203d8111614eb957614eaa8183610649565b9038614f11565b939061074e9593614fca91614fd89460018060a01b03809216885216602087015260a0604087015260a08601906114ca565b9084820360608601526114ca565b91608081840391015261040e565b9493919092813b614ff957505050505050565b6000602094614efb6040519788968795869463bc197c8160e01b9c8d875260048701614f98565b60405161502c8161062e565b600181526001602082016020368237825115615046575290565b61504e612684565b5290565b6040519061505f8261062e565b60018252602082016020368237825115615046575290565b1561507e57565b60405162461bcd60e51b815260206004820152602860248201527f455243313135353a206275726e20616d6f756e74206578636565647320746f74604482015267616c537570706c7960c01b6064820152608490fd5b919392916001600160a01b039190821615615128575b16156150f557509050565b60005b8351811015615122578061510f61511d928661486c565b516124a6612472838661486c565b6150f8565b50509050565b929060005b85518110156151495780614b41615144928661486c565b61512d565b5090926150ea565b610c7a61517f6106979260405192839163104c13eb60e21b602084015260206024840152604483019061040e565b600080916020815191016a636f6e736f6c652e6c6f675afa50565b9061517f61069792610c7a604051938492634b5c427760e01b6020850152602484016137f956feae6e5eafb6cd1cb4b139e7a0b9140aa182ee7d50e99f50d660156f79212acbc0a2646970667358221220f2964d6f2a9fc5e86b668a888b03638824fa4078693fea546e9c83f3253874a664736f6c63430008100033405787fa12a823e0f2b7631cc41b3ba8828b3321ca811111fa75cd3aa3bb5acea66cc928b5edb82af9bd49922954155ab7b0942694bea4ce44661d9a8736c688",
  "linkReferences": {},
  "deployedLinkReferences": {}
}