{
  "_format": "hh-sol-artifact-1",
  "contractName": "Penduel",
  "sourceName": "contracts/Penduel.sol",
  "abi": [
    {
      "inputs": [
        {
          "internalType": "string",
          "name": "_metadataURI",
          "type": "string"
        }
      ],
      "stateMutability": "nonpayable",
      "type": "constructor"
    },
    {
      "anonymous": false,
      "inputs": [
        {
          "indexed": true,
          "internalType": "address",
          "name": "account",
          "type": "address"
        },
        {
          "indexed": true,
          "internalType": "address",
          "name": "operator",
          "type": "address"
        },
        {
          "indexed": false,
          "internalType": "bool",
          "name": "approved",
          "type": "bool"
        }
      ],
      "name": "ApprovalForAll",
      "type": "event"
    },
    {
      "anonymous": false,
      "inputs": [
        {
          "indexed": false,
          "internalType": "string",
          "name": "battleName",
          "type": "string"
        },
        {
          "indexed": true,
          "internalType": "address",
          "name": "player1",
          "type": "address"
        },
        {
          "indexed": true,
          "internalType": "address",
          "name": "player2",
          "type": "address"
        },
        {
          "indexed": false,
          "internalType": "string",
          "name": "_maskedWord",
          "type": "string"
        }
      ],
      "name": "BattleBegin",
      "type": "event"
    },
    {
      "anonymous": false,
      "inputs": [
        {
          "indexed": false,
          "internalType": "string",
          "name": "battleName",
          "type": "string"
        },
        {
          "indexed": true,
          "internalType": "address",
          "name": "player1",
          "type": "address"
        },
        {
          "indexed": true,
          "internalType": "address",
          "name": "player2",
          "type": "address"
        }
      ],
      "name": "BattleCreate",
      "type": "event"
    },
    {
      "anonymous": false,
      "inputs": [
        {
          "indexed": false,
          "internalType": "string",
          "name": "battleName",
          "type": "string"
        },
        {
          "indexed": true,
          "internalType": "address",
          "name": "winner",
          "type": "address"
        },
        {
          "indexed": true,
          "internalType": "address",
          "name": "loser",
          "type": "address"
        }
      ],
      "name": "BattleEnded",
      "type": "event"
    },
    {
      "anonymous": false,
      "inputs": [
        {
          "indexed": true,
          "internalType": "bool",
          "name": "_findNewLetter",
          "type": "bool"
        },
        {
          "indexed": false,
          "internalType": "string",
          "name": "_maskedWord",
          "type": "string"
        }
      ],
      "name": "BattleLetter",
      "type": "event"
    },
    {
      "anonymous": false,
      "inputs": [
        {
          "indexed": true,
          "internalType": "address",
          "name": "owner",
          "type": "address"
        },
        {
          "indexed": false,
          "internalType": "uint256",
          "name": "id",
          "type": "uint256"
        },
        {
          "indexed": false,
          "internalType": "uint256",
          "name": "attackStrength",
          "type": "uint256"
        },
        {
          "indexed": false,
          "internalType": "uint256",
          "name": "defenseStrength",
          "type": "uint256"
        }
      ],
      "name": "NewGameToken",
      "type": "event"
    },
    {
      "anonymous": false,
      "inputs": [
        {
          "indexed": true,
          "internalType": "address",
          "name": "owner",
          "type": "address"
        },
        {
          "indexed": false,
          "internalType": "string",
          "name": "playerName",
          "type": "string"
        }
      ],
      "name": "NewPlayer",
      "type": "event"
    },
    {
      "anonymous": false,
      "inputs": [
        {
          "indexed": true,
          "internalType": "address",
          "name": "previousOwner",
          "type": "address"
        },
        {
          "indexed": true,
          "internalType": "address",
          "name": "newOwner",
          "type": "address"
        }
      ],
      "name": "OwnershipTransferred",
      "type": "event"
    },
    {
      "anonymous": false,
      "inputs": [],
      "name": "RoundEnded",
      "type": "event"
    },
    {
      "anonymous": false,
      "inputs": [
        {
          "indexed": true,
          "internalType": "address",
          "name": "operator",
          "type": "address"
        },
        {
          "indexed": true,
          "internalType": "address",
          "name": "from",
          "type": "address"
        },
        {
          "indexed": true,
          "internalType": "address",
          "name": "to",
          "type": "address"
        },
        {
          "indexed": false,
          "internalType": "uint256[]",
          "name": "ids",
          "type": "uint256[]"
        },
        {
          "indexed": false,
          "internalType": "uint256[]",
          "name": "values",
          "type": "uint256[]"
        }
      ],
      "name": "TransferBatch",
      "type": "event"
    },
    {
      "anonymous": false,
      "inputs": [
        {
          "indexed": true,
          "internalType": "address",
          "name": "operator",
          "type": "address"
        },
        {
          "indexed": true,
          "internalType": "address",
          "name": "from",
          "type": "address"
        },
        {
          "indexed": true,
          "internalType": "address",
          "name": "to",
          "type": "address"
        },
        {
          "indexed": false,
          "internalType": "uint256",
          "name": "id",
          "type": "uint256"
        },
        {
          "indexed": false,
          "internalType": "uint256",
          "name": "value",
          "type": "uint256"
        }
      ],
      "name": "TransferSingle",
      "type": "event"
    },
    {
      "anonymous": false,
      "inputs": [
        {
          "indexed": false,
          "internalType": "string",
          "name": "value",
          "type": "string"
        },
        {
          "indexed": true,
          "internalType": "uint256",
          "name": "id",
          "type": "uint256"
        }
      ],
      "name": "URI",
      "type": "event"
    },
    {
      "anonymous": false,
      "inputs": [
        {
          "indexed": false,
          "internalType": "string",
          "name": "wordToAdd",
          "type": "string"
        }
      ],
      "name": "WordAdded",
      "type": "event"
    },
    {
      "inputs": [],
      "name": "CELESTION",
      "outputs": [
        {
          "internalType": "uint256",
          "name": "",
          "type": "uint256"
        }
      ],
      "stateMutability": "view",
      "type": "function"
    },
    {
      "inputs": [],
      "name": "DEVIL",
      "outputs": [
        {
          "internalType": "uint256",
          "name": "",
          "type": "uint256"
        }
      ],
      "stateMutability": "view",
      "type": "function"
    },
    {
      "inputs": [],
      "name": "FIREBIRD",
      "outputs": [
        {
          "internalType": "uint256",
          "name": "",
          "type": "uint256"
        }
      ],
      "stateMutability": "view",
      "type": "function"
    },
    {
      "inputs": [],
      "name": "GRIFFIN",
      "outputs": [
        {
          "internalType": "uint256",
          "name": "",
          "type": "uint256"
        }
      ],
      "stateMutability": "view",
      "type": "function"
    },
    {
      "inputs": [],
      "name": "KAMO",
      "outputs": [
        {
          "internalType": "uint256",
          "name": "",
          "type": "uint256"
        }
      ],
      "stateMutability": "view",
      "type": "function"
    },
    {
      "inputs": [],
      "name": "KUKULKAN",
      "outputs": [
        {
          "internalType": "uint256",
          "name": "",
          "type": "uint256"
        }
      ],
      "stateMutability": "view",
      "type": "function"
    },
    {
      "inputs": [],
      "name": "MAX_ATTACK_DEFEND_STRENGTH",
      "outputs": [
        {
          "internalType": "uint256",
          "name": "",
          "type": "uint256"
        }
      ],
      "stateMutability": "view",
      "type": "function"
    },
    {
      "inputs": [
        {
          "internalType": "string",
          "name": "_wordToAdd",
          "type": "string"
        }
      ],
      "name": "addWord",
      "outputs": [],
      "stateMutability": "nonpayable",
      "type": "function"
    },
    {
      "inputs": [
        {
          "internalType": "address",
          "name": "account",
          "type": "address"
        },
        {
          "internalType": "uint256",
          "name": "id",
          "type": "uint256"
        }
      ],
      "name": "balanceOf",
      "outputs": [
        {
          "internalType": "uint256",
          "name": "",
          "type": "uint256"
        }
      ],
      "stateMutability": "view",
      "type": "function"
    },
    {
      "inputs": [
        {
          "internalType": "address[]",
          "name": "accounts",
          "type": "address[]"
        },
        {
          "internalType": "uint256[]",
          "name": "ids",
          "type": "uint256[]"
        }
      ],
      "name": "balanceOfBatch",
      "outputs": [
        {
          "internalType": "uint256[]",
          "name": "",
          "type": "uint256[]"
        }
      ],
      "stateMutability": "view",
      "type": "function"
    },
    {
      "inputs": [],
      "name": "baseURI",
      "outputs": [
        {
          "internalType": "string",
          "name": "",
          "type": "string"
        }
      ],
      "stateMutability": "view",
      "type": "function"
    },
    {
      "inputs": [
        {
          "internalType": "string",
          "name": "",
          "type": "string"
        }
      ],
      "name": "battleIndex",
      "outputs": [
        {
          "internalType": "uint256",
          "name": "",
          "type": "uint256"
        }
      ],
      "stateMutability": "view",
      "type": "function"
    },
    {
      "inputs": [
        {
          "internalType": "uint256",
          "name": "",
          "type": "uint256"
        }
      ],
      "name": "battles",
      "outputs": [
        {
          "internalType": "enum Penduel.BattleStatus",
          "name": "battleStatus",
          "type": "uint8"
        },
        {
          "internalType": "bytes32",
          "name": "battleHash",
          "type": "bytes32"
        },
        {
          "internalType": "string",
          "name": "name",
          "type": "string"
        },
        {
          "internalType": "address",
          "name": "activePlayer",
          "type": "address"
        },
        {
          "internalType": "address",
          "name": "winner",
          "type": "address"
        },
        {
          "internalType": "bytes",
          "name": "maskedWord",
          "type": "bytes"
        },
        {
          "internalType": "string",
          "name": "guesses",
          "type": "string"
        },
        {
          "internalType": "uint8",
          "name": "incorrectGuess",
          "type": "uint8"
        }
      ],
      "stateMutability": "view",
      "type": "function"
    },
    {
      "inputs": [
        {
          "internalType": "bytes1",
          "name": "_letter",
          "type": "bytes1"
        },
        {
          "internalType": "string",
          "name": "_battleName",
          "type": "string"
        }
      ],
      "name": "chosenLetter",
      "outputs": [],
      "stateMutability": "nonpayable",
      "type": "function"
    },
    {
      "inputs": [
        {
          "internalType": "string",
          "name": "_battleName",
          "type": "string"
        }
      ],
      "name": "createBattle",
      "outputs": [],
      "stateMutability": "nonpayable",
      "type": "function"
    },
    {
      "inputs": [
        {
          "internalType": "string",
          "name": "_battleName",
          "type": "string"
        }
      ],
      "name": "createRandomGameToken",
      "outputs": [],
      "stateMutability": "nonpayable",
      "type": "function"
    },
    {
      "inputs": [
        {
          "internalType": "uint256",
          "name": "id",
          "type": "uint256"
        }
      ],
      "name": "exists",
      "outputs": [
        {
          "internalType": "bool",
          "name": "",
          "type": "bool"
        }
      ],
      "stateMutability": "view",
      "type": "function"
    },
    {
      "inputs": [
        {
          "internalType": "uint256",
          "name": "",
          "type": "uint256"
        }
      ],
      "name": "gameTokens",
      "outputs": [
        {
          "internalType": "string",
          "name": "name",
          "type": "string"
        },
        {
          "internalType": "uint256",
          "name": "id",
          "type": "uint256"
        },
        {
          "internalType": "uint256",
          "name": "attackStrength",
          "type": "uint256"
        },
        {
          "internalType": "uint256",
          "name": "defenseStrength",
          "type": "uint256"
        }
      ],
      "stateMutability": "view",
      "type": "function"
    },
    {
      "inputs": [
        {
          "internalType": "string",
          "name": "_battleName",
          "type": "string"
        }
      ],
      "name": "getActivePlayer",
      "outputs": [
        {
          "internalType": "address",
          "name": "",
          "type": "address"
        }
      ],
      "stateMutability": "view",
      "type": "function"
    },
    {
      "inputs": [],
      "name": "getAllBattles",
      "outputs": [
        {
          "components": [
            {
              "internalType": "enum Penduel.BattleStatus",
              "name": "battleStatus",
              "type": "uint8"
            },
            {
              "internalType": "bytes32",
              "name": "battleHash",
              "type": "bytes32"
            },
            {
              "internalType": "string",
              "name": "name",
              "type": "string"
            },
            {
              "internalType": "address[2]",
              "name": "players",
              "type": "address[2]"
            },
            {
              "internalType": "address",
              "name": "activePlayer",
              "type": "address"
            },
            {
              "internalType": "address",
              "name": "winner",
              "type": "address"
            },
            {
              "internalType": "bytes",
              "name": "maskedWord",
              "type": "bytes"
            },
            {
              "internalType": "string",
              "name": "guesses",
              "type": "string"
            },
            {
              "internalType": "uint8",
              "name": "incorrectGuess",
              "type": "uint8"
            }
          ],
          "internalType": "struct Penduel.Battle[]",
          "name": "",
          "type": "tuple[]"
        }
      ],
      "stateMutability": "view",
      "type": "function"
    },
    {
      "inputs": [],
      "name": "getAllPlayerTokens",
      "outputs": [
        {
          "components": [
            {
              "internalType": "string",
              "name": "name",
              "type": "string"
            },
            {
              "internalType": "uint256",
              "name": "id",
              "type": "uint256"
            },
            {
              "internalType": "uint256",
              "name": "attackStrength",
              "type": "uint256"
            },
            {
              "internalType": "uint256",
              "name": "defenseStrength",
              "type": "uint256"
            }
          ],
          "internalType": "struct Penduel.GameToken[]",
          "name": "",
          "type": "tuple[]"
        }
      ],
      "stateMutability": "view",
      "type": "function"
    },
    {
      "inputs": [],
      "name": "getAllPlayers",
      "outputs": [
        {
          "components": [
            {
              "internalType": "address",
              "name": "playerAddress",
              "type": "address"
            },
            {
              "internalType": "string",
              "name": "playerName",
              "type": "string"
            },
            {
              "internalType": "uint256",
              "name": "playerMana",
              "type": "uint256"
            },
            {
              "internalType": "uint256",
              "name": "playerHealth",
              "type": "uint256"
            },
            {
              "internalType": "bool",
              "name": "inBattle",
              "type": "bool"
            }
          ],
          "internalType": "struct Penduel.Player[]",
          "name": "",
          "type": "tuple[]"
        }
      ],
      "stateMutability": "view",
      "type": "function"
    },
    {
      "inputs": [
        {
          "internalType": "string",
          "name": "_battleName",
          "type": "string"
        }
      ],
      "name": "getBattle",
      "outputs": [
        {
          "components": [
            {
              "internalType": "enum Penduel.BattleStatus",
              "name": "battleStatus",
              "type": "uint8"
            },
            {
              "internalType": "bytes32",
              "name": "battleHash",
              "type": "bytes32"
            },
            {
              "internalType": "string",
              "name": "name",
              "type": "string"
            },
            {
              "internalType": "address[2]",
              "name": "players",
              "type": "address[2]"
            },
            {
              "internalType": "address",
              "name": "activePlayer",
              "type": "address"
            },
            {
              "internalType": "address",
              "name": "winner",
              "type": "address"
            },
            {
              "internalType": "bytes",
              "name": "maskedWord",
              "type": "bytes"
            },
            {
              "internalType": "string",
              "name": "guesses",
              "type": "string"
            },
            {
              "internalType": "uint8",
              "name": "incorrectGuess",
              "type": "uint8"
            }
          ],
          "internalType": "struct Penduel.Battle",
          "name": "",
          "type": "tuple"
        }
      ],
      "stateMutability": "view",
      "type": "function"
    },
    {
      "inputs": [
        {
          "internalType": "string",
          "name": "_battleName",
          "type": "string"
        }
      ],
      "name": "getGuesses",
      "outputs": [
        {
          "internalType": "string",
          "name": "_guesses",
          "type": "string"
        }
      ],
      "stateMutability": "view",
      "type": "function"
    },
    {
      "inputs": [
        {
          "internalType": "string",
          "name": "_maskedWord",
          "type": "string"
        }
      ],
      "name": "getHangWord",
      "outputs": [
        {
          "internalType": "bytes",
          "name": "hangWord",
          "type": "bytes"
        }
      ],
      "stateMutability": "nonpayable",
      "type": "function"
    },
    {
      "inputs": [
        {
          "internalType": "string",
          "name": "_battleName",
          "type": "string"
        }
      ],
      "name": "getMaskedWord",
      "outputs": [
        {
          "internalType": "string",
          "name": "",
          "type": "string"
        }
      ],
      "stateMutability": "view",
      "type": "function"
    },
    {
      "inputs": [
        {
          "internalType": "string",
          "name": "_battleName",
          "type": "string"
        }
      ],
      "name": "getNumberOfIncorrectGuess",
      "outputs": [
        {
          "internalType": "uint8",
          "name": "",
          "type": "uint8"
        }
      ],
      "stateMutability": "view",
      "type": "function"
    },
    {
      "inputs": [
        {
          "internalType": "address",
          "name": "_playerAddress",
          "type": "address"
        }
      ],
      "name": "getPlayer",
      "outputs": [
        {
          "components": [
            {
              "internalType": "address",
              "name": "playerAddress",
              "type": "address"
            },
            {
              "internalType": "string",
              "name": "playerName",
              "type": "string"
            },
            {
              "internalType": "uint256",
              "name": "playerMana",
              "type": "uint256"
            },
            {
              "internalType": "uint256",
              "name": "playerHealth",
              "type": "uint256"
            },
            {
              "internalType": "bool",
              "name": "inBattle",
              "type": "bool"
            }
          ],
          "internalType": "struct Penduel.Player",
          "name": "",
          "type": "tuple"
        }
      ],
      "stateMutability": "view",
      "type": "function"
    },
    {
      "inputs": [
        {
          "internalType": "address",
          "name": "_playerTokenAddress",
          "type": "address"
        }
      ],
      "name": "getPlayerToken",
      "outputs": [
        {
          "components": [
            {
              "internalType": "string",
              "name": "name",
              "type": "string"
            },
            {
              "internalType": "uint256",
              "name": "id",
              "type": "uint256"
            },
            {
              "internalType": "uint256",
              "name": "attackStrength",
              "type": "uint256"
            },
            {
              "internalType": "uint256",
              "name": "defenseStrength",
              "type": "uint256"
            }
          ],
          "internalType": "struct Penduel.GameToken",
          "name": "",
          "type": "tuple"
        }
      ],
      "stateMutability": "view",
      "type": "function"
    },
    {
      "inputs": [],
      "name": "getTotalSupply",
      "outputs": [
        {
          "internalType": "uint256",
          "name": "",
          "type": "uint256"
        }
      ],
      "stateMutability": "view",
      "type": "function"
    },
    {
      "inputs": [
        {
          "internalType": "address",
          "name": "account",
          "type": "address"
        },
        {
          "internalType": "address",
          "name": "operator",
          "type": "address"
        }
      ],
      "name": "isApprovedForAll",
      "outputs": [
        {
          "internalType": "bool",
          "name": "",
          "type": "bool"
        }
      ],
      "stateMutability": "view",
      "type": "function"
    },
    {
      "inputs": [
        {
          "internalType": "string",
          "name": "_battleName",
          "type": "string"
        }
      ],
      "name": "isBattle",
      "outputs": [
        {
          "internalType": "bool",
          "name": "",
          "type": "bool"
        }
      ],
      "stateMutability": "view",
      "type": "function"
    },
    {
      "inputs": [
        {
          "internalType": "address",
          "name": "_playerAddress",
          "type": "address"
        }
      ],
      "name": "isPlayer",
      "outputs": [
        {
          "internalType": "bool",
          "name": "",
          "type": "bool"
        }
      ],
      "stateMutability": "view",
      "type": "function"
    },
    {
      "inputs": [
        {
          "internalType": "address",
          "name": "_playerTokenAddress",
          "type": "address"
        }
      ],
      "name": "isPlayerToken",
      "outputs": [
        {
          "internalType": "bool",
          "name": "",
          "type": "bool"
        }
      ],
      "stateMutability": "view",
      "type": "function"
    },
    {
      "inputs": [
        {
          "internalType": "string",
          "name": "_battleName",
          "type": "string"
        }
      ],
      "name": "joinBattle",
      "outputs": [
        {
          "components": [
            {
              "internalType": "enum Penduel.BattleStatus",
              "name": "battleStatus",
              "type": "uint8"
            },
            {
              "internalType": "bytes32",
              "name": "battleHash",
              "type": "bytes32"
            },
            {
              "internalType": "string",
              "name": "name",
              "type": "string"
            },
            {
              "internalType": "address[2]",
              "name": "players",
              "type": "address[2]"
            },
            {
              "internalType": "address",
              "name": "activePlayer",
              "type": "address"
            },
            {
              "internalType": "address",
              "name": "winner",
              "type": "address"
            },
            {
              "internalType": "bytes",
              "name": "maskedWord",
              "type": "bytes"
            },
            {
              "internalType": "string",
              "name": "guesses",
              "type": "string"
            },
            {
              "internalType": "uint8",
              "name": "incorrectGuess",
              "type": "uint8"
            }
          ],
          "internalType": "struct Penduel.Battle",
          "name": "",
          "type": "tuple"
        }
      ],
      "stateMutability": "nonpayable",
      "type": "function"
    },
    {
      "inputs": [],
      "name": "owner",
      "outputs": [
        {
          "internalType": "address",
          "name": "",
          "type": "address"
        }
      ],
      "stateMutability": "view",
      "type": "function"
    },
    {
      "inputs": [
        {
          "internalType": "address",
          "name": "",
          "type": "address"
        }
      ],
      "name": "playerIndex",
      "outputs": [
        {
          "internalType": "uint256",
          "name": "",
          "type": "uint256"
        }
      ],
      "stateMutability": "view",
      "type": "function"
    },
    {
      "inputs": [
        {
          "internalType": "address",
          "name": "",
          "type": "address"
        }
      ],
      "name": "playerTokenIndex",
      "outputs": [
        {
          "internalType": "uint256",
          "name": "",
          "type": "uint256"
        }
      ],
      "stateMutability": "view",
      "type": "function"
    },
    {
      "inputs": [
        {
          "internalType": "uint256",
          "name": "",
          "type": "uint256"
        }
      ],
      "name": "players",
      "outputs": [
        {
          "internalType": "address",
          "name": "playerAddress",
          "type": "address"
        },
        {
          "internalType": "string",
          "name": "playerName",
          "type": "string"
        },
        {
          "internalType": "uint256",
          "name": "playerMana",
          "type": "uint256"
        },
        {
          "internalType": "uint256",
          "name": "playerHealth",
          "type": "uint256"
        },
        {
          "internalType": "bool",
          "name": "inBattle",
          "type": "bool"
        }
      ],
      "stateMutability": "view",
      "type": "function"
    },
    {
      "inputs": [
        {
          "internalType": "string",
          "name": "_battleName",
          "type": "string"
        }
      ],
      "name": "quitBattle",
      "outputs": [],
      "stateMutability": "nonpayable",
      "type": "function"
    },
    {
      "inputs": [
        {
          "internalType": "string",
          "name": "_playerName",
          "type": "string"
        },
        {
          "internalType": "string",
          "name": "_gameTokenName",
          "type": "string"
        }
      ],
      "name": "registerPlayer",
      "outputs": [],
      "stateMutability": "nonpayable",
      "type": "function"
    },
    {
      "inputs": [],
      "name": "renounceOwnership",
      "outputs": [],
      "stateMutability": "nonpayable",
      "type": "function"
    },
    {
      "inputs": [
        {
          "internalType": "address",
          "name": "from",
          "type": "address"
        },
        {
          "internalType": "address",
          "name": "to",
          "type": "address"
        },
        {
          "internalType": "uint256[]",
          "name": "ids",
          "type": "uint256[]"
        },
        {
          "internalType": "uint256[]",
          "name": "amounts",
          "type": "uint256[]"
        },
        {
          "internalType": "bytes",
          "name": "data",
          "type": "bytes"
        }
      ],
      "name": "safeBatchTransferFrom",
      "outputs": [],
      "stateMutability": "nonpayable",
      "type": "function"
    },
    {
      "inputs": [
        {
          "internalType": "address",
          "name": "from",
          "type": "address"
        },
        {
          "internalType": "address",
          "name": "to",
          "type": "address"
        },
        {
          "internalType": "uint256",
          "name": "id",
          "type": "uint256"
        },
        {
          "internalType": "uint256",
          "name": "amount",
          "type": "uint256"
        },
        {
          "internalType": "bytes",
          "name": "data",
          "type": "bytes"
        }
      ],
      "name": "safeTransferFrom",
      "outputs": [],
      "stateMutability": "nonpayable",
      "type": "function"
    },
    {
      "inputs": [
        {
          "internalType": "address",
          "name": "operator",
          "type": "address"
        },
        {
          "internalType": "bool",
          "name": "approved",
          "type": "bool"
        }
      ],
      "name": "setApprovalForAll",
      "outputs": [],
      "stateMutability": "nonpayable",
      "type": "function"
    },
    {
      "inputs": [
        {
          "internalType": "string",
          "name": "newuri",
          "type": "string"
        }
      ],
      "name": "setURI",
      "outputs": [],
      "stateMutability": "nonpayable",
      "type": "function"
    },
    {
      "inputs": [
        {
          "internalType": "bytes4",
          "name": "interfaceId",
          "type": "bytes4"
        }
      ],
      "name": "supportsInterface",
      "outputs": [
        {
          "internalType": "bool",
          "name": "",
          "type": "bool"
        }
      ],
      "stateMutability": "view",
      "type": "function"
    },
    {
      "inputs": [
        {
          "internalType": "uint256",
          "name": "tokenId",
          "type": "uint256"
        }
      ],
      "name": "tokenURI",
      "outputs": [
        {
          "internalType": "string",
          "name": "",
          "type": "string"
        }
      ],
      "stateMutability": "view",
      "type": "function"
    },
    {
      "inputs": [],
      "name": "totalSupply",
      "outputs": [
        {
          "internalType": "uint256",
          "name": "",
          "type": "uint256"
        }
      ],
      "stateMutability": "view",
      "type": "function"
    },
    {
      "inputs": [
        {
          "internalType": "uint256",
          "name": "id",
          "type": "uint256"
        }
      ],
      "name": "totalSupply",
      "outputs": [
        {
          "internalType": "uint256",
          "name": "",
          "type": "uint256"
        }
      ],
      "stateMutability": "view",
      "type": "function"
    },
    {
      "inputs": [
        {
          "internalType": "address",
          "name": "newOwner",
          "type": "address"
        }
      ],
      "name": "transferOwnership",
      "outputs": [],
      "stateMutability": "nonpayable",
      "type": "function"
    },
    {
      "inputs": [
        {
          "internalType": "uint256",
          "name": "",
          "type": "uint256"
        }
      ],
      "name": "uri",
      "outputs": [
        {
          "internalType": "string",
          "name": "",
          "type": "string"
        }
      ],
      "stateMutability": "view",
      "type": "function"
    }
  ],
  "bytecode": "0x60806040523462000fd75762005e29803803806200001d816200101c565b92833981019060208183031262000fd7578051906001600160401b03821162000fd7570181601f8201121562000fd7578051906001600160401b03821162000a1c5762000074601f8301601f19166020016200101c565b928284526020838301011162000fd75760005b82811062000fc157600083850160200152835184906001600160401b03811162000a1c57620000b860025462001042565b601f811162000f7f575b50806020601f821160011462000f075760009162000efb575b508160011b916000199060031b1c1916176002555b60038054336001600160a01b0319821681179092556001600160a01b03167f8be0079c531659141344cd1fd0a4f28419497f9722a3daafe3b4186f6b6457e0600080a3600780546001600160a01b0319167311f7ad1df281604f2bd22ba13e334ca4d14d7c281790556040516101c081016001600160401b0381118282101762000a1c576040526200018162000fdc565b600581526468656c6c6f60d81b602082015281526200019f62000fdc565b6007815266676f6f6462796560c81b60208201526020820152620001c262000fdc565b600381526239bab760e91b60208201526040820152620001e162000fdc565b6008815267686f6c6c6964617960c01b602082015260608201526200020562000fdc565b60068152656265666f726560d01b602082015260808201526200022762000fdc565b600581526430b33a32b960d91b602082015260a08201526200024862000fdc565b600b81526a3932b9ba37b930ba34b7b760a91b602082015260c08201526200026f62000fdc565b60078152663330b9b434b7b760c91b602082015260e08201526200029262000fdc565b60088152676472657373696e6760c01b6020820152610100820152620002b762000fdc565b600e81526d726570726573656e74617469766560901b6020820152610120820152620002e262000fdc565b600781526673696c656e636560c81b60208201526101408201526200030662000fdc565b600a81526961636365707461626c6560b01b60208201526101608201526200032d62000fdc565b600d81526c195b9d9a5c9bdb9b595b9d185b609a1b60208201526101808201526200035762000fdc565b600981526870686f746f636f707960b81b60208201526101a0820152600854600e60085580600e1062000e4b575b506008600090815260008051602062005e09833981519152915b600e821062000d5b57835184906001600160401b03811162000a1c57620003c860055462001042565b601f811162000d18575b506020601f821160011462000cab57819260009262000c9f575b50508160011b916000199060031b1c1916176005555b6040516001600160401b03608082019081119082111762000a1c57608081016040526200042e62000ffc565b600081528152600060208201526000604082015260006060820152600e546801000000000000000081101562000a1c576001810180600e5581101562000b6f57600e6000528151805190927fbb7b4a454dc3493923482f07822329ed19e8244eff582cc204f8554c3620c3fd916001600160401b03811162000a1c57620004cc81620004c08660021b86015462001042565b8660021b860162001098565b6020601f821160011462000c22579080606093926003969760009262000c16575b50508160011b9160001990871b1c1916178560021b8401555b602081015160018660021b850101556040810151600286811b8501015501519260021b0101556040518060a081011060018060401b0360a08301111762000a1c5760a08101604052600081526200055c62000ffc565b600081526020820152600060408201526000606082015260006080820152600d546801000000000000000081101562000a1c576001810180600d5581101562000b6f57600d6000528151600582027fd7b6990105719101dabeb77144f2a3385c8033acd3af97e9423a695e81ad1eb590810180546001600160a01b0319166001600160a01b039390931692909217909155602083015180519093906001600160401b03811162000a1c576200062e816200061f6001600588028701015462001042565b60016005880287010162001098565b6020601f821160011462000b915791816080926005946004979860009262000b85575b50508160011b916000199060031b1c1916176001848802860101555b604081015160028488028601015560608101516003848802860101550151151560ff8019858488028601015416911617930201015560405180604081011060018060401b0360408301111762000a1c57604081016040526000815260006020820152620006d962000ffc565b60008152604051916001600160401b0361012084019081119084111762000a1c57610120830160405260008352600060208401526200071762000ffc565b600081526040840152606083015260006080830152600060a08301526200073d62000ffc565b6000815260c083015260e08201526000610100820152600f54906801000000000000000082101562000a1c576001820180600f5582101562000b6f57600f60005280517f8d1108e10bcb7c27dddfc02ed9d693a074039d026cf4ea4240b40f7d581ac80290600381101562000b5957600a84028201805460ff191660ff929092169190911781556020830151600190910155604082015180519093906001600160401b03811162000a1c576200081081620008016002600a86028701015462001042565b6002600a860287010162001098565b6020601f821160011462000adb57819293949560009262000acf575b50508160011b916000199060031b1c1916176002600a8302840101555b606083015160005b6002811062000aa957505060808301516005600a8302840190810180546001600160a01b039384166001600160a01b03199182161790915560a08601516006830180549190941691161790915560c08401518051600790920191906001600160401b03821162000a1c578190620008d582620008ce865462001042565b8662001098565b602090601f831160011462000a3e5760009262000a32575b50508160011b916000199060031b1c19161790555b60e08301518051600a83028401600801916001600160401b03821162000a1c576200093a8262000933855462001042565b8562001098565b602090601f8311600114620009a357936009938360ff9794600a946101009860009262000997575b50508160011b916000199060031b1c19161790555b0201019201511660ff19825416179055604051614d109081620010d98239f35b015190508a8062000962565b90601f198316918460005260206000209260005b81811062000a03575084600a9461010098946009989460ff9b9860019510620009e9575b505050811b01905562000977565b015160001960f88460031b161c191690558a8080620009db565b92936020600181928786015181550195019301620009b7565b634e487b7160e01b600052604160045260246000fd5b015190508680620008ed565b6000858152602081209350601f198516905b81811062000a90575090846001959493921062000a76575b505050811b01905562000902565b015160001960f88460031b161c1916905586808062000a68565b9293602060018192878601518155019501930162000a50565b81516001600160a01b03166003600a850286018301015560209091019060010162000851565b0151905085806200082c565b6002600a840285010160005260206000209060005b601f198416811062000b40575060019394959683601f1981161062000b26575b505050811b016002600a83028401015562000849565b015160001960f88460031b161c1916905585808062000b10565b9091602060018192858b01518155019301910162000af0565b634e487b7160e01b600052602160045260246000fd5b634e487b7160e01b600052603260045260246000fd5b01519050888062000651565b60016005860285010160005260206000209560005b601f198416811062000bfd5750826004969760059593600193608096601f1981161062000be3575b505050811b016001848802860101556200066d565b015160001960f88460031b161c1916905588808062000bce565b8282015188556001909701966020928301920162000ba6565b015190508780620004ed565b8460021b840160005260206000209560005b601f198416811062000c86575091600395966001926060959483601f1981161062000c6d575b505050811b018560021b84015562000506565b015160001983891b60f8161c1916905587808062000c5a565b8282015188556001909701966020928301920162000c34565b015190508280620003ec565b600560005260206000209060005b601f198416811062000cff575060019383601f1981161062000ce5575b505050811b0160055562000402565b015160001960f88460031b161c1916905582808062000cd6565b9091602060018192858801518155019301910162000cb9565b62000d499060056000526020600020601f840160051c8101916020851062000d50575b601f0160051c01906200107f565b82620003d2565b909150819062000d3b565b80518051906001600160401b03821162000a1c5762000d878262000d80875462001042565b8762001098565b602090601f831160011462000dd757928260019493602093869560009262000dcb575b5050600019600383901b1c191690841b1786555b019301910190916200039f565b01519050898062000daa565b908560005260206000209160005b601f198516811062000e3257509260209260019592869583601f1981161062000e18575b505050831b8301865562000dbe565b015160001960f88460031b161c1916905588808062000e09565b9192602060018192868501518155019401920162000de5565b600860005260008051602062005e09833981519152907ff3f7a9fe364faab93b216da50a3214154f22a0a2b415b23a84c8169e8b636ef15b818301811062000e9557505062000385565b8062000ea46001925462001042565b8062000eb3575b500162000e83565b601f8111831462000ecb5750600081555b8662000eab565b62000eeb908260005283601f6020600020920160051c820191016200107f565b6000602081208183555562000ec4565b905082015183620000db565b6002600090815260008051602062005de98339815191529250601f198416905b81811062000f665750908360019493921062000f4c575b5050811b01600255620000f0565b84015160001960f88460031b161c19169055838062000f3e565b9192602060018192868901518155019401920162000f27565b600260005262000fba9060008051602062005de9833981519152601f840160051c8101916020851062000d5057601f0160051c01906200107f565b82620000c2565b8060208092840101518282870101520162000087565b600080fd5b60408051919082016001600160401b0381118382101762000a1c57604052565b60405190602082016001600160401b0381118382101762000a1c57604052565b6040519190601f01601f191682016001600160401b0381118382101762000a1c57604052565b90600182811c9216801562001074575b60208310146200105e57565b634e487b7160e01b600052602260045260246000fd5b91607f169162001052565b8181106200108b575050565b600081556001016200107f565b9190601f8111620010a857505050565b620010d6926000526020600020906020601f840160051c8301931062000d5057601f0160051c01906200107f565b56fe60806040526004361015610013575b600080fd5b60003560e01c8062fdd58e14610419578063015a37921461041057806301ffc9a71461040757806302fe5305146103fe5780630677aa4e146103f5578063083c0e8e146103ec57806309c95e10146103e35780630daea2cd146103da5780630e89341c146103d157806310898e4c146103c8578063110553e9146103bf5780631107ae3d146103b657806316801d17146103ad57806318160ddd146102ba5780632ca04522146103a45780632d5fbd961461039b5780632eb2c2d614610392578063331dcd31146103895780634974da81146103805780634e1273f4146103775780634f558e791461036e578063548fb999146103655780635c12cd4b1461035c5780635c93fc3d14610353578063606d2e961461034a5780636c0360eb14610341578063703730a514610338578063715018a61461032f578063845f433b14610326578063885c7d361461031d5780638da5cb5b14610314578063996d7bea1461030b5780639e4ecd11146103025780639ec40aa3146102f9578063a1b4f57c146102f0578063a22cb465146102e7578063b1309f06146102de578063bd85b039146102d5578063bf034b69146102cc578063bf103a4d146102c3578063c4e41b22146102ba578063c87b56dd146102b1578063cb2da2c9146102a8578063d2198cc51461029f578063d8b3226414610296578063de96cefc1461028d578063e985e9c514610284578063efa1c4821461027b578063f1da733914610272578063f242432a14610269578063f2fde38b146102605763f71d96cb1461025857600080fd5b61000e612868565b5061000e61273e565b5061000e612500565b5061000e6124e3565b5061000e6123fa565b5061000e61239c565b5061000e61237f565b5061000e61232e565b5061000e612311565b5061000e612265565b5061000e61218d565b5061000e610cc5565b5061000e612169565b5061000e6120f2565b5061000e612098565b5061000e61205d565b5061000e611f27565b5061000e611cc6565b5061000e611caf565b5061000e611c92565b5061000e611be9565b5061000e611bbf565b5061000e611b84565b5061000e611a6c565b5061000e611a0d565b5061000e6119f0565b5061000e611923565b5061000e611866565b5061000e6115de565b5061000e6115a5565b5061000e61153f565b5061000e611510565b5061000e611456565b5061000e6113b7565b5061000e611085565b5061000e610ec9565b5061000e610e17565b5061000e610ce4565b5061000e610c9c565b5061000e610b6d565b5061000e610b44565b5061000e610a9c565b5061000e6109cc565b5061000e61099e565b5061000e610970565b5061000e610935565b5061000e610901565b5061000e6107f8565b5061000e61060c565b5061000e61050e565b5061000e610462565b600435906001600160a01b038216820361000e57565b602435906001600160a01b038216820361000e57565b35906001600160a01b038216820361000e57565b503461000e57604036600319011261000e57602061048a610481610422565b60243590614243565b604051908152f35b60005b8381106104a55750506000910152565b8181015183820152602001610495565b906020916104ce81518092818552858086019101610492565b601f01601f1916010190565b906060806104f184516080855260808501906104b5565b936020810151602085015260408101516040850152015191015290565b503461000e576000806003193601126105f757600e5461052d81610e45565b9061053b60405192836106f0565b808252600e835260209283830191817fbb7b4a454dc3493923482f07822329ed19e8244eff582cc204f8554c3620c3fd845b8383106105d25750505050604051928484019085855251809152604084019460408260051b8601019392955b8287106105a65785850386f35b9091929382806105c2600193603f198a820301865288516104da565b9601920196019592919092610599565b6004886001926105e5859b9a989b612a3b565b8152019201920191909693959661056d565b80fd5b6001600160e01b031981160361000e57565b503461000e57602036600319011261000e57602060043561062c816105fa565b63ffffffff60e01b16636cdb3d1360e11b811490811561066a575b8115610659575b506040519015158152f35b6301ffc9a760e01b1490503861064e565b6303a24d0760e21b81149150610647565b50634e487b7160e01b600052604160045260246000fd5b60a081019081106001600160401b038211176106ad57604052565b6106b561067b565b604052565b608081019081106001600160401b038211176106ad57604052565b604081019081106001600160401b038211176106ad57604052565b90601f801991011681019081106001600160401b038211176106ad57604052565b6040519061012082018281106001600160401b038211176106ad57604052565b6040519061073e82610692565b565b6040519061073e826106ba565b6040519061073e826106d5565b6020906001600160401b038111610777575b601f01601f19160190565b61077f61067b565b61076c565b81601f8201121561000e5780359061079b8261075a565b926107a960405194856106f0565b8284526020838301011161000e57816000926020809301838601378301015290565b602060031982011261000e57600435906001600160401b03821161000e576107f591600401610784565b90565b503461000e57610807366107cb565b61080f6141eb565b80516001600160401b0381116108f4575b6108348161082f60025461170b565b612c7c565b602080601f831160011461087157508192600092610866575b5050600019600383901b1c191660019190911b17600255005b01519050388061084d565b6002600052601f198316939091907f405787fa12a823e0f2b7631cc41b3ba8828b3321ca811111fa75cd3aa3bb5ace926000905b8682106108dc57505083600195106108c3575b505050811b01600255005b015160001960f88460031b161c191690553880806108b8565b806001859682949686015181550195019301906108a5565b6108fc61067b565b610820565b503461000e57600036600319011261000e57602060405160038152f35b9060018060a01b0316600052602052604060002090565b503461000e57602036600319011261000e576001600160a01b03610957610422565b16600052600b6020526020604060002054604051908152f35b503461000e57602036600319011261000e57602061099461098f610422565b6128da565b6040519015158152f35b503461000e57600036600319011261000e576020604051600a8152f35b9060206107f59281815201906104b5565b503461000e5760208060031936011261000e576040516000916002546109f18161170b565b80845290600190818116908115610a6b5750600114610a2b575b610a2784610a1b818803826106f0565b604051918291826109bb565b0390f35b919350600260005283600020916000925b828410610a585750505081610a2793610a1b9282010193610a0b565b8054858501870152928501928101610a3c565b60ff1916858501525050151560051b8201019150610a1b81610a27610a0b565b9060206107f59281815201906104da565b503461000e57602036600319011261000e57610ab6610422565b610abe612a16565b50610ac8816129f5565b15610b035760018060a01b0316600052600b602052610a27610af7610af16040600020546120c5565b50612a3b565b60405191829182610a8b565b60405162461bcd60e51b815260206004820152601960248201527847616d6520746f6b656e20646f65736e27742065786973742160381b6044820152606490fd5b503461000e57602060ff610100610b62610b5d366107cb565b612c3f565b015116604051908152f35b503461000e576020610994610b81366107cb565b612a7c565b60031115610b9057565b634e487b7160e01b600052602160045260246000fd5b906003821015610b905752565b6000915b60028310610bc457505050565b81516001600160a01b031681526001929092019160209182019101610bb7565b906107f590610bf4818451610ba6565b60208301516020820152610120610c67610c1d60408601516101408060408701528501906104b5565b610c2f60608701516060860190610bb3565b60808601516001600160a01b031660a085015260a08601516001600160a01b031660c085015260c086015184820360e08601526104b5565b610c8060e08601519161010092858203848701526104b5565b94015160ff16910152565b9060206107f5928181520190610be4565b503461000e57610a27610cb1610b5d366107cb565b604051918291602083526020830190610be4565b503461000e57600036600319011261000e576020600654604051908152f35b503461000e57610cf3366107cb565b610d04610cff336128da565b612f20565b610d1c610d17610d1383612a7c565b1590565b6132b0565b6040516020810190610d4081610d3285856109bb565b03601f1981018352826106f0565b51902090610d4c61074d565b33815290610dbe600093846020850152610d64613209565b92610d6d613209565b610d75610711565b87815260208101939093526040830182815260608401968752336080850152948760a085015260c084015260e083015285610100830152610db8600f5491612037565b55613351565b5190516001600160a01b0390610ddf906020015b516001600160a01b031690565b16907f5da93d412071ca49c5b3543268fc9249b407b8de53c1589d76d6532f0a5b7df860405180610e113394826109bb565b0390a380f35b503461000e57610a27610e31610e2c366107cb565b612c64565b6040519182916020835260208301906104b5565b6020906001600160401b038111610e5e575b60051b0190565b610e6661067b565b610e57565b81601f8201121561000e57803591610e8283610e45565b92610e9060405194856106f0565b808452602092838086019260051b82010192831161000e578301905b828210610eba575050505090565b81358152908301908301610eac565b503461000e5760a036600319011261000e57610ee3610422565b610eeb610438565b906001600160401b039060443582811161000e57610f0d903690600401610e6b565b9160643581811161000e57610f26903690600401610e6b565b9060843590811161000e57610f3f903690600401610784565b6001600160a01b038381169491903386148015611062575b610f60906143de565b610f6d8351855114614515565b8616610f7a811515614441565b610f8684848988614b6d565b60005b835181101561101c5780610fa06110179286614301565b516110106110088b61091e610fb5868c614301565b51948c610ff787610fd48361091e866000526000602052604060002090565b54610fe18282101561449b565b039161091e846000526000602052604060002090565b556000526000602052604060002090565b918254614508565b9055613259565b610f89565b5093869194611060966040517f4a39dc06d4c0dbc64b70af90fd698a233a518aa5d07e595d983b8c0526c8f7fb3391806110578a8a83614572565b0390a433614a7f565b005b50600086815260016020908152604080832033845290915290205460ff16610f57565b503461000e57604036600319011261000e576004356001600160f81b03198116810361000e576024356001600160401b03811161000e576110ca903690600401610784565b906110d482612c3f565b6110f3600182516110e481610b86565b6110ed81610b86565b146138c0565b6111136002825161110381610b86565b61110c81610b86565b141561393c565b60608101805180516001600160a01b039492936111ff939092610d32926111e8929161114e9189908116331491821561139e575b5050613997565b61118361117c61117060806111628c612c3f565b01516001600160a01b031690565b6001600160a01b031690565b33146139e3565b61010084016111a2600660ff61119a845160ff1690565b161115613a25565b60c08501976111bb838a516111b561368c565b906140bb565b9099528815978861124d575b50506040516001600160f81b03199092166020830152509182906021820190565b6111f760e08301918251613ab7565b9052846137c7565b7fe212ed376777ebdfaa9739efc3d6eed905003d9d42dff523214c309a7396a61f61123b61122c85612c64565b926040519182911594826109bb565b0390a261124457005b61106090613b34565b6113409281611296611273610dd261128d61127361132a975160018060a01b0390511690565b6001600160a01b03166000908152600a6020526040902090565b54935160200190565b546112a18183614c82565b6112bb6112ad83612802565b50546001600160a01b031690565b60808b0180519096919082906112d9906001600160a01b0316611170565b911603611348575050600361130882826112f561131095612802565b50016113018154613129565b9055612802565b500154614bea565b61132361131e825160ff1690565b613a94565b60ff169052565b6113338a613af8565b6001600160a01b03169052565b3880806111c7565b9091506113576112ad83612802565b855190919061136e906001600160a01b0316611170565b91160361138d57600361130882826112f561138895612802565b611310565b50611388611399613a62565b614c4f565b60200151166001600160a01b0316905033148838611147565b503461000e577fa8a13d5362cedeaaf8906a83b0afcab2c07c8bdac8a04ed19d273c4307f260bd61140c6113ea366107cb565b6113f26141eb565b6114036113fe82614025565b613f5e565b610e3181613fba565b0390a1005b90815180825260208080930193019160005b828110611431575050505090565b835185529381019392810192600101611423565b9060206107f5928181520190611411565b503461000e57604036600319011261000e576004356001600160401b0380821161000e573660238301121561000e57816004013561149381610e45565b926114a160405194856106f0565b81845260209160248386019160051b8301019136831161000e57602401905b8282106114f9578560243586811161000e57610a27916114e76114ed923690600401610e6b565b90614323565b60405191829182611445565b8380916115058461044e565b8152019101906114c0565b503461000e57602036600319011261000e57600435600052600460205260206040600020541515604051908152f35b503461000e5760206001600160a01b036080610b62610b5d366107cb565b9060018060a01b038251168152608080611586602085015160a0602086015260a08501906104b5565b9360408101516040850152606081015160608501520151151591015290565b503461000e57602036600319011261000e57610a276115ca6115c5610422565b612958565b60405191829160208352602083019061155d565b503461000e576000806003193601126105f757600f546115fd81610e45565b9061160b60405192836106f0565b808252600f835260209283830191817f8d1108e10bcb7c27dddfc02ed9d693a074039d026cf4ea4240b40f7d581ac802845b8383106116a25750505050604051928484019085855251809152604084019460408260051b8601019392955b8287106116765785850386f35b909192938280611692600193603f198a82030186528851610be4565b9601920196019592919092611669565b600a886001926116b5859b9a989b612b92565b8152019201920191909693959661163d565b50634e487b7160e01b600052603260045260246000fd5b600f548110156116fe575b600f600052600a602060002091020190600090565b6117066116c7565b6116e9565b90600182811c9216801561173b575b602083101461172557565b634e487b7160e01b600052602260045260246000fd5b91607f169161171a565b90600092918054916117568361170b565b9182825260019384811690816000146117b85750600114611778575b50505050565b90919394506000526020928360002092846000945b8386106117a4575050505001019038808080611772565b80548587018301529401938590820161178d565b9294505050602093945060ff191683830152151560051b01019038808080611772565b9061073e6117ef9260405193848092611745565b03836106f0565b96929561185f9461182d60e098611851956118178c9d9e9d60ff9b97610ba6565b60208c01526101008060408d01528b01906104b5565b6001600160a01b0391821660608b01529216608089015287820360a08901526104b5565b9085820360c08701526104b5565b9416910152565b503461000e57602036600319011261000e57600435600f5481101561000e5761188e906116de565b5060ff815416610a27600183015492604051906118b2826117ef8160028501611745565b60058101546006820154604051916001600160a01b0391821691166118e5836118de8160078801611745565b03846106f0565b6118ff60096118f6600887016117db565b95015460ff1690565b94604051988998896117f6565b50634e487b7160e01b600052600060045260246000fd5b503461000e576000806003193601126105f757604051816005546119468161170b565b808452906001908181169081156119c8575060011461196f57610a2784610a1b818803826106f0565b60058352602094507f036b6384b5eca791c62761152d0c79bb0604c104a5fb6f4eb0703f3154bb3db05b8284106119b55750505081610a2793610a1b9282010193610a0b565b8054858501870152928501928101611999565b610a279650610a1b9450602092508593915060ff191682840152151560051b82010193610a0b565b503461000e57600036600319011261000e57602060405160028152f35b503461000e576000806003193601126105f757611a286141eb565b600380546001600160a01b0319811690915581906001600160a01b03167f8be0079c531659141344cd1fd0a4f28419497f9722a3daafe3b4186f6b6457e08280a380f35b503461000e57604036600319011261000e576001600160401b0360043581811161000e57611a9e903690600401610784565b9060243590811161000e57611ab7903690600401610784565b611ac0336128da565b611b4357611b0e90600d54611af9611ad6610731565b338152856020820152600a60408201526006606082015260006080820152612e54565b336000908152600a6020526040902055612f6c565b7f81ef79d1cda814a60c0fc60792e648a06d9c6bae67176346d1cc8b63030bfccd60405180611b3e3394826109bb565b0390a2005b60405162461bcd60e51b8152602060048201526019602482015278141b185e595c88185b1c9958591e481c9959da5cdd195c9959603a1b6044820152606490fd5b503461000e57602036600319011261000e576001600160a01b03611ba6610422565b16600052600a6020526020604060002054604051908152f35b503461000e57600036600319011261000e576003546040516001600160a01b039091168152602090f35b503461000e57611c27611bfb366107cb565b610b5d81604051611c0b816106d5565b600a81526971756974426174746c6560b01b6020820152614cb3565b60608101908151611c4d60018060a01b0391828151163314908115611c79575b50613cad565b82515116338103611c6f5750611c6a610dd2611060935160200190565b613d53565b6110609250613d53565b6020015133915083166001600160a01b03161438611c47565b503461000e57600036600319011261000e57602060405160058152f35b503461000e57611060611cc1366107cb565b612f6c565b503461000e57611cd5366107cb565b611cdd612a8f565b50611ce781612c3f565b8051611cf281610b86565b611cfb81610b86565b15611d059061345d565b606081018051516001600160a01b039190611d249083163314156134a3565b611d2d33612958565b60800151611d3b90156134f9565b600183528051336020909101528051516001600160a01b03908116608085015260075416611d6885612037565b546040516325e41da160e01b8152600481019190915260209390918490839060249082905afa9185831597611df0611dea611de57fcb17c4d26368c123b39a5b879cf729cad76aa10dfe5b9cd5355296f2732b860397611e4f96610a279d611f1a575b600091611eed575b506008548b811015611ee5579061315b565b613555565b5061357e565b611e00611dfb61368c565b61384c565b96611e45611e25611e1760c086019a808c52613747565b516001600160f81b03191690565b6040516001600160f81b0319909116928101928352918290600101610d32565b60e08301526137c7565b611e618451611e5c61377c565b614cb3565b825151611e9690600490611e8790611e81906001600160a01b0316611273565b54612802565b5001805460ff19166001179055565b611eaf6004611e87611e81611273610dd2885160200190565b60408501519251516001600160a01b0316935190611ed660405192839233971695836137a2565b0390a360405191829182610c8b565b508a9061315b565b611f0d91508b3d8d11611f13575b611f0581836106f0565b810190613539565b38611dd3565b503d611efb565b611f22613548565b611dcb565b503461000e57604036600319011261000e57611f41610422565b602435801515810361000e576001600160a01b03821691338314611fc9573360009081526001602090815260408083206001600160a01b03909416835292905220611f97908260ff801983541691151516179055565b604051901515815233907f17307eab39ab6107e8899845ad3d59bd9653f200f220920489ca2b5937696c3190602090a3005b60405162461bcd60e51b815260206004820152602960248201527f455243313135353a2073657474696e6720617070726f76616c20737461747573604482015268103337b91039b2b63360b91b6064820152608490fd5b9061203360209282815194859201610492565b0190565b6020612050918160405193828580945193849201610492565b8101600c81520301902090565b503461000e57602061208581612072366107cb565b8160405193828580945193849201610492565b8101600c81520301902054604051908152f35b503461000e57602036600319011261000e5760043560005260046020526020604060002054604051908152f35b600e548110156120e5575b600e60005260206000209060021b0190600090565b6120ed6116c7565b6120d0565b503461000e57602036600319011261000e57600435600e5481101561000e5761211d612155916120c5565b5060405190612130826117ef8184611745565b60018101549060036002820154910154906040519485946080865260808601906104b5565b926020850152604084015260608301520390f35b503461000e57602036600319011261000e576020610994612188610422565b6129f5565b503461000e5760208060031936011261000e576121ab600435613e8c565b604051906000926005546121be8161170b565b906001908181169081156122465750600114612205575b602f60f81b8652610a2785610a1b81610d326121f460018c018a612020565b64173539b7b760d91b815260050190565b90919450600560005284600020906000915b8383106122335750505082019092019181610d326121f46121d5565b8054868401880152918601918101612217565b60ff191684870152505080151502830101925081610d326121f46121d5565b503461000e57610a27612277366107cb565b6122836113fe82614025565b6007546040516325e41da160e01b815260006004820152610a1b916122e0916122da91611de59190602090829060249082906001600160a01b03165afa908115612304575b6000916122e6575b506008549061315b565b506117db565b91613fba565b6122fe915060203d8111611f1357611f0581836106f0565b386122d0565b61230c613548565b6122c8565b503461000e57600036600319011261000e57602060405160008152f35b503461000e57610a276008610e3161236761236161234b366107cb565b61235c61235782612a7c565b612b05565b612037565b546116de565b506123786040518094819301611745565b03826106f0565b503461000e57600036600319011261000e57602060405160018152f35b503461000e57604036600319011261000e57602060ff6123ee6123bd610422565b6123c5610438565b6001600160a01b0391821660009081526001865260408082209290931681526020919091522090565b54166040519015158152f35b503461000e576000806003193601126105f757600d5461241981610e45565b9061242760405192836106f0565b808252600d835260209283830191817fd7b6990105719101dabeb77144f2a3385c8033acd3af97e9423a695e81ad1eb5845b8383106124be5750505050604051928484019085855251809152604084019460408260051b8601019392955b8287106124925785850386f35b9091929382806124ae600193603f198a8203018652885161155d565b9601920196019592919092612485565b6005886001926124d1859b9a989b612900565b81520192019201919096939596612459565b503461000e57600036600319011261000e57602060405160048152f35b503461000e5760a036600319011261000e5761251a610422565b612522610438565b6064356044356084356001600160401b03811161000e57612547903690600401610784565b6001600160a01b038581169591949190338714801561271b575b61256a906143de565b82168015966125798815614441565b61258285614aeb565b9761258c87614aeb565b9082156126bf575b61263d575b506110609750856125b88461091e886000526000602052604060002090565b546125c58282101561449b565b036125de8461091e886000526000602052604060002090565b556125f78461091e876000526000602052604060002090565b612602878254614508565b9055604080518681526020810188905233917fc3d58168c5ae7397731d063d5bbf3d657854427343f4c083240f7aacaa2d0f6291a433614959565b959391600097959391975b89518110156126ac578061265f6126a7928c614301565b516126a161266d838c614301565b51612682836000526004602052604060002090565b5461268f82821015614b10565b03916000526004602052604060002090565b55613259565b612648565b5091939550919395611060975038612599565b9896939095926000989592985b885181101561270b5780896110106110086126f5846126ee612706978f614301565b5194614301565b516000526004602052604060002090565b6126cc565b5092959093969897919497612594565b50600087815260016020908152604080832033845290915290205460ff16612561565b503461000e57602036600319011261000e57612758610422565b6127606141eb565b6001600160a01b039081169081156127ae57600380546001600160a01b031981168417909155167f8be0079c531659141344cd1fd0a4f28419497f9722a3daafe3b4186f6b6457e0600080a3005b60405162461bcd60e51b815260206004820152602660248201527f4f776e61626c653a206e6577206f776e657220697320746865207a65726f206160448201526564647265737360d01b6064820152608490fd5b600d54811015612822575b600d6000526005602060002091020190600090565b61282a6116c7565b61280d565b93906080939695926128569160018060a01b0316865260a0602087015260a08601906104b5565b95604085015260608401521515910152565b503461000e57602036600319011261000e57600435600d5481101561000e5761289090612802565b5060018060a01b03815416610a27604051926128ba846128b38160018501611745565b03856106f0565b60028101549060ff6004600383015492015416916040519586958661282f565b6001600160a01b03166000908152600a60205260409020546128fb57600090565b600190565b9060405161290d81610692565b608060ff6004839560018060a01b038154168552604051612935816123788160018601611745565b602086015260028101546040860152600381015460608601520154161515910152565b6000608060405161296881610692565b828152606060208201528260408201528260608201520152612989816128da565b156129b8576001600160a01b03166000908152600a602052604090206107f5906129b290611e81565b50612900565b60405162461bcd60e51b8152602060048201526015602482015274506c6179657220646f65736e27742065786973742160581b6044820152606490fd5b6001600160a01b03166000908152600b60205260409020546128fb57600090565b60405190612a23826106ba565b60006060838181528260208201528260408201520152565b90604051612a48816106ba565b606060038294604051612a5f816123788185611745565b845260018101546020850152600281015460408501520154910152565b612a8590612037565b546128fb57600090565b6040519061012082018281106001600160401b03821117612af8575b60405260006101008382815282602082015260606040820152604051612ad0816106d5565b604036823760608201528260808201528260a0820152606060c0820152606060e08201520152565b612b0061067b565b612aab565b15612b0c57565b60405162461bcd60e51b8152602060048201526015602482015274426174746c6520646f65736e27742065786973742160581b6044820152606490fd5b6003821015610b905752565b60405191906000835b60028210612b725750505061073e826106d5565b82546001600160a01b031681526001928301929190910190602001612b5e565b9061073e612c346009612ba3610711565b94612bb8612bb2825460ff1690565b87612b49565b60018101546020870152612bce600282016117db565b6040870152612bdf60038201612b55565b606087015260058101546001600160a01b0316608087015260068101546001600160a01b031660a0870152612c16600782016117db565b60c0870152612c27600882016117db565b60e0870152015460ff1690565b60ff16610100840152565b612c5e6123616107f592612c51612a8f565b5061235c61235782612a7c565b50612b92565b6107f561236761236160079361235c61235782612a7c565b601f8111612c88575050565b6000906002825260208220906020601f850160051c83019410612cc6575b601f0160051c01915b828110612cbb57505050565b818155600101612caf565b9092508290612ca6565b601f8111612cdc575050565b6000906009825260208220906020601f850160051c83019410612d1a575b601f0160051c01915b828110612d0f57505050565b818155600101612d03565b9092508290612cfa565b90601f8111612d3257505050565b600091825260208220906020601f850160051c83019410612d6e575b601f0160051c01915b828110612d6357505050565b818155600101612d57565b9092508290612d4e565b91909182516001600160401b038111612e47575b612da081612d9a845461170b565b84612d24565b602080601f8311600114612ddc575081929394600092612dd1575b50508160011b916000199060031b1c1916179055565b015190503880612dbb565b90601f19831695612df285600052602060002090565b926000905b888210612e2f57505083600195969710612e16575b505050811b019055565b015160001960f88460031b161c19169055388080612e0c565b80600185968294968601518155019501930190612df7565b612e4f61067b565b612d8c565b61073e9060046080600d54600160401b811015612f13575b6001810180600d55811015612f06575b600d60005283516005919091027fd7b6990105719101dabeb77144f2a3385c8033acd3af97e9423a695e81ad1eb50180546001600160a01b0319166001600160a01b039290921691909117815592612edb602082015160018601612d78565b60408101516002850155606081015160038501550151151591019060ff801983541691151516179055565b612f0e6116c7565b612e7c565b612f1b61067b565b612e6c565b15612f2757565b60405162461bcd60e51b815260206004820152601c60248201527f506c6561736520526567697374657220506c61796572204669727374000000006044820152606490fd5b6080612f7733612958565b01516130d557612f89610cff336128da565b612f91612a16565b50612f9b33613269565b612fa481613140565b600660ff612fee612fe86040516020810190612fde81610d32334286909160349282526001600160601b03199060601b1660208201520190565b5190206064900690565b60ff1690565b16069160ff8316156130a0575b61306e7fca8ab07e9ed17d119729fc652dd24df9d8430ca862dda4631925b5b4b99da3629394613029610740565b90815260ff86169081602082015283604082015284606082015261304f600e5491613195565b336000908152600b602052604090205561306761323a565b9033614597565b61308161307c600654613259565b600655565b6040805160ff95909516855260208501919091528301523391606090a2565b61306e6130cd7fca8ab07e9ed17d119729fc652dd24df9d8430ca862dda4631925b5b4b99da3629461317b565b935050612ffb565b60405162461bcd60e51b8152602060048201526015602482015274506c6179657220697320696e206120626174746c6560581b6044820152606490fd5b50634e487b7160e01b600052601160045260246000fd5b60001981019190821161313857565b61073e613112565b600a0390600a821161313857565b9190820391821161313857565b8115613165570690565b634e487b7160e01b600052601260045260246000fd5b60ff6001911660ff811461318d570190565b612033613112565b60036060600e54600160401b8110156131fc575b6001810180600e558110156131ef575b600e60005260206000209060021b01926131d4815185612d78565b60208101516001850155604081015160028501550151910155565b6131f76116c7565b6131b9565b61320461067b565b6131a9565b60405190602082018281106001600160401b0382111761322d575b60405260008252565b61323561067b565b613224565b60405190613247826106d5565b600382526203078360ec1b6020830152565b600190600019811461318d570190565b600a9060405160208101914483524260408301526001600160601b03199060601b1660608201526054815261329d816106ba565b5190200680156132aa5790565b50600590565b156132b757565b60405162461bcd60e51b8152602060048201526016602482015275426174746c6520616c7265616479206578697374732160501b6044820152606490fd5b906003811015610b905760ff80198354169116179055565b90600a820291808304600a149015171561313857565b9060005b6002811061333457505050565b81516001600160a01b031681840155602090910190600101613327565b61073e906009613432610100600f54600160401b811015613450575b6001810180600f55811015613443575b600f600052600a6020600020910201936133a1815161339b81610b86565b866132f5565b602081015160018601556133bc604082015160028701612d78565b6133cd606082015160038701613323565b60808101516005860180546001600160a01b039283166001600160a01b03199182161790915560a083015160068801805491909316911617905560c08101516134199060078701612d78565b61342a60e082015160088701612d78565b015160ff1690565b91019060ff1660ff19825416179055565b61344b6116c7565b61337d565b61345861067b565b61336d565b1561346457565b60405162461bcd60e51b8152602060048201526017602482015276426174746c6520616c726561647920737461727465642160481b6044820152606490fd5b156134aa57565b60405162461bcd60e51b815260206004820152602160248201527f4f6e6c7920706c617965722074776f2063616e206a6f696e206120626174746c6044820152606560f81b6064820152608490fd5b1561350057565b60405162461bcd60e51b8152602060048201526011602482015270416c726561647920696e20626174746c6560781b6044820152606490fd5b9081602091031261000e575190565b506040513d6000823e3d90fd5b600854811015613571575b600860005260206000200190600090565b6135796116c7565b613560565b908160091461368857613591825461170b565b6001600160401b03811161367b575b6135b4816135af60095461170b565b612cd0565b6000601f82116001146135ee578192936000926135e3575b50508160011b916000199060031b1c191617600955565b0154905038806135cc565b613602601f19831694600052602060002090565b6009600052907f6e1540171b6c0c960b71a7020d9f60077f6af931a8bbf590da0223dacf75c7af91815b868110613663575083600195961061364a575b505050811b01600955565b015460001960f88460031b161c1916905538808061363f565b8183015484556001938401939092019160200161362c565b61368361067b565b6135a0565b9050565b60405190600082600954916136a08361170b565b80835260019380851690811561372657506001146136c6575b5061073e925003836106f0565b600960009081527f6e1540171b6c0c960b71a7020d9f60077f6af931a8bbf590da0223dacf75c7af94602093509091905b81831061370e57505061073e9350820101386136b9565b855488840185015294850194879450918301916136f7565b905061073e94506020925060ff191682840152151560051b820101386136b9565b602090805115613755570190565b6120336116c7565b90602091805182101561376f57010190565b6137776116c7565b010190565b60405190613789826106d5565b600a8252691b585cdad95915dbdc9960b21b6020830152565b90916137b96107f5936040845260408401906104b5565b9160208184039101526104b5565b906137d182612a7c565b156138105760096134326101006137ed61236161073e96612037565b949094613803575b6133a1815161339b81610b86565b61380b61190c565b6137f5565b60405162461bcd60e51b815260206004820152601460248201527310985d1d1b1948191bd95cdb89dd08195e1a5cdd60621b6044820152606490fd5b600180805b61385a57505090565b82518110156138bb57613896906001600160f81b03198061387b838761375d565b5116908551156138ae575b6020860151160361389c57613259565b81613851565b605f6138a8828661375d565b53613259565b6138b66116c7565b613886565b505090565b156138c757565b60405162461bcd60e51b815260206004820152604160248201527f426174746c65206e6f7420737461727465642e20506c656173652074656c6c2060448201527f616e6f7468657220706c6179657220746f206a6f696e2074686520626174746c6064820152606560f81b608482015260a490fd5b1561394357565b60405162461bcd60e51b815260206004820152602660248201527f63686f73656e4c65747465723a20426174746c652068617320616c726561647960448201526508195b99195960d21b6064820152608490fd5b1561399e57565b60405162461bcd60e51b815260206004820152601a60248201527f596f7520617265206e6f7420696e207468697320626174746c650000000000006044820152606490fd5b156139ea57565b60405162461bcd60e51b815260206004820152601360248201527224ba1034b9903737ba103cb7bab9103a3ab93760691b6044820152606490fd5b15613a2c57565b60405162461bcd60e51b815260206004820152600e60248201526d546f6f206261642063686f69636560901b6044820152606490fd5b60405190613a6f826106d5565b601682527532b93937b91d1010afb334b7322732bba632ba3a32b960511b6020830152565b60ff60019116019060ff821161313857565b60ff166030019060ff821161313857565b602061073e919392936040519481613ad88793518092868087019101610492565b8201613aec82518093868085019101610492565b010380855201836106f0565b6060613b0382612c3f565b0160018060a01b0391826080613b1d828551511693612c3f565b01511603613b2e5751602001511690565b51511690565b613b3d90612c3f565b6060810180519060018060a01b039182808251163314918215613c9c575b505015613c435751338282511614918215613c31575b505015613bd957613b8d60c0820151613b8861368c565b61416f565b613bba575b507f6b5fd31b10b00ec94eb179707ba8b02caa87421f956fff0ee903bd6a22db99a4600080a1565b6080810151613bd291906001600160a01b0316613d53565b5038613b92565b60405162461bcd60e51b815260206004820152602a60248201527f5f7265736f6c7665426174746c653a596f7520617265206e6f7420696e207468604482015269697320626174746c652160b01b6064820152608490fd5b90915060203392015116143880613b71565b60405162461bcd60e51b815260206004820152602b60248201527f4f6e6c7920706c617965727320696e207468697320626174746c652063616e2060448201526a6d616b652061206d6f766560a81b6064820152608490fd5b602091925001511633148238613b5b565b15613cb457565b60405162461bcd60e51b815260206004820152602660248201527f71756974426174746c653a596f7520617265206e6f7420696e207468697320626044820152656174746c652160d01b6064820152608490fd5b15613d0f57565b606460405162461bcd60e51b815260206004820152602060248201527f5f656e64426174746c653a20426174746c6520616c726561647920656e6465646044820152fd5b613d5b612a8f565b50613d7c60028351613d6c81610b86565b613d7581610b86565b1415613d08565b600282526001600160a01b03811660a08301526040820190613d9f8383516137c7565b7fae6e5eafb6cd1cb4b139e7a0b9140aa182ee7d50e99f50d660156f79212acbc060608401613e476002613e31613de1611273855160018060a01b0390511690565b54613e3983613e31613dfa611273610dd28a5160200190565b5493613e166004613e0a83612802565b5001805460ff19169055565b613e2c6003613e2483612802565b500160069055565b612802565b5001600a9055565b613e166004613e0a83612802565b5180516001600160a01b03938416939182918216858103613e8357506020015116935b5193613e7d6040519283921695826109bb565b0390a390565b91505093613e6a565b8015613f40578060008281935b613f2c575081613ea88461075a565b93613eb660405195866106f0565b808552601f19613ec58261075a565b01366020870137905b613ed85750505090565b613ee190613129565b9182613f24613f1b613f0b613f06612fe8600a870496613f008861330d565b9061314e565b613aa6565b60f81b6001600160f81b03191690565b841a918661375d565b539182613ece565b92613f38600a91613259565b930480613e99565b50604051613f4d816106d5565b60018152600360fc1b602082015290565b15613f6557565b60405162461bcd60e51b815260206004820152602760248201527f4572726f722c20776f72642077697468206c6f77657263617365206c657474656044820152667273206f6e6c7960c81b6064820152608490fd5b60085461073e9190600160401b811015614018575b600181018060085581101561400b575b60086000527ff3f7a9fe364faab93b216da50a3214154f22a0a2b415b23a84c8169e8b636ee301612d78565b6140136116c7565b613fdf565b61402061067b565b613fcf565b6000805b60ff8116602081108061407d575b156140745761405b906001600160f81b031990614054908661375d565b5116614087565b1561406e576140699061317b565b614029565b50905090565b50505050600190565b5083518110614037565b60ff60f81b16606160f81b81101590816140ac575b50156140a757600190565b600090565b603d60f91b101590503861409c565b929160019160009183908390825b6140d8575b5050505090509190565b60ff86166020811080614165575b1561415f576001600160f81b0319806140ff838861375d565b5116818416149081614145575b50614127575b5061411f8394959661317b565b9594936140c9565b8394955061413882841a918a61375d565b5361411f83959450614112565b605f60f81b9150614156838c61375d565b5116143861410c565b506140ce565b50845181106140e6565b600180926000908282905b614187575b505050505090565b60ff811660208110806141e1575b156141db576001600160f81b03196141ba816141b1848a61375d565b5116928561375d565b5116036141d1575b6141cb9061317b565b8361417a565b91945084916141c2565b5061417f565b5085518110614195565b6003546001600160a01b031633036141ff57565b606460405162461bcd60e51b815260206004820152602060248201527f4f776e61626c653a2063616c6c6572206973206e6f7420746865206f776e65726044820152fd5b6001600160a01b03811615614277576000918252602082815260408084206001600160a01b03909316845291905290205490565b60405162461bcd60e51b815260206004820152602a60248201527f455243313135353a2061646472657373207a65726f206973206e6f742061207660448201526930b634b21037bbb732b960b11b6064820152608490fd5b906142d982610e45565b6142e660405191826106f0565b82815280926142f7601f1991610e45565b0190602036910137565b6020918151811015614316575b60051b010190565b61431e6116c7565b61430e565b91909180518351036143875761433981516142cf565b9060005b8151811015614380578061436b61435a610dd261437b9486614301565b6143648389614301565b5190614243565b6143758286614301565b52613259565b61433d565b5090925050565b60405162461bcd60e51b815260206004820152602960248201527f455243313135353a206163636f756e747320616e6420696473206c656e677468604482015268040dad2e6dac2e8c6d60bb1b6064820152608490fd5b156143e557565b60405162461bcd60e51b815260206004820152602e60248201527f455243313135353a2063616c6c6572206973206e6f7420746f6b656e206f776e60448201526d195c881bdc88185c1c1c9bdd995960921b6064820152608490fd5b1561444857565b60405162461bcd60e51b815260206004820152602560248201527f455243313135353a207472616e7366657220746f20746865207a65726f206164604482015264647265737360d81b6064820152608490fd5b156144a257565b60405162461bcd60e51b815260206004820152602a60248201527f455243313135353a20696e73756666696369656e742062616c616e636520666f60448201526939103a3930b739b332b960b11b6064820152608490fd5b906001820180921161313857565b9190820180921161313857565b1561451c57565b60405162461bcd60e51b815260206004820152602860248201527f455243313135353a2069647320616e6420616d6f756e7473206c656e677468206044820152670dad2e6dac2e8c6d60c31b6064820152608490fd5b90916145896107f593604084526040840190611411565b916020818403910152611411565b926001600160a01b038416928315614658576145b283614aeb565b926145bb614ab9565b9560005b85518110156145ec57806145d66145e7928a614301565b516110106110086126f5848b614301565b6145bf565b5091935091945061073e9361460f8261091e856000526000602052604060002090565b61461981546144fa565b9055604080518481526001602082015260009133917fc3d58168c5ae7397731d063d5bbf3d657854427343f4c083240f7aacaa2d0f629190a4336147f5565b60405162461bcd60e51b815260206004820152602160248201527f455243313135353a206d696e7420746f20746865207a65726f206164647265736044820152607360f81b6064820152608490fd5b9081602091031261000e57516107f5816105fa565b6107f5939260a092600180851b031682526000602083015260408201526001606082015281608082015201906104b5565b91926107f595949160a094600180871b0380921685521660208401526040830152606082015281608082015201906104b5565b60809060208152602860208201527f455243313135353a204552433131353552656365697665722072656a656374656040820152676420746f6b656e7360c01b60608201520190565b60009060033d1161477657565b905060046000803e60005160e01c90565b600060443d106107f557604051600319913d83016004833e81516001600160401b03918282113d6024840111176147e4578184019485519384116147ec573d850101602084870101116147e457506107f5929101602001906106f0565b949350505050565b50949350505050565b92919091823b6148055750505050565b61482c92602092600060405180968195829463f23a6e6160e01b9a8b8552600485016146bc565b03926001600160a01b03165af160009181614929575b506149015750506001614853614769565b6308c379a0146148d2575b61486c575b38808080611772565b60405162461bcd60e51b815260206004820152603460248201527f455243313135353a207472616e7366657220746f206e6f6e2d455243313135356044820152732932b1b2b4bb32b91034b6b83632b6b2b73a32b960611b6064820152608490fd5b0390fd5b6148da614787565b806148e5575061485e565b60405162461bcd60e51b81529081906148ce90600483016109bb565b6001600160e01b031916146148635760405162461bcd60e51b8152806148ce60048201614720565b61494b91925060203d8111614952575b61494381836106f0565b8101906146a7565b9038614842565b503d614939565b9493919092813b61496d575b505050505050565b60006020946149946040519788968795869463f23a6e6160e01b9c8d8752600487016146ed565b03926001600160a01b03165af160009181614a11575b506149e957505060016149bb614769565b6308c379a0146149d6575b61486c575b388080808080614965565b6149de614787565b806148e557506149c6565b6001600160e01b031916146149cb5760405162461bcd60e51b8152806148ce60048201614720565b614a2a91925060203d81116149525761494381836106f0565b90386149aa565b93906107f59593614a6391614a719460018060a01b03809216885216602087015260a0604087015260a0860190611411565b908482036060860152611411565b9160808184039101526104b5565b9493919092813b614a9257505050505050565b60006020946149946040519788968795869463bc197c8160e01b9c8d875260048701614a31565b604051614ac5816106d5565b600181526001602082016020368237825115614adf575290565b614ae76116c7565b5290565b60405190614af8826106d5565b60018252602082016020368237825115614adf575290565b15614b1757565b60405162461bcd60e51b815260206004820152602860248201527f455243313135353a206275726e20616d6f756e74206578636565647320746f74604482015267616c537570706c7960c01b6064820152608490fd5b919392916001600160a01b039190821615614bc1575b1615614b8e57509050565b60005b8351811015614bbb5780614ba8614bb69286614301565b516126a161266d8386614301565b614b91565b50509050565b929060005b8551811015614be257806145d6614bdd9286614301565b614bc6565b509092614b83565b61073e906040519063f82c50f160e01b6020830152602482015260248152606081018181106001600160401b03821117614c27575b604052614c34565b614c2f61067b565b614c1f565b600080916020815191016a636f6e736f6c652e6c6f675afa50565b610d32614c7d61073e9260405192839163104c13eb60e21b60208401526020602484015260448301906104b5565b614c34565b604051637b3338ad60e11b60208201526024810191909152604481019190915261073e90614c7d8160648101610d32565b90614c7d61073e92610d32604051938492634b5c427760e01b6020850152602484016137a256fea2646970667358221220fc9aa783e845f1b69bf46ba3d45a597126f321f4211ad5b1fa379211771cd99e64736f6c63430008110033405787fa12a823e0f2b7631cc41b3ba8828b3321ca811111fa75cd3aa3bb5acef3f7a9fe364faab93b216da50a3214154f22a0a2b415b23a84c8169e8b636ee3",
  "linkReferences": {},
  "deployedLinkReferences": {}
}