{
  "_format": "hh-sol-artifact-1",
  "contractName": "VRFv2Consumer",
  "sourceName": "contracts/VRFv2Consumer.sol",
  "abi": [
    {
      "inputs": [
        {
          "internalType": "uint64",
          "name": "_subscriptionId",
          "type": "uint64"
        },
        {
          "internalType": "address",
          "name": "_vrfCoordinator",
          "type": "address"
        },
        {
          "internalType": "address",
          "name": "_link",
          "type": "address"
        },
        {
          "internalType": "bytes32",
          "name": "_keyHash",
          "type": "bytes32"
        }
      ],
      "stateMutability": "nonpayable",
      "type": "constructor"
    },
    {
      "inputs": [
        {
          "internalType": "address",
          "name": "have",
          "type": "address"
        },
        {
          "internalType": "address",
          "name": "want",
          "type": "address"
        }
      ],
      "name": "OnlyCoordinatorCanFulfill",
      "type": "error"
    },
    {
      "inputs": [
        {
          "internalType": "uint256",
          "name": "index",
          "type": "uint256"
        }
      ],
      "name": "getRandomValue",
      "outputs": [
        {
          "internalType": "uint256",
          "name": "",
          "type": "uint256"
        }
      ],
      "stateMutability": "view",
      "type": "function"
    },
    {
      "inputs": [],
      "name": "owner",
      "outputs": [
        {
          "internalType": "address",
          "name": "",
          "type": "address"
        }
      ],
      "stateMutability": "view",
      "type": "function"
    },
    {
      "inputs": [
        {
          "internalType": "uint256",
          "name": "",
          "type": "uint256"
        }
      ],
      "name": "randomValues",
      "outputs": [
        {
          "internalType": "uint256",
          "name": "",
          "type": "uint256"
        }
      ],
      "stateMutability": "view",
      "type": "function"
    },
    {
      "inputs": [
        {
          "internalType": "uint256",
          "name": "requestId",
          "type": "uint256"
        },
        {
          "internalType": "uint256[]",
          "name": "randomWords",
          "type": "uint256[]"
        }
      ],
      "name": "rawFulfillRandomWords",
      "outputs": [],
      "stateMutability": "nonpayable",
      "type": "function"
    },
    {
      "inputs": [],
      "name": "requestId",
      "outputs": [
        {
          "internalType": "uint256",
          "name": "",
          "type": "uint256"
        }
      ],
      "stateMutability": "view",
      "type": "function"
    },
    {
      "inputs": [],
      "name": "requestRandomWords",
      "outputs": [],
      "stateMutability": "nonpayable",
      "type": "function"
    }
  ],
  "bytecode": "0x610140346100ca576001600160401b03601f61057c38819003918201601f1916840191838311858410176100cf578085926080946040528339810103126100ca57815190811681036100ca57610057602083016100e5565b6060610065604085016100e5565b930151928160805261010093845260018060a01b0380921660a0521660c0526101209033825260e0526040519061048292836100fa8439608051836102e2015260a0518360f8015260c05183505060e0518360aa015251826082015251816101c70152f35b600080fd5b634e487b7160e01b600052604160045260246000fd5b51906001600160a01b03821682036100ca5756fe6080604081815260048036101561001557600080fd5b600092833560e01c9081626d6cae146103cb575080631fe543e31461026957806325e41da1146101fa5780638da5cb5b146101b2578063dc5d2ebb146101785763e0c862891461006457600080fd5b3461016057826003193601126101605781516305d3b1d360e41b81527f0000000000000000000000000000000000000000000000000000000000000000918101919091527f000000000000000000000000000000000000000000000000000000000000000067ffffffffffffffff16602482015260036044820152620dbba060648201526020608482018190528160a481867f00000000000000000000000000000000000000000000000000000000000000006001600160a01b03165af190811561016c578391610137575b5060015551f35b90506020813d8211610164575b81610151602093836103e7565b81010312610160575138610130565b8280fd5b3d9150610144565b505051903d90823e3d90fd5b503461016057602036600319011261016057359180548310156101af57506101a160209261041f565b91905490519160031b1c8152f35b80fd5b5050346101f657816003193601126101f657517f00000000000000000000000000000000000000000000000000000000000000006001600160a01b03168152602090f35b5080fd5b5082346101af5760203660031901126101af57508035906020821015610226576020836101a18461041f565b606490602084519162461bcd60e51b8352820152601e60248201527f54686520696e646578206d757374206265206c657373207468616e20333200006044820152fd5b5034610160578160031936011261016057602490813567ffffffffffffffff928382116103c757366023830112156103c7578183013592848411610386578360051b928651906020956102be878701846103e7565b8252858201848196830101913683116103c35785889101915b8383106103b35750507f00000000000000000000000000000000000000000000000000000000000000006001600160a01b03169150503381900361039757505194851161038657600160401b85116103865750508454838655808410610361575b509084805280852090855b84811061034f57868651f35b83518382015592810192600101610343565b8580528383872091820191015b81811061037b5750610338565b86815560010161036e565b634e487b7160e01b87526041905285fd5b905060449287519263073e64fd60e21b84523390840152820152fd5b82358152918101918891016102d7565b8a80fd5b8580fd5b8490346101f657816003193601126101f6576020906001548152f35b90601f8019910116810190811067ffffffffffffffff82111761040957604052565b634e487b7160e01b600052604160045260246000fd5b9060009182548110156104385782805260208320019190565b634e487b7160e01b83526032600452602483fdfea264697066735822122019520762125a0e2b2001809478516548118497aa6cf5f99af52e04a3fafa11dd64736f6c63430008100033",
  "linkReferences": {},
  "deployedLinkReferences": {}
}